:10400000007F00208D9900003598000089990000FC
:104010008999000089990000899900008999000018
:10402000000000000000000000000000899900006E
:10403000899900000000000089990000899900001A
:104040000000000000000000000000000000000070
:104050000000000000000000000000000000000060
:104060000000000000000000000000000000000050
:104070000000000000000000000000000000000040
:104080000000000000000000000000000000000030
:104090000000000000000000000000000000000020
:1040A0000000000000000000000000000000000010
:1040B0000000000000000000000000000000000000
:1040C00010B5054C237833B9044B13B10448AFF352
:1040D00000800123237010BDD002002000000000EA
:1040E000903A010008B5034B1BB103490348AFF3F5
:1040F000008008BD00000000D4020020903A0100BA
:1041000070B50446064B44F8043B0B1D05460E46AD
:104110000FCB84E80F00337D2B75284670BD00BFA0
:104120002C2E0100022110B5084608F04FF902219B
:10413000032008F04BF90221042008F047F902217E
:10414000082008F043F90221092008F03FF9022174
:104150000A2008F03BF90121052008F037F9012178
:10416000062008F033F90121072008F02FF901217A
:104170000B2008F02BF901210C2008F027F9012170
:104180000D2008F023F90024022CD4BF601D04F197
:1041900008000021C0B2013408F030F9062CF3D138
:1041A00010BDFFFF052811D8DFE800F00306080A5C
:1041B0000C0E074B18687047064BFBE7064BF9E7F8
:1041C000064BF7E7064BF5E7064BF3E70648704763
:1041D0000000002004000020080000200C00002047
:1041E0001000002014000020E72701002DE9F8430B
:1041F00008F0EAF90D4D002406462F46A04655F872
:1042000024304FEA840963B1B3420AD8022CD4BFE8
:10421000601D04F108000021C0B208F0EFF847F873
:1042200009800134062CEAD1BDE8F8830803002098
:10423000124B1B7810B5A3B9114C08F0C5F92368CF
:10424000C01AB0F57A7F0BD90E4B197881F00101B5
:1042500019700D4B187808F0D1F808F0B5F9206006
:1042600010BD094C207808F0D5F80128F8D1207845
:104270000021BDE8104008F0C1B800BFAC09002023
:10428000B0090020B40900206C00002070B502269F
:104290000024022CD4BF651D04F10805EDB20121F4
:1042A000284608F0ABF8322008F04AF90134002122
:1042B000284608F0A3F8062CEBD10524022CD4BF25
:1042C000651D04F10805EDB20121284608F096F8B5
:1042D000322008F035F90021284608F08FF814F153
:1042E000FF34EBD2012E00D170BD0126D0E7FFFFD5
:1042F00007B563230093A8220023C0210C4807F0D0
:1043000001FA01230093A8220023C021094807F0E5
:10431000F9F900230093FF231A461946064807F0CF
:10432000F1F9064803B05DF804EB01F085BC00BF6D
:1043300020030020EC020020B4030020CC03002066
:1043400000B54FF4E13193B0264806F033FC4FF44A
:104350007A7008F0F5F82449224807F071FB2349E8
:10436000204807F055FB22491E4807F07DFB2149F4
:104370001C4807F04DFB204B1A48196807F06AFBF0
:10438000FFF7D0FE1D4800230121C2180C33782B03
:104390001172FAD11A49134807F052FB1949114812
:1043A00007F04EFB12496846FFF7AAFE164906A819
:1043B000FFF7A6FE15490CA8FFF7A2FE0CAB06AA54
:1043C0006946134801F00CFA124B11481A68124B57
:1043D000196801F06DFA08F0F7F8104B186013B087
:1043E0005DF804FB040E00204A250100752501003C
:1043F00020030020822501006000002038030020F7
:104400008F250100A8250100EC020020B403002044
:10441000500A0020640000206800002004030020EF
:1044200030B5514C237893B08BB1504801F010FA5D
:1044300003280AD04E494F4807F002FB4E4A4F4826
:1044400000232370137001F0DBFC13B030BD4C4D22
:1044500008F0BAF82B68C01A41F288339842F4D9B0
:1044600008F0B2F82860414801F0F2F903283BD186
:10447000012344493F48237007F0E2FA42493D488E
:1044800007F0C6FA39490CA801F07AFA0CA93948A4
:1044900007F0EAFA35490CA801F072FA3B490CA87A
:1044A00007F05FFA18B93A49324807F0C9FA42F200
:1044B000B821324801F0DCFB2F4B36492D48012250
:1044C0001A7007F0BDFA344B2C48196842F2B82232
:1044D00001F00EFD3149294807F09EFA274801F006
:1044E0007BFDFFF7D3FEB0E72D4C22680C20013294
:1044F000226092FBF0F100FB1122E2B929491D482C
:1045000007F086FA21496846FFF7FAFD264906A812
:10451000FFF7F6FD25490CA8FFF7F2FD0CAB06AA44
:104520006946124801F05CF9214B10481A68214B8A
:10453000196801F0BDF921683C2291FBF2F302FBFE
:104540001313002B81D11C490A4807F061FA216836
:1045500008480C230A2291FBF3F107F0CFFA174920
:10456000044807F06DFA70E7AC090020500A0020FB
:1045700060240100040E0020A4090020CC030020C8
:10458000040300207E240100972401002003002062
:10459000A5240100D124010060000020DE240100D8
:1045A000A80900207C240100EC020020B4030020B4
:1045B0006400002068000020FC2401001025010098
:1045C0002DE9F8432B4904462B4807F021FA0A222B
:1045D000611C294807F092FA022CD4BF601D04F137
:1045E00008000121C0B207F009FF07F0EDFF234BDF
:1045F000C83043F82400224B93F80080B8F1000F34
:104600001BD02046FFF7CEFD1E4B044619681E48FE
:1046100042F2B82201F06CFC21461B4807F0FCF97D
:10462000194801F0D9FC1949134807F0F1F921465E
:104630001148BDE8F84307F00DBA154E3368092B51
:1046400016DC0C256B43134FFC5007EB030907F0F6
:10465000BBFF33681049C9F8040005FB037501333B
:1046600085F8088033600448BDE8F84307F0E8B9EE
:104670000A49F8E749240100040E0020080300203D
:10468000AC09002060000020CC03002014240100AD
:10469000B003002038030020192401003024010059
:1046A00073B5022007F0B6FE003018BF01208DF868
:1046B0000000032007F0AEFE003018BF01208DF887
:1046C0000100042007F0A6FE003018BF01208DF87D
:1046D0000200082007F09EFE003018BF01208DF870
:1046E0000300092007F096FE003018BF01208DF866
:1046F00004000A2007F08EFE003018BF0120134C82
:104700008DF8050000251DF805602378B34202D01E
:1047100007F05AFF606007F057FF6368C01A32283D
:104720000CD96378B34209D066703EB907F04CFFEC
:104730002846FFF745FF07F047FFA0600135062D2B
:1047400004F80C6BDFD102B070BD00BF1800002070
:104750002DE9F04700241F4FDFF890A01E4E25469C
:1047600007EB040999F8083003BBE059FFF71AFD7D
:1047700042F2B8228046DAF80010304601F0B8FB69
:104780004146304607F048F9304601F025FC012348
:1047900089F80830114912481D4407F039F941469B
:1047A0000F4807F057F9322007F0CAFE0C34782C76
:1047B000D6D16DB10B4B0C49094800221A6007F0A5
:1047C00027F929460A220648BDE8F04707F098B9BC
:1047D000BDE8F08738030020CC0300201625010037
:1047E000040E0020B00300202B25010060000020F3
:1047F00008B5FFF715FEFFF753FFFFF7F7FC084B6F
:104800001B782BB1074B1B68002B01DDFFF7A0FFC6
:10481000FFF70EFD0520BDE8084007F091BE00BF80
:10482000AC090020B003002008B50368002B02DAB1
:1048300009480AF000F88B4208D949008B4205D29A
:104840000029B6BF6FF00043016003600068BDE857
:104850000840013009F0DBBF5127010010B50446C4
:10486000406828B163781BB940F2AC4109F0BEFF43
:10487000204610BD08B4F3B507AB044600F10C05A3
:1048800053F8042B0193802128460BF0CDFDD4F87A
:104890009000A8B194F89430012B11D90F4907F07A
:1048A000BBF8D4F89060336828465F680BF0E8FCEA
:1048B000294602463046B847D4F8900007F0BAF8C7
:1048C000284664680BF0DCFC29460246204606F0C8
:1048D00087FA02B0BDE8F04001B07047A1260100A0
:1048E000034653F8080B984201D009F07DBF70478A
:1048F000F8B50646456808460F460BF0C1FCA842CD
:10490000024628BF2A46044622B1394630680AF0DA
:10491000AFFE00B9281BF8BD012A30B404D191F9CB
:104920000030037030BC7047002AFBD030BC0AF066
:10493000AEBEFFFF00F1080373B5044603600D46E9
:10494000D1B108460BF09CFC0F280646019006D911
:10495000002101A8FFF768FF019B2060A360324699
:1049600029462068FFF7D8FF019B22686360002179
:104970002046D15402B070BD014809F059FF00BF74
:10498000692701002DE9F347DDF8288016464268C3
:104990009A46A8EB0603571A13440268019300F1E4
:1049A00008039A420D46044614BF81680F2101A8EE
:1049B000FFF73AFFBF1B81461DB12A462168FFF76A
:1049C000ABFFBAF1000F08D0B8F1000F05D0424696
:1049D000514609EB0500FFF79FFF47B121682E44C0
:1049E00005EB08003A4631444844FFF795FF20465E
:1049F000FFF776FF019BC4F80090A36002B0BDE80A
:104A0000F087F7B50268466800F108039A4218BFBC
:104A1000836806F1010508BF0F239D4204460F4637
:104A200006D90123009300231A463146FFF7AAFF57
:104A300023689F552368656000225A5503B0F0BD76
:104A4000012A30B404D191F90030037030BC7047B2
:104A5000002AFBD030BC0AF025BEFFFF2DE9F74F3E
:104A60008146144640680C9E02F10042013A121A37
:104A70009642984602D9374809F0DDFE4A46A6EB31
:104A8000040B52F8083B934218BFD9F808200BEBEF
:104A9000000A08BF0F22524552D35F189845A0EB79
:104AA0000101A1EB040522D3034498451FD876BB2E
:104AB00095B1B44210D02A463919B819FFF7C0FF92
:104AC000B44209D23C4408EB06039C4227D3324649
:104AD00041463846FFF7B4FFD9F80030C9F804A0C2
:104AE0000022484603F80A2003B0BDE8F08F35B134
:104AF000B44204D02A463919B819FFF7A1FF002E95
:104B0000EAD0324641463846FFF706FFE4E7B442B2
:104B10001DD3324641463846FFF792FFC8E7444569
:104B200003D8324608EB0B01EDE7A4EB080422465C
:104B300041463846FFF784FF321BB9193819E3E7BD
:104B40000096434622464846FFF71CFFC4E7002D67
:104B5000B8D0B0E73827010037B5044608460D46FF
:104B60000BF08EFB2B460090626800212046FFF779
:104B700075FF03B030BDFFFF2DE9F04F8FB00AABDA
:104B800003910646089398490398002309938DF8EA
:104B900028309246FFF7ACFE031C0490D6F8900034
:104BA00018BF0123069328B196F8943013B18F49AA
:104BB00006F032FF07F008FD4FF00008CDE901884C
:104BC0000123DFF850B205904746994644460793C3
:104BD00007F0FAFC059BB268C01A904200F21C81F3
:104BE000079B5BB17068026812699047079B0028B9
:104BF000EDD0706803685B69984745B2D6F89000BD
:104C000038B196F8943023B10A2D24D1784906F0B2
:104C100003FFD6F8900060B196F89430022B08D9C3
:104C2000744906F0F9FE0A222146D6F8900006F0F3
:104C300067FF631E072B29D8DFE813F03A005C00FA
:104C400081008D009000BA002D01A500092C00F014
:104C5000E5800123BBE70D2D01D16749D7E7202D62
:104C600001D16649D3E71F2D0CDC654906F0D4FE5F
:104C700029460A22D6F8900006F05BFF6149D6F873
:104C80009000C4E7294606F0CBFEC2E72B2D05D1E4
:104C9000294608A8FFF7B5FE0124DAE71BF907301B
:104CA000AB4240F09F80DDF8188001370824D0E740
:104CB0003A2D294608A801D03D2D3DD1FFF7A1FE90
:104CC000049B8BB1039B099A5B689A4206D15AB147
:104CD000039B089819680AF0CBFC28B14A4908A838
:104CE000FFF73AFF4FF0010847495046FFF734FFFE
:104CF0000224AEE77C2D11D1DAF800000AF021FC85
:104D00000023CAF80430DAF8003002904FF00002B5
:104D10001A7000280CBF052403249AE70D2D00F01B
:104D2000B1800A2D00F0B08096F88C3013B1202DA0
:104D300000F0AC8029465046FFF763FE89E729461C
:104D40005046FFF75EFE019B029A013301939342A6
:104D500008BF05247DE70A2D08BF05242B495046CE
:104D6000FFF7C6FD60B12A495046FFF7C1FD002894
:104D700004BF4FF0010909244F2D2AD1012795E7DF
:104D800081460924F8E71BF907207B1C5846079346
:104D9000AA4218BF07240BF073FA079B98426FD101
:104DA00007464FF00009B8F1000F19D1092435E08A
:104DB0001BF907207B1C58460793AA4218BF0724FB
:104DC0000BF05EFA079B98425AD107464FF0010953
:104DD000E9E7B8F1000F3FF439AF092C7FF439AFA0
:104DE0004FF00008002434E7F2260100FF260100FE
:104DF00005270100202701000A2701000F270100D5
:104E00001427010008270100E7270100642601009C
:104E100072260100162701004FF00309D6F8900012
:104E2000B8B196F89430022B13D91E4906F0F4FD60
:104E30000A222146D6F8900006F060FE1A49D6F8FC
:104E4000900006F0E9FD0A224946D6F8900006F0E7
:104E500057FED6F89000012386F88C3048B196F8BA
:104E6000943033B1114906F0D7FDD6F8900006F022
:104E7000E1FD08A8FFF734FD48460FB0BDE8F08F0C
:104E80001F46E6E60424E4E60524E2E6B8F1000F56
:104E90007FF4DFAE9BE6002398464FF002091C46E4
:104EA00095E600BF1B270100282701002E270100DF
:104EB00030B50446406803688DB05B68984706AA21
:104EC0001D496846FFF736FD08AB069306AA002386
:104ED0006946204607938DF82030FFF74DFE0546C2
:104EE000D4F8900088B194F89430012B0DD913496F
:104EF00006F092FD0699D4F8900006F0ABFD7DB95E
:104F00000F49D4F8900006F0A5FD06A8FFF7E8FCCD
:104F10006846FFF7E5FCB5FA85F040090DB030BDF5
:104F2000012DD4F8900001D10649ECE7032D0CBF08
:104F300005490649E7E700BFF22601003F260100C8
:104F40005926010067260100782601008B26010002
:104F500008B42DE9F3431646044609AB306853F80C
:104F6000042B0193884604F10C0500217160017047
:104F7000802128460BF058FAD4F89000B0B106F022
:104F800059FD2449D4F8900006F046FDD4F89070FD
:104F90003B682846D3F804900BF072F92946024684
:104FA0003846C847D4F8900006F044FD28466768A4
:104FB0000BF066F929460246384605F011FF3246E5
:104FC00041462046FFF7D8FD0546D4F8900068B169
:104FD000114906F021FD3168D4F8900006F03AFD41
:104FE00065B90E49D4F8900006F034FDB5FA85F0A5
:104FF000400902B0BDE8F04301B07047012DD4F87C
:10500000900001D10649EFE7032D0CBF0549064981
:10501000EAE700BFDC260100E62601005926010070
:1050200067260100782601008B2601002DE9F04358
:105030000446406891B01646002834D02378002BEF
:1050400031D10368194DDB69DFF86C90DFF86C80B3
:10505000174F98470AAA174904A8FFF76BFC606826
:105060000368DB6898474FF4FA72AA602378A3B903
:10507000002E12DD03AA49460AA8FFF75BFC3B4657
:1050800004AA0AA9CDF800800848FFF761FF207044
:105090000AA8FFF725FC013EE8E742F2107304A8D6
:1050A000AB60FFF71DFC11B0BDE8F083B80900202C
:1050B00037350100E7270100B9260100C9260100A4
:1050C000074B084858600022012142F210701A7004
:1050D0005970986083F88C1083F89420704700BF53
:1050E000B80900205C1700200148FFF7B7BB00BFDC
:1050F000B809002008B50368002B02DA094809F056
:105100009AFB8B4208D949008B4205D20029B6BFD1
:105110006FF00043016003600068BDE808400130A3
:1051200009F075BB5127010073B542F2107303609B
:1051300000F5F8730025C0F8E831012600F5027388
:10514000044680F8E451C0F8EC5180F8F051C0F802
:105150000032C0F8045280F8085204230096A822B6
:10516000C02100F5067006F0CDFA33460096A8225D
:10517000C02104F50C7006F0C5FAFF2300951A460D
:10518000194604F5127006F0BDFA204602B070BD53
:1051900070B50B4600F10802026053F8084BA342B9
:1051A0000FD11C4601F1180554F8046B42F8046B4A
:1051B000AC42F9D14A6842600B6000234B600B722D
:1051C00070BD04608A688260F4E72DE9F743034606
:1051D0004668044653F8080B98428846174602EB87
:1051E00006052CD0A1688D420DD827B13A4641461C
:1051F0003044FFF791FB23686560002220465A5532
:1052000003B0BDE8F083019501A8FFF773FF814665
:105210001EB132462168FFF77FFBB8F1000F06D0C0
:105220002FB13A46414609EB0600FFF775FB2046D1
:10523000FFF756FB019BC4F80090A360DBE70F2D3E
:10524000D3D901950F21DFE708B5D1E90012FFF7A7
:10525000BCFF08BD38B5044608460D460BF010F8F3
:1052600061686FF000435B1A8342024602D2044831
:1052700009F0E1FA29462046FFF7A7FF38BD00BF35
:10528000B728010008B4F0B50D46114682B00446B7
:1052900001F10E0020F0070000AF07F11C03ADEB99
:1052A000000D6E4653F8042B3B603046A84704F1CE
:1052B00008030F2805462360786006D90021381DB1
:1052C000FFF718FF7B682060A3602A4631462068FC
:1052D000FFF722FB7B6822686360002120460837C5
:1052E000D154BD46BDE8F04001B0704713B5054B41
:1052F0000091102204490446FFF7C4FF204602B083
:1053000010BD00BFCC2801002904010073B505467B
:105310000E4619B912B10D4809F08AFA941B0F2CE8
:10532000019406D9002101A8FFF7E4FE019B286043
:10533000AB60224631462868FFF7EEFA019B2A68E7
:105340006B600021D15402B070BD00BF692701001D
:1053500038B500F10803044603600D4649B108461C
:105360000AF08EFF2A1820462946FFF7CFFF204675
:1053700038BD4FF0FF32F6E72DE9F043DFF8109328
:10538000C14CB7B00546884606A8C0491E46174618
:10539000FFF7DEFF032248464FF4E131FFF746FEF8
:1053A0000021404606F0EEFA017830A8FFF79EFF94
:1053B000214630A8FFF74EFF01460CA8FFF7E8FE94
:1053C00030A8FFF78DFA0121404606F0DBFA01789C
:1053D0002AA8FFF78BFF21462AA8FFF73BFF0146CB
:1053E00030A8FFF7D5FE30A90CA8FFF72DFF30A895
:1053F000FFF776FA2AA8FFF773FA0221404606F073
:10540000C1FA01782AA8FFF771FF21462AA8FFF701
:1054100021FF014630A8FFF7BBFE30A90CA8FFF71B
:1054200013FF30A8FFF75CFA2AA8FFF759FA032107
:10543000404606F0A7FA017830A8FFF757FF30A9D9
:105440000CA8FFF701FF30A8FFF74AFA0021384601
:1054500006F098FA017830A8FFF748FF214630A8F7
:10546000FFF7F8FE014612A8FFF792FE30A8FFF7FB
:1054700037FA0121384606F085FA01782AA8FFF7A5
:1054800035FF21462AA8FFF7E5FE014630A8FFF7C1
:105490007FFE30A912A8FFF7D7FE30A8FFF720FA49
:1054A0002AA8FFF71DFA0221384606F06BFA0178A8
:1054B0002AA8FFF71BFF21462AA8FFF7CBFE0146CB
:1054C00030A8FFF765FE30A912A8FFF7BDFE30A88F
:1054D000FFF706FA2AA8FFF703FA0321384606F079
:1054E00051FA017830A8FFF701FF30A912A8FFF7A1
:1054F000ABFE30A8FFF7F4F90021304606F042FA7F
:10550000017830A8FFF7F2FE214630A8FFF7A2FE8F
:10551000014618A8FFF73CFE30A8FFF7E1F901218A
:10552000304606F02FFA01782AA8FFF7DFFE214661
:105530002AA8FFF78FFE014630A8FFF729FE30A901
:1055400018A8FFF781FE30A8FFF7CAF92AA8FFF7CD
:10555000C7F90221304606F015FA01782AA8FFF7AC
:10556000C5FE21462AA8FFF775FE014630A8FFF7C1
:105570000FFE30A918A8FFF767FE30A8FFF7B0F9B3
:105580002AA8FFF7ADF90321304606F0FBF90178B0
:1055900030A8FFF7ABFE30A918A8FFF755FE30A8DA
:1055A000FFF79EF900213E9806F0ECF9017830A84B
:1055B000FFF79CFE214630A8FFF74CFE01461EA8CF
:1055C000FFF7E6FD30A8FFF78BF901213E9806F0C2
:1055D000D9F901782AA8FFF789FE21462AA8FFF702
:1055E00039FE014630A8FFF7D3FD30A91EA8FFF70A
:1055F0002BFE30A8FFF774F92AA8FFF771F90221F2
:105600003E9806F0BFF901782AA8FFF76FFE214601
:105610002AA8FFF71FFE014630A8FFF7B9FD30A901
:105620001EA8FFF711FE30A8FFF75AF92AA8FFF7C6
:1056300057F903213E9806F0A5F9017830A8FFF745
:1056400055FE30A91EA8FFF7FFFD30A8FFF748F967
:1056500000213F9806F096F9017830A8FFF746FE42
:10566000214630A8FFF7F6FD014624A8FFF790FD7C
:1056700030A8FFF735F901213F9806F083F901784A
:105680002AA8FFF733FE05E07C240100E72701008C
:10569000B809002021462AA8FFF7DCFD014630A802
:1056A000FFF776FD30A924A8FFF7CEFD30A8FFF75D
:1056B00017F92AA8FFF714F902213F9806F062F9BA
:1056C00001782AA8FFF712FE21462AA8FFF7C2FD9B
:1056D000014630A8FFF75CFD30A924A8FFF7B4FD10
:1056E00030A8FFF7FDF82AA8FFF7FAF803213F9842
:1056F00006F048F9017830A8FFF7F8FD30A924A892
:10570000FFF7A2FD30A8FFF7EBF808F104030FCB79
:1057100005F5077484E80F0098F8143085F82C32EA
:105720003B1D0FCB05F50D7484E80F003B7D85F81C
:105730004432331D0FCB05F5137484E80F00337D1D
:1057400085F85C32204930A8FFF702FE0C9B189ABE
:105750000193CDE902321D4B009306AA1C4B30A9E0
:105760004846FFF7F5FB30A8FFF7BAF8194930A80B
:10577000FFF7EEFD249B05931E9B0493189B039358
:10578000129B02930C9B0193134B009306AA134B9D
:1057900030A94846FFF7DCFB30A8FFF7A1F824A8A2
:1057A000FFF79EF81EA8FFF79BF818A8FFF798F8D8
:1057B00012A8FFF795F80CA8FFF792F806A8FFF7D4
:1057C0008FF837B0BDE8F0833A2801005628010071
:1057D0004928010067280100822801006F28010084
:1057E0002DE9F041ACB000241F46FF230646884651
:1057F000154600941A46194602A805F083FF234671
:1058000022460094214608A805F07CFF41460EA8D8
:10581000FEF776FC394614A8FEF772FC20AC02A90C
:105820001AA8FEF76DFC2946204626ADFEF768FC57
:1058300008A92846FEF764FCCDE900451AAB14AA76
:105840000EA93046FFF798FD2CB0BDE8F081FFFFB0
:1058500010B503228CB04FF4E1311148FFF7E6FB9D
:1058600010496846FFF774FD0F4906A8FFF770FD61
:105870000E4B0B486A4606A9FFF76AFB044606A8CA
:10588000FFF72EF834B1012006F05AFE009809F017
:1058900058FEC4B26846FFF723F820460CB010BD8E
:1058A000B8090020E72701001E2801002A2801006E
:1058B000F0B591B004460E4604A82849284D174675
:1058C000FFF746FD03224FF4E1312648FFF7AEFB18
:1058D00025490AA8FFF73CFD01230193234B0093C0
:1058E0000AA9234B1F4804AAFFF732FB0AA8FEF7B8
:1058F000F7FF20490AA8F7B9FFF72AFDCDE90056BE
:105900001D4B184804AA0AA9FFF722FB05460AA85E
:10591000FEF7E6FFDDB106F057FE054606F054FE41
:105920002368401B984212D22046FFF791FF0328BC
:10593000F4D104460CE0FFF70BFDCDE901670095BB
:105940000E4B084804AA0AA9FFF702FBDEE704246D
:1059500004A8FEF7C5FF204611B0F0BDE7270100FF
:1059600007280100B8090020B6270100EF27010031
:10597000E8270100FC270100A027010014280100EE
:1059800070B503228EB005464FF4E1312848FFF789
:105990004DFB0024274902A8FFF7DAFC23462246E4
:1059A00021460094284605F0ADFE234908A8FFF7DC
:1059B000CFFC224B009302AA214B1D4808A9FFF7F8
:1059C000C7FA064608A8FEF78BFFD6B1029809F081
:1059D000B8FD01281BD11B4908A8FFF7B9FC1A4BD9
:1059E00000930194194B124802AA08A9FFF7B0FAD4
:1059F000044608A8FEF774FF1CB10299284605F07A
:105A0000A3FF02A8FEF76CFF28460EB070BD0298F7
:105A100009F097FD0228F4D10D4908A8FFF798FC7A
:105A20000C4B034802AA08A9FFF792FAE0E700BF6F
:105A3000B8090020E7270100B6270100C1270100AF
:105A400037350100A5280100AD280100E827010035
:105A50008C280100972801000148FFF765BB00BFB3
:105A6000500A002010B5054C04F50070FEF738FF11
:105A700004F5F470FEF734FF10BD00BF500A00209B
:105A800000207047036813B962B6BFF36F8F704789
:105A900003689B6B184708B503689B6D984780F0B7
:105AA0000100C0B208BD13B502AB026803F8011DC6
:105AB000546819460122A04702B010BD07B503681B
:105AC00001229B6B0DF10701984701280CBF9DF83F
:105AD00007004FF0FF3003B05DF804FB00690B696D
:105AE000C31A58425841704700F1080370B5044684
:105AF00003600E46B1B108460AF0C2FB0F28054606
:105B000004D9013008F083FEA5602060012D2068D3
:105B10000BD196F9003003702368656000225A5556
:105B2000204670BD044808F083FE002DF4D02A46BC
:105B3000314609F0ACFDEFE76927010013B5EFF33B
:105B4000108300930123019372B6019B5A1E0192A8
:105B500033B104686846FFF795FF204602B010BDD8
:105B60006846FFF78FFFF8E770B5044600F2D4509F
:105B70000D46FFF7E3FFA84205D2236820469B6C41
:105B8000BDE87040184770BD13B50446EFF31083AD
:105B900000930123019372B6019B5A1E019268463D
:105BA00053B1FFF76FFF631C40F2B552B3FBF2F045
:105BB00002FB103002B010BDFFF764FFFAE72DE9D9
:105BC000F34703680D46DB6C1146174604469847B9
:105BD00001262F444FF00008B246BD4228D03EB304
:105BE000D4F8D4354BB994F814901E4605F8019BAF
:105BF000002EF2D008F10108EFE7EFF31083CDE9B2
:105C0000003A72B6019B5A1E01926BB1D4F8D005CE
:105C1000231893F81490FFF7B7FFD4F8D435C4F8DD
:105C2000D005013BC4F8D4356846FFF72BFFDDE70C
:105C3000404602B0BDE8F08738B500254FF47A73CE
:105C4000C0E90153094B036004464FF0FF33036181
:105C500040F2B5522946143009F03DFDC4F8CC5548
:105C6000C4F8D055C4F8D455204638BDB82A010030
:105C700030B5036901338FB005460C4628D115496C
:105C800002A8FFF731FF03224FF4E1311248FFF77A
:105C9000CDF9124908A8FFF727FF114B0194009393
:105CA00002AA104B0C4808A9FFF752F9044608A8AD
:105CB000FEF716FE4CB1029809F043FC286102A8D9
:105CC000FEF70EFE01200FB030BD02A8FEF708FE61
:105CD0000020F8E7E7270100B8090020FE290100AD
:105CE000092A0100E827010070B50369013394B067
:105CF00005460E46144631D1194908A8FFF7F4FEAF
:105D000003224FF4E1311748FFF790F916490EA826
:105D1000FFF7EAFE314605A805F056FD059B114840
:105D2000CDE90143114B009308AA114B0EA9FFF7CF
:105D30000FF9044605A805F0FEFE0EA8FEF7D0FDFB
:105D40004CB1089809F0FDFB286108A8FEF7C8FDD2
:105D5000012014B070BD08A8FEF7C2FD0020F8E7CE
:105D6000E7270100B8090020FE290100092A0100E7
:105D7000F429010070B50369013394B005460E465D
:105D8000144631D1194908A8FFF7AEFE03224FF49B
:105D9000E1311748FFF74AF916490EA8FFF7A4FEAC
:105DA000314605A805F010FD059B1148CDE90143DA
:105DB000114B009308AA114B0EA9FFF7C9F804462E
:105DC00005A805F0B8FE0EA8FEF78AFD4CB10898AC
:105DD00009F0B7FB286108A8FEF782FD012014B086
:105DE00070BD08A8FEF77CFD0020F8E7E72701005A
:105DF000B80900206829010078290100F429010070
:105E000010B50369002B8EB0044620DB114902A8AF
:105E1000FFF76AFE03224FF4E1310F48FFF706F95E
:105E20000E4908A8FFF760FE236901930C4B00930D
:105E300002AA0C4B084808A9FFF78AF808A8FEF741
:105E40004FFD4FF0FF33236102A8FEF749FD0EB06E
:105E500010BD00BFE7270100B8090020C8290100D4
:105E6000D2290100E827010070B50369002B94B026
:105E700004460E4615462EDB184908A8FFF734FEE7
:105E800003224FF4E1311648FFF7D0F815490EA868
:105E9000FFF72AFE314605A8246905F095FC059B0D
:105EA0000194CDE90253104B009308AA0F4B0C4804
:105EB0000EA9FFF74DF8044605A805F03CFE0EA814
:105EC000FEF70EFD08A824B1FEF70AFD012014B06C
:105ED00070BDFEF705FD0020F9E700BFE7270100D0
:105EE000B8090020F128010011290100042901004E
:105EF00070B50369002B90B004460E46154626DBAC
:105F0000144904A8FFF7F0FD03224FF4E1311248D1
:105F1000FFF78CF811490AA8FFF7E6FDCDE9025614
:105F2000236901930E4B009304AA0E4B0A480AA959
:105F3000FFF70EF804460AA8FEF7D2FC04A824B125
:105F4000FEF7CEFC012010B070BDFEF7C9FC0020AA
:105F5000F9E700BFE7270100B80900202629010062
:105F60003A2901000429010010B50369002B8EB005
:105F7000044624DB134902A8FFF7B6FD03224FF4C1
:105F8000E1311148FFF752F8104908A8FFF7ACFDBE
:105F9000236901930E4B009302AA0E4B0A4808A9ED
:105FA000FEF7D6FF044608A8FEF79AFC02A824B123
:105FB000FEF796FC01200EB010BDFEF791FC00200C
:105FC000F9E700BFE7270100B80900208A2901008E
:105FD0009D290100E827010010B50369002B8EB050
:105FE000044624DB134902A8FFF77EFD03224FF489
:105FF000E1311148FFF71AF8104908A8FFF774FDBE
:10600000236901930E4B009302AA0E4B0A4808A97C
:10601000FEF79EFF044608A8FEF762FC02A824B122
:10602000FEF75EFC01200EB010BDFEF759FC00200B
:10603000F9E700BFE7270100B80900208E2A010018
:106040009D2A0100E827010070B50369002B90B07C
:1060500005460E4614462ADB164904A8FFF744FD00
:1060600003224FF4E1311448FEF7E0FF13490AA878
:10607000FFF73AFD02942B690193114B009304AA98
:10608000104B0D480AA9FEF7F5FB0AA8FEF728FCFD
:10609000224631460848FEF70BFF054604A825B105
:1060A000FEF71EFC204610B070BDFEF719FC002460
:1060B000F8E700BFE7270100B80900202E2A0100F9
:1060C000432A0100392A010010B50369002B8EB064
:1060D00004462DDB174902A8FFF706FD0023C4F88C
:1060E000CC35C4F8D035C4F8D43503224FF4E131AF
:1060F0001148FEF79BFF114908A8FFF7F5FC23693B
:1061000001930F4B009302AA0E4B0B4808A9FEF710
:106110001FFF044608A8FEF7E3FB1CB1029809F034
:1061200010FA044602A8FEF7DBFB20460EB010BDB5
:106130000024FAE7E7270100B809002050290100F0
:106140005B290100E827010030B50369002B8FB0FF
:10615000044632DB00F2D4552846FFF7EFFC002856
:1061600006DD2846FFF7EAFC044620460FB030BDA6
:10617000134902A8FFF7B8FC03224FF4E13111489C
:10618000FEF754FF104908A8FFF7AEFC23690193FE
:106190000E4B009302AA0E4B0A4808A9FEF7D8FE40
:1061A000044608A8FEF79CFB1CB1029809F0C9F947
:1061B000044602A8FEF794FBD7E70024D5E700BF0A
:1061C000E7270100B80900206E2A01007D2A01009E
:1061D000E82701002DE9F04F0369002B93B0044636
:1061E000C0F28480434906A8FFF77EFCEFF31083DA
:1061F0000C9301230D9372B60D9B5A1E0D9223B181
:10620000D4F8D455C5F5B66505356E1E3A4D0CA8C3
:10621000FFF738FC4FF00008032228464FF4E13125
:10622000FEF704FF85F88C8034490CA8FFF75CFC6E
:10623000029623690193324B00932846314B06AAFC
:106240000CA9FEF785FE05460CA8FEF749FB002DBC
:1062500041D0079B002B47D045464FF00108C1466F
:10626000B54238D2079B9D4235D2069B13F805A054
:10627000EFF31083CDE9043872B640F2B55B059BAD
:106280005A1E059213B3EFF31083CDE90C3972B6A1
:106290000D9B5A1E0D922BB1D4F8D475A7EB0B03AE
:1062A0005F425F410CA8FFF7EDFB002FE7D1D4F868
:1062B000CC05231883F814A0FFF766FCD4F8D43576
:1062C000C4F8CC050133C4F8D435D8E704A8FFF7E7
:1062D000D9FB0135C4E74FF0FF3406A8FEF700FBF9
:1062E000204613B0BDE8F08F1C46F6E74FF0FF34B0
:1062F000F6E700BFE7270100B8090020DE2901000A
:10630000E8290100392A010010B50369002B8EB07D
:10631000044629DB164902A8FFF7E6FB03224FF4E7
:10632000E1311448FEF782FE134908A8FFF7DCFBB1
:1063300023690193114B009302AA114B0D4808A940
:10634000FEF706FE044608A8FEF7CAFA4CB102980A
:1063500009F0F7F8044602A8FEF7C2FA20460EB08C
:1063600010BD4FF0FF34F6E74FF0FF34F6E700BF03
:10637000E7270100B8090020B2290100BC2901006B
:10638000E827010010B50369002B8EB004461DDB21
:106390000F4902A8FFF7A8FB03224FF4E1310D4893
:1063A000FEF744FE0C4908A8FFF79EFB2369019302
:1063B0000A4B009302AA0A4B064808A9FEF7C8FD3B
:1063C00008A8FEF78DFA02A8FEF78AFA0EB010BDF3
:1063D000E7270100B8090020162A0100212A010040
:1063E000E827010030B50C4695B0054602A805F037
:1063F00081F92369002B34DB1E4908A8FFF774FBE1
:1064000003224FF4E1311C48FEF710FE1B490EA891
:10641000FFF76AFB23690193194B009308AA194BF4
:1064200015480EA9FEF794FD04460EA8FEF758FA8B
:10643000A4B108992C4602A805F086FA124B44F83C
:10644000043B03AB0FCB84E80F009DF81C302B7589
:1064500008A8FEF745FA284615B030BD08A8FEF793
:106460003FFA002300931A461946284605F04AF9D8
:10647000F1E700BFE7270100B8090020502A01001A
:106480005E2A0100E82701002C2E010010B50369E7
:10649000002B8EB0044626DB144902A8FFF724FB2C
:1064A00003224FF4E1311248FEF7C0FD114908A85C
:1064B000FFF71AFB236901930F4B009302AA0F4BBE
:1064C0000B4808A9FEF744FD044608A8FEF708FAA1
:1064D0001CB1029809F035F884B202A8FEF700FA60
:1064E00020460EB010BD0024FAE700BFE7270100E8
:1064F000B8090020CF280100DF280100E8270100AB
:1065000008B506F003F8002008BD27207047704743
:1065100037B5FFF7FCFF01210D2005F057FF0021E3
:106520000D2005F06BFF68460722032108F0ECF808
:10653000BDF800301C4CC3F38413012568460722C4
:106540000521E55408F0E0F8BDF80030C3F38413EA
:10655000684607220621E55408F0D6F8BDF8003059
:10656000C3F38413684607220921E55408F0CCF8E8
:10657000BDF80030C3F38413684607220A21E554AE
:1065800008F0C2F8BDF80030C3F3841307220B21D2
:106590006846E55408F0B8F8BDF80030C3F384133A
:1065A000E55403B030BD00BF8E0D002030B5836AC6
:1065B00085B004468C4601ADABB193E8070085E891
:1065C00007006268117883F804C0E26A9A60196073
:1065D0001846626A9047A36A1BB195E8070083E8F2
:1065E000070005B030BD2B46EBE700BF10B4EFF35A
:1065F0000383103B5BB203F1C001204A204C52F8E8
:1066000021006FF3104042F8210054F82330D3E901
:1066100006218A421BD0186940B393F820400F2C02
:106620000BD99968496840F82210D96901328A4229
:106630009A610CD05DF8044B7047072C19D8996803
:1066400009798154D96901328A429A61F2D15B6831
:106650000C4993F903305DF8044B5809012203F00B
:106660001F0302FA03F341F820307047986840682E
:10667000DCE79C68A48820F81240D7E7006000405F
:10668000FC0C002000E100E0F0B5EFF30383103BC9
:106690005BB203F1C0022F492F4C51F822006FF377
:1066A000104041F8220054F823305868026A002A4A
:1066B00030D092F801C0DC695A69BCF1010F17D0E3
:1066C00094420FD0D96841B393F820000F280AD81C
:1066D0000728986895BF895C31F812100171818094
:1066E00001325A61F0BD986851F822104160F7E715
:1066F00004F1FF3E724513D001690029E0D090F902
:10670000031016484D0901F01F010CFA01F140F881
:106710002510D5E75A69DC69D2E798684160DFE760
:1067200090F903E00EF1C0064FEA5E10800051F8C8
:10673000267000F1604000F561400EF01F0E0CFA6B
:106740000EF56FF3104741F82670C0F880510560D0
:10675000B6E700BF00600040FC0C002000E100E054
:1067600010B4EFF30383103B5BB2324A324C03F1B7
:10677000C00152F821006FF3104042F8210054F894
:1067800023008268D278920706D54268527A012A9D
:1067900002D05DF8044B70475909284C0122203182
:1067A00003F01F0302FA03F344F82130BFF34F8FC5
:1067B000BFF36F8F436893F90230002B2FDB590929
:1067C000203103F01F0302FA03F344F82130BFF332
:1067D0004F8FBFF36F8FD0E90114237891F9021026
:1067E0006FF386130029237014DB01F1C00C114CE8
:1067F0004B099B0001F01F018A4003F1604354F8EC
:106800002C1003F561436FF3104144F82C10C3F8CA
:1068100080211A605DF8044B0121FFF7C7BE826832
:106820005DF8044B13786FF3861313700121FFF7A3
:10683000BDBE00BF00600040FC0C002000E100E095
:1068400070B5EFF30384103C314B64B253F824600D
:10685000736893F90230002B42DB5A092D4920322C
:10686000012003F01F0300FA03F341F82230BFF3C5
:106870004F8FBFF36F8FD6E9012392F902101A7878
:1068800000296FF386121A7015DB01F1C00C224D3E
:106890004A09920001F01F0100FA01F102F1604281
:1068A00055F82C0002F561426FF3104045F82C00BA
:1068B000C2F880111160DA780021D5B21207D970C0
:1068C00021D4EB0712D405F01405142D16D0124B69
:1068D000C03453F824206FF3104243F8242070BDD5
:1068E000B3681A786FF386121A70E4E70421304611
:1068F00005F01405FFF75AFE142DE8D108213046A3
:10690000FFF754FEE3E705213046FFF74FFED8E7D7
:10691000FC0C002000E100E000600040036A70B55C
:106920000446987800F07B0098700D46217841B3BA
:106930002261E269E5601069002841D0226982B1D4
:10694000A378816800688E68E16803F00303013B67
:1069500022FA03F3002222619BB2B04780B9236A76
:1069600021789A7842F080029A7039BB94F802C07C
:106970000CF0030CBCF1020F1AD02A78DA70002058
:1069800070BD94F802C0E0690CF0030E0069A2EB40
:106990000E02226105EB0E02E2600028CED19A7849
:1069A0000CF0030C42F08002BCF1020F9A70E4D1AB
:1069B0002A8842F47E420020DA8170BD002070BD3A
:1069C0009A7842F080029A7070BD00BF036A91F815
:1069D00001C09A7800B502F07B0E02F00B029A70AB
:1069E0000022C2608878587010461A786CF3010251
:1069F0001A70CA789A7493F807C00A780CF0A30149
:106A000002F05C020A43DA7183F802E05DF804FBED
:106A100010B5D0E90721002343608B7092F905205F
:106A20002F49044650090123203002F01F0203FAC7
:106A300002F241F82020BFF34F8FBFF36F8FE2695E
:106A400092F90B205009203002F01F0203FA02F2E3
:106A500041F82020BFF34F8FBFF36F8FE26992F9A7
:106A600007205009203002F01F0203FA02F241F819
:106A70002020BFF34F8FBFF36F8FE26992F9092097
:106A8000500902F01F02934000F1200241F8223029
:106A9000BFF34F8FBFF36F8FE369DA6822B193685A
:106AA00010681B6A9847E3691B691BB19A681868EC
:106AB000136A9847EFF31081012383F31088E36989
:106AC000084A1C78D2F800014FF00043E34003432A
:106AD000C2F80031D2F8003181F31088002010BDD7
:106AE00000E100E0006F0440F0B5846A85B005461F
:106AF0000F4694466E46B4B194E80F0086E80F0046
:106B0000EB691B7884F804C02360EB6A2046C4E973
:106B100002736B6A9847AC6A1CB196E80F0084E870
:106B20000F0005B0F0BD3446EAE700BF8C4651685F
:106B300030B4029C0D6880B91C609CF8010038B923
:106B4000E8784FF0010C0B346CF30510E8701C6012
:106B5000936810681B6830BC184704F10C0018607B
:106B6000EBE700BF2DE9F0470D4609780323CB4042
:106B700013F0010301F1007218BF1023037002F536
:106B8000605283785201012161F301030262A96915
:106B90006A6942620022C0E90A21C56183706B788C
:106BA00082B0044623B98378022262F30103837022
:106BB00095F90B00594B95F80AC04209203200F0B4
:106BC0001F06012101FA06F643F82260BFF34F8F3A
:106BD000BFF36F8F524A534E00F1C0074FEA0C1CAF
:106BE00052F827E06FF3104E42F827E01F185FFAC3
:106BF0008CFC87F800C346F8204095F9050095F80D
:106C000004C04709203700F01F0E01FA0EFE43F8BA
:106C100027E0BFF34F8FBFF36F8F00F1C00703EB87
:106C2000000852F827E04FEA0C1C5FFA8CFC6FF367
:106C3000104E42F827E088F800C346F8204095F946
:106C4000070095F806C04709203700F01F0E01FA2B
:106C50000EFE43F827E0BFF34F8FBFF36F8F00F1B5
:106C6000C00703EB000852F827E04FEA0C1C5FFA5C
:106C70008CFC6FF3104E42F827E088F800C346F80A
:106C8000204095F9090095F808C04709203700F021
:106C90001F0E01FA0EF143F82710BFF34F8FBFF319
:106CA0006F8F00F1C0074FEA0C1152F827C0034460
:106CB0006FF3104C42F827C0C9B283F80013EA689A
:106CC00046F8204072B153681B684FF4002143F826
:106CD000041B216A05310091E1692078FFF726FF46
:106CE0000646B0B92A69FAB153681B684FF00061D3
:106CF00043F8081B216A03310091E1692078FFF70E
:106D000015FF064680B1EB681BB19A681868136AD4
:106D10009847304602B0BDE8F08700BF00E100E0D0
:106D200000600040FC0C0020EFF31080012383F38F
:106D30001088984B2E78D3F800214FF00041F14095
:106D400022EA0102C3F80021D3F8003180F3108851
:106D5000236AE06900229A701A715A729A72DA7282
:106D60005A83297840F20722CA40D20744BF402202
:106D7000DA7406221A7722787AB1C168013A0029BA
:106D800000F0FE800126120391B2314341F0060269
:106D90009A829A8A92B29142FBD1EA78A978D2007B
:106DA00042EA01126978032900F0D780002914BF54
:106DB000F221E221ED69D2B21A7099712A7B520058
:106DC00002F002025A736A78A97800261E7295F8BA
:106DD00000C0D201490101F02001D2B20A43ACF156
:106DE0000201012940F2BD80D2B2DA716A6891785D
:106DF00059701978567866F301011970D178997431
:106E00001278D97902F05C0201F0A3010A43DA7129
:106E10000027C4E90377C4E9057790F905105E4EB1
:106E200001F1C00E4A0956F82E80920067F310480F
:106E300002F1604246F82E8002F561424FF0010EE9
:106E400001F01F010EFA01F1C2F88011116090F9F2
:106E50000B1001F1C0094A0956F829A0920002F16D
:106E6000604202F5614267F3104A01F01F0146F8E3
:106E700029A00EFA01F1C2F88011116090F90710F3
:106E800001F1C0094A0956F829A0920002F16042B6
:106E900002F5614201F01F0167F3104A46F829A08C
:106EA0000EFA01F1C2F88011116090F9091001F198
:106EB000C0004A0956F82090920002F1604267F340
:106EC000104946F8209002F561420CF0030C01F0E5
:106ED0001F010EFA01F14CF0700CC2F88011116024
:106EE00083F802C06B8923814FF6FF7843452DD08C
:106EF000EFF310818EF31088284A13681BB92848D5
:106F0000C3704023C37013680133136081F310888A
:106F1000218924480B0A1B0153FA81F150F82130D2
:106F200023F0011323F4404343F0040340F82130DD
:106F3000EFF31081012383F31088136813B11368F2
:106F4000013B13601368B3B181F31088164B636083
:106F50000026304602B0BDE8F08742F04002F22140
:106F600028E7BCF1020F08BF42F01002FF21D2B2A5
:106F70005970DA714CE70A4A8020D370D070E3E789
:106F8000C169097A1140090201F4706141F00106FA
:106F9000F9E600BF006F044000600040F80C0020DC
:106FA000000D044000080440554943532DE9F04FBB
:106FB0001E46FF23B37033786FF382038BB03370B8
:106FC0008023F370554B0992554A1B6A1268019150
:106FD000C3F302618A40C3F30233DA40514B079096
:106FE0000021100A06920891059002910093A2FBDD
:106FF00003BA099B009A93426EDA9DF820300393FE
:107000000027494B039ADD5DC5F34003C5F38005B6
:1070100004932B43934256D1444B33F81780079B7C
:1070200003FB08F8069BB3FBF8F2541EFF2C4AD86A
:1070300002FB08F91DE0059BB9FBF3F37F2B03FB73
:1070400000F040D90028B8BFFF300012A0F5C330CF
:10705000A0380028009AB8BF4042824240DC029B20
:10706000F370337843F00403A9EB0809337054B389
:10707000013C4A464FEAE9735846514608F0A2F8E7
:10708000019A002AD7D1A0F5C333A03B002B009A68
:10709000B8BF5B429A4216DD0093234BB470DA5DB1
:1070A0003378C2F3000161F38613049961F304138A
:1070B00065F3C30333707378C2F3C10262F3010353
:1070C0007370019B029301370D2F9AD1089BF3B186
:1070D000009B099A93421DDC00200BB0BDE8F08FA5
:1070E0000293114B049AD95D33780090C1F30000EC
:1070F00060F3861362F3041365F3C303337073788C
:10710000B470C1F3C10161F301037370A7E70123F8
:1071100008936EE703200BB0BDE8F08F00E001405C
:10712000880D0020A0860100502D0100602D010077
:10713000F0B5EFF30383103B5BB203F1C001344AB7
:10714000344C52F821006FF3104042F8210054F8FB
:107150002300C3691B6913B1036913B1F0BD03694F
:1071600083B9D0E90824937803F07F03002143F02A
:1071700004039370C160002CF0D0BDE8F040802281
:10718000FFF7B2BC05785DB3066AF18AC1F304214A
:10719000A9421ED28478C2681F4F04F0030E7446C1
:1071A0000BE092F800C086F80FC001311B1B22448F
:1071B000A942C0E903230CD25BB1BEF1020FF0D1AA
:1071C000B2F800C04CEA070C1FFA8CFCA6F80EC0FF
:1071D000EBE732796FF3C7123271002BBED1C0E7F3
:1071E000827802F003010229C1680BD0046A0D788D
:1071F000E57002F003029B1A0A44C0E90323002B46
:10720000ACD1AEE70C88056A44F47E44EC81F0E72B
:1072100000600040FC0C002000FEFFFF10B582B0B3
:10722000EFF30383103B5BB203F1C001574A584CA4
:1072300052F821006FF3104042F8210054F8234027
:10724000E369DB6813B1A369002B49D122894FF6AA
:10725000FF739A4275D12278236AF2B1D98AC8069F
:1072600012D01B8AC3F308030193A369FBB9636AB5
:107270002BB1042201992046FFF736FC22782AB16F
:10728000236AD98AC906E8D1BE221A7123894FF62A
:10729000FF72934231D102B010BDA17801F0030119
:1072A0000229DED05B790193A369002BDFD0A2789D
:1072B000606902F0030201A908F0E9F9D4E90521A7
:1072C000A37803F003031A44C91AC4E9052129B9B4
:1072D000636A1BB101222046FFF706FC2278CEE745
:1072E000636A0021C4E90511002BD4D00122204695
:1072F00002B0BDE81040FFF7F7BB1A0A120125499A
:1073000052FA83F351F8232022F0011222F4404272
:1073100042F0040241F82320EFF31082012383F3AB
:1073200010881D4B196811B11968013919601B6863
:107330001BB91A498020CB70C87082F3108802B044
:1073400010BDEFF31081012383F31088124B1A68EC
:107350001AB91248C2704022C2701A6801321A600B
:1073600081F3108822890B49130A1B0153FA82F218
:1073700051F8223023F0011323F4404343F0050376
:1073800041F82230236A227867E700BF006000409E
:10739000FC0C002000080440F80C0020000D044004
:1073A00010B5EFF30384103C0B4B64B253F8240088
:1073B000D0E90821937803F07B03937019B102227E
:1073C0000021FFF791FB054BC03453F824206FF3E5
:1073D000104243F8242010BDFC0C00200060004047
:1073E00010B5EFF30384103C194B64B253F824003A
:1073F000037843B9837803F00303022B03D0036AB5
:107400005979C9B203E0036A198AC1F3080193F8F4
:1074100004C01CF0100F0CF0380206D093F81CC00A
:107420001CF0010F08BF42F0400293F804C00CF0BA
:10743000C70C83F804C0436A0BB1FFF755FB054B3B
:10744000C03453F824206FF3104243F8242010BDB9
:10745000FC0C00200060004030B5436A85B0044653
:107460008C4601ADABB193E8070085E80700626880
:10747000117883F804C0A26A9A6019601846226ADB
:107480009047636A1BB195E8070083E8070005B0E1
:1074900030BD2B46EBE700BF10B4EFF30383103B86
:1074A0005BB203F1C001144A144C52F821006FF38F
:1074B000104042F8210054F823305A69D9698A42B1
:1074C00006D2D3E90240A8B1805CE07001325A6173
:1074D0008A4202D05DF8044B70471A69002AF9D13C
:1074E0009A685DF8044B937803F07B0343F0040340
:1074F00093707047E070E9E700600040FC0C0020EA
:1075000010B4EFF30383103B5BB203F1C001174AE1
:10751000174C52F821006FF3104042F8210054F844
:1075200023305A69D9698A4206D2D3E90240D0B1E0
:10753000805CE07001325A619A698A4207D2986889
:1075400019694079541C9C618854D3E90621914201
:1075500006D19A68937803F03B0343F004039370D9
:107560005DF8044B7047E070E4E700BF0060004046
:10757000FC0C002010B5EFF30384103C0A4B64B2FE
:10758000012153F824008268937803F00303937079
:10759000FFF762FFC034054B53F824206FF310420D
:1075A00043F8242010BD00BFFC0C00200060004008
:1075B00010B5EFF30384103C0C4B64B24FF0840C15
:1075C00053F8240083689A7802F003029A701A79BB
:1075D00083F804C00421FFF73FFFC034044B53F885
:1075E00024206FF3104243F8242010BDFC0C00202F
:1075F0000060004003685969A1B190F82D3070B562
:10760000044603F0FF0563B98A68038C966808682E
:10761000A1692A46B047E269C4E90852012384F807
:10762000333070BD704700BF70B5866B82B00446C2
:107630000B466D463EB396E8030085E80300E26B17
:107640003371236832605A6912B194F82D10A1B1D8
:107650009B6913B194F82D2052B9636B304698475B
:10766000A36B1BB195E8030083E8030002B070BD73
:107670009A68186813699847EFE7936810681B6960
:1076800098472368E4E72E46D9E700BFEFF303836A
:10769000103B5BB2044AC03352F823106FF3104121
:1076A00042F82310704700BF0060004070B5EFF350
:1076B0000383103B5BB2614AC03352F823106FF36F
:1076C000104142F82310EFF30383103B5C4A5BB296
:1076D00052F823402269137BC3F30000DB072CD44C
:1076E00094F82C3094F82A10994216D094F82D1062
:1076F00009B1022B41D02046FFF77CFF236994F8A3
:107700002820DA7094F82B2094F82C30013A0133B9
:1077100084F82B2084F82C3070BD94F8333003F0BB
:10772000FF053BBB236A93BB94F82E3063B3522111
:107730000123D17284F8303070BD94F82D308BB1B4
:1077400094F8313073B9636AA1695279CA54D4E9A3
:10775000082394F82E10013A0133C4E9082379B1C3
:107760002269E4E7002001215423206284F82F10CD
:10777000D37270BD84F8330070BD5223D37270BDD4
:1077800023695422DA7270BD5423D37270BD94F809
:107790002D1041B9616AA069013B405C0131C4E927
:1077A0000831D07070BD94F8311000292ED02168B6
:1077B00084F831504869002838D08969002935D0CB
:1077C000E069022832D98E68831E0868B668F42101
:1077D00091709BB2A2692946B0472268E369526959
:1077E000916810688E68023B9BB22A462946B047D2
:1077F000E36922690220023BC4E90803012184F8FD
:1078000033100023FF209372D070CBE7636AA16925
:107810005279CA54D4E90832013B0132012BC4E940
:107820000832226904D0FF20D070BBE7012BE8D1D9
:107830002023FF209372D070B4E700BF00600040A7
:10784000FC0C002010B582B0EFF30383103B374AE5
:107850005BB252F823000269D37A6FF3C303D37289
:1078600090F82F30ABBB90F82A1003F0FF0C90F883
:107870002C3099421BD1036A5BB990F82D1090F817
:107880003040002914BF02210321A4B3D372FFF7B3
:10789000CBFEEFF30383103B5BB2254AC03352F8B3
:1078A00023106FF3104142F8231002B010BDB3B99A
:1078B000012929D090F829C00021D17282F803C093
:1078C00090F82B200133013A80F82B2080F82C30DF
:1078D000DFE7F023D3720121FFF7A6FED9E790F886
:1078E0002D4004F0FF016CB1022BE5D190F829C0C6
:1078F0004CF0010CE0E7F023D372937803F0CF0350
:107900009370C4E78C46D7E70190FFF773FE0198A8
:1079100090F82A30012B05D190F828C0026990F820
:107920002C30C9E7026990F82C30C3E7FC0C00202A
:1079300000600040F0B583B0EFF30384103C154BBA
:1079400064B253F82450EF68BFB16A682B6992F9AA
:107950000D20121B18BF01226E46C3B193E803002D
:1079600086E803001A706A695A601846B8472B699E
:107970001BB196E8030083E80300074BC03453F8BB
:1079800024206FF3104243F8242003B0F0BD3346A7
:10799000E8E700BFFC0C002000600040EFF3038329
:1079A000103B5BB20649074A51F823100120C0334F
:1079B000087252F823106FF3104142F823107047F9
:1079C000FC0C0020006000400B0A1B01044853FA25
:1079D00081F150F82130C3F3400300201370704749
:1079E00000080440C8B2012383404AB91A040B0AB4
:1079F0005B0103F1804303F5802300209A60704708
:107A00009AB2F4E738B50488002C4DD043680021C1
:107A1000043303EBC40040F202450C4640F2034C31
:107A200040F2044E0FE0624530D153F8042C02F0CE
:107A3000B852B2F1807F14BF41F0020144F0020459
:107A40000833834211D01A88AA42ECD153F8042C8F
:107A500002F0B852B2F1807F03F1080314BF41F085
:107A6000010144F001048342EDD1C943CDB20120AC
:107A700001F042FF0D4B93F8BB2414432C4083F8D4
:107A8000BB440120BDE8384001F006BF7245D7D1A4
:107A900053F8042C02F0B852B2F1807F0CBF44F0CE
:107AA000040441F00401CBE7FF25E0E700E00140DA
:107AB00070B584B002AB012668460C461546ADF899
:107AC0000C100292ADF800600193FFF79BFFEFF3FB
:107AD000108286F310881D490B681BB91C48C370BF
:107AE0004023C3700B6801330B6082F31088EA03F4
:107AF0004FEA1423E4B219D41B01164A234442F876
:107B00002350EFF31082012383F310880B6813B125
:107B10000B68013B0B600B681BB90D498020CB70D3
:107B2000C87082F31088002004B070BD04EB03100D
:107B3000084A52F820606FF3104642F8206025F49E
:107B4000803642F820601B01D7E700BFF80C002008
:107B5000000D04400008044070B5C36A84B00446B8
:107B60008C46164601AD9BB193E8070085E80700F7
:107B700083F808C0226B1846C3E90026A26A904722
:107B8000E36A1BB195E8070083E8070004B070BD05
:107B90002B46EDE78268012370B580F8203002267D
:107BA000B323D37180F82160537904466FF3000347
:107BB0005371C2690D46FFF7CFFFA368DE705A7993
:107BC00042F001025A7194F82120012A16D094F84B
:107BD000212002B170BD052DFCD194F82320002A8C
:107BE000F8D194F821201AB95A7A02F0F3025A72A5
:107BF000BF210122D97184F8232070BD042DECD05F
:107C0000082DE4D1E9E700BF30B583B0EFF303837B
:107C1000103B5BB2454AC03352F823106FF310415A
:107C200042F82310EFF30383103B5BB2404A52F853
:107C3000234094F82230B3B9A368012284F82220AB
:107C4000DA7CD2B28DF805209DF8052012F0010FE4
:107C50005A7A14BF02F0F70202F0F3025A72AC2211
:107C6000DA7103B030BD94F820304BB9A3681B7AA9
:107C700013F0080F204614BF08210421FFF78AFFE4
:107C80002269A2B9A368D97CC9B28DF806109DF803
:107C90000610197941F010011971197941F00801A4
:107CA0001971197962F30411197103B030BDA36918
:107CB000A1689A4209D0E268C97C581CA061D154DD
:107CC000E3690133E36103B030BD022584F821503C
:107CD0004B79E2696FF300034B7120460621FFF7F1
:107CE0003BFFA3682169DD705A7942F001025A71A5
:107CF00091B9DA7CD2B28DF807209DF807201A7965
:107D000042F010021A711A7942F008021A711A79B7
:107D100061F304121A71A4E7A269E168DB7C501CCC
:107D2000A0618B54E3690133E3619AE7006000408E
:107D3000FC0C002038B5EFF30383103B5BB2244A00
:107D4000C03352F823106FF3104142F82310EFF3C1
:107D50000383103B5BB21F4A52F8234094F8203053
:107D600093B194F8213003F0FF0263B9A36921694C
:107D700099420ED0E269E068A168C05C8874013362
:107D80000132C4E9063238BD05212046FFF702FF63
:107D9000E7E723680E4993F90E3003F1C000002B8A
:107DA00051F8205062F3104541F8205009DB5A0980
:107DB000094803F01F030121603201FA03F340F880
:107DC0002230A268D37943F04003D37138BD00BF9D
:107DD00000600040FC0C002000E100E038B5EFF34B
:107DE0000383103B204A5BB252F82340A1680B7911
:107DF0005807C3F3800217D5CA796FF38612C023E0
:107E0000CA7101E0013B02D0CA795206FAD4EFF3FD
:107E10000383103B5BB2154AC03352F823106FF353
:107E2000104142F8231038BD022584F821504B79C7
:107E300062F300034B71E26907212046FFF78CFED5
:107E4000A168CD704B7943F001034B7194F8213058
:107E5000002BD1D1A369E269E0680132C05C88746B
:107E60000133C4E90632C7E7FC0C00200060004083
:107E700010B582B0EFF30383103B3E4A5BB252F879
:107E8000230083685A7A91074DD1D1B211F00C0FBB
:107E90003CD0012280F8242090F82120012A65D0CE
:107EA000016982699142C26988BF02F1FF324FF0D5
:107EB000030188BFC2614FF0000EA024DC7180F87E
:107EC00020E080F822E093F805C06EF3000C83F800
:107ED00005C090F82440002C43D1DF241C709F245F
:107EE0001C7000240223C46180F82130FFF734FEA7
:107EF000EFF30383103B5BB21F4AC03352F82310E9
:107F00006FF3104142F8231002B010BDCA06EFD53E
:107F1000DA7CD2B28DF807209DF80720DA7902F0DA
:107F2000EF02DA71E4E70022A02180F82420D97161
:107F300080F8202080F82220597962F300015971DD
:107F400090F8241081B9DF219F2219701A70002146
:107F50000223C26980F82130C1610121FFF7FCFDD5
:107F6000C6E783F809E0BCE75A72F0E7C26902216C
:107F7000A1E700BFFC0C00200060004030B5836B1F
:107F800083B004460A466D46A3B193E8030085E832
:107F90000300E16B1A71626B196018469047A36B7E
:107FA0001BB195E8030083E80300002384F82B301D
:107FB00003B030BD2B46ECE7036902682DE9F04FB2
:107FC0001F241C705F241C70DF241C70546A5568C9
:107FD0002279564EDFF8608142F0E0021A74E278AE
:107FE00042F0E0025A74A278120102F0700242F0EC
:107FF00008029A7022786478012A0CBF05220422B4
:1080000042EA4402D2B2DA70494A95420CBFF722E2
:1080100077225A710027B3229F71DA7191F91120EA
:1080200091F80DC0B4184FEA0C1C5FFA8CFC84F870
:1080300000C302F1C00548F822003E4C4FEA521E30
:1080400054F825904FEA8E0E67F310490EF1604EFA
:1080500044F825900EF5614E012502F01F0205FA45
:1080600002F2CEF88021CEF8002091F90F2006EB25
:10807000020E02F1C0098EF800C348F822004FEA50
:10808000521E4FEA8E0E54F829B00EF1604E0EF5D6
:10809000614E02F01F0205FA02F267F3104B44F83A
:1080A00029B0CEF88021CEF8002091F9102006EBFF
:1080B000020E02F1C0098EF800C348F822004FEA10
:1080C000521E54F829B04FEA8E0E0EF1604E0EF596
:1080D000614E02F01F0267F3104B44F829B005FA15
:1080E00002F2CEF88021CEF8002091F90E100E4455
:1080F0004A0986F800C348F8210001F1C00001F0E8
:108100001F018D4054F82010920002F1604267F385
:10811000104144F8201002F561424FF09F0AC2F866
:108120008051156083F800A0BDE8F08F00E100E009
:1081300040420F0000600040FC0C002010B483B0EF
:10814000EFF30383103B5BB2484AC03352F823106D
:108150006FF3104142F82310EFF30383103B444ABE
:108160005BB252F8233093F82D20BAB99A69022AEB
:108170001A699EBF117941F040011171D969012935
:1081800017D0D27CD2B28DF8072001219DF80720AC
:1081900083F82D1003B05DF8044B7047DA69002AAC
:1081A000F8D0032A0ED0022A4ED0012A21D0196914
:1081B0000DE0117941F010011171117941F00801C0
:1081C0001171DEE719690A7942F040020A711A6AF0
:1081D0005869C97C8154D3E907210131013AC3E9C7
:1081E0000721002AD6D119690B7962F386130B7126
:1081F000D0E793F82A1089B319681E4C91F90F1033
:108200004809203001F01F0102FA01F144F8201062
:10821000BFF34F8FBFF36F8F1969C87940F08000AB
:10822000C871087940F01000087108794FF0040C0B
:108230006FF3C300087181F801C048796FF3000043
:10824000487183F82C20C2E719690A7942F01002BC
:108250000A710A7942F008020A71B8E719694A7A84
:10826000082002F0F7024A724870B0E70060004050
:10827000FC0C002000E100E0EFF30383103B5BB255
:10828000354AC03352F823106FF3104142F82310DF
:10829000EFF30383103B5BB2304A52F8232092F88D
:1082A0002730002B37D192F829309BBBD36910B40B
:1082B000002B42D11069C1796FF3C711C023C1717E
:1082C00001E0013B02D0C179C909FAD11368224A01
:1082D00093F9103003F1C001002B52F821406FF3E5
:1082E000104442F8214009DB5A091D4C03F01F03DA
:1082F0000121603201FA03F344F82230C3795DF8BA
:10830000044B43F04003C3717047022909D192F82E
:10831000300030B9704792F82610032992F82810DF
:10832000F3D0106992F824C080F812C00131013BEB
:1083300082F8281082F827307047D2E90404116AC5
:10834000013B645C84740131C2E90731002BB2D077
:108350005DF8044B704700BF00600040FC0C00203B
:1083600000E100E010B4EFF30383103B2B4A5BB253
:1083700052F8233093F829201AB193F82720012AC4
:1083800047D0DA69D2B11969CA796FF38612C0236E
:10839000CA7101E0013B02D0CA795206FAD4EFF368
:1083A0000383103B5BB21E4AC03352F823106FF3B5
:1083B000104142F823105DF8044B704793F82A10DF
:1083C000F9B11968174C91F90F10480920304FF096
:1083D000010C01F01F010CFA01F144F82010BFF369
:1083E0004F8FBFF36F8F1969C87940F08000C87153
:1083F00004204870487962F30000487183F82CC06B
:10840000C2E719694B7A082203F0F7034B724A70EE
:10841000BAE793F83020002AB3D1B4E7FC0C00206F
:108420000060004000E100E038B5EFF30383103B4B
:108430004B4A5BB2E02152F8234023695A7A5972C1
:10844000D506D0B202F003011FD55A78520648D49F
:10845000E269012184F82B10002A5ED000252168F2
:10846000DD712046FFF7A8FD94F82610A269236964
:10847000E56184F82810226284F82C50B322DA7166
:1084800001212046FFF77AFD12E00029E0D1010723
:108490001BD594F82B20002A48D194F82910B32238
:1084A000002914BF02210321DA712046FFF766FD7F
:1084B000EFF30383103B5BB22A4AC03352F8231018
:1084C0006FF3104142F8231038BD94F82C20002A95
:1084D000EED04207ECD594F82B200121002AE4D1FC
:1084E000DBE70029B4D15A785506C2F38011CED506
:1084F00084F82B105A7A216802F0F702496A5A72FE
:10850000082058700A78012A0CBF03220222DA7070
:108510005A7942F001025A71CAE794F82C20002AD5
:108520009CD194F82B20002AA8D097E7E2696AB181
:10853000002294F82600A169E26184F828002162F3
:1085400084F82C20B322DA710121AEE794F82C20B4
:10855000002AEDD194F82B20002AF3D0E8E700BFE1
:10856000FC0C00200060004010B582B0EFF30384E3
:10857000103C164B164964B253F8242050790B5C1A
:1085800003F00303032B0FD0C03451F824306FF3F2
:10859000104341F82430936823B1D268CDE900201C
:1085A0006846984702B010BD936823B1D268CDE900
:1085B000002068469847064BC03453F824206FF3D8
:1085C000104243F8242002B010BD00BFFC0C002074
:1085D000006000400346D3E9022300205360704747
:1085E000D0E90123D26930B4D2E9011444F0004447
:1085F000D0685C61D2E9045440F0004041F0004191
:108600009861196100205D629C6230BC704700BFB8
:10861000002800DA704710B400F16043114C03F5F4
:1086200061430901C9B283F8001344F820200E49C0
:1086300000F1C00200F01F0C400951F822408000F8
:1086400000F1604000F561406FF31044012341F8F0
:10865000224003FA0CF3C0F880315DF8044B03604C
:10866000704700BFFC0C00200060004070B58369BB
:1086700084B004468C46164601AD9BB193E80700D2
:1086800085E8070083F804C0E2691A609E60184616
:1086900062699047A3691BB195E8070083E807006A
:1086A00004B070BD2B46EDE790F800C0486EBCF1F9
:1086B000030F98BF01300AB1824227D310B4019C46
:1086C000496BE40754BF01F01F01C1F30441BCF141
:1086D000030F09D9090981F0010172B9E9B9022230
:1086E0005DF8044B5A60704701F00C01A1F10401E0
:1086F000B1FA81F14909002AF0D0824201D3002960
:10870000EDD103225DF8044B5A607047BCF1030FB2
:1087100098BF02F1FF321A6070470028DFD0F0E7FF
:108720002DE9F0470B7C0D46012101FA03F2C260EE
:10873000920716BF002201740274D5E9052103F5E2
:10874000800303F5F0631B0242610022EE6945607D
:10875000C0E9062184B004468360EFF31080012352
:1087600083F31088854B297C0229D3F8081134BF84
:108770006FF020076FF040073940C3F80811D3F8B5
:10878000083180F31088A3686F684FF425411960A1
:10879000DA62DA639A642A78297A032A4FEAC151A5
:1087A00007F1FF3C00F0D58084BF41EA0241BC469E
:1087B000D6E9068ED9624FF0004119610020596157
:1087C00099614FF0FF315862039098620291C3F8AB
:1087D0001C80C3F820E0D6F82C80C3F868C0C3F82A
:1087E00064C0002A40F0A080790801390291404617
:1087F00001224FF0030C5965996500285DD095F86A
:1088000000E0B76A002F71D0B97897F80390090695
:1088100041EA097197F8049041EA09419963B968FE
:10882000C3F88C10002965D0012148B997F81C9035
:1088300097F81BA04FEA496949EA4A2948EA09081A
:10884000C3F8881040B996F8211096F8200049071F
:1088500041EA403148EA01084FF4AA01BEF1010F94
:10886000196402D10021D9641965E168D960C3F89F
:108870003480C3F830C01A63697C95F9120022462F
:10888000FFF7C6FE96F8221096F924002246FFF75D
:10889000BFFE96F8231096F925002246FFF7B8FE92
:1088A0002FB1397897F901002246FFF7B1FE344B1A
:1088B0002360002004B0BDE8F0873178F9B995F85D
:1088C00000E0B17800299CD0F778BEF1020F4FEAA2
:1088D000071141EA87113FD04BD903273943B76AC3
:1088E00048EA014848F08078002F8DD19F63C3F893
:1088F0008870A7E7F968003918BF012195E795F856
:1089000000E07178BEF1020F4FEA81194FEA0117BA
:1089100024D029D9032148EA010848EA090848EA8D
:10892000070848F48078CCE7012A19D0009019464E
:10893000EA68606802ABFFF7B7FEDDE902100204E7
:1089400042EA006242F0030CA368F06A42F00102BE
:1089500051E741F480312BE70927BFE70921DAE726
:1089600040464FF0030C46E7002914BF09210621B9
:10897000D1E7002F14BF09270627AFE7006F044097
:108980005450470030B4436893F91220DB69002A41
:1089900011DB51092E4D02F01F0C2031012404FA85
:1089A0000CF445F82140BFF34F8FBFF36F8F294977
:1089B000002441F8224093F92420002A11DB5109B8
:1089C000234D02F01F0C2031012404FA0CF445F869
:1089D0002140BFF34F8FBFF36F8F1E49002441F832
:1089E000224093F92520002A11DB5109184D02F08D
:1089F0001F0C2031012404FA0CF445F82140BFF388
:108A00004F8FBFF36F8F1349002441F822409B6AB8
:108A1000A3B193F90130002B10DB03F01F045A09B6
:108A20000121A14020320A4C44F82210BFF34F8F9D
:108A3000BFF36F8F074A002142F823108268C16894
:108A40000023036030BC184691605363704700BF39
:108A500000E100E0FC0C002030B4EFF30383103B96
:108A60005BB2184A184C03F1C00152F821006FF3B1
:108A7000104042F8210054F82300446894F800C0E4
:108A8000BCF1010F15D1D0E90254AC600024AC64F4
:108A9000EC642C6552F8215064F3104542F82150E3
:108AA0005A090A4903F01F0360320CFA03F341F834
:108AB0002230436923B1002230BC1146FFF7D6BDF6
:108AC00030BC704700600040FC0C002000E100E07A
:108AD0001E4B10B4C3600B7803F001034370EFF337
:108AE000108C012484F31088194BD3F8082122F448
:108AF0008012C3F80821D3F808318CF31088EFF303
:108B0000108C84F310884278D2B9C468237962F358
:108B1000861323718CF310884A684B78D278C46826
:108B2000D201DB01D2B2DBB26271A3710123E37126
:108B30000A780270074B43605DF8044B00207047D1
:108B4000C26813796FF3C7131371E3E700E00540C0
:108B5000006F044000434144C3684278002023F87A
:108B600012107047EFF31083012282F310884278CD
:108B7000C1683AB90A7942F040020A7183F3108859
:108B8000002070470A7942F080020A7183F310884E
:108B900000207047EFF31081012383F3108842789F
:108BA00042B9C068037962F38613037181F31088B8
:108BB00000207047C26813796FF3C713137181F3F4
:108BC00010880020704700BFEFF3108C012383F35F
:108BD0001088437873B9C268117963F386111171F3
:108BE000117A63F3861111728CF3108800234360AD
:108BF00018467047C3681A796FF3C7121A711A7A48
:108C00006FF3C7121A72EFE7F0B5076A8BB006462A
:108C100067B3BE468C46BEE80F006C460FC4BEE884
:108C20000F000FC49EE8030084E80300BCE80F00B7
:108C30003D460FC5BCE80F000FC59CE803008EE859
:108C40000300F36938469847336A6BB1EE469C4699
:108C5000BEE80F00ACE80F00BEE80F00ACE80F0064
:108C60009EE803008CE803000BB0F0BD0F46E8E778
:108C700030B58BB0EFF30383103B5BB22E4AC033A9
:108C800052F823106FF3104142F82310EFF30383DF
:108C9000103B5BB2294A52F8235000212822684633
:108CA00006F019FD6C6894F84D380020DBB284F8AA
:108CB0004D08ADF80430B4F84218C1F30012C906EB
:108CC00038D543F02003ADF80430022394F853283C
:108CD00084F8533894F8523803F01F03D2B2E118E5
:108CE00084F8532891F8202860F3820281F8202824
:108CF0002A681268009269466A6A039328460492B9
:108D0000FFF782FFB4F84238DB0611D52B681A69E9
:108D1000127D6AB193F91530002B09DB5A09084816
:108D200003F01F030121403201FA03F340F822301F
:108D30000BB030BD1346DBE700600040FC0C0020A8
:108D400000E100E02DE9F0418AB0EFF30383103B2E
:108D50005BB23F4AC03352F823106FF3104142F820
:108D60002310EFF30384103C3A4B66B2002253F811
:108D70002600D0E900E595F8533885F8532895F892
:108D8000527807F01F07DBB207F1200285F853384D
:108D9000130104F0FF0455F803C0CCF380718DF883
:108DA0001910E958DEF810301B7B43EAD17303F049
:108DB00001038DF81830002B46D1CCF38A4305EB24
:108DC000021205939188C1F3030301F00F010829F2
:108DD0008DF81A3035D908218DF81A1008AA002309
:108DE00005EB071808EB030C01339CF806C202F8E8
:108DF00001CB8B42F6D3DEF8003003972F4400936B
:108E0000442387F82038002307934FF48063ADF89C
:108E100004306946436A0493FFF7F6FEB5F842381A
:108E2000DB070BD5002E09DB76090B4A04F01F0483
:108E30000123403603FA04F442F826400AB0BDE8A4
:108E4000F0810029CAD1D6E72CF06043B7E700BF14
:108E500000600040FC0C002000E100E070B58AB02A
:108E6000EFF30383103B5BB2214AC03352F8231067
:108E70006FF3104142F82310EFF30383103B1D4AB8
:108E80005BB2012652F823506C6894F8532884F89A
:108E9000536894F85238D2B203F01F0384F8532871
:108EA0000393E2184FF40063ADF804302B681B689D
:108EB00000936B6A0493002382F82038694682F895
:108EC00020382846FFF7A0FEB4F842389B070CD59F
:108ED0002B6893F91730002B07DB5A09064903F07A
:108EE0001F0340329E4041F822600AB070BD00BFAF
:108EF00000600040FC0C002000E100E08268117A74
:108F000001F00101137AC3F340039942FAD1436897
:108F10001978012908D1C16893F810C004484B1E84
:108F20009BB240F82C101380F1231372002070477D
:108F3000B00C0020D0E90223013BF1219BB2138049
:108F400000201172704700BF8268117A01F00101A0
:108F5000137AC3F340039942FAD143684FF0F40CFB
:108F6000002182F808C0117393F9123013F1210F18
:108F700003D100230360184670478B421ADB5A095D
:108F800010B401210F4C203203F01F0301FA03F348
:108F900044F82230BFF34F8FBFF36F8F43680A4A04
:108FA00093F912305DF8044B42F82300002303606C
:108FB00018467047044A42F823000023036018460D
:108FC000704700BF00E100E0FC0C0020F0B40B7C17
:108FD00003F1401303F500631B02C0E90113EFF333
:108FE0001085012383F310880C7C394AC4F10304F3
:108FF000A340D2F8084124EA0303C2F80831D2F8AA
:10900000083185F31088826800231372137AC3F342
:10901000400C9B07FAD4CC6982F80AC0E378267822
:109020000D7A247903F00703002E42D1002D47D199
:1090300014734C684768002696735372631E9572CA
:109040009BB2C4603D7C1380224B43F8254091F9CC
:109050001230B34222DB4A7C03F1604404F56144E0
:109060001201D2B284F800231B4A1C4C42F82300A0
:1090700003F1C0055A0954F82570920002F16042CC
:1090800066F3104744F8257002F5614203F01F03B0
:10909000012404FA03F3C2F880311360D1E90541D9
:1090A00000230F4A0461C0E905310260F0BC184694
:1090B0007047502E06BF43F0500365463343B7E771
:1090C00085F0020543EA0513DBB23546B0E700BF81
:1090D000006F0440B00C0020FC0C00200060004039
:1090E00054474100F0B585B0EFF30383103B5BB20A
:1090F00003F1C0011B4A1C4C52F821006FF31040D1
:1091000042F8210054F82340D4E901120978137A77
:109110000129DBB204D1F42103F0F00311721372C0
:109120002769B7B1656901AECDB195E8070086E85A
:1091300007009B0644BF00232B71A3692B602846C0
:10914000B84763691BB196E8070083E80700A26887
:10915000137ADBB203F00F03137205B0F0BD35468E
:10916000E7E700BF00600040FC0C00200346002041
:109170001A689B8A1380704703681B88C3F3C03347
:1091800000200B70704700BF03681031002033F8D7
:1091900011301380704700BF43682DE9F041D1E9D9
:1091A00001250C685E6903681FFA84F8A3F804803F
:1091B0001FFA82F8A3F8148022F0405C1FFA85F8A9
:1091C00024F0405E25F040572243A3F808804FEA80
:1091D0001C4C3F0C4FEA1E4812F0405FA3F806807B
:1091E000A3F816C05F8159D1CA68002A00F09880A0
:1091F00015892F0522D5D2E900C7B2F80A80A3F855
:109200009050A3F89C80B2F80C80A3F89E801FFABF
:109210008CF8A3F89480CCF30B484FEA1C7CA3F89D
:10922000968083F892C01FFA87FCA3F898C0C7F312
:109230000B4C3F0FA3F89AC083F89370AF051FD46F
:109240000A8AA3F89050A3F88020F27892B11A8885
:10925000BEFA8EF11FFA82FE2EF01F0E0EF11F0EC7
:10926000828AAEEB010E1FFA8EFE4EEA0202A3F8CE
:1092700000E082822B4BC0E903340020BDE8F0817E
:10928000977C92F813C047EA0C0783F8A670D78939
:10929000128AA3F8A870A3F8AA20D1E7224FD7F822
:1092A0002080224F3F68C8F3026C07FA0CFCC8F319
:1092B00002181F4F2CFA08FCA7FB0C7C4FEA9C1CE1
:1092C0001C4F41F2883808FB0CFCA7FB0C7C4FEAD2
:1092D0009C4C0CF1010CBCF1070F38BF4FF0070C90
:1092E00012F080570AD05FFA8CF715F0805F83F890
:1092F000DE7040F2011708BF4FF48077920009D565
:109300005FFA8CFC47F40077AA0083F8DFC048BFFF
:1093100047F00207CA68BFB25F82002A7FF468AFD5
:1093200015468DE74344415200E00140880D00207E
:10933000D34D621083DE1B432DE9F8430B880C46A6
:109340005B0222696669C968026203F1804303F522
:10935000B8230022036081614460C261317962797F
:109360000546A0788F074FEA0223F17843EA40339D
:1093700054BF43F0400343F48863002900F0DF80CA
:1093800043F42073022A08BF764A9BB208BF32F822
:1093900021C0AB8218BF4FF0000C2279E1787078C1
:1093A00096F800E0D20342EA410242EA4010EFF3AD
:1093B0001088012181F310886B4F2288D7F808911B
:1093C000C2F1100201FA02F229EA0202C7F80821EA
:1093D000D7F8082188F3108847F6FF572A6880B22B
:1093E0003B401380A2F810C0D08182F80CE03379A2
:1093F000980700F1AD8082F88A3094F90630002B8E
:1094000022DB227A03F1604101F561411201D2B2FF
:1094100081F80023554A564942F8235003F1C00011
:109420005A0951F82070920002F160426FF3104720
:1094300041F8207002F5614203F01F03012101FA97
:1094400003F3C2F88031136094F90730002B22DB5C
:10945000627A03F1604101F561411201D2B281F8F3
:109460000023424A424942F8235003F1C0005A09FE
:1094700051F82040920002F160426FF3104441F82D
:10948000204002F5614203F01F03012101FA03F3BA
:10949000C2F88031136096F90630002B22DB327A55
:1094A00003F1604101F561411201D2B281F800235C
:1094B0002E4A2F4942F8235003F1C0005A0951F8AF
:1094C0002040920002F160426FF3104441F82040C6
:1094D00002F5614203F01F03012101FA03F3C2F810
:1094E0008031136096F90730002B22DB727A1F4817
:1094F00003F1604101F561411201D2B281F800230C
:1095000040F8235003F1C001194A52F821006FF3CB
:10951000104042F821005A09920002F1604202F51F
:10952000614203F01F03012101FA03F3C2F8803105
:109530001360104BAB6000202861BDE8F883002A5F
:109540007FF420AF43F400439BB2AB82944624E700
:1095500043F0030382F88A30084600F03DF92A6898
:10956000337948E77C2D0100006F0440FC0C00209B
:10957000006000404344415270B40021C0E9021130
:10958000436893F906205C698A4211DB5309364E21
:10959000203302F01F0C012505FA0CF546F8235084
:1095A000BFF34F8FBFF36F8F304B43F822104368E8
:1095B00093F90730002B11DB5A092B4D03F01F0CD8
:1095C0002032012101FA0CF145F82210BFF34F8F30
:1095D000BFF36F8F254A002142F8231094F906301B
:1095E000002B11DB5A09204D03F01F0C2032012102
:1095F00001FA0CF145F82210BFF34F8FBFF36F8FC4
:109600001A4A002142F8231094F90730002B10DB8E
:1096100003F01F045A090121A1402032124C44F8E2
:109620002210BFF34F8FBFF36F8F104A002142F813
:109630002310036800221A821A80EFF3108401239A
:1096400083F3108840680A490088C0F11000834005
:10965000D1F808010343C1F80831D1F8083184F387
:109660001088104670BC704700E100E0FC0C002040
:10967000006F0440064B074993F826001A6A51F818
:1096800020300549C2F30262D3400B60704700BF2F
:1096900000E00140B8020020880D002038B5434B9F
:1096A000434C444844494AF20355A3F8FE53002270
:1096B000424DA0F8002121604FF4004193F82600AC
:1096C000C4E90151C4E90321196A626154F82020F8
:1096D0003B4DC1F30261CA40082009212A6083F88A
:1096E000130483F8A21093F88024002A55D02F4B3E
:1096F000002283F8812483F8802493F8A0208AB183
:1097000093F83620002A3FD0284A92F8A030D80695
:10971000C3F30011F9D4254882F8A01090F8A030C6
:10972000D906FBD4214B002283F8362093F83C2045
:10973000D207FBD50121002283F8311083F82620BF
:10974000204A1A6293F8262054F822001C6A194A0B
:10975000C4F30264E04028604FF0040C842083F8D6
:109760003EC083F83E004FF4254083F8D010A3F8A4
:10977000FE03A2F80411B2F804319BB2002BFAD117
:109780000123A2F8003138BD93F83C20D207BBD4A6
:1097900093F83C20D207F7D5B6E7012183F880146F
:1097A00040F2C44000F018F8A1E700BF00E001401B
:1097B000B802002000C00140006CDC0200127A00F8
:1097C000880D002000010110704700BFA0F10100CA
:1097D0000028FBD1704700BF30B5144D144A00FB80
:1097E00001F14FF47A732868B2FBF0F2A1FB03C4D5
:1097F0004FF0FF304FF0000E60457EEB040407D3BE
:10980000BCFBF2F0800878B1BDE83040FFF7DEBF66
:109810009200B1FBF2F1A1FB031388427EEB03033C
:10982000F2D308460028EFD130BD00BF880D0020DC
:1098300000CA9A3B0B4B70B5B3F840510A4E002456
:10984000ADB225FA04F3DB07E0B203D556F82430B5
:1098500003B198470134102CF3D1024BA3F83051D7
:1098600070BD00BF00600040B80C0020084B10B471
:10987000084C03F1200C5842C21813F8011FC032E3
:10988000634544F82210F7D15DF8044B704700BFE0
:10989000B037010000600040EFF31081012383F333
:1098A0001088124B33F8102092B22AB133F81020EE
:1098B000013A92B223F8102033F810309BB293B9DA
:1098C0000B4A10B4B2F8FE330A4C9BB234F81000C5
:1098D00043F4254323EA0003A2F8FE3381F3108802
:1098E0005DF8044B704781F3108870477C0D0020B1
:1098F00000E00140882D010030B4EFF31081012316
:1099000083F310880E4A32F810309BB26BB90D4CBD
:109910000D4DB4F8FE3335F810C09BB243EA0C038A
:1099200043F425439BB2A4F8FE3332F810300133E0
:109930009BB222F8103081F3108830BC704700BF12
:109940007C0D002000E00140882D01000B4A08B585
:109950000346106840B10333094923F0030303446D
:109960008B4204D8136008BD06481060F3E705F089
:10997000EDFD0C2303604FF0FF3008BD840D002087
:10998000007B0020B824002000BE704708B500F01E
:1099900005F8FCF7B5FDFEE7704700BF70B5464B14
:1099A000464A47484FF47004C3F888404AF20251CF
:1099B00098600123A2F8FE1382B082F81F3492F857
:1099C000B134DB06FBD500204FF425460446A2F84F
:1099D000FE63FFF7E1FFFFF761FE8DF8074001200E
:1099E0009DF80730FFF788FFEFF31081012585F31D
:1099F0001088344BD3F8042122F00042C3F804212C
:109A0000D3F8042181F310882F4A1168C1F30001B3
:109A10008DF807101168C1F300018DF80710126866
:109A2000C2F300028DF80720EFF3108185F3108850
:109A3000D3F8042142F00042C3F80421D3F80431E2
:109A400081F310882846FFF727FF2846FFF7A4FF79
:109A50001E4B1F499C801F4A1E8099601E49D96079
:109A60004FF48051A2F820111C481D4A9D80121A03
:109A7000214605F030FE1B481B4A1C491C4D121A9A
:109A800005F005FE1B4B5B1BA3424FEAA30605DD59
:109A900055F8043B01349847A642F9DCFFF7EAFD8C
:109AA0000220FFF779FFFFF7E1FE002002B0BDE8DA
:109AB0007040FFF789BE00BF00ED00E000E001400C
:109AC00000400000006F044000080440000D00400A
:109AD000007B002000600040007F0020D0020020BA
