:10400000007F002085BA00002DB9000081BA0000B1
:1040100081BA000081BA000081BA000081BA0000B4
:1040200000000000000000000000000081BA000055
:1040300081BA00000000000081BA000081BA0000CF
:104040000000000000000000000000000000000070
:104050000000000000000000000000000000000060
:104060000000000000000000000000000000000050
:104070000000000000000000000000000000000040
:104080000000000000000000000000000000000030
:104090000000000000000000000000000000000020
:1040A0000000000000000000000000000000000010
:1040B0000000000000000000000000000000000000
:1040C00010B5054C237833B9044B13B10448AFF352
:1040D00000800123237010BDB80200200000000002
:1040E0007073010008B5034B1BB103490348AFF3DC
:1040F000008008BD00000000BC02002070730100B9
:1041000070B50446064B44F8043B0B1D05460E46AD
:104110000FCB84E80F00337D2B75284670BD00BFA0
:104120000067010030B593B02349244C244D684604
:10413000FFF7E6FF234906A8FFF7E2FF22490CA894
:10414000FFF7DEFF0CAB06AA6946204803F00EFB22
:10415000226829681D4803F0FFFB072806D01C4988
:104160001C4809F0F5FC002013B030BD4FF4FA6094
:104170000AF06EFC1849174809F0EAFC174915487F
:1041800009F0C7FC2968134809F0E2FC14491148FA
:1041900009F0BFFC0D490CA803F020FB0CA90D4849
:1041A00009F0E0FC0F490B4809F0B3FC216809480D
:1041B00009F0CEFC0120D7E7040300204C000020CA
:1041C00050000020EC020020D402002084060020D1
:1041D0000C510100380A00202B5101004F51010001
:1041E000255D0100565101002DE9F041184CDFF822
:1041F000708088B00126002500231A4619460095D4
:1042000002A804F8246C09F0F9FA03AB0FCBA4F16F
:104210001C0787E80F0001369DF81C3004F80C3CA1
:104220002046414604F8085C04F8075C44F8045C46
:1042300009F0F8FD0D2E04F13004DDD1054B0649DF
:1042400006481D7009F084FC08B0BDE8F08100BF8D
:104250009C030020B8050020E6510100380A002028
:10426000DE51010070B5164A86B0044600230C25C5
:1042700005FB03F011188E68A6421CD1805CD0B1FA
:1042800000230B7003A80F4909F05FFD0A222146A5
:10429000684609F08AFD694603A809F00FFE014649
:1042A000094809F04BFC684609F004FD03A809F031
:1042B00001FD06B070BD0133032BD9D1F9E700BF72
:1042C0002800002061510100380A0020064900231F
:1042D000CA189268824201D15A5C1AB90C33242B55
:1042E000F6D1002210467047280000201FB5014675
:1042F0000446134809F07DFD124B01221A70124B3F
:1043000000221A600AF0E8FB104B1149186001A85E
:1043100009F01BFD214601A809F0D0FD01460D481A
:1043200009F00CFC01A809F0C5FC0B49204609F076
:10433000DEFD18B10949024809F074FD04B010BD52
:104340005C030020680300206C0300207003002041
:10435000F34A0100380A0020064B01000B4B010014
:1043600008B5064B0649074800221A7009F05AFDA5
:1043700005490648BDE8084009F0EABB680300208B
:10438000B44A01005C030020B94A0100380A002049
:104390002DE9F04F91B00D46044673490AA809F083
:1043A000D4FC0AA9284609F0E7FD06460AA809F048
:1043B00081FC03366D490AA809F0C7FC32460AA9F8
:1043C000284609F0C7FD07460AA809F073FC7A1CC5
:1043D0000FD167490AA809F0B8FC32460AA9284655
:1043E00009F0B8FD07460AA809F064FC7B1C08BF69
:1043F000AF683B46294632460AA809F0C1FD0AA823
:1044000009F013FE07467D1E0AA809F053FC0B2D88
:1044100000F299802368574EDB6B21460AA8984723
:104420000BAB0FCB4FF0300808FB05F506EB050989
:1044300009F1080C8CE80F009DF83C3089F8183021
:10444000012389F81C300AF047FBC9F8200005F168
:1044500024003044484909F0E5FCB146474E0025A8
:1044600009F1040B3378AB4212DD08FB05FA19F8A9
:104470000A30BB420AD1236821460AA8DB6B984761
:104480000AA90BEB0A0009F0E8FA28B90135E9E7B7
:104490000B2B9CBF01333370394904A809F055FC3C
:1044A0000A22394601A809F080FC01A904A809F0F4
:1044B00005FD344909F00EFD23680546DB6B2146F6
:1044C0000AA898470AA907A809F0FAF907A92846EF
:1044D00009F0F4FC01462C4809F030FB07A809F06C
:1044E000E9FB01A809F0E6FB04A809F0E3FB274972
:1044F000204609F02DFB2649204609F029FB2549D5
:10450000204609F025FB204609F012FB22490AA8A3
:1045100009F01BFC0A22394607A809F046FC07A946
:104520000AA809F0CBFC1D4909F0D4FC014620463D
:1045300009F004FB07A809F0BDFB0AA809F0BAFBC3
:1045400011B0BDE8F08F1649204609F001FB114972
:10455000204609F0FDFA204609F0EAFA1149204602
:1045600009F0F6FAECE700BF0D5D0100CD53010044
:10457000115D010078030020484B0100B8050020C0
:104580008F520100135D0100380A00202A5D0100EE
:104590003A5D0100595D01006B5D0100BD5D0100E8
:1045A000885D0100A15D0100F0B585B00D460446AF
:1045B000334901A809F0C9FB01A9284609F0DCFC30
:1045C000064601A809F076FB03362E4901A809F03A
:1045D000BCFB324601A9284609F0BCFC074601A8ED
:1045E00009F068FB7A1C0FD1274901A809F0ADFB3F
:1045F000324601A9284609F0ADFC074601A809F09A
:1046000059FB7B1C08BFAF6829463B46324601A8D0
:1046100009F0B6FC01A809F008FD0546013D01A816
:1046200009F048FB0B2D1DD80AF056FA174B184914
:10463000302202FB053501232B772862204609F042
:1046400087FA1449204609F083FA1349204609F0F5
:104650007FFA204609F06CFA1049204609F078FAF2
:1046600005B0F0BD0E49204609F072FA0A4920460D
:1046700009F06EFA204609F05BFA0A49EDE700BF3F
:104680000D5D0100CD530100115D01007803002094
:104690002A5D01003A5D0100595D0100BC4F010037
:1046A000885D0100A15D01002DE9F0435649574D99
:1046B000574EDFF88891DFF8888187B0044609F00B
:1046C00044FB00275349204609F0E8FB524903A860
:1046D00009F03BFB0A2215F8041C684609F054FB5C
:1046E000694603A809F0EAFB314609F0F3FB0146ED
:1046F000204609F0C2FB684609F0DCFA03A809F07D
:10470000D9FA464903A809F020FB2946684609F072
:10471000D7F8694603A809F0D1FB414909F0DAFB53
:104720000146204609F0A9FB684609F0C3FA03A830
:1047300009F0C0FA3B4903A809F007FB297E684647
:10474000002914BF4946414609F0FFFA694603A80B
:1047500009F0B4FB314609F0BDFB0146204609F0E3
:104760008CFB684609F0A6FA03A809F0A3FA2E49C3
:1047700003A809F0EAFA697E6846002914BF494691
:10478000414609F0E2FA694603A809F097FB314671
:1047900009F0A0FB0146204609F06FFB684609F0CE
:1047A00089FA03A809F086FA204903A809F0CDFA8E
:1047B0000A22E969684609F00AFB694603A809F07C
:1047C0007DFB1B4909F086FB0146204609F055FB9D
:1047D000684609F06FFA03A809F06CFA0137154929
:1047E000204609F05BFB0C2F07D11349204609F046
:1047F00055FB204607B0BDE8F0833146204609F05E
:104800004DFB30355EE700BFF95301007C0300200B
:104810000E540100955B0100825D01000654010009
:104820000D54010010540100475401001A540100B6
:1048300087600100BD5D01002B540100EE530100B3
:10484000F35301001FB5044601A8FFF72DFF0C49E3
:10485000204609F07DF90B49204609F079F90A490B
:10486000204609F075F9204609F062F901A92046B1
:1048700009F064F901A809F01DFA04B010BD00BFE9
:104880002A5D01003A5D0100595D01002DE9F04308
:1048900087B00AF021F9204A136842F20F71C31A57
:1048A0008B42064635D91D4C1D4FDFF88080DFF85E
:1048B00080901060002514F8083C01352BB354F8A3
:1048C000043CF31ABB4220D900234146204604F899
:1048D000083C09F0A7FA494603A809F036FA0A226B
:1048E0002946684609F061FA694603A809F0E6FA24
:1048F0000C4909F0EFFA01460B4809F01FF9684628
:1049000009F0D8F903A809F0D5F90C2D04F1300409
:10491000D1D107B0BDE8F083740300209C030020D0
:10492000C0D40100955C0100380A00208D5C0100B4
:104930008F5201000023054A1846D118097F01B1A2
:1049400001303033B3F5107FF7D170477803002082
:104950002DE9F047C049C14EDFF8D893DFF8D8837E
:10496000BF4F8AB0044609F0F0F9BE49204609F06D
:1049700095FABD49204609F091FABC49204609F054
:104980008DFABB49204609F089FABA49204609F058
:1049900085FAB949204609F081FAB849204609F05C
:1049A0007DFAB749204609F079FAB649204609F060
:1049B00075FAB549204609F071FAB449204609F064
:1049C0006DFAB349204609F069FAB249204609F068
:1049D00065FAB149204609F061FAB049204609F06C
:1049E0005DFAAF49204609F059FAAE49204609F070
:1049F00055FAAD49204609F051FAAC4904A809F02E
:104A0000A4F9FFF797FF0A22014601A809F0CDF9A2
:104A100001A904A809F052FAA54909F05BFA0A2293
:104A200005460C2107A809F0C0F907A9284609F096
:104A300045FAA04909F04EFA0146204609F01DFA50
:104A400007A809F037F901A809F034F904A809F01A
:104A500031F9994907A809F078F9984907A809F0A8
:104A60002DFA944909F036FA0146204609F005FA74
:104A700007A809F01FF9924907A809F066F9914BB8
:104A8000914A1978914B04A8002914BF1146194680
:104A900009F05BF904A907A809F010FA854909F0A3
:104AA00019FA0146204609F0E8F904A809F002F9CC
:104AB00007A809F0FFF86A49204609F0EFF9844990
:104AC000204609F0EBF98349204609F0E7F9002573
:104AD000494601A809F039F97F4B317F01A8002927
:104AE00014BF4146194609F0D9F9737F1BB17B49C0
:104AF00001A809F0D3F97A4904A809F026F901A917
:104B000004A809F0DBF9774909F0E4F901350A2234
:104B10008246294607A809F048F907A9504609F036
:104B2000CDF9714909F0D6F90146204609F0A5F9F9
:104B300007A809F0BFF804A809F0BCF86B4907A85A
:104B400009F003F90A22294604A809F02EF904A95C
:104B500007A809F0B3F9394609F0BCF90146204627
:104B600009F08BF904A809F0A5F807A809F0A2F844
:104B70005F4A604B317F04A8002914BF11461946D3
:104B800009F0E3F85C4907A809F0DFF804A907A8D1
:104B900009F094F9394609F09DF90146204609F0DB
:104BA0006CF907A809F086F83946204609F076F92D
:104BB00004A809F07FF801A809F07CF80C2D06F193
:104BC000300685D12649204609F068F94B49204630
:104BD00009F064F94A49204609F060F9494920463C
:104BE00009F05CF94849204609F058F94749204640
:104BF00009F054F94649204609F050F94549204644
:104C000009F04CF94449204609F048F94349204647
:104C100009F044F93D49204609F040F94049204651
:104C200009F03CF93F49204609F038F90C49204683
:104C300009F034F90A49204609F030F93A4920468A
:104C400009F02CF93949204609F028F9384920465D
:104C500009F024F972E000BF6C54010078030020D1
:104C6000AF58010088540100AC540100F154010018
:104C7000F954010030550100B15501003A560100C8
:104C80006956010099560100C1560100DA5601002B
:104C90004B5701006C570100B5570100CB5701007D
:104CA000E3570100085801001D5801003958010060
:104CB000554B01005F580100645801005C0300205F
:104CC0008858010058030020505401005954010035
:104CD000B6580100D2580100DE510100F058010021
:104CE000F4580100015901001A5901001E59010030
:104CF0006554010068540100245901004159010024
:104D00005859010074590100B3590100F4590100C8
:104D1000F9590100325A0100745A0100B15A0100D8
:104D2000F15A0100305B0100735B01007C5B010004
:104D3000975B0100E8580100484B01000F492046ED
:104D400009F0ACF80E49204609F0A8F80D492046B4
:104D500009F0A4F80949204609F0A0F80A492046BC
:104D600009F09CF80949204609F098F808492046BE
:104D700009F094F820460AB0BDE8F087BD5D010057
:104D8000D25B0100ED5B01002B5C0100545C010073
:104D90005E5C010010B5584986B0044608F0D5FFA6
:104DA000564903A808F0D1FF554B564A1978564B7F
:104DB0006846002914BF1146194608F0C6FF694627
:104DC00003A809F07BF8514909F084F80146204610
:104DD00009F053F8684608F06DFF03A808F06AFF71
:104DE0004B4903A808F0B1FF4A4903A809F066F847
:104DF000464909F06FF80146204609F03EF803A83D
:104E000008F058FF444903A808F09FFF434B444A69
:104E10001978444B6846002914BF1146194608F01A
:104E200094FF694603A809F049F83F4909F052F890
:104E30000146204609F021F8684608F03BFF03A828
:104E400008F038FF394903A808F07FFFFFF772FD2B
:104E50000A220146684608F0A8FF694603A809F03F
:104E60002DF8314909F036F80146204609F005F8D9
:104E7000684608F01FFF03A808F01CFF2C4903A890
:104E800008F063FF0A220C21684608F08EFF69468D
:104E900003A809F013F8244909F01CF8014620463C
:104EA00008F0EBFF684608F005FF03A808F002FFD2
:104EB000204903A808F049FF09F00EFE0A22014626
:104EC000684608F084FF694603A808F0F7FF1A490E
:104ED00009F000F80146204608F0CFFF684608F0C8
:104EE000E9FE03A808F0E6FE1449204608F0D6FFC4
:104EF000204606B010BD00BF955B0100B152010015
:104F000068030020A4520100AC5201000D540100BE
:104F1000C25201005C030020D4520100580300205B
:104F2000EE530100F35301000E540100E052010062
:104F3000F15201000153010087600100BD5D0100D5
:104F40001FB5044601A8FFF725FF0C49204608F0CD
:104F5000FFFD0B49204608F0FBFD0A49204608F0FA
:104F6000F7FD204608F0E4FD01A9204608F0E6FD23
:104F700001A808F09FFE04B010BD00BF2A5D01002B
:104F80003A5D0100595D01002DE9F04379497A4805
:104F9000DFF82C92794FDFF82C828DB008F0D8FD25
:104FA000774906A808F0D1FE764B03A8196808F0E7
:104FB000CCFE03A906A808F081FF01466E4808F060
:104FC000BDFD03A808F076FE06A808F073FE6E4942
:104FD00003A808F0BAFE6D4906A802F0FFFB06A977
:104FE000684608F06DFC694603A808F067FF0146B3
:104FF000614808F0A3FD684608F05CFE03A808F0CD
:1050000059FE634903A808F0A0FEFFF793FC0A22AB
:105010000146684608F0C9FE694603A808F04EFF3D
:105020005C4908F057FF0A2204460C2106A808F044
:10503000BCFE06A9204608F041FF01464E4808F094
:105040007DFD06A808F036FE684608F033FE03A88A
:1050500008F030FE504906A808F077FE4F4906A830
:1050600008F02CFF0146444808F068FD06A808F047
:1050700021FE4B4906A808F068FE4A4B4A4A1978B7
:105080004A4B03A8002914BF1146194608F05DFEDB
:1050900003A906A808F012FF0146374808F04EFDA4
:1050A00003A808F007FE06A808F004FE404906A879
:1050B00008F04BFE09F010FD0A224FF47A71B0FBA4
:1050C000F1F103A808F083FE03A906A808F0F6FE94
:1050D000384908F0FFFE0146274808F02FFD03A8D5
:1050E00008F0E8FD06A808F0E5FD00260C2575434C
:1050F00015F80930A3B34D446C6809F0EDFC04F5D4
:105100009C5108310C1A394603A808F01EFE0A22E9
:10511000A968684608F049FE694603A808F0CEFE73
:10512000414608F0D7FE0A2205464FF47A7106A8D8
:10513000B4FBF1F108F04BFE06A9284608F0BEFECC
:105140001D4908F0C7FE01460B4808F0F7FC06A809
:1051500008F0B0FD684608F0ADFD03A808F0AAFD10
:105160000136032EC2D11549034808F0F1FC0DB0F9
:10517000BDE8F0830A520100380A00208052010085
:105180002652010050000020255D01008406002009
:1051900038520100554B01004A5201005C030020C7
:1051A0005A52010058030020655401006854010060
:1051B0006D520100765201009852010083500100A7
:1051C00028000020195F01002DE9F0413E493F48C9
:1051D0003F4C404FDFF820813C4D86B008F0B8FCD2
:1051E0000026394603A8013608F0AFFD0A223146F1
:1051F000684608F0DAFD694603A808F05FFE4146FC
:1052000008F068FE0146284608F07EFC684608F073
:1052100051FD03A808F04EFD237E002B4ED02E49F1
:1052200003A808F092FD2146684608F049FB69464C
:1052300003A808F043FE294908F04CFE0146284621
:1052400008F062FC684608F035FD03A808F032FD5E
:10525000234A244B617E2846002914BF1146194673
:1052600008F057FC204903A808F06FFD09F034FC52
:10527000E1694FF47A730A22411A6846B1FBF3F1EF
:1052800008F0A5FD694603A808F018FE174908F0C4
:1052900021FE0146284608F051FC684608F00AFD48
:1052A00003A808F007FD0C2E04F1300499D1104931
:1052B000064808F04DFC06B0BDE8F0810D492846CF
:1052C00008F046FCEFE700BFA7530100380A0020B2
:1052D0007C0300208F520100C3530100CC53010016
:1052E0006554010068540100CF5301000C6E0100A9
:1052F00084500100E6530100195F010010B5704CA5
:1053000070498CB0204608F023FC6F4906A808F0CD
:105310001CFD6E4B03A8196808F017FD03A906A829
:1053200008F0CCFD0146204608F008FC03A808F070
:10533000C1FC06A808F0BEFC654906A808F005FDFA
:10534000644B03A8196808F000FD03A906A808F03B
:10535000B5FD0146204608F0F1FB03A808F0AAFCC1
:1053600006A808F0A7FC5C4903A808F0EEFC06A814
:105370005A4902F033FA06A9684608F0A1FA6946CC
:1053800003A808F09BFD0146204608F0D7FB6846BD
:1053900008F090FC03A808F08DFC5149204608F065
:1053A000D7FB5049204608F0D3FB4F4906A808F028
:1053B000CCFC0C210A220DEB010008F0F6FC03A93D
:1053C00006A808F07BFD0146204608F0B7FB03A8BD
:1053D00008F070FC06A808F06DFC4449204608F06F
:1053E000B7FB434906A808F0B0FC0A22022103A833
:1053F00008F0DBFC03A906A808F060FD3D4908F0B1
:1054000069FD0146204608F099FB03A808F052FC0C
:1054100006A808F04FFC384906A808F096FC0A22B6
:10542000032103A808F0C1FC03A906A808F046FD63
:10543000324908F04FFD0146204608F07FFB03A8E3
:1054400008F038FC06A808F035FC2D4906A808F03D
:105450007CFC0A22042103A808F0A7FC03A906A8E3
:1054600008F02CFD274908F035FD0146204608F0DC
:1054700065FB03A808F01EFC06A808F01BFC2249E7
:1054800006A808F062FC0A22052103A808F08DFC9A
:1054900003A906A808F012FD1C4908F01BFD0146EF
:1054A000204608F04BFB03A808F004FC06A808F00F
:1054B00001FC1749204608F04BFB0CB010BD00BFA3
:1054C000380A0020CC4F01004F510100500000204D
:1054D000565101004C000020EE4F010084060020D0
:1054E000FB4F01000A5001001B5001002E5001002B
:1054F00040500100535E010051500100745E0100F4
:1055000062500100955E0100735001007652010067
:105510007E50010010B5514C514986B0204608F02C
:1055200017FB5049204608F013FB4F49204608F06E
:105530000FFB4E49204608F00BFB4D49204608F072
:1055400007FB4C49204608F003FB4B49204608F076
:10555000FFFA4A49204608F0FBFA4949204608F07C
:10556000F7FA4849204608F0F3FA4749204608F080
:10557000EFFA4649204608F0EBFA4549204608F084
:10558000E7FA4449204608F0E3FA4349204608F088
:10559000DFFA4249204608F0DBFA4149204608F08C
:1055A000D7FA4049204608F0D3FA3F49204608F090
:1055B000CFFA3E4903A808F0C8FB0A220221684638
:1055C00008F0F3FB694603A808F078FC384908F0B6
:1055D00081FC0146204608F0B1FA684608F06AFBF3
:1055E00003A808F067FB334903A808F0AEFB0A22C2
:1055F0000321684608F0D9FB694603A808F05EFC61
:105600002D4908F067FC0146204608F097FA6846E5
:1056100008F050FB03A808F04DFB284903A808F048
:1056200094FB0A220421684608F0BFFB694603A8E0
:1056300008F044FC224908F04DFC0146204608F0E1
:105640007DFA684608F036FB03A808F033FB1D49D5
:10565000204608F07DFA06B010BD00BF380A0020D1
:10566000A94B0100C74B0100D74B0100014C0100C1
:10567000294C0100524C0100794C0100A04C010062
:10568000C44C0100E44C0100054D01002E4D010009
:105690005A4D0100834D0100A64D0100C94D010086
:1056A000EB4D0100876001000E4E0100435E0100DA
:1056B000204E0100645E0100404E0100855E010045
:1056C000604E01008050010038B50B4D0B49284653
:1056D00008F03EFA0A4B00241C701C731C76FEF77F
:1056E00083FDFEF73DFE074B07491C702846BDE8C9
:1056F000384008F02DBA00BF380A0020C94A01001E
:105700002800002058030020E04A0100F7B50124DA
:1057100000940423A822C0211848194D194F08F0FD
:105720006DF800940423A822C021174808F066F8F9
:105730000024FF2319461A460094144808F05EF826
:105740005021134802F01AFE41F69071114802F000
:1057500015FE05F12006281908F048F830193946D9
:10576000303408F0F2FAB4F5107FF4D10A490B484E
:1057700003B0BDE8F04008F0E8BA00BF0403002021
:105780007C03002087600100EC020020D40200208E
:10579000BC05002028030020B44A01005C0300205F
:1057A00038B50D480D4C08F085FAA4F51075303C5D
:1057B00004F1240008F07EFAAC42F8D10848094C04
:1057C00040F8104B02F0C8F9074840F8104BBDE80C
:1057D000384002F0C1B900BF5C030020B8050020CA
:1057E00028030020C8630100BC0500207FB54FF4EA
:1057F000E131534807F05AFA4FF47A7009F028F96A
:1058000050494F4808F0A4F94F494D4808F0A0F915
:105810000221084608F0FCFF0221032008F0F8FFEF
:105820000221042008F0F4FF022009F015F8474B8C
:10583000003018BF012018705870032009F00CF8D0
:10584000434B003018BF012018705870042009F035
:1058500003F8404B4049003018BF012018705870C1
:10586000374808F075F93D4903A808F06EFA0A2296
:105870000221684608F099FA694603A808F01EFB61
:10588000374908F027FB01462D4808F057F96846CC
:1058900008F010FA03A808F00DFA324903A808F03E
:1058A00054FA0A220321684608F07FFA694603A8E1
:1058B00008F004FB2C4908F00DFB0146204808F0D5
:1058C0003DF9684608F0F6F903A808F0F3F927490E
:1058D00003A808F03AFA0A220421684608F065FA9B
:1058E000694603A808F0EAFA214908F0F3FA0146EC
:1058F000134808F023F9684608F0DCF903A808F01B
:10590000D9F9FEF771FCFEF70DFC40B919490C48B6
:1059100008F01EF94FF47A7009F09AF8FAE7164881
:1059200002F0F0FD154802F0EDFD1549044808F0BD
:105930000FF9FFF7E3FCFFF7EDFD07B05DF804FB9F
:10594000380A0020BF5D0100E85D01000000002072
:105950000C00002018000020225E0100415E0100C2
:10596000525E0100625E0100735E0100835E010011
:10597000945E0100A45E0100BC0500202803002005
:10598000CF5E01002DE9F043471E0B2F99B006466C
:10599000884608D99049914808F0DAF80024204652
:1059A00019B0BDE8F0838E4B302202FB07329946D6
:1059B000147FD4B98B4910A808F0C7F90A223146E0
:1059C0000AA808F0F2F90AA910A808F077FA86499F
:1059D00008F080FA0146814808F0B0F80AA808F0FB
:1059E00069F910A808F066F9D9E729B9FEF76EFC45
:1059F00010B13046FEF736FC302510A805FB0795A0
:105A000002F030FC043579490AA808F09EF92946CD
:105A100007A807F055FF07A90AA808F04FFA74492C
:105A200008F058FA734B7449B8F1000F18BF1946C3
:105A300008F050FA014601A808F0EAF907A808F0B2
:105A400039F90AA808F036F929460AA8FEF758FBE2
:105A500050220AA910A801F0DAFF0446002800F03D
:105A6000A380664904A808F070F9654B654904A84D
:105A7000B8F1000F18BF194608F010FA624904A8DF
:105A800008F00CFA04A910A808F058F85F490AA811
:105A900008F05BF9294607A807F012FF07A90AA832
:105AA00008F00CFA014610A808F048F807A808F01A
:105AB00001F90AA808F0FEF8554910A808F048F8BE
:105AC00010A808F035F809F007F800F6B83410A867
:105AD00002F026F900283BD010A802F021F9002896
:105AE0003ED1044610A802F09FFA002C4ED030237D
:105AF00003FB07933B4983F81D800AA808F025F9AA
:105B00000A22314607A808F050F907A90AA808F0A8
:105B1000D5F9404908F0DEF93F49404BB8F1000F94
:105B200018BF194608F0D6F901462C4808F006F8C7
:105B300007A808F0BFF80AA808F0BCF804A808F005
:105B4000B9F801A808F0B6F810A802F005F826E7A1
:105B500008F0C2FFA042BFD20A2008F079FFB6E7E2
:105B600010A907A808F07AF82D490AA808F0EDF85E
:105B70000AA907A808F000FA441C0AA818BF0124C3
:105B800008F098F807A808F095F8ABE725490AA8A7
:105B900008F0DBF831460A2207A808F006F907A941
:105BA0000AA808F08BF9BFE71F490AA808F0CDF84A
:105BB0000A22314607A808F0F8F807A90AA808F051
:105BC0007DF90146054807F0B9FF07A808F072F80B
:105BD0000AA808F06FF8B4E7214B0100380A00204A
:105BE000780300208F5201003E4B01004F4B010013
:105BF000554B0100F1580100154B0100574B0100B6
:105C0000104B0100144B01005C4B0100664B01007E
:105C1000595D0100CD530100194B0100C85C010022
:105C2000335D01006D4B0100894B010030B53A4AEC
:105C30000D46431E302101FB032387B01B7F044622
:105C4000DBB9364903A808F080F80A2221466846E5
:105C500008F0ABF8694603A808F030F9304908F0BD
:105C600039F901462F4807F069FF684608F022F825
:105C700003A808F01FF807B030BD0121FFF782FE2E
:105C800000283BD00C21284B694301225A545D184F
:105C900008F022FF25496860684608F056F80A2295
:105CA000214603A808F081F803A9684608F006F920
:105CB0001F4908F00FF901461A4807F03FFF03A8F3
:105CC00007F0F8FF684607F0F5FF1A49684608F044
:105CD0003CF80A22052103A808F067F803A96846E2
:105CE00008F0ECF8144908F0F5F801460D4807F003
:105CF00025FF03A807F0DEFF6846BAE70F496846AC
:105D000008F023F821460A2203A808F04EF803A958
:105D1000684608F0D3F8E8E778030020AD5C01009E
:105D20003E4B0100380A002028000020BA5C010028
:105D3000C75C0100D25C010076520100EE5C0100FC
:105D40002DE9F041C0B20C468AB0154608F084FD3A
:105D500023788342064602D008F0BEFE606008F059
:105D6000BBFE6368371CA0EB030018BF0127322875
:105D700037D96378B34234D06770002E35D12B4ABF
:105D80002B49012323720C2303FB052304A89E68DF
:105D900007F0DBFF0A22691C01A808F006F801A938
:105DA00004A808F08BF8234908F094F80A228046EA
:105DB000314607A807F0F9FF07A9404608F07EF82A
:105DC00001461D4807F0BAFE07A807F073FF01A8B7
:105DD00007F070FF04A807F06DFF29463046FFF773
:105DE00025FF27700AB0BDE8F081237A002BF8D098
:105DF000002323720E4907A807F0A7FF0A22691C97
:105E000004A807F0D2FF04A907A808F057F80B4927
:105E100008F060F80146084807F090FE04A807F073
:105E200049FF07A807F046FFDBE700BF2800002076
:105E30006D5301007A530100380A00209D53010080
:105E400008B5002207490220FFF77AFF0122064920
:105E50000320FFF775FF022204490420BDE8084033
:105E6000FFF76EBF000000200C000020180000208B
:105E70002DE9F04F8BB008F02FFE464FDFF8388148
:105E800006460025B9464FF00C0B0BFB05FB1BF833
:105E9000073063B307EB0B0A41F28733DAF80440AB
:105EA000321B9A4238D9DAF8084000212046FFF721
:105EB00069FD10B3384907A807F047FF0A222146B9
:105EC00004A807F072FF04A907A807F0F7FF3349F9
:105ED00008F000F80146324807F030FE04A807F049
:105EE000E9FE07A807F0E6FE002309F80B300135AC
:105EF000032DC8D10BB0BDE8F08F2A4907A807F0E1
:105F000024FF0A22214604A807F04FFF04A907A88E
:105F100007F0D4FF2449DBE758F82520B21AB2F580
:105F20007A7FE4D3C6F59C530833234448F82560B0
:105F30004FF47A74B3FBF4F4002CD8D01B4904A8B6
:105F400007F003FF0A22DAF8081001A807F02DFF76
:105F500001A904A807F0B2FF154907F0BBFF0A2208
:105F60008246214607A807F020FF07A9504607F000
:105F7000A5FF104907F0AEFF0146094807F0DEFD16
:105F800007A807F097FE01A807F094FE04A807F001
:105F900091FEACE7280000200B53010018530100CC
:105FA000380A002032530100205301004F530100F2
:105FB0005C530100765201001C0300202DE9F041E2
:105FC0001D4B1E491E4F002818BF194686B00646B5
:105FD0001C4807F0BDFD002425464FF0300808FBA3
:105FE000047301341B7F43B131462046FFF7CAFCDE
:105FF00000B10135642008F02BFD0C2CEFD11249C3
:1060000003A807F0A2FE0A222946684607F0CDFE43
:10601000694603A807F052FF0C4907F05BFF0146F1
:10602000084807F08BFD684607F044FE03A807F018
:1060300041FE06B0BDE8F0818D510100AC51010078
:1060400078030020380A0020C8510100BF4D01002C
:1060500070B586B00446884903A807F076FE21464D
:1060600003A807F02BFF0146844807F067FD03A84B
:1060700007F020FE824903A807F067FE03A9204627
:1060800007F05FFF054603A807F014FED5B1A3682B
:106090002146032203A807F073FF03A807F0C5FFFA
:1060A000044603A807F006FE631E0B2B05D801214A
:1060B0002046FFF767FC06B070BD72496F4807F0D5
:1060C00047FDF8E7704903A807F03FFE03A9204603
:1060D00007F037FF064603A807F0ECFD8EB1A36872
:1060E0002146042203A807F04BFF03A807F09DFFF9
:1060F000044603A807F0DEFD631E0B2BDDD82946FE
:10610000D6E76249204607F0F2FE054618B10120A5
:10611000FFF754FFCFE75E49204607F0E8FE28B1BD
:106120002846FFF74BFFFEF71BF9C4E75949204605
:1061300007F0DDFE50B1574903A807F006FE03A89B
:10614000FEF7D4F803A807F0B5FDB4E7524920469E
:1061500007F0CDFE08B15049EEE75049204607F060
:10616000C6FE08B14D49E7E74D49204607F0BFFE9E
:1061700008B14B49E0E74B49204607F0B8FE70B143
:10618000494B4A49012203A81A7007F0DEFD03A813
:10619000FEF7ACF803A807F08DFD45498EE74549A9
:1061A000204607F0A4FE30B13F4B00221A70FEF7E4
:1061B000D7F8414982E74149204607F098FE10B1DF
:1061C000FEF7E2FE77E73E49204607F090FE10B169
:1061D000FEF7FAFF6FE73B49204607F088FE10B153
:1061E000FFF772FA67E73849204607F080FE10B1E2
:1061F000FFF790F95FE7354903A807F0A6FD03A96B
:10620000204607F09EFE054603A807F053FD8DB318
:10621000A3680622214603A807F0B2FE03A807F0F0
:1062200004FF044603A807F045FDA4F1640241F20F
:1062300024339A421CD8264B26491C6003A807F039
:1062400084FD0A222146684607F0AFFD694603A88F
:1062500007F034FE204907F03DFE0146074807F0ED
:106260006DFC684607F026FD03A807F023FD22E732
:106270001A4923E71A4921E7804E0100380A002015
:10628000934E0100974E0100B64E0100BB4E010037
:10629000C24E01000B4B0100CA4E0100D04E01005E
:1062A000D64E0100DD4E010058030020064B0100D0
:1062B000E54E0100FF4E0100084F0100D1500100E2
:1062C000DD500100254F01002B4F0100304F010030
:1062D00024000020374F0100584F01005B4F0100A0
:1062E0007C4F01007FB50F4806F021FDB8B10A22AE
:1062F0000C49684607F0C6FC684607F06DFE684624
:1063000007F05EFE694603A807F082FD03A8FFF7C9
:106310009FFE03A807F0CEFC684607F0CBFC07B051
:106320005DF804FB380A0020F0B587B00D4604463E
:10633000324903A807F009FD03A9284607F01CFE0F
:10634000064603A807F0B6FC04362D4903A807F05B
:10635000FCFC324603A9284607F0FCFD074603A8CB
:1063600007F0A8FC7A1C0FD1264903A807F0EDFC22
:10637000324603A9284607F0EDFD074603A807F0BB
:1063800099FC7B1C08BFAF683B46324629466846ED
:1063900007F0F6FD684607F013FE694603A807F00C
:1063A00037FD03A8FFF754FE03A807F083FC164946
:1063B000204607F0CDFB1549204607F0C9FB1449DC
:1063C000204607F0C5FB204607F0B2FB114903A8A1
:1063D00007F0BBFC694603A807F070FD0E4907F003
:1063E00079FD0146204607F0A9FB03A807F062FCEF
:1063F000684607F05FFC07B0F0BD00BF6D5C0100B0
:10640000CD530100115D01002A5D01003A5D0100DC
:10641000595D0100725C0100BC5D0100F0B58DB0FA
:106420000D460446544909A807F08FFC09A92846DF
:1064300007F0A2FD064609A807F03CFC03364F49C9
:1064400009A807F082FC324609A9284607F082FD18
:10645000074609A807F02EFC7A1C0FD1484909A865
:1064600007F073FC324609A9284607F073FD07467A
:1064700009A807F01FFC7B1C08BFAF683B463246EB
:10648000294609A807F07CFD09A807F0CEFD0646BD
:1064900009A807F00FFC731E0B2B5CD8394A30217A
:1064A00001FB032330465D7F85F001052946FFF798
:1064B00069FA35490746204607F04AFB334920462A
:1064C00007F046FB3249204607F042FB204607F022
:1064D0002FFB304903A807F038FC2F4B2F496846A3
:1064E000002F18BF194607F030FC694603A807F0D3
:1064F000E5FC2B4907F0EEFC0A223146074606A8C8
:1065000007F053FC06A9384607F0D8FC254907F0E8
:10651000E1FC254B25490646002D18BF194609A860
:1065200007F013FC09A9304607F0C8FC204907F022
:10653000D1FC0146204607F001FB09A807F0BAFB91
:1065400006A807F0B7FB684607F0B4FB03A807F0FE
:10655000B1FB0DB0F0BD1749204607F0F9FA0C4920
:10656000204607F0F5FA204607F0E2FA12492046E5
:1065700007F0EEFAEDE700BF0D5D0100CD5301001D
:10658000115D0100780300202A5D01003A5D0100E1
:10659000595D01002E5401001C6701009E6A010034
:1065A0003A54010046540100EE530100F353010038
:1065B000BD5D0100885D0100A15D010010B58EB0D8
:1065C000424906A801F0ECFE0A9B01334CD00D2293
:1065D00006A9684607F056FB06A801F0F5FC3C4901
:1065E00003A807F0B2FB03A9684607F0C5FC044600
:1065F00003A807F05FFB01340BD0694603A807F03E
:1066000007FC03A906A8FFF709FF03A807F052FB40
:1066100027E0304903A807F098FB03A9684607F074
:10662000ABFC044603A807F045FB013408D06946DB
:1066300003A807F0EDFB03A906A8FFF775FEE4E742
:10664000254903A807F081FB03A9684607F094FCDD
:10665000044603A807F02EFB01340AD006A8FEF773
:106660006FFC684607F026FB06A801F075FA0EB02D
:1066700010BD1A4903A807F068FB03A9684607F094
:106680007BFC044603A807F015FB013403D006A8E1
:10669000FEF7D8F8E5E703A8FEF75AF9104906A86F
:1066A00007F056FA0F4906A807F052FA0E4906A855
:1066B00007F04EFA06A807F03BFA03A906A807F070
:1066C0003DFA06A801F0B0FC9FE700BFBC05002022
:1066D000B3500100BF500100CC500100D850010060
:1066E0002A5D0100E5500100595D010010B58EB032
:1066F000244906A801F054FE0A9B013326D00D223E
:1067000006A9684607F0BEFA06A801F05DFC1E491E
:1067100003A807F01AFB03A9684607F02DFC0446FE
:1067200003A807F0C7FA013415D0694603A807F09B
:106730006FFB03A906A8FDF72BFE03A807F0BAFA22
:1067400006A801F071FC684607F0B4FA06A801F04B
:1067500003FA0EB010BD0D4903A807F0F6FA03A91D
:10676000684607F009FC044603A807F0A3FA0134C1
:10677000E6D0694603A807F04BFB03A906A8FDF77E
:1067800013FFDAE7280300209E500100A850010003
:1067900008B5FFF7A7FDFFF753FBFFF769FBFFF70E
:1067A0000DFFFFF7A3FFFEF771F80A20BDE80840D0
:1067B00008F04EB908B50368002B02DA09480AF060
:1067C0003EFB8B4208D949008B4205D20029B6BF57
:1067D0006FF00043016003600068BDE808400130CD
:1067E0000AF019BB1460010010B50446406828B1D6
:1067F00063781BB940F2AC410AF0FCFA204610BDA8
:1068000008B4F3B507AB044600F10C0553F8042BAC
:106810000193802128460CF055F9D4F89000A8B1D6
:1068200094F89430012B11D90F4907F072F9D4F87C
:106830009060336828465F680CF044F829460246A9
:106840003046B847D4F8900007F072F928466468DB
:106850000CF038F829460246204606F03DFB02B00F
:10686000BDE8F04001B07047645F0100034653F893
:10687000080B984201D00AF0BBBA7047F8B506463B
:10688000456808460F460CF01DF8A842024628BF8E
:106890002A46044622B1394630680BF001FA00B9A5
:1068A000281BF8BD012A30B404D191F900300370DF
:1068B00030BC7047002AFBD030BC0BF000BAFFFFA1
:1068C00000F1080373B5044603600D46D1B10846D4
:1068D0000BF0F8FF0F280646019006D9002101A809
:1068E000FFF768FF019B2060A360324629462068BD
:1068F000FFF7D8FF019B2268636000212046D15436
:1069000002B070BD01480AF097FA00BF2C60010088
:106910002DE9F347DDF82880164642689A46A8EB31
:106920000603571A13440268019300F108039A42C0
:106930000D46044614BF81680F2101A8FFF73AFFF6
:10694000BF1B81461DB12A462168FFF7ABFFBAF194
:10695000000F08D0B8F1000F05D04246514609EBB0
:106960000500FFF79FFF47B121682E4405EB0800A3
:106970003A4631444844FFF795FF2046FFF776FF3B
:10698000019BC4F80090A36002B0BDE8F087F7B5A2
:106990000268466800F108039A4218BF836806F14E
:1069A000010508BF0F239D4204460F4606D9012367
:1069B000009300231A463146FFF7AAFF23689F552C
:1069C0002368656000225A5503B0F0BD012A30B437
:1069D00004D191F90030037030BC7047002AFBD01D
:1069E00030BC0BF077B9FFFF2DE9F74F8146144615
:1069F00040680C9E02F10042013A121A96429846F3
:106A000002D937480AF01BFA4A46A6EB040B52F8A3
:106A1000083B934218BFD9F808200BEB000A08BFC7
:106A20000F22524552D35F189845A0EB0101A1EB0C
:106A3000040522D3034498451FD876BB95B1B442D0
:106A400010D02A463919B819FFF7C0FFB44209D24D
:106A50003C4408EB06039C4227D332464146384665
:106A6000FFF7B4FFD9F80030C9F804A00022484667
:106A700003F80A2003B0BDE8F08F35B1B44204D06A
:106A80002A463919B819FFF7A1FF002EEAD032467D
:106A900041463846FFF706FFE4E7B4421DD33246CD
:106AA00041463846FFF792FFC8E7444503D83246CF
:106AB00008EB0B01EDE7A4EB0804224641463846FB
:106AC000FFF784FF321BB9193819E3E700964346F4
:106AD00022464846FFF71CFFC4E7002DB8D0B0E7B8
:106AE000FB5F010037B5044608460D460BF0EAFE91
:106AF0002B460090626800212046FFF775FF03B027
:106B000030BDFFFF2DE9F04F8FB00AAB0291064672
:106B1000089398490298002309938DF828309246EB
:106B2000FFF7ACFE031C0490D6F8900018BF0123B9
:106B3000069328B196F8943013B18F4906F0E9FF17
:106B400007F0CAFF4FF000080123DFF854B20590A8
:106B50004746CDF80480CDF80C809946444607930B
:106B600007F0BAFF059BB268C01A904200F21A8182
:106B7000079B5BB17068026812699047079B002809
:106B8000EDD0706803685B69984745B2D6F890000D
:106B900038B196F8943023B10A2D24D1774906F004
:106BA000B8FFD6F8900060B196F89430022B08D95F
:106BB000734906F0AEFF0A222146D6F8900007F08E
:106BC0001DF8631E072B29D8DFE813F03A005C009C
:106BD0007E008A008D00B7002B01A200092C00F076
:106BE000E3800123BBE70D2D01D16649D7E7202DB6
:106BF00001D16549D3E71F2D0CDC644906F089FFFC
:106C000029460A22D6F8900007F011F86049D6F814
:106C10009000C4E7294606F080FFC2E72B2D05D17E
:106C2000294608A8FFF7B3FE0124DAE71BF907306D
:106C3000AB4240F09C80DDF8188001370824D0E793
:106C40003A2D294608A801D03D2D3AD1FFF79FFEE5
:106C5000049B8BB1029B099A5B689A4206D15AB198
:106C6000029B089819680BF01BF828B1494908A83D
:106C7000FFF738FF4FF0010846495046FFF732FF53
:106C80000224AEE77C2D0ED1DAF800000AF05DFF99
:106C90000023CAF80430DAF8003003904FF0000205
:106CA0001A7003249DE70D2D00F0B2800A2D00F02C
:106CB000B18096F88C3013B1202D00F0AD802946BC
:106CC0005046FFF764FE8CE729465046FFF75FFE0B
:106CD000019B039A01330193934208BF052480E787
:106CE0000A2D08BF05242C495046FFF7C7FD60B1A7
:106CF0002A495046FFF7C2FD002804BF4FF00109A2
:106D000009244F2D2AD1012798E781460924F8E765
:106D10001BF907207B1C58460793AA4218BF07247B
:106D20000BF0D0FD079B984270D107464FF0000949
:106D3000B8F1000F19D1092436E01BF907207B1C9C
:106D400058460793AA4218BF07240BF0BBFD079BC8
:106D500098425BD107464FF00109E9E7B8F1000F0F
:106D60003FF43CAF092C7FF43CAF4FF00008002407
:106D700037E700BFB55F0100C25F0100C85F0100D7
:106D8000E35F0100CD5F0100D25F0100D75F01002A
:106D90001C59010087600100375D0100355F01006B
:106DA000D95F01004FF00309D6F89000B8B196F80A
:106DB0009430022B13D91E4906F0ABFE0A2221465D
:106DC000D6F8900006F018FF1A49D6F8900006F0A1
:106DD000A0FE0A224946D6F8900006F00FFFD6F82A
:106DE0009000012386F88C3048B196F8943033B186
:106DF000114906F08EFED6F8900006F099FE08A81C
:106E0000FFF734FD48460FB0BDE8F08F1F46E8E6B7
:106E10000424E6E60524E4E6B8F1000F7FF4E1AED1
:106E20009DE6002398464FF002091C4697E600BFF6
:106E3000DE5F0100EB5F0100F15F010030B5044649
:106E4000406803688DB05B68984706AA1D4968468C
:106E5000FFF736FD08AB069306AA002369462046D5
:106E600007938DF82030FFF74DFE0546D4F89000CB
:106E700088B194F89430012B0DD9134906F049FEDE
:106E80000699D4F8900006F063FE7DB90F49D4F856
:106E9000900006F05DFE06A8FFF7E8FC6846FFF7E5
:106EA000E5FCB5FA85F040090DB030BD012DD4F8F0
:106EB000900001D10649ECE7032D0CBF05490649B6
:106EC000E7E700BFB55F0100025F01001C5F010042
:106ED0002A5F01003B5F01004E5F010008B42DE90D
:106EE000F3431646044609AB306853F8042B01936C
:106EF000884604F10C05002171600170802128464C
:106F00000BF0E0FDD4F89000B0B106F011FE24497A
:106F1000D4F8900006F0FDFDD4F890703B68284648
:106F2000D3F804900BF0CEFC294602463846C847F9
:106F3000D4F8900006F0FCFD284667680BF0C2FC10
:106F400029460246384605F0C7FF324641462046EC
:106F5000FFF7D8FD0546D4F8900068B1114906F056
:106F6000D8FD3168D4F8900006F0F2FD65B90E49FD
:106F7000D4F8900006F0ECFDB5FA85F0400902B0B7
:106F8000BDE8F04301B07047012DD4F8900001D165
:106F90000649EFE7032D0CBF05490649EAE700BFA4
:106FA0009F5F0100A95F01001C5F01002A5F0100D3
:106FB0003B5F01004E5F01002DE9F043044640684D
:106FC00091B01646002834D02378002B31D10368C5
:106FD000194DDB69DFF86C90DFF86C80174F98472C
:106FE0000AAA174904A8FFF76BFC60680368DB680E
:106FF00098474FF4FA72AA602378A3B9002E12DDE5
:1070000003AA49460AA8FFF75BFC3B4604AA0AA963
:10701000CDF800800848FFF761FF20700AA8FFF74D
:1070200025FC013EE8E742F2107304A8AB60FFF7CD
:107030001DFC11B0BDE8F083EC0500200B6E0100D3
:10704000876001007C5F01008C5F0100074B0848EE
:1070500058600022012142F210701A705970986035
:1070600083F88C1083F89420704700BFEC05002053
:10707000901300200148FFF7B7BB00BFEC050020CC
:1070800008B50368002B02DA094809F0D8FE8B42E4
:1070900008D949008B4205D20029B6BF6FF00043E2
:1070A000016003600068BDE80840013009F0B3BE2C
:1070B0001460010073B542F21073036000F5F873B9
:1070C0000025C0F8E831012600F50273044680F877
:1070D000E451C0F8EC5180F8F051C0F80032C0F82B
:1070E000045280F8085204230096A822C02100F51B
:1070F000067006F083FB33460096A822C02104F5F3
:107100000C7006F07BFBFF2300951A46194604F528
:10711000127006F073FB204602B070BD70B50B46CE
:1071200000F10802026053F8084BA3420FD11C463D
:1071300001F1180554F8046B42F8046BAC42F9D124
:107140004A6842600B6000234B600B7270BD0460A4
:107150008A688260F4E72DE9F743034646680446EF
:1071600053F8080B98428846174602EB06052CD0C8
:10717000A1688D420DD827B13A4641463044FFF709
:1071800091FB23686560002220465A5503B0BDE894
:10719000F083019501A8FFF773FF81461EB13246C7
:1071A0002168FFF77FFBB8F1000F06D02FB13A46F8
:1071B000414609EB0600FFF775FB2046FFF756FB3B
:1071C000019BC4F80090A360DBE70F2DD3D9019594
:1071D0000F21DFE708B5D1E90012FFF7BCFF08BDBA
:1071E00038B5044608460D460BF06CFB61686FF03D
:1071F00000435B1A8342024602D2044809F01FFE94
:1072000029462046FFF7A7FF38BD00BF6661010091
:1072100008B4F0B50D46114682B0044601F10E00E7
:1072200020F0070000AF07F11C03ADEB000D6E4628
:1072300053F8042B3B603046A84704F108030F289D
:1072400005462360786006D90021381DFFF718FF36
:107250007B682060A3602A4631462068FFF722FB46
:107260007B6822686360002120460837D154BD4600
:10727000BDE8F04001B0704713B5054B00911022F6
:1072800004490446FFF7C4FF204602B010BD00BF0A
:107290007B610100C52A010073B505460E4619B988
:1072A00012B10D4809F0C8FD941B0F2C019406D9AA
:1072B000002101A8FFF7E4FE019B2860AB60224695
:1072C00031462868FFF7EEFA019B2A686B600021BF
:1072D000D15402B070BD00BF2C60010038B500F180
:1072E0000803044603600D4649B108460BF0EAFA6C
:1072F0002A1820462946FFF7CFFF204638BD4FF019
:10730000FF32F6E72DE9F043DFF81093C14CB7B038
:107310000546884606A8C0491E461746FFF7DEFF09
:10732000032248464FF4E131FFF746FE0021404674
:1073300006F0A4FB017830A8FFF79EFF214630A895
:10734000FFF74EFF01460CA8FFF7E8FE30A8FFF755
:107350008DFA0121404606F091FB01782AA8FFF73B
:107360008BFF21462AA8FFF73BFF014630A8FFF715
:10737000D5FE30A90CA8FFF72DFF30A8FFF776FA4D
:107380002AA8FFF773FA0221404606F077FB01783E
:107390002AA8FFF771FF21462AA8FFF721FF01461F
:1073A00030A8FFF7BBFE30A90CA8FFF713FF30A8E9
:1073B000FFF75CFA2AA8FFF759FA0321404606F0C6
:1073C0005DFB017830A8FFF757FF30A90CA8FFF745
:1073D00001FF30A8FFF74AFA0021384606F04EFBBD
:1073E000017830A8FFF748FF214630A8FFF7F8FEE4
:1073F000014612A8FFF792FE30A8FFF737FA0121E5
:10740000384606F03BFB01782AA8FFF735FF2146F6
:107410002AA8FFF7E5FE014630A8FFF77FFE30A956
:1074200012A8FFF7D7FE30A8FFF720FA2AA8FFF727
:107430001DFA0221384606F021FB01782AA8FFF741
:107440001BFF21462AA8FFF7CBFE014630A8FFF715
:1074500065FE30A912A8FFF7BDFE30A8FFF706FAB7
:107460002AA8FFF703FA0321384606F007FB017844
:1074700030A8FFF701FF30A912A8FFF7ABFE30A834
:10748000FFF7F4F90021304606F0F8FA017830A849
:10749000FFF7F2FE214630A8FFF7A2FE014618A82A
:1074A000FFF73CFE30A8FFF7E1F90121304606F076
:1074B000E5FA01782AA8FFF7DFFE21462AA8FFF7A0
:1074C0008FFE014630A8FFF729FE30A918A8FFF764
:1074D00081FE30A8FFF7CAF92AA8FFF7C7F90221F1
:1074E000304606F0CBFA01782AA8FFF7C5FE214600
:1074F0002AA8FFF775FE014630A8FFF70FFE30A956
:1075000018A8FFF767FE30A8FFF7B0F92AA8FFF721
:10751000ADF90321304606F0B1FA017830A8FFF743
:10752000ABFE30A918A8FFF755FE30A8FFF79EF96B
:1075300000213E9806F0A2FA017830A8FFF79CFEE1
:10754000214630A8FFF74CFE01461EA8FFF7E6FDD6
:1075500030A8FFF78BF901213E9806F08FFA0178E9
:107560002AA8FFF789FE21462AA8FFF739FE01461F
:1075700030A8FFF7D3FD30A91EA8FFF72BFE30A8D7
:10758000FFF774F92AA8FFF771F902213E9806F077
:1075900075FA01782AA8FFF76FFE21462AA8FFF79F
:1075A0001FFE014630A8FFF7B9FD30A91EA8FFF75E
:1075B00011FE30A8FFF75AF92AA8FFF757F903215F
:1075C0003E9806F05BFA017830A8FFF755FE30A927
:1075D0001EA8FFF7FFFD30A8FFF748F900213F98EC
:1075E00006F04CFA017830A8FFF746FE214630A895
:1075F000FFF7F6FD014624A8FFF790FD30A8FFF73E
:1076000035F901213F9806F039FA01782AA8FFF7E9
:1076100033FE05E0DE4A010087600100EC05002032
:1076200021462AA8FFF7DCFD014630A8FFF776FDCA
:1076300030A924A8FFF7CEFD30A8FFF717F92AA834
:10764000FFF714F902213F9806F018FA01782AA8EA
:10765000FFF712FE21462AA8FFF7C2FD014630A817
:10766000FFF75CFD30A924A8FFF7B4FD30A8FFF7B1
:10767000FDF82AA8FFF7FAF803213F9806F0FEF973
:10768000017830A8FFF7F8FD30A924A8FFF7A2FD84
:1076900030A8FFF7EBF808F104030FCB05F50774EA
:1076A00084E80F0098F8143085F82C323B1D0FCB7E
:1076B00005F50D7484E80F003B7D85F84432331DD9
:1076C0000FCB05F5137484E80F00337D85F85C3229
:1076D000204930A8FFF702FE0C9B189A0193CDE9D0
:1076E00002321D4B009306AA1C4B30A94846FFF7F7
:1076F000F5FB30A8FFF7BAF8194930A8FFF7EEFDFF
:10770000249B05931E9B0493189B0393129B029347
:107710000C9B0193134B009306AA134B30A94846C8
:10772000FFF7DCFB30A8FFF7A1F824A8FFF79EF8CD
:107730001EA8FFF79BF818A8FFF798F812A8FFF704
:1077400095F80CA8FFF792F806A8FFF78FF837B066
:10775000BDE8F083BE600100DA600100CD60010089
:10776000EB60010006610100F36001002DE9F041CA
:10777000ACB000241F46FF230646884615460094F9
:107780001A46194602A806F039F823462246009404
:10779000214608A806F032F841460EA8FCF7B0FCD6
:1077A000394614A8FCF7ACFC20AC02A91AA8FCF7D7
:1077B000A7FC2946204626ADFCF7A2FC08A92846CE
:1077C000FCF79EFCCDE900451AAB14AA0EA9304681
:1077D000FFF798FD2CB0BDE8F081FFFF70B50322E4
:1077E0008EB005464FF4E1312848FFF7E5FB002451
:1077F000274902A8FFF772FD23462246214600943E
:10780000284605F0FBFF234908A8FFF767FD224B38
:10781000009302AA214B1D4808A9FFF75FFB06460B
:1078200008A8FFF723F8D6B102980AF08EF90128CC
:107830001BD11B4908A8FFF751FD1A4B0093019477
:10784000194B124802AA08A9FFF748FB044608A8EA
:10785000FFF70CF81CB10299284606F0F1F802A8CF
:10786000FFF704F828460EB070BD02980AF06DF9D3
:107870000228F4D10D4908A8FFF730FD0C4B03484E
:1078800002AA08A9FFF72AFBE0E700BFEC050020E9
:107890008760010056600100616001000B6E01000D
:1078A000546101005C610100886001003B610100DE
:1078B0004661010070B590B00C4604A81E491E46F2
:1078C0001546FFF70BFD03224FF4E1311B48FFF78C
:1078D00073FB1B490AA8FFF701FD02230193194B13
:1078E000009304AA184B15480AA9FFF7F7FA0AA84B
:1078F000FEF7BCFF15490AA8FFF7F0FC144B0194F2
:107900000093CDE90256134B0C4804AA0AA9FFF7CD
:10791000E5FA04460AA8FEF7A9FF24B104980AF084
:1079200014F9012806D0092404A8FEF79FFF204679
:1079300010B070BD0724F7E787600100EC05002058
:10794000566001008F600100886001001061010035
:107950002B6101001E6101000123FFF7ABBFFFFF98
:107960000148FFF7A7BB00BF8406002010B5054CF7
:1079700004F50070FEF77AFF04F5F470FEF776FF69
:1079800010BD00BF84060020002070470069013050
:1079900018BF0120704708B503685B6B984780F0FB
:1079A0000100C0B208BD13B502AB026803F8011DA7
:1079B000546819460122A04702B010BD07B50368FC
:1079C00001225B6A0DF10701984701280CBF9DF861
:1079D00007004FF0FF3003B05DF804FB00690B694E
:1079E000C31A58425841704770470020704740F210
:1079F0000C41C06809F0FEB910B51021044609F029
:107A0000F9F9204610BD08B5FFF7F6FF08BD7FB5B0
:107A100003680446164601A81D6A05F051FF324668
:107A200001992046A847044601A806F043F92046DC
:107A300004B070BD036810B504469B689847A368FE
:107A4000013BA3602BB923682046DB68BDE81040EA
:107A5000184710BD00F1080370B5044603600E46D8
:107A6000B1B108460AF02EFF0F28054604D90130AF
:107A700009F0D1F9A5602060012D20680BD196F99D
:107A8000003003702368656000225A55204670BD9F
:107A9000044809F0D1F9002DF4D02A4631460AF005
:107AA0000EF9EFE72C600100036813B962B6BFF36B
:107AB0006F8F704713B5EFF3108300930123019389
:107AC00072B6019B5A1E019233B104686846FFF7F3
:107AD000EBFF204602B010BD6846FFF7E5FFF8E770
:107AE00013B50446EFF3108300930123019372B69C
:107AF000019B5A1E0192684633B1FFF7D5FF601C07
:107B0000C0F3090002B010BDFFF7CEFFFAE7FFFF98
:107B10000023C0E905334FF47A72C0E90132C36132
:107B20000B6903618B698361CB69044A02601BB1F5
:107B30005A6801325A60C361704700BF1863010080
:107B400010B50446006828B14368013B43600BB997
:107B5000FFF770FF204610BD10B5044B044640F8F7
:107B60001C3BFFF7EDFF204610BD00BF186301006E
:107B700030B50369002B8FB0044607DB0368DB6A6E
:107B8000984718B9236820469B6A984723690133B0
:107B900021D1124902A8FFF75DFF03224FF4E13122
:107BA0000F48FFF709FA0F4908A8FFF753FF0E4BDC
:107BB000009302AA0D4B0A4808A9FFF78FF9054662
:107BC00008A8FEF753FE1DB1029809F0BEFF206120
:107BD00002A8FEF74BFE0FB030BD00BF876001006A
:107BE000EC050020F1620100FF6201000B6E010054
:107BF00070B5044692B00D461646FFF7B9FF2369EB
:107C0000002B25DB1E4906A8FFF724FF03224FF4B3
:107C1000E1311C48FFF7D0F96369DBB11A490CA8C0
:107C2000FFF718FF63690295CDE9036323690193A8
:107C3000164B009306AA164B12480CA9FFF74EF9F3
:107C400004460CA8FEF712FE06A8A4B9FEF70EFE25
:107C5000002013E00F490CA8FFF7FCFECDE9025607
:107C6000236901930C4B009306AA0C4B05480CA901
:107C7000FFF734F9E4E7FEF7F9FD012012B070BD1B
:107C800087600100EC0500203062010050620100B5
:107C900040620100626201008362010076620100BD
:107CA00070B50369002B90B005460E4614462ADBDA
:107CB000164904A8FFF7CEFE03224FF4E131144821
:107CC000FFF77AF913490AA8FFF7C4FE02942B695B
:107CD0000193114B009304AA104B0D480AA9FEF71B
:107CE0008FFD0AA8FEF7C2FD224631460848FFF77D
:107CF000A5F8054604A825B1FEF7B8FD204610B04A
:107D000070BDFEF7B3FD0024F8E700BF87600100F7
:107D1000EC0500200A6201002162010017620100E7
:107D200030B50369002B8FB0054635DB84695CB143
:107D300004F58160FFF7BEFE002808DDA86900F5A4
:107D40008160FFF7B7FE044620460FB030BD1549ED
:107D500002A8FFF77FFE03224FF4E1311248FFF73C
:107D60002BF9124908A8FFF775FE2B690193104BF8
:107D7000009302AA0F4B0C4808A9FFF7AFF804467E
:107D800008A8FEF773FD4CB1029809F0DEFE041E50
:107D900004DA02A8FEF76AFD0024D5E702A8FEF780
:107DA00065FDD1E787600100EC050020B1620100AC
:107DB000BD620100886001002DE9F04F0369002BCE
:107DC00093B00746C0F287808369002B00F0838060
:107DD000424906A8FFF73EFEBA69EFF310830C9301
:107DE00001230D9372B60D9B591E0D911BB1D2F854
:107DF0000854C5F580653A4E0CA8FFF755FE0024DF
:107E0000032230464FF4E131FFF7D6F8013D86F802
:107E10008C4034490CA8FFF71DFE02953B69019385
:107E2000314B00933046314B06AA0CA9FFF756F8A8
:107E300006460CA8FEF71AFD002E41D0079B002B2A
:107E400047D04FF00109CA46AC4239D2079B9C4249
:107E500036D2069BBE6913F804B0EFF31083CDE968
:107E6000043972B6059B5A1E059223B3EFF31083B3
:107E7000CDE90C3A72B60D9B5A1E0D923BB1D6F865
:107E80000834A3F58063D3F1000848EB03080CA87D
:107E9000FFF70AFEB8F1000FE4D1D6F8000406F8A7
:107EA00000B0FFF71DFED6F80834C6F80004013311
:107EB000C6F80834D6E704A8FFF7F6FD0134C3E797
:107EC0004FF0FF3406A8FEF7D1FC204613B0BDE802
:107ED000F08F1C46F6E74FF0FF34F6E787600100AD
:107EE000EC050020D6610100E66101001762010087
:107EF00038B5044680690D4650B100F58160FFF742
:107F0000D9FDA84204D22046BDE83840FFF754BF4F
:107F100038BD2DE9F74F07468A4611461646FFF74A
:107F2000E7FF3B69002B33DBBC6994B34FF0010BD7
:107F300056440024D946B2452BD0BBF1000F28D0BF
:107F4000BD69D5F808344BB995F800809B460AF80E
:107F5000018BBBF1000FEED00134ECE7EFF310839F
:107F6000CDE9003972B6019B5A1E019263B1D5F872
:107F7000040415F80080FFF7B3FDD5F80834C5F800
:107F80000404013BC5F808346846FFF78DFDDEE7C1
:107F90000024204603B0BDE8F08F10B5044601214F
:107FA000FFF7A6FF2369002B0ADBA36943B1D3F8CF
:107FB00008241AB1D3F80424985C10BDFF20FCE714
:107FC0004FF0FF30F9E7FFFF10B50369002B8EB0CB
:107FD00004461DDB0F4902A8FFF73CFD03224FF4C6
:107FE000E1310D48FEF7E8FF0C4908A8FFF732FD24
:107FF000236901930A4B009302AA0A4B064808A979
:10800000FEF76CFF08A8FEF731FC02A8FEF72EFC75
:108010000EB010BD87600100EC050020F861010082
:10802000006201008860010010B50369002B8EB06A
:10803000044620DB154902A8FFF70CFD03224FF48C
:10804000E1311348FEF7B8FF124908A8FFF702FD17
:1080500023690193104B009302AA104B0C4808A906
:10806000FEF73CFF08A8FEF701FC4FF0FF33236149
:1080700002A8FEF7FBFBA3690022C3F80024C3F8A3
:108080000424C3F808240EB010BD00BF87600100AF
:10809000EC050020B8610100C661010088600100A4
:1080A00010B503688EB01B6904469847002829DC88
:1080B0002369002B28DB154902A8FFF7CBFC03221C
:1080C0004FF4E1311248FEF777FF124908A8FFF795
:1080D000C1FC23690193104B009302AA0F4B0C487B
:1080E00008A9FEF7FBFE044608A8FEF7BFFB1CB17B
:1080F000029809F02AFDC4B202A8FEF7B7FB204699
:108100000EB010BD0124FAE70024F8E787600100F3
:10811000EC050020CB620100DD62010088600100F7
:1081200030B50C4695B0054602A805F05FFB236903
:10813000002B34DB1E4908A8FFF78CFC03224FF408
:10814000E1311C48FEF738FF1B490EA8FFF782FCFF
:1081500023690193194B009308AA194B15480EA9DE
:10816000FEF7BCFE04460EA8FEF780FBA4B10899FA
:108170002C4602A805F064FC124B44F8043B03AB08
:108180000FCB84E80F009DF81C302B7508A8FEF774
:108190006DFB284615B030BD08A8FEF767FB00232D
:1081A00000931A461946284605F028FBF1E700BF60
:1081B00087600100EC05002099620100A4620100C3
:1081C000886001000067010010B50369002B8EB0C4
:1081D000044626DB144902A8FFF73CFC03224FF4B7
:1081E000E1311248FEF7E8FE114908A8FFF732FC1A
:1081F000236901930F4B009302AA0F4B0B4808A968
:10820000FEF76CFE044608A8FEF730FB1CB102988E
:1082100009F09BFC84B202A8FEF728FB20460EB0B2
:1082200010BD0024FAE700BF87600100EC050020C4
:108230009C610100A96101008860010013B5002361
:108240000446D1E90002C1E900332368206002A896
:108250000093636840F8043D6260FFF771FC2046BC
:1082600002B010BD73B54FF47A730025C0E9015315
:10827000174B03604FF0FF33C0E904350446C0E9F3
:10828000065540F20C4008F0C6FD4FF480620646E9
:10829000294609F038FD1020C6F80054C6F80454E9
:1082A000C6F80854CDE9006508F0B5FD0123C0E922
:1082B0000133084B0360C6600190694604F1180061
:1082C000FFF7BCFF01A8FFF73BFC204602B070BDE2
:1082D000186301008861010073B54FF47A730025BB
:1082E000C0E90153164B03600446C0E90415C0E918
:1082F000065540F20C4008F08EFD4FF480620646B1
:10830000294609F000FD1020C6F80054C6F80454B0
:10831000C6F80854CDE9006508F07DFD0123C0E9E9
:108320000133084B0360C6600190694604F11800F0
:10833000FFF784FF01A8FFF703FC204602B070BDE1
:108340001863010088610100704708B503685B6924
:10835000984780F00100C0B208BD13B502AB0268B7
:1083600003F8011D546819460122A04702B010BD50
:1083700080688B68C31A58425841704710B5002373
:108380004360064B03604FF0FF330446C0E90231FF
:108390001030FFF767FF204610BD00BFC863010023
:1083A0002DE9F0418B68013392B007460C4663D04B
:1083B0000AAA334904A8FEF783FA03224FF4E131F5
:1083C0003048FEF7F9FD03AA2F490AA8FEF778FA0C
:1083D000A36801932D4B009304AA2D4B29480AA9A9
:1083E000FEF77CFD05460AA8FEF740FA002D40D0B6
:1083F000049809F0AAFB236A8342014604F110089D
:108400000AD141463846FFF783FB04A8FEF72EFA4F
:10841000384612B0BDE8F0810AA8FFF75DFF0B9B5C
:1084200063610C9BA3610D9BE361119E0E9BE56A4A
:1084300023620F9B6362AE42109BA36215D016B1FC
:108440007368013373607DB16B68013B6B605BB92E
:108450002B6828469B689847AB68013BAB601BB90B
:108460002B682846DB689847E6620AA8FFF774FB8A
:10847000C7E704A8FEF7FAF93846FFF7F3FEC7E7A7
:1084800087600100EC05002098630100AA630100E9
:108490008860010030B58368013391B004460D4611
:1084A00024D10AAA124904A8FEF70AFA03224FF4BB
:1084B000E1311048FEF780FD03AA0F490AA8FEF734
:1084C000FFF90E4B0195009304AA0D4B09480AA928
:1084D000FEF704FD05460AA8FEF7C8F91DB1049889
:1084E00009F033FBA06004A8FEF7C0F911B030BD5D
:1084F00087600100EC0500205C6301006A630100F5
:1085000088600100C168FFF7C5BFFFFF70B58368D1
:10851000002B92B005460E4614462CDB0CAA1749D8
:1085200006A8FEF7CDF903224FF4E1311448FEF717
:1085300043FD05AA13490CA8FEF7C2F90294AB68E3
:108540000193114B009306AA104B0D480CA9FEF79E
:1085500057F90CA8FEF78AF9224631460848FEF77B
:108560006DFC054606A825B1FEF780F9204612B03D
:1085700070BDFEF77BF90024F8E700BF87600100BB
:10858000EC0500207A630100886301001762010096
:1085900008B506F043FA002008BD27207047704751
:1085A00037B5FFF7FCFF01210D2006F031F900215E
:1085B0000D2006F045F968460722032108F0A8FBC4
:1085C000BDF800301C4CC3F3841301256846072214
:1085D0000521E55408F09CFBBDF80030C3F384137B
:1085E000684607220621E55408F092FBBDF80030EA
:1085F000C3F38413684607220921E55408F088FB79
:10860000BDF80030C3F38413684607220A21E554FD
:1086100008F07EFBBDF80030C3F3841307220B2162
:108620006846E55408F074FBBDF80030C3F38413CA
:10863000E55403B030BD00BFC20900200B7930B44F
:10864000DB01114C114DDBB2A3714B788A781B0111
:10865000120302F44052DBB213430A788446A85C4A
:10866000CA78120202F4407200F00300134303437D
:1086700063804B79064ADB01DBB22372002030BCF9
:10868000CCF80020704700BF004204401C66010087
:1086900054445700024B0020FF2218701A70704794
:1086A0000042044030B5836A85B004468C4601AD73
:1086B000ABB193E8070085E807006268117883F89A
:1086C00004C0E26A9A6019601846626A9047A36A19
:1086D0001BB195E8070083E8070005B030BD2B46C5
:1086E000EBE700BF10B4EFF30383103B5BB203F181
:1086F000C001204A204C52F821006FF3104042F88C
:10870000210054F82330D3E906218A421BD018698E
:1087100040B393F820400F2C0BD99968496840F872
:108720002210D96901328A429A610CD05DF8044B5B
:108730007047072C19D8996809798154D969013291
:108740008A429A61F2D15B680C4993F903305DF873
:10875000044B5809012203F01F0302FA03F341F806
:108760002030704798684068DCE79C68A48820F84F
:108770001240D7E7006000403009002000E100E02F
:10878000F0B5EFF30383103B5BB203F1C0022F4956
:108790002F4C51F822006FF3104041F8220054F89A
:1087A00023305868026A002A30D092F801C0DC6990
:1087B0005A69BCF1010F17D094420FD0D96841B368
:1087C00093F820000F280AD80728986895BF895C7D
:1087D00031F812100171818001325A61F0BD986840
:1087E00051F822104160F7E704F1FF3E724513D0C3
:1087F00001690029E0D090F9031016484D0901F0F5
:108800001F010CFA01F140F82510D5E75A69DC691F
:10881000D2E798684160DFE790F903E00EF1C00607
:108820004FEA5E10800051F8267000F1604000F5BC
:1088300061400EF01F0E0CFA0EF56FF3104741F871
:108840002670C0F880510560B6E700BF00600040A8
:108850003009002000E100E010B4EFF30383103B87
:108860005BB2324A324C03F1C00152F821006FF37F
:10887000104042F8210054F823008268D278920711
:1088800006D54268527A012A02D05DF8044B70473F
:108890005909284C0122203103F01F0302FA03F387
:1088A00044F82130BFF34F8FBFF36F8F436893F9C4
:1088B0000230002B2FDB5909203103F01F0302FA8D
:1088C00003F344F82130BFF34F8FBFF36F8FD0E92C
:1088D0000114237891F902106FF386130029237095
:1088E00014DB01F1C00C114C4B099B0001F01F017E
:1088F0008A4003F1604354F82C1003F561436FF391
:10890000104144F82C10C3F880211A605DF8044B24
:108910000121FFF7C7BE82685DF8044B13786FF33F
:10892000861313700121FFF7BDBE00BF0060004039
:108930003009002000E100E070B5EFF30384103C43
:10894000314B64B253F82460736893F90230002B02
:1089500042DB5A092D492032012003F01F0300FA9F
:1089600003F341F82230BFF34F8FBFF36F8FD6E987
:10897000012392F902101A7800296FF386121A70F7
:1089800015DB01F1C00C224D4A09920001F01F01D4
:1089900000FA01F102F1604255F82C0002F5614243
:1089A0006FF3104045F82C00C2F880111160DA789E
:1089B0000021D5B21207D97021D4EB0712D405F0EB
:1089C0001405142D16D0124BC03453F824206FF325
:1089D000104243F8242070BDB3681A786FF38612F2
:1089E0001A70E4E70421304605F01405FFF75AFE3B
:1089F000142DE8D108213046FFF754FEE3E70521A6
:108A00003046FFF74FFED8E73009002000E100E0D4
:108A100000600040036A70B50446987800F07B005F
:108A200098700D46217841B32261E269E5601069D2
:108A3000002841D0226982B1A378816800688E68DD
:108A4000E16803F00303013B22FA03F300222261F1
:108A50009BB2B04780B9236A21789A7842F08002AD
:108A60009A7039BB94F802C00CF0030CBCF1020FF1
:108A70001AD02A78DA70002070BD94F802C0E0693C
:108A80000CF0030E0069A2EB0E02226105EB0E0250
:108A9000E2600028CED19A780CF0030C42F08002FC
:108AA000BCF1020F9A70E4D12A8842F47E42002081
:108AB000DA8170BD002070BD9A7842F080029A7011
:108AC00070BD00BF036A91F801C09A7800B502F04A
:108AD0007B0E02F00B029A700022C26088785870F8
:108AE00010461A786CF301021A70CA789A7493F8D7
:108AF00007C00A780CF0A30102F05C020A43DA71A5
:108B000083F802E05DF804FB10B5D0E907210023EB
:108B100043608B7092F905202F49044650090123C8
:108B2000203002F01F0203FA02F241F82020BFF3C6
:108B30004F8FBFF36F8FE26992F90B2050092030FD
:108B400002F01F0203FA02F241F82020BFF34F8F18
:108B5000BFF36F8FE26992F907205009203002F0CD
:108B60001F0203FA02F241F82020BFF34F8FBFF338
:108B70006F8FE26992F90920500902F01F029340B9
:108B800000F1200241F82230BFF34F8FBFF36F8F07
:108B9000E369DA6822B1936810681B6A9847E36951
:108BA0001B691BB19A681868136A9847EFF3108124
:108BB000012383F31088E369084A1C78D2F8000186
:108BC0004FF00043E3400343C2F80031D2F80031D4
:108BD00081F31088002010BD00E100E0006F044028
:108BE000F0B5846A85B005460F4694466E46B4B12A
:108BF00094E80F0086E80F00EB691B7884F804C046
:108C00002360EB6A2046C4E902736B6A9847AC6A3A
:108C10001CB196E80F0084E80F0005B0F0BD3446A3
:108C2000EAE700BF8C46516830B4029C0D6880B9F9
:108C30001C609CF8010038B9E8784FF0010C0B3447
:108C40006CF30510E8701C60936810681B6830BCFA
:108C5000184704F10C001860EBE700BF2DE9F0475E
:108C60000D4609780323CB4013F0010301F1007294
:108C700018BF1023037002F560528378520101215E
:108C800061F301030262A9696A6942620022C0E9D4
:108C90000A21C56183706B7882B0044623B983785A
:108CA000022262F30103837095F90B00594B95F88A
:108CB0000AC04209203200F01F06012101FA06F61F
:108CC00043F82260BFF34F8FBFF36F8F524A534E6A
:108CD00000F1C0074FEA0C1C52F827E06FF3104E6A
:108CE00042F827E01F185FFA8CFC87F800C346F8AB
:108CF000204095F9050095F804C04709203700F099
:108D00001F0E01FA0EFE43F827E0BFF34F8FBFF3AB
:108D10006F8F00F1C00703EB000852F827E04FEA1D
:108D20000C1C5FFA8CFC6FF3104E42F827E088F8B9
:108D300000C346F8204095F9070095F806C047099A
:108D4000203700F01F0E01FA0EFE43F827E0BFF3B4
:108D50004F8FBFF36F8F00F1C00703EB000852F88D
:108D600027E04FEA0C1C5FFA8CFC6FF3104E42F8C0
:108D700027E088F800C346F8204095F9090095F8E7
:108D800008C04709203700F01F0E01FA0EF143F822
:108D90002710BFF34F8FBFF36F8F00F1C0074FEA6B
:108DA0000C1152F827C003446FF3104C42F827C04F
:108DB000C9B283F80013EA6846F8204072B15368DC
:108DC0001B684FF4002143F8041B216A0531009110
:108DD000E1692078FFF726FF0646B0B92A69FAB1A3
:108DE00053681B684FF0006143F8081B216A033188
:108DF0000091E1692078FFF715FF064680B1EB6826
:108E00001BB19A681868136A9847304602B0BDE8EB
:108E1000F08700BF00E100E0006000403009002062
:108E2000EFF31080012383F31088984B2E78D3F84A
:108E300000214FF00041F14022EA0102C3F8002175
:108E4000D3F8003180F31088236AE06900229A7019
:108E50001A715A729A72DA725A83297840F207228A
:108E6000CA40D20744BF4022DA7406221A77227819
:108E70007AB1C168013A002900F0FE800126120390
:108E800091B2314341F006029A829A8A92B291429B
:108E9000FBD1EA78A978D20042EA01126978032965
:108EA00000F0D780002914BFF221E221ED69D2B28F
:108EB0001A7099712A7B520002F002025A736A7882
:108EC000A97800261E7295F800C0D201490101F070
:108ED0002001D2B20A43ACF10201012940F2BD8067
:108EE000D2B2DA716A68917859701978567866F357
:108EF00001011970D17899741278D97902F05C0265
:108F000001F0A3010A43DA710027C4E90377C4E939
:108F1000057790F905105E4E01F1C00E4A0956F82A
:108F20002E80920067F3104802F1604246F82E80CE
:108F300002F561424FF0010E01F01F010EFA01F13E
:108F4000C2F88011116090F90B1001F1C0094A09B3
:108F500056F829A0920002F1604202F5614267F3DF
:108F6000104A01F01F0146F829A00EFA01F1C2F8DB
:108F70008011116090F9071001F1C0094A0956F8F3
:108F800029A0920002F1604202F5614201F01F0146
:108F900067F3104A46F829A00EFA01F1C2F88011D1
:108FA000116090F9091001F1C0004A0956F82090AB
:108FB000920002F1604267F3104946F8209002F5F2
:108FC00061420CF0030C01F01F010EFA01F14CF0AC
:108FD000700CC2F88011116083F802C06B89238184
:108FE0004FF6FF7843452DD0EFF310818EF31088B4
:108FF000284A13681BB92848C3704023C3701368FC
:109000000133136081F31088218924480B0A1B0166
:1090100053FA81F150F8213023F0011323F4404337
:1090200043F0040340F82130EFF31081012383F370
:109030001088136813B11368013B13601368B3B150
:1090400081F31088164B63600026304602B0BDE8FD
:10905000F08742F04002F22128E7BCF1020F08BF7E
:1090600042F01002FF21D2B25970DA714CE70A4A7D
:109070008020D370D070E3E7C169097A11400902FA
:1090800001F4706141F00106F9E600BF006F044091
:10909000006000402C090020000D0440000804403E
:1090A000554943532DE9F04F1E46FF23B3703378E3
:1090B0006FF382038BB033708023F370554B0992AA
:1090C000554A1B6A12680191C3F302618A40C3F3D7
:1090D0000233DA40514B07900021100A06920891A2
:1090E000059002910093A2FB03BA099B009A934258
:1090F0006EDA9DF8203003930027494B039ADD5D1B
:10910000C5F34003C5F3800504932B43934256D126
:10911000444B33F81780079B03FB08F8069BB3FB0F
:10912000F8F2541EFF2C4AD802FB08F91DE0059BFB
:10913000B9FBF3F37F2B03FB00F040D90028B8BF45
:10914000FF300012A0F5C330A0380028009AB8BF45
:109150004042824240DC029BF370337843F00403C8
:10916000A9EB0809337054B3013C4A464FEAE9734E
:109170005846514608F02AFB019A002AD7D1A0F59B
:10918000C333A03B002B009AB8BF5B429A4216DD66
:109190000093234BB470DA5D3378C2F3000161F3BE
:1091A0008613049961F3041365F3C3033370737872
:1091B000C2F3C10262F301037370019B0293013792
:1091C0000D2F9AD1089BF3B1009B099A93421DDCA5
:1091D00000200BB0BDE8F08F0293114B049AD95DCB
:1091E00033780090C1F3000060F3861362F3041338
:1091F00065F3C30333707378B470C1F3C10161F3D5
:1092000001037370A7E7012308936EE703200BB0F7
:10921000BDE8F08F00E00140BC090020A0860100FD
:109220002466010034660100F0B5EFF30383103BC0
:109230005BB203F1C001344A344C52F821006FF3A1
:10924000104042F8210054F82300C3691B6913B190
:10925000036913B1F0BD036983B9D0E90824937899
:1092600003F07F03002143F004039370C160002CDE
:10927000F0D0BDE8F0408022FFF7B2BC05785DB3C6
:10928000066AF18AC1F30421A9421ED28478C26819
:109290001F4F04F0030E74460BE092F800C086F8EE
:1092A0000FC001311B1B2244A942C0E903230CD289
:1092B0005BB1BEF1020FF0D1B2F800C04CEA070C6E
:1092C0001FFA8CFCA6F80EC0EBE732796FF3C712D9
:1092D0003271002BBED1C0E7827802F0030102296F
:1092E000C1680BD0046A0D78E57002F003029B1A86
:1092F0000A44C0E90323002BACD1AEE70C88056A11
:1093000044F47E44EC81F0E7006000403009002026
:1093100000FEFFFF10B582B0EFF30383103B5BB29A
:1093200003F1C001574A584C52F821006FF3104026
:1093300042F8210054F82340E369DB6813B1A369C4
:10934000002B49D122894FF6FF739A4275D12278BA
:10935000236AF2B1D98AC80612D01B8AC3F3080364
:109360000193A369FBB9636A2BB1042201992046DA
:10937000FFF736FC22782AB1236AD98AC906E8D1D8
:10938000BE221A7123894FF6FF72934231D102B087
:1093900010BDA17801F003010229DED05B790193B1
:1093A000A369002BDFD0A278606902F0030201A953
:1093B00008F085FCD4E90521A37803F003031A44DF
:1093C000C91AC4E9052129B9636A1BB101222046E3
:1093D000FFF706FC2278CEE7636A0021C4E9051195
:1093E000002BD4D00122204602B0BDE81040FFF788
:1093F000F7BB1A0A1201254952FA83F351F82320C8
:1094000022F0011222F4404242F0040241F82320EB
:10941000EFF31082012383F310881D4B196811B1FB
:109420001968013919601B681BB91A498020CB7073
:10943000C87082F3108802B010BDEFF310810123D1
:1094400083F31088124B1A681AB91248C27040226E
:10945000C2701A6801321A6081F3108822890B49A0
:10946000130A1B0153FA82F251F8223023F0011340
:1094700023F4404343F0050341F82230236A227865
:1094800067E700BF0060004030090020000804408A
:109490002C090020000D044010B5EFF30384103CAC
:1094A0000B4B64B253F82400D0E90821937803F001
:1094B0007B03937019B102220021FFF791FB054B4A
:1094C000C03453F824206FF3104243F8242010BD19
:1094D000300900200060004010B5EFF30384103C19
:1094E000194B64B253F82400037843B9837803F02E
:1094F0000303022B03D0036A5979C9B203E0036A5C
:10950000198AC1F3080193F804C01CF0100F0CF085
:10951000380206D093F81CC01CF0010F08BF42F0BF
:10952000400293F804C00CF0C70C83F804C0436AEF
:109530000BB1FFF755FB054BC03453F824206FF3F4
:10954000104243F8242010BD300900200060004084
:1095500030B5436A85B004468C4601ADABB193E8A3
:10956000070085E807006268117883F804C0A26AE2
:109570009A6019601846226A9047636A1BB195E8A1
:10958000070083E8070005B030BD2B46EBE700BFBE
:1095900010B4EFF30383103B5BB203F1C001144A34
:1095A000144C52F821006FF3104042F8210054F897
:1095B00023305A69D9698A4206D2D3E90240A8B158
:1095C000805CE07001325A618A4202D05DF8044B3F
:1095D00070471A69002AF9D19A685DF8044B9378AC
:1095E00003F07B0343F0040393707047E070E9E7F6
:1095F000006000403009002010B4EFF30383103BFB
:109600005BB203F1C001174A174C52F821006FF307
:10961000104042F8210054F823305A69D9698A422F
:1096200006D2D3E90240D0B1805CE07001325A61C9
:109630009A698A4207D2986819694079541C9C61DA
:109640008854D3E90621914206D19A68937803F0B1
:109650003B0343F0040393705DF8044B7047E070E4
:10966000E4E700BF006000403009002010B5EFF3D0
:109670000384103C0A4B64B2012153F82400826831
:10968000937803F003039370FFF762FFC034054B38
:1096900053F824206FF3104243F8242010BD00BF7C
:1096A000300900200060004010B5EFF30384103C47
:1096B0000C4B64B24FF0840C53F8240083689A7802
:1096C00002F003029A701A7983F804C00421FFF7AC
:1096D0003FFFC034044B53F824206FF3104243F88B
:1096E000242010BD30090020006000400368596943
:1096F000A1B190F82D3070B5044603F0FF0563B9B1
:109700008A68038C96680868A1692A46B047E269AE
:10971000C4E90852012384F8333070BD704700BF9C
:1097200070B5866B82B004460B466D463EB396E834
:10973000030085E80300E26B3371236832605A69E5
:1097400012B194F82D10A1B19B6913B194F82D209A
:1097500052B9636B30469847A36B1BB195E8030081
:1097600083E8030002B070BD9A68186813699847CF
:10977000EFE7936810681B6998472368E4E72E4673
:10978000D9E700BFEFF30383103B5BB2044AC03359
:1097900052F823106FF3104142F82310704700BFB6
:1097A0000060004070B5EFF30383103B5BB2614A89
:1097B000C03352F823106FF3104142F82310EFF337
:1097C0000383103B5C4A5BB252F823402269137B4F
:1097D000C3F30000DB072CD494F82C3094F82A1043
:1097E000994216D094F82D1009B1022B41D0204691
:1097F000FFF77CFF236994F82820DA7094F82B2077
:1098000094F82C30013A013384F82B2084F82C3062
:1098100070BD94F8333003F0FF053BBB236A93BB64
:1098200094F82E3063B352210123D17284F8303082
:1098300070BD94F82D308BB194F8313073B9636AF0
:10984000A1695279CA54D4E9082394F82E10013A38
:109850000133C4E9082379B12269E4E7002001213A
:109860005423206284F82F10D37270BD84F8330023
:1098700070BD5223D37270BD23695422DA7270BD59
:109880005423D37270BD94F82D1041B9616AA06958
:10989000013B405C0131C4E90831D07070BD94F8DF
:1098A000311000292ED0216884F8315048690028F1
:1098B00038D08969002935D0E069022832D98E680C
:1098C000831E0868B668F42191709BB2A26929468C
:1098D000B0472268E3695269916810688E68023B5C
:1098E0009BB22A462946B047E36922690220023B1F
:1098F000C4E90803012184F833100023FF20937288
:10990000D070CBE7636AA1695279CA54D4E90832AE
:10991000013B0132012BC4E90832226904D0FF2047
:10992000D070BBE7012BE8D12023FF209372D070C9
:10993000B4E700BF006000403009002010B582B0DD
:10994000EFF30383103B374A5BB252F823000269FE
:10995000D37A6FF3C303D37290F82F30ABBB90F878
:109960002A1003F0FF0C90F82C3099421BD1036AA7
:109970005BB990F82D1090F83040002914BF0221F7
:109980000321A4B3D372FFF7CBFEEFF30383103BA5
:109990005BB2254AC03352F823106FF3104142F8EE
:1099A000231002B010BDB3B9012929D090F829C005
:1099B0000021D17282F803C090F82B200133013AC4
:1099C00080F82B2080F82C30DFE7F023D3720121C0
:1099D000FFF7A6FED9E790F82D4004F0FF016CB127
:1099E000022BE5D190F829C04CF0010CE0E7F02300
:1099F000D372937803F0CF039370C4E78C46D7E714
:109A00000190FFF773FE019890F82A30012B05D1E1
:109A100090F828C0026990F82C30C9E7026990F8E4
:109A20002C30C3E73009002000600040F0B583B05F
:109A3000EFF30384103C154B64B253F82450EF68E5
:109A4000BFB16A682B6992F90D20121B18BF012261
:109A50006E46C3B193E8030086E803001A706A6992
:109A60005A601846B8472B691BB196E8030083E893
:109A70000300074BC03453F824206FF3104243F81F
:109A8000242003B0F0BD3346E8E700BF30090020D2
:109A900000600040EFF30383103B5BB20649074AC6
:109AA00051F823100120C033087252F823106FF3CD
:109AB000104142F823107047300900200060004038
:109AC0000B0A1B01044853FA81F150F82130C3F30B
:109AD000400300201370704700080440C8B20123FF
