:10400000007F0020099F0000B19D0000059F000077
:10401000059F0000059F0000059F0000059F000010
:10402000000000000000000000000000059F0000EC
:10403000059F000000000000059F0000059F000094
:104040000000000000000000000000000000000070
:104050000000000000000000000000000000000060
:104060000000000000000000000000000000000050
:104070000000000000000000000000000000000040
:104080000000000000000000000000000000000030
:104090000000000000000000000000000000000020
:1040A0000000000000000000000000000000000010
:1040B0000000000000000000000000000000000000
:1040C00010B5054C237833B9044B13B10448AFF352
:1040D00000800123237010BD70020020000000004A
:1040E000B840010008B5034B1BB103490348AFF3C7
:1040F000008008BD0000000074020020B8400100EC
:1041000070B50446064B44F8043B0B1D05460E46AD
:104110000FCB84E80F00337D2B75284670BD00BFA0
:1041200050340100022170B5084608F0F9FB022165
:10413000032008F0F5FB0221042008F0F1FB012127
:10414000052008F0EDFB0121062008F0E9FB012124
:1041500007200C4C002508F0E3FB0021052008F0A7
:10416000F7FB0126294606202670656008F0F0FB63
:10417000294607202672E56008F0EAFB267465618F
:1041800070BD00BFB40300202DE9F04108F0C6FC6B
:1041900000240B4D0646274655F824304FEA840884
:1041A00043B1B34206D8601D0021C0B208F0D0FB75
:1041B00048F805700134032CEED1BDE8F08100BF52
:1041C000EC0300202DE9F84308F0A8FC0024234E5E
:1041D000DFF8A090224F80462546E30001349A5D27
:1041E000AAB1083333444EF6602153F8042CA8EBEF
:1041F00002028A4216D9002203F8082C49463846A2
:1042000007F0B0FE0A222146384607F023FF0C2CA7
:10421000E3D1144A13780133DBB2052B04D81370B1
:10422000BDE8F8830135F2E700230F490C4813700D
:1042300007F098FE0A222946094807F009FF0B49B2
:10424000074807F08FFE21460A22054807F000FFC5
:1042500007490348BDE8F84307F09CBE100400205E
:10426000C00E0020AC030020E9290100842A0100CF
:10427000EC2901007A2A01002DE9F0413249334C42
:10428000334807F087FE3349314807F06BFE324B65
:104290002178324A2E48002914BF1146194607F0EA
:1042A00079FE2378002B49D02D4E2E4F284CDFF875
:1042B000D880002539460135204607F053FE0A22F2
:1042C0002946204607F0C4FE4146204607F04AFE34
:1042D000254B182101FB0531204607F04FFE2349ED
:1042E000204607F03FFE337833B3214A214B7178E3
:1042F0002046002914BF1146194607F033FE1E4917
:10430000204607F02FFE08F009FC71684FF47A731D
:10431000411A0A22B1FBF3F1204607F0A5FE174926
:10432000204607F01FFE204607F02EFE0C2D06F15A
:104330000806BFD1BDE8F0811149F1E711490448F1
:10434000BDE8F04107F026BED1290100680A00202F
:10435000C00E0020E1290100C4290100C729010085
:1043600010040020822A0100740200207B2C01002E
:104370009D2B0100A92B0100E8290100EB29010078
:10438000EE290100F6290100E32A010010B5114CC5
:104390001149204607F0FEFD1049204607F0FAFDBE
:1043A0000F49204607F0F6FD0E49204607F0F2FDC2
:1043B0000D49204607F0EEFD0C49204607F0EAFDC6
:1043C0000B49204607F0E6FD20460A49BDE81040AB
:1043D00007F0E0BDC00E0020792B0100882B010002
:1043E000942B0100A02B0100AD2B0100BB2B010081
:1043F000C52B0100D42B010037B564230093A822FC
:104400000023C0214148424D07F038FC01230093AE
:10441000A8220023C0213F48002407F02FFCFF23DF
:104420001A46194600943C4807F028FC652300937F
:10443000A8222346C021284607F020FC66230093CB
:10444000A8222346C02105F1180007F017FC6723B6
:104450000093A8222346C02105F1300007F00EFC8E
:1044600068230093A8222346C02105F1480007F0E5
:1044700005FC69230093A8222346C02105F16000B2
:1044800007F0FCFB6A230093A8222346C02105F114
:10449000780007F0F3FB6B230093A8222346C0218A
:1044A00005F1900007F0EAFBA8226C230093A818FE
:1044B0002346C02107F0E2FBC0216D23009368185A
:1044C0002346A82207F0DAFB6E230093A822234696
:1044D000C02105F1D80007F0D1FB6F230093A8227B
:1044E0002346C02105F1F00007F0C8FB70230093BC
:1044F000A8222346C02105F5847007F0BFFB0748BA
:1045000003B0BDE8304001F055BE00BFF803002005
:104510008C020020CC0300207004002088040020BE
:1045200000B54FF4E13193B0214806F001FE4FF49D
:104530007A7008F0AFFA08F0F1FA1E4B1E491860C5
:104540001B4807F027FDFFF7EDFD1C4B002203F190
:1045500060011A705A705A6008338B42F9D11849B9
:10456000134807F017FD1749114807F013FD1649C6
:104570006846FFF7C5FD154906A8FFF7C1FD1449B8
:104580000CA8FFF7BDFD0CAB06AA6946114801F067
:10459000E5FB114B0F481A68104B196801F046FCF7
:1045A00008F0BCFA0E4B186013B05DF804FB00BFB6
:1045B000C00E0020B0030020EF2B010010040020EB
:1045C0001D2C0100362C0100F8030020CC03002034
:1045D000700400200C0B00200000002004000020CC
:1045E000E80300202DE9F043214B1B7887B063B32B
:1045F000DFF89880DFF898901E4F451E002615F8CA
:10460000014F4CB3013C0B2CF9DC18F83430002B73
:10461000F5D0182101FB04916846FFF771FD42F2C5
:10462000B8226946384601F0DDFE1349384607F0E6
:1046300099FC08EBC404384601F08CFF0123637039
:1046400014201E4408F026FAD9E70C490C4807F05C
:10465000A1FC07B0BDE8F0830A49094807F082FCD5
:1046600031460A22064807F0F3FC0749EEE700BF8F
:10467000680A0020880400209D2B01001F2A0100E9
:10468000C00E00203B2A0100432A01001004002034
:104690008C0200202DE9F84F2B4E2C4D00245FFAA0
:1046A00084FB0BF10200C0B208F05EF9B0F1000A21
:1046B00014BF4FF001094FF0000904F101074FEA60
:1046C000C40829D116F8342032B32149284607F00E
:1046D0006BFC0A225146284607F0BCFC0BF1050092
:1046E0000121C0B208F034F908F018FA194B00F5AE
:1046F0007A7043F82400184B1B78B3B1012C12D008
:104700001648174B022C18BF1846FFF76BFF08F02E
:1047100005FA06EB08035860032F06F808903C469C
:10472000BDD1BDE8F88F0F48EFE70F49284607F0E5
:1047300019FC39460A22284607F08AFC0B4928460C
:1047400007F028FCE3E700BFB4030020C00E002000
:10475000532A0100EC030020680A0020E42B01002A
:10476000DD2B0100E12B0100602A01002A2C010051
:104770002DE9F0431E4B1B7887B033B91D491E4805
:1047800007F008FC07B0BDE8F0830024DFF878806C
:10479000DFF87890194E254618F83430E700CBB191
:1047A000182101FB04916846FFF7AAFC42F2B822E7
:1047B0006946304601F016FE1149304607F0D2FB3B
:1047C0004744304601F0C6FE01237B7014201D448F
:1047D00008F060F901340C2CDED10A49064807F0D4
:1047E000C1FB0A222946044807F034FCCAE700BF8F
:1047F000680A00200B2A0100C00E00208804002057
:104800009D2B0100142A0100100400208C020020BE
:104810002DE9F0431E4B1B7887B033B91D491E4864
:1048200007F0B8FB07B0BDE8F0830024DFF878801C
:10483000DFF87890194E254618F83430E700CBB1F0
:10484000182101FB04916846FFF75AFC42F2B82296
:104850006946304601F0C6FD1149304607F082FB3B
:104860004744304601F076FE00237B70142001356A
:1048700008F010F901340C2CDED10A49064807F083
:1048800071FB0A222946044807F0E4FBCAE700BF8F
:10489000680A00200B2A0100C00E002088040020B6
:1048A000A92B0100472A0100100400208C020020DF
:1048B000F0B512491248134F134D144E87B007F04C
:1048C00069FB0024182101FB04716846FFF718FCFE
:1048D00042F2B8226946284601F084FD3146284656
:1048E00007F040FB284601F035FE0134142008F0A3
:1048F000D1F80C2CE6D107B0F0BD00BF672A01004B
:10490000C00E00208C02002088040020752A0100BF
:1049100070B5454D2C7886B0E4B1444801F056FAA4
:10492000032815D04249434807F034FB424B434823
:1049300000241C70424B2C7001221A7001F01EFDE5
:10494000404A2346214602F8331001330C2BFAD19A
:1049500006B070BD3C4E08F0E1F83368C01A41F271
:1049600088339842F4D908F0D9F830602F4801F024
:104970002DFA032829D1324B34492E481C700126C8
:104980002E7007F007FB32492A4807F0EBFA684619
:10499000264901F0B3FA6946264807F00FFB42F2B8
:1049A000B821264801F022FC234B2A4921481E70D9
:1049B00007F0F0FA2146072007F0CAFF4FF4FA701B
:1049C00008F068F8FFF774FFC2E7234C22680C2058
:1049D0000132226092FBF0F100FB112252B91F4913
:1049E000144807F0BFFA1E4B10481A681D4B19688F
:1049F00001F01CFA21683C2291FBF2F302FB131335
:104A0000002BA5D118490B4807F0ACFA21680948DA
:104A10000C230A2291FBF3F107F01AFB1349054816
:104A200007F0B8FA94E700BF680A00200C0B0020DA
:104A3000892A0100C00E0020600A0020880400209E
:104A40000800002010040020E8030020A72A01002D
:104A5000C02A0100C52A0100640A0020A52A01001D
:104A60000000002004000020D22A0100E62A0100F4
:104A700008B52C4806F0FEFB40B2362831D00DDCDC
:104A800033282AD004DC312820D0322823D008BD96
:104A9000342824D03528FAD1234818E06F2826D0AE
:104AA00007DC61281FD06828F1D1BDE80840FFF776
:104AB0006DBC732825D0772827D07028E7D11B4BF1
:104AC0001B78C3B1BDE80840FFF7F2BE1848BDE847
:104AD0000840FFF787BD1748F9E71748F7E7174879
:104AE000F5E71748F3E7BDE80840FFF741BEBDE82A
:104AF0000840FFF78DBE13490A48BDE8084007F09B
:104B000049BABDE80840FFF7B7BB0F49054807F0B1
:104B100029FA064B0D4A19780D4B002914BF11468E
:104B20001946E9E7C00E0020E92B0100680A0020C1
:104B3000DD2B0100E12B0100E42B0100E72B01003C
:104B4000EC2B01000B2A0100E12901008A2C010055
:104B5000862A010070B558488EB001F073FD80B30D
:104B60001F2206A9544801F0E8FA0EAB18440023AE
:104B700000F8203C5049684601F0F2FE03224F49FC
:104B800006A80BF04CFEF0B90DF11B000AF083FFF4
:104B9000451E0B2D15D84A4C012304F8353007F07B
:104BA000BDFF04EBC5043A2160600DF11B000BF062
:104BB00017FE30B190F90130A3F131025342534155
:104BC00063700EB070BD06223E4906A80BF027FEAA
:104BD000F0B90DF11E000AF05EFF451E0B2D0646D2
:104BE000EFD8374C012304F8353007F097FF04EB7A
:104BF000C50435496060354807F0B4F931460A22EA
:104C0000324807F025FA3249304807F0C3F9D8E7AF
:104C10000522304906A80BF002FE80B90DF11D00F7
:104C20000AF039FF451E0B2DCBD8254C012304F883
:104C3000353007F073FF04EBC5046060C1E7264917
:104C400006A80BF0DAFD18B92448FFF7CBFCB8E74B
:104C5000234906A80BF0D1FD08B92248F5E72249FF
:104C600006A80BF0CAFD08B92048EEE7204906A8BF
:104C70000BF0C3FD08B91F48E7E71F4906A80BF072
:104C8000BCFD08B91D48E0E71D4906A80BF0B5FDBD
:104C900008B91C48D9E71C4906A80BF0AEFD10B9AD
:104CA000FFF766FD8DE7194906A80BF0A6FD002861
:104CB00087D1FFF7ADFD84E788040020EC2A0100CE
:104CC00010040020F02A0100F72A0100C00E002085
:104CD000FF2A01000A2B0100102B0100DD2B01002F
:104CE0001F2B0100E12B01002E2B0100E42B010002
:104CF0003D2B0100E72B01004C2B0100E92B0100AB
:104D00005B2B0100EC2B01006A2B0100712B0100D1
:104D100038B51E4CFFF7FCFDFFF7BCFCFFF734FA7B
:104D20002278A2B11A4B1B7823B31A4DFFF712FF5A
:104D300007F0F4FE2B68C01A42F21073984204D9AF
:104D4000FFF740FA07F0EAFE2860237893B9124C87
:104D500007F0E4FE2368C01AB0F5FA7F0AD90F4BBA
:104D60001978072081F00101197007F0F1FD07F0B3
:104D7000D5FE20600A4806F01CFA08B1FFF778FE5D
:104D80000A20BDE8384007F085BE00BF680A002051
:104D9000600A0020E40300206C0A0020700A002052
:104DA000C00E002008B50368002B02DA094809F09C
:104DB000ECFF8B4208D949008B4205D20029B6BFCF
:104DC0006FF00043016003600068BDE808400130F7
:104DD00009F0C7BF772D010010B50446406828B11F
:104DE00063781BB940F2AC4109F0AAFF204610BD20
:104DF00008B4F3B507AB044600F10C0553F8042BD7
:104E00000193802128460BF0E7FDD4F89000A8B16B
:104E100094F89430012B11D90F4907F0A7F8D4F872
:104E20009060336828465F680BF0F1FC2946024623
:104E30003046B847D4F8900007F0A6F828466468D2
:104E40000BF0E5FC29460246204606F087FA02B040
:104E5000BDE8F04001B07047C72C0100034653F88D
:104E6000080B984201D009F069BF7047F8B50646B3
:104E7000456808460F460BF0CAFCA842024628BF08
:104E80002A46044622B1394630680AF0A1FE00B92C
:104E9000281BF8BD012A30B404D191F90030037009
:104EA00030BC7047002AFBD030BC0AF0A0BEFFFF28
:104EB00000F1080373B5044603600D46D1B10846FE
:104EC0000BF0A5FC0F280646019006D9002101A889
:104ED000FFF768FF019B2060A360324629462068E7
:104EE000FFF7D8FF019B2268636000212046D15460
:104EF00002B070BD014809F045FF00BF8F2D0100D1
:104F00002DE9F347DDF82880164642689A46A8EB5B
:104F10000603571A13440268019300F108039A42EA
:104F20000D46044614BF81680F2101A8FFF73AFF20
:104F3000BF1B81461DB12A462168FFF7ABFFBAF1BE
:104F4000000F08D0B8F1000F05D04246514609EBDA
:104F50000500FFF79FFF47B121682E4405EB0800CD
:104F60003A4631444844FFF795FF2046FFF776FF65
:104F7000019BC4F80090A36002B0BDE8F087F7B5CC
:104F80000268466800F108039A4218BF836806F178
:104F9000010508BF0F239D4204460F4606D9012391
:104FA000009300231A463146FFF7AAFF23689F5556
:104FB0002368656000225A5503B0F0BD012A30B461
:104FC00004D191F90030037030BC7047002AFBD047
:104FD00030BC0AF017BEFFFF2DE9F74F814614469B
:104FE00040680C9E02F10042013A121A964298461D
:104FF00002D9374809F0C9FE4A46A6EB040B52F81D
:10500000083B934218BFD9F808200BEB000A08BFF1
:105010000F22524552D35F189845A0EB0101A1EB36
:10502000040522D3034498451FD876BB95B1B442FA
:1050300010D02A463919B819FFF7C0FFB44209D277
:105040003C4408EB06039C4227D33246414638468F
:10505000FFF7B4FFD9F80030C9F804A00022484691
:1050600003F80A2003B0BDE8F08F35B1B44204D094
:105070002A463919B819FFF7A1FF002EEAD03246A7
:1050800041463846FFF706FFE4E7B4421DD33246F7
:1050900041463846FFF792FFC8E7444503D83246F9
:1050A00008EB0B01EDE7A4EB080422464146384625
:1050B000FFF784FF321BB9193819E3E7009643461E
:1050C00022464846FFF71CFFC4E7002DB8D0B0E7E2
:1050D0005E2D010037B5044608460D460BF097FBE0
:1050E0002B460090626800212046FFF775FF03B051
:1050F00030BDFFFF2DE9F04F8FB00AAB039106469C
:10510000089398490398002309938DF82830924614
:10511000FFF7ACFE031C0490D6F8900018BF0123E3
:10512000069328B196F8943013B18F4906F01EFF0C
:1051300007F0F4FC4FF00008CDE901880123DFF807
:1051400050B20590474699464446079307F0E6FC5F
:10515000059BB268C01A904200F21C81079B5BB1AC
:105160007068026812699047079B0028EDD070684C
:1051700003685B69984745B2D6F8900038B196F855
:10518000943023B10A2D24D1784906F0EFFED6F8E9
:10519000900060B196F89430022B08D9744906F05B
:1051A000E5FE0A222146D6F8900006F053FF631E62
:1051B000072B29D8DFE813F03A005C0081008D004E
:1051C0009000BA002D01A500092C00F0E580012314
:1051D000BBE70D2D01D16749D7E7202D01D16649E5
:1051E000D3E71F2D0CDC654906F0C0FE29460A22D4
:1051F000D6F8900006F047FF6149D6F89000C4E762
:10520000294606F0B7FEC2E72B2D05D1294608A88E
:10521000FFF7B5FE0124DAE71BF90730AB4240F097
:105220009F80DDF8188001370824D0E73A2D294601
:1052300008A801D03D2D3DD1FFF7A1FE049B8BB105
:10524000039B099A5B689A4206D15AB1039B08985E
:1052500019680AF0BDFC28B14A4908A8FFF73AFFCF
:105260004FF0010847495046FFF734FF0224AEE7EC
:105270007C2D11D1DAF800000AF00DFC0023CAF8E9
:105280000430DAF8003002904FF000021A70002863
:105290000CBF052403249AE70D2D00F0B1800A2DE0
:1052A00000F0B08096F88C3013B1202D00F0AC8067
:1052B00029465046FFF763FE89E729465046FFF727
:1052C0005EFE019B029A01330193934208BF0524BD
:1052D0007DE70A2D08BF05242B495046FFF7C6FD80
:1052E00060B12A495046FFF7C1FD002804BF4FF0C6
:1052F000010909244F2D2AD1012795E78146092468
:10530000F8E71BF907207B1C58460793AA4218BFF1
:1053100007240BF07CFA079B98426FD107464FF0A9
:105320000009B8F1000F19D1092435E01BF9072055
:105330007B1C58460793AA4218BF07240BF067FA54
:10534000079B98425AD107464FF00109E9E7B8F1A7
:10535000000F3FF439AF092C7FF439AF4FF000084C
:10536000002434E7182D0100252D01002B2D01000C
:10537000462D0100302D0100352D01003A2D010090
:105380002E2D01000D2E01008A2C0100982C010009
:105390003C2D01004FF00309D6F89000B8B196F803
:1053A0009430022B13D91E4906F0E0FD0A22214653
:1053B000D6F8900006F04CFE1A49D6F8900006F098
:1053C000D5FD0A224946D6F8900006F043FED6F8ED
:1053D0009000012386F88C3048B196F8943033B1B0
:1053E000114906F0C3FDD6F8900006F0CDFD08A8DF
:1053F000FFF734FD48460FB0BDE8F08F1F46E6E6E4
:105400000424E4E60524E2E6B8F1000F7FF4DFAE01
:105410009BE6002398464FF002091C4695E600BF24
:10542000412D01004E2D0100542D010030B50446E0
:10543000406803688DB05B68984706AA1D496846B6
:10544000FFF736FD08AB069306AA002369462046FF
:1054500007938DF82030FFF74DFE0546D4F89000F5
:1054600088B194F89430012B0DD9134906F07EFDD4
:105470000699D4F8900006F097FD7DB90F49D4F84D
:10548000900006F091FD06A8FFF7E8FC6846FFF7DC
:10549000E5FCB5FA85F040090DB030BD012DD4F81A
:1054A000900001D10649ECE7032D0CBF05490649E0
:1054B000E7E700BF182D0100652C01007F2C0100DB
:1054C0008D2C01009E2C0100B12C010008B42DE9A7
:1054D000F3431646044609AB306853F8042B019396
:1054E000884604F10C050021716001708021284676
:1054F0000BF072FAD4F89000B0B106F045FD2449E3
:10550000D4F8900006F032FDD4F890703B6828463D
:10551000D3F804900BF07BF9294602463846C84779
:10552000D4F8900006F030FD284667680BF06FF95C
:1055300029460246384605F011FF324641462046CC
:10554000FFF7D8FD0546D4F8900068B1114906F080
:105550000DFD3168D4F8900006F026FD65B90E49BE
:10556000D4F8900006F020FDB5FA85F0400902B0AD
:10557000BDE8F04301B07047012DD4F8900001D18F
:105580000649EFE7032D0CBF05490649EAE700BFCE
:10559000022D01000C2D01007F2C01008D2C01003B
:1055A0009E2C0100B12C01002DE9F0430446406817
:1055B00091B01646002834D02378002B31D10368EF
:1055C000194DDB69DFF86C90DFF86C80174F984756
:1055D0000AAA174904A8FFF76BFC60680368DB6838
:1055E00098474FF4FA72AA602378A3B9002E12DD0F
:1055F00003AA49460AA8FFF75BFC3B4604AA0AA98E
:10560000CDF800800848FFF761FF20700AA8FFF777
:1056100025FC013EE8E742F2107304A8AB60FFF7F7
:105620001DFC11B0BDE8F083740A00205B3B010053
:105630000D2E0100DF2C0100EF2C0100074B084864
:1056400058600022012142F210701A70597098605F
:1056500083F88C1083F89420704700BF740A0020F0
:10566000181800200148FFF7B7BB00BF740A0020DC
:1056700008B50368002B02DA094809F086FB8B4263
:1056800008D949008B4205D20029B6BF6FF000430C
:10569000016003600068BDE80840013009F061BBAB
:1056A000772D010073B542F21073036000F5F873B3
:1056B0000025C0F8E831012600F50273044680F8A1
:1056C000E451C0F8EC5180F8F051C0F80032C0F855
:1056D000045280F8085204230096A822C02100F545
:1056E000067006F0CBFA33460096A822C02104F5D6
:1056F0000C7006F0C3FAFF2300951A46194604F50C
:10570000127006F0BBFA204602B070BD70B50B46B1
:1057100000F10802026053F8084BA3420FD11C4667
:1057200001F1180554F8046B42F8046BAC42F9D14E
:105730004A6842600B6000234B600B7270BD0460CE
:105740008A688260F4E72DE9F74303464668044619
:1057500053F8080B98428846174602EB06052CD0F2
:10576000A1688D420DD827B13A4641463044FFF733
:1057700091FB23686560002220465A5503B0BDE8BE
:10578000F083019501A8FFF773FF81461EB13246F1
:105790002168FFF77FFBB8F1000F06D02FB13A4622
:1057A000414609EB0600FFF775FB2046FFF756FB65
:1057B000019BC4F80090A360DBE70F2DD3D90195BE
:1057C0000F21DFE708B5D1E90012FFF7BCFF08BDE4
:1057D00038B5044608460D460BF019F861686FF0BD
:1057E00000435B1A8342024602D2044809F0CDFA14
:1057F00029462046FFF7A7FF38BD00BFDD2E010078
:1058000008B4F0B50D46114682B0044601F10E0011
:1058100020F0070000AF07F11C03ADEB000D6E4652
:1058200053F8042B3B603046A84704F108030F28C7
:1058300005462360786006D90021381DFFF718FF60
:105840007B682060A3602A4631462068FFF722FB70
:105850007B6822686360002120460837D154BD462A
:10586000BDE8F04001B0704713B5054B0091102220
:1058700004490446FFF7C4FF204602B010BD00BF34
:10588000F22E0100D909010073B505460E4619B97B
:1058900012B10D4809F076FA941B0F2C019406D929
:1058A000002101A8FFF7E4FE019B2860AB602246BF
:1058B00031462868FFF7EEFA019B2A686B600021E9
:1058C000D15402B070BD00BF8F2D010038B500F17A
:1058D0000803044603600D4649B108460AF097FFE5
:1058E0002A1820462946FFF7CFFF204638BD4FF043
:1058F000FF32F6E72DE9F043DFF81093C14CB7B063
:105900000546884606A8C0491E461746FFF7DEFF33
:10591000032248464FF4E131FFF746FE002140469E
:1059200006F0DBFA017830A8FFF79EFF214630A889
:10593000FFF74EFF01460CA8FFF7E8FE30A8FFF77F
:105940008DFA0121404606F0C8FA01782AA8FFF72F
:105950008BFF21462AA8FFF73BFF014630A8FFF73F
:10596000D5FE30A90CA8FFF72DFF30A8FFF776FA77
:105970002AA8FFF773FA0221404606F0AEFA017832
:105980002AA8FFF771FF21462AA8FFF721FF014649
:1059900030A8FFF7BBFE30A90CA8FFF713FF30A813
:1059A000FFF75CFA2AA8FFF759FA0321404606F0F0
:1059B00094FA017830A8FFF757FF30A90CA8FFF739
:1059C00001FF30A8FFF74AFA0021384606F085FAB1
:1059D000017830A8FFF748FF214630A8FFF7F8FE0E
:1059E000014612A8FFF792FE30A8FFF737FA01210F
:1059F000384606F072FA01782AA8FFF735FF2146EB
:105A00002AA8FFF7E5FE014630A8FFF77FFE30A980
:105A100012A8FFF7D7FE30A8FFF720FA2AA8FFF751
:105A20001DFA0221384606F058FA01782AA8FFF735
:105A30001BFF21462AA8FFF7CBFE014630A8FFF73F
:105A400065FE30A912A8FFF7BDFE30A8FFF706FAE1
:105A50002AA8FFF703FA0321384606F03EFA017838
:105A600030A8FFF701FF30A912A8FFF7ABFE30A85E
:105A7000FFF7F4F90021304606F02FFA017830A83C
:105A8000FFF7F2FE214630A8FFF7A2FE014618A854
:105A9000FFF73CFE30A8FFF7E1F90121304606F0A0
:105AA0001CFA01782AA8FFF7DFFE21462AA8FFF793
:105AB0008FFE014630A8FFF729FE30A918A8FFF78E
:105AC00081FE30A8FFF7CAF92AA8FFF7C7F902211B
:105AD000304606F002FA01782AA8FFF7C5FE2146F3
:105AE0002AA8FFF775FE014630A8FFF70FFE30A980
:105AF00018A8FFF767FE30A8FFF7B0F92AA8FFF74C
:105B0000ADF90321304606F0E8F9017830A8FFF737
:105B1000ABFE30A918A8FFF755FE30A8FFF79EF995
:105B200000213E9806F0D9F9017830A8FFF79CFED5
:105B3000214630A8FFF74CFE01461EA8FFF7E6FD00
:105B400030A8FFF78BF901213E9806F0C6F90178DD
:105B50002AA8FFF789FE21462AA8FFF739FE014649
:105B600030A8FFF7D3FD30A91EA8FFF72BFE30A801
:105B7000FFF774F92AA8FFF771F902213E9806F0A1
:105B8000ACF901782AA8FFF76FFE21462AA8FFF793
:105B90001FFE014630A8FFF7B9FD30A91EA8FFF788
:105BA00011FE30A8FFF75AF92AA8FFF757F9032189
:105BB0003E9806F092F9017830A8FFF755FE30A91B
:105BC0001EA8FFF7FFFD30A8FFF748F900213F9816
:105BD00006F083F9017830A8FFF746FE214630A889
:105BE000FFF7F6FD014624A8FFF790FD30A8FFF768
:105BF00035F901213F9806F070F901782AA8FFF7DE
:105C000033FE05E0A52A01000D2E0100740A0020D4
:105C100021462AA8FFF7DCFD014630A8FFF776FDF4
:105C200030A924A8FFF7CEFD30A8FFF717F92AA85E
:105C3000FFF714F902213F9806F04FF901782AA8DE
:105C4000FFF712FE21462AA8FFF7C2FD014630A841
:105C5000FFF75CFD30A924A8FFF7B4FD30A8FFF7DB
:105C6000FDF82AA8FFF7FAF803213F9806F035F966
:105C7000017830A8FFF7F8FD30A924A8FFF7A2FDAE
:105C800030A8FFF7EBF808F104030FCB05F5077414
:105C900084E80F0098F8143085F82C323B1D0FCBA8
:105CA00005F50D7484E80F003B7D85F84432331D03
:105CB0000FCB05F5137484E80F00337D85F85C3253
:105CC000204930A8FFF702FE0C9B189A0193CDE9FA
:105CD00002321D4B009306AA1C4B30A94846FFF721
:105CE000F5FB30A8FFF7BAF8194930A8FFF7EEFD29
:105CF000249B05931E9B0493189B0393129B029372
:105D00000C9B0193134B009306AA134B30A94846F2
:105D1000FFF7DCFB30A8FFF7A1F824A8FFF79EF8F7
:105D20001EA8FFF79BF818A8FFF798F812A8FFF72E
:105D300095F80CA8FFF792F806A8FFF78FF837B090
:105D4000BDE8F083602E01007C2E01006F2E010063
:105D50008D2E0100A82E0100952E01002DE9F041A5
:105D6000ACB000241F46FF23064688461546009423
:105D70001A46194602A805F081FF234622460094E0
:105D8000214608A805F07AFF41460EA8FEF7B8F9AB
:105D9000394614A8FEF7B4F920AC02A91AA8FEF7F8
:105DA000AFF92946204626ADFEF7AAF908A92846EC
:105DB000FEF7A6F9CDE900451AAB14AA0EA93046A4
:105DC000FFF798FD2CB0BDE8F081FFFF10B503226E
:105DD0008CB04FF4E1311148FFF7E6FB10496846FB
:105DE000FFF774FD0F4906A8FFF770FD0E4B0B4837
:105DF0006A4606A9FFF76AFB044606A8FFF72EF8D5
:105E000034B1012006F046FE009809F044FEC4B209
:105E10006846FFF723F820460CB010BD740A002036
:105E20000D2E0100442E0100502E0100F0B591B05E
:105E300004460E4604A82849284D1746FFF746FD9C
:105E400003224FF4E1312648FFF7AEFB25490AA8AB
:105E5000FFF73CFD01230193234B00930AA9234B39
:105E60001F4804AAFFF732FB0AA8FEF7F7FF2049F4
:105E70000AA8F7B9FFF72AFDCDE900561D4B1848CF
:105E800004AA0AA9FFF722FB05460AA8FEF7E6FFC7
:105E9000DDB106F043FE054606F040FE2368401BD8
:105EA000984212D22046FFF791FF0328F4D104460E
:105EB0000CE0FFF70BFDCDE9016700950E4B08489C
:105EC00004AA0AA9FFF702FBDEE7042404A8FEF7F0
:105ED000C5FF204611B0F0BD0D2E01002D2E010092
:105EE000740A0020DC2D0100152E01000E2E010089
:105EF000222E0100C62D01003A2E010070B50322AA
:105F00008EB005464FF4E1312848FFF74DFB0024E1
:105F1000274902A8FFF7DAFC2346224621460094CF
:105F2000284605F0ABFE234908A8FFF7CFFC224B1B
:105F3000009302AA214B1D4808A9FFF7C7FA06469D
:105F400008A8FEF78BFFD6B1029809F0A4FD01283E
:105F50001BD11B4908A8FFF7B9FC1A4B0093019409
:105F6000194B124802AA08A9FFF7B0FA044608A87C
:105F7000FEF774FF1CB10299284605F0A1FF02A8A4
:105F8000FEF76CFF28460EB070BD029809F083FD45
:105F90000228F4D10D4908A8FFF798FC0C4B0348E0
:105FA00002AA08A9FFF792FAE0E700BF740A0020EE
:105FB0000D2E0100DC2D0100E72D01005B3B0100EF
:105FC000CB2E0100D32E01000E2E0100B22E0100B7
:105FD000BD2E01000148FFF765BB00BF0C0B002080
:105FE00010B5054C04F50070FEF738FF04F5F470A9
:105FF000FEF734FF10BD00BF0C0B002000207047DF
:10600000036813B962B6BFF36F8F704703689B6B69
:10601000184708B503689B6D984780F00100C0B22F
:1060200008BD13B502AB026803F8011D5468194698
:106030000122A04702B010BD07B5036801229B6B87
:106040000DF10701984701280CBF9DF807004FF09C
:10605000FF3003B05DF804FB00690B69C31A5842B6
:106060005841704700F1080370B5044603600E46BE
:10607000B1B108460AF0CBFB0F28054604D9013020
:1060800008F06FFEA5602060012D20680BD196F905
:10609000003003702368656000225A55204670BDA9
:1060A000044808F06FFE002DF4D02A46314609F06E
:1060B0009EFDEFE78F2D010013B5EFF310830093E2
:1060C0000123019372B6019B5A1E019233B10468F9
:1060D0006846FFF795FF204602B010BD6846FFF7FF
:1060E0008FFFF8E770B5044600F2D4500D46FFF775
:1060F000E3FFA84205D2236820469B6CBDE87040B0
:10610000184770BD13B50446EFF3108300930123C5
:10611000019372B6019B5A1E0192684653B1FFF774
:106120006FFF631C40F2B552B3FBF2F002FB10307C
:1061300002B010BDFFF764FFFAE72DE9F3470368EB
:106140000D46DB6C114617460446984701262F443E
:106150004FF00008B246BD4228D03EB3D4F8D43543
:106160004BB994F814901E4605F8019B002EF2D00E
:1061700008F10108EFE7EFF31083CDE9003A72B6BA
:10618000019B5A1E01926BB1D4F8D005231893F8E5
:106190001490FFF7B7FFD4F8D435C4F8D005013B0D
:1061A000C4F8D4356846FFF72BFFDDE7404602B060
:1061B000BDE8F08738B500254FF47A73C0E9015384
:1061C000094B036004464FF0FF33036140F2B552C0
:1061D0002946143009F02FFDC4F8CC55C4F8D05529
:1061E000C4F8D455204638BDDC30010030B5036911
:1061F00001338FB005460C4628D1154902A8FFF798
:1062000031FF03224FF4E1311248FFF7CDF9124973
:1062100008A8FFF727FF114B0194009302AA104B27
:106220000C4808A9FFF752F9044608A8FEF716FE25
:106230004CB1029809F02FFC286102A8FEF70EFE6F
:1062400001200FB030BD02A8FEF708FE0020F8E7DD
:106250000D2E0100740A0020243001002F300100AF
:106260000E2E010070B50369013394B005460E4649
:10627000144631D1194908A8FFF7F4FE03224FF460
:10628000E1311748FFF790F916490EA8FFF7EAFE2B
:10629000314605A805F054FD059B1148CDE90143A1
:1062A000114B009308AA114B0EA9FFF70FF90446F2
:1062B00005A805F0EAFE0EA8FEF7D0FD4CB108983F
:1062C00009F0E9FB286108A8FEF7C8FD012014B019
:1062D00070BD08A8FEF7C2FD0020F8E70D2E0100F2
:1062E000740A0020243001002F3001001A30010010
:1062F00070B50369013394B005460E46144631D19A
:10630000194908A8FFF7AEFE03224FF4E131174800
:10631000FFF74AF916490EA8FFF7A4FE314605A873
:1063200005F00EFD059B1148CDE90143114B00938B
:1063300008AA114B0EA9FFF7C9F8044605A805F0F5
:10634000A4FE0EA8FEF78AFD4CB1089809F0A3FB45
:10635000286108A8FEF782FD012014B070BD08A8CE
:10636000FEF77CFD0020F8E70D2E0100740A0020E6
:106370008E2F01009E2F01001A30010010B5036915
:10638000002B8EB0044620DB114902A8FFF76AFEFD
:1063900003224FF4E1310F48FFF706F90E4908A830
:1063A000FFF760FE236901930C4B009302AA0C4B8C
:1063B000084808A9FFF78AF808A8FEF74FFD4FF034
:1063C000FF33236102A8FEF749FD0EB010BD00BFE8
:1063D0000D2E0100740A0020EE2F0100F82F01009D
:1063E0000E2E010070B50369002B94B004460E46D2
:1063F00015462EDB184908A8FFF734FE03224FF498
:10640000E1311648FFF7D0F815490EA8FFF72AFE2C
:10641000314605A8246905F093FC059B0194CDE95C
:106420000253104B009308AA0F4B0C480EA9FFF71C
:106430004DF8044605A805F028FE0EA8FEF70EFD4F
:1064400008A824B1FEF70AFD012014B070BDFEF7C4
:1064500005FD0020F9E700BF0D2E0100740A0020A1
:10646000172F0100372F01002A2F010070B5036993
:10647000002B90B004460E46154626DB144904A8AE
:10648000FFF7F0FD03224FF4E1311248FFF78CF8DB
:1064900011490AA8FFF7E6FDCDE9025623690193E9
:1064A0000E4B009304AA0E4B0A480AA9FFF70EF8F8
:1064B00004460AA8FEF7D2FC04A824B1FEF7CEFCDD
:1064C000012010B070BDFEF7C9FC0020F9E700BF45
:1064D0000D2E0100740A00204C2F0100602F0100D6
:1064E0002A2F010010B50369002B8EB0044624DB6F
:1064F000134902A8FFF7B6FD03224FF4E13111481A
:10650000FFF752F8104908A8FFF7ACFD2369019383
:106510000E4B009302AA0E4B0A4808A9FEF7D6FFBD
:10652000044608A8FEF79AFC02A824B1FEF796FCE0
:1065300001200EB010BDFEF791FC0020F9E700BF6E
:106540000D2E0100740A0020B02F0100C32F01009E
:106550000E2E010010B50369002B8EB0044624DB1B
:10656000134902A8FFF77EFD03224FF4E1311148E1
:10657000FFF71AF8104908A8FFF774FD2369019383
:106580000E4B009302AA0E4B0A4808A9FEF79EFF85
:10659000044608A8FEF762FC02A824B1FEF75EFCE0
:1065A00001200EB010BDFEF759FC0020F9E700BF36
:1065B0000D2E0100740A0020B4300100C330010028
:1065C0000E2E010070B50369002B90B005460E46F3
:1065D00014462ADB164904A8FFF744FD03224FF4B2
:1065E000E1311448FEF7E0FF13490AA8FFF73AFD2E
:1065F00002942B690193114B009304AA104B0D4890
:106600000AA9FEF7F5FB0AA8FEF728FC2246314648
:106610000848FEF70BFF054604A825B1FEF71EFC4F
:10662000204610B070BDFEF719FC0024F8E700BF4B
:106630000D2E0100740A0020543001006930010061
:106640005F30010010B50369002B8EB004462DDBCE
:10665000174902A8FFF706FD0023C4F8CC35C4F89B
:10666000D035C4F8D43503224FF4E1311148FEF798
:106670009BFF114908A8FFF7F5FC236901930F4B15
:10668000009302AA0E4B0B4808A9FEF71FFF044611
:1066900008A8FEF7E3FB1CB1029809F0FCF90446D8
:1066A00002A8FEF7DBFB20460EB010BD0024FAE77F
:1066B0000D2E0100740A0020762F0100812F0100A9
:1066C0000E2E010030B50369002B8FB0044632DB7B
:1066D00000F2D4552846FFF7EFFC002806DD2846D7
:1066E000FFF7EAFC044620460FB030BD134902A86C
:1066F000FFF7B8FC03224FF4E1311148FEF754FFD5
:10670000104908A8FFF7AEFC236901930E4B0093D4
:1067100002AA0E4B0A4808A9FEF7D8FE044608A8AC
:10672000FEF79CFB1CB1029809F0B5F9044602A8DB
:10673000FEF794FBD7E70024D5E700BF0D2E01003C
:10674000740A002094300100A33001000E2E0100D5
:106750002DE9F04F0369002B93B00446C0F284800A
:10676000434906A8FFF77EFCEFF310830C93012347
:106770000D9372B60D9B5A1E0D9223B1D4F8D455C9
:10678000C5F5B66505356E1E3A4D0CA8FFF738FC09
:106790004FF00008032228464FF4E131FEF704FFD2
:1067A00085F88C8034490CA8FFF75CFC02962369BD
:1067B0000193324B00932846314B06AA0CA9FEF7F1
:1067C00085FE05460CA8FEF749FB002D41D0079B2E
:1067D000002B47D045464FF00108C146B54238D29C
:1067E000079B9D4235D2069B13F805A0EFF310835B
:1067F000CDE9043872B640F2B55B059B5A1E05928E
:1068000013B3EFF31083CDE90C3972B60D9B5A1E0A
:106810000D922BB1D4F8D475A7EB0B035F425F4107
:106820000CA8FFF7EDFB002FE7D1D4F8CC05231817
:1068300083F814A0FFF766FCD4F8D435C4F8CC056F
:106840000133C4F8D435D8E704A8FFF7D9FB0135E4
:10685000C4E74FF0FF3406A8FEF700FB204613B054
:10686000BDE8F08F1C46F6E74FF0FF34F6E700BFB7
:106870000D2E0100740A0020043001000E300100CA
:106880005F30010010B50369002B8EB0044629DB90
:10689000164902A8FFF7E6FB03224FF4E131144842
:1068A000FEF782FE134908A8FFF7DCFB236901937A
:1068B000114B009302AA114B0D4808A9FEF706FEE2
:1068C000044608A8FEF7CAFA4CB1029809F0E3F8AA
:1068D000044602A8FEF7C2FA20460EB010BD4FF0E3
:1068E000FF34F6E74FF0FF34F6E700BF0D2E01004E
:1068F000740A0020D82F0100E22F01000E2E0100A3
:1069000010B50369002B8EB004461DDB0F4902A8A9
:10691000FFF7A8FB03224FF4E1310D48FEF744FED8
:106920000C4908A8FFF79EFB236901930A4B0093CB
:1069300002AA0A4B064808A9FEF7C8FD08A8FEF7F8
:106940008DFA02A8FEF78AFA0EB010BD0D2E0100D6
:10695000740A00203C300100473001000E2E010077
:1069600030B50C4695B0054602A805F07FF92369BD
:10697000002B34DB1E4908A8FFF774FB03224FF4F9
:10698000E1311C48FEF710FE1B490EA8FFF76AFB19
:1069900023690193194B009308AA194B15480EA9B6
:1069A000FEF794FD04460EA8FEF758FAA4B1089924
:1069B0002C4602A805F084FA124B44F8043B03ABC2
:1069C0000FCB84E80F009DF81C302B7508A8FEF74C
:1069D00045FA284615B030BD08A8FEF73FFA002357
:1069E00000931A461946284605F048F9F1E700BF1A
:1069F0000D2E0100740A0020763001008430010061
:106A00000E2E01005034010010B50369002B8EB02A
:106A1000044626DB144902A8FFF724FB03224FF4A7
:106A2000E1311248FEF7C0FD114908A8FFF71AFB33
:106A3000236901930F4B009302AA0F4B0B4808A93F
:106A4000FEF744FD044608A8FEF708FA1CB10298B8
:106A500009F021F884B202A8FEF700FA20460EB031
:106A600010BD0024FAE700BF0D2E0100740A0020BB
:106A7000F52E0100052F01000E2E010008B505F0CE
:106A8000EFFF002008BD27207047704737B5FFF79C
:106A9000FCFF01210D2005F043FF00210D2005F032
:106AA00057FF68460722032108F0D8F8BDF80030E8
:106AB0001C4CC3F384130125684607220521E554C5
:106AC00008F0CCF8BDF80030C3F384136846072201
:106AD0000621E55408F0C2F8BDF80030C3F3841372
:106AE000684607220921E55408F0B8F8BDF80030DF
:106AF000C3F38413684607220A21E55408F0AEF870
:106B0000BDF80030C3F3841307220B216846E55417
:106B100008F0A4F8BDF80030C3F38413E55403B0C3
:106B200030BD00BF4A0E002030B5836A85B00446F0
:106B30008C4601ADABB193E8070085E807006268B9
:106B4000117883F804C0E26A9A6019601846626A94
:106B50009047A36A1BB195E8070083E8070005B0DA
:106B600030BD2B46EBE700BF10B4EFF30383103BBF
:106B70005BB203F1C001204A204C52F821006FF3B0
:106B8000104042F8210054F82330D3E906218A420C
:106B90001BD0186940B393F820400F2C0BD999688B
:106BA000496840F82210D96901328A429A610CD0B2
:106BB0005DF8044B7047072C19D8996809798154FE
:106BC000D96901328A429A61F2D15B680C4993F922
:106BD00003305DF8044B5809012203F01F0302FA49
:106BE00003F341F82030704798684068DCE79C6800
:106BF000A48820F81240D7E700600040B80D0020BC
:106C000000E100E0F0B5EFF30383103B5BB203F16A
:106C1000C0022F492F4C51F822006FF3104041F869
:106C2000220054F823305868026A002A30D092F8C3
:106C300001C0DC695A69BCF1010F17D094420FD032
:106C4000D96841B393F820000F280AD8072898681C
:106C500095BF895C31F812100171818001325A614F
:106C6000F0BD986851F822104160F7E704F1FF3E4B
:106C7000724513D001690029E0D090F9031016483D
:106C80004D0901F01F010CFA01F140F82510D5E77C
:106C90005A69DC69D2E798684160DFE790F903E060
:106CA0000EF1C0064FEA5E10800051F8267000F128
:106CB000604000F561400EF01F0E0CFA0EF56FF308
:106CC000104741F82670C0F880510560B6E700BF54
:106CD00000600040B80D002000E100E010B4EFF3C8
:106CE0000383103B5BB2324A324C03F1C00152F8CD
:106CF00021006FF3104042F8210054F8230082680D
:106D0000D278920706D54268527A012A02D05DF8FD
:106D1000044B70475909284C0122203103F01F030E
:106D200002FA03F344F82130BFF34F8FBFF36F8FA4
:106D3000436893F90230002B2FDB5909203103F00F
:106D40001F0302FA03F344F82130BFF34F8FBFF360
:106D50006F8FD0E90114237891F902106FF3861335
:106D60000029237014DB01F1C00C114C4B099B006E
:106D700001F01F018A4003F1604354F82C1003F521
:106D800061436FF3104144F82C10C3F880211A605E
:106D90005DF8044B0121FFF7C7BE82685DF8044B24
:106DA00013786FF3861313700121FFF7BDBE00BF88
:106DB00000600040B80D002000E100E070B5EFF386
:106DC0000384103C314B64B253F82460736893F928
:106DD0000230002B42DB5A092D492032012003F0FA
:106DE0001F0300FA03F341F82230BFF34F8FBFF3C4
:106DF0006F8FD6E9012392F902101A7800296FF3F8
:106E000086121A7015DB01F1C00C224D4A0992005E
:106E100001F01F0100FA01F102F1604255F82C0067
:106E200002F561426FF3104045F82C00C2F8801162
:106E30001160DA780021D5B21207D97021D4EB079E
:106E400012D405F01405142D16D0124BC03453F88B
:106E500024206FF3104243F8242070BDB3681A78E1
:106E60006FF386121A70E4E70421304605F014052A
:106E7000FFF75AFE142DE8D108213046FFF754FEE3
:106E8000E3E705213046FFF74FFED8E7B80D0020B5
:106E900000E100E000600040036A70B504469878A5
:106EA00000F07B0098700D46217841B32261E269C1
:106EB000E5601069002841D0226982B1A378816819
:106EC00000688E68E16803F00303013B22FA03F3D4
:106ED000002222619BB2B04780B9236A21789A7858
:106EE00042F080029A7039BB94F802C00CF0030C97
:106EF000BCF1020F1AD02A78DA70002070BD94F825
:106F000002C0E0690CF0030E0069A2EB0E022261E0
:106F100005EB0E02E2600028CED19A780CF0030C4B
:106F200042F08002BCF1020F9A70E4D12A8842F448
:106F30007E420020DA8170BD002070BD9A7842F058
:106F400080029A7070BD00BF036A91F801C09A7800
:106F500000B502F07B0E02F00B029A700022C260B4
:106F60008878587010461A786CF301021A70CA7843
:106F70009A7493F807C00A780CF0A30102F05C023F
:106F80000A43DA7183F802E05DF804FB10B5D0E93A
:106F90000721002343608B7092F905202F49044696
:106FA00050090123203002F01F0203FA02F241F8D7
:106FB0002020BFF34F8FBFF36F8FE26992F90B2050
:106FC0005009203002F01F0203FA02F241F820209B
:106FD000BFF34F8FBFF36F8FE26992F9072050091B
:106FE000203002F01F0203FA02F241F82020BFF322
:106FF0004F8FBFF36F8FE26992F90920500902F0B9
:107000001F02934000F1200241F82230BFF34F8F5E
:10701000BFF36F8FE369DA6822B1936810681B6A67
:107020009847E3691B691BB19A681868136A984707
:10703000EFF31081012383F31088E369084A1C7879
:10704000D2F800014FF00043E3400343C2F800319F
:10705000D2F8003181F31088002010BD00E100E07B
:10706000006F0440F0B5846A85B005460F4694462B
:107070006E46B4B194E80F0086E80F00EB691B7808
:1070800084F804C02360EB6A2046C4E902736B6A8B
:107090009847AC6A1CB196E80F0084E80F0005B071
:1070A000F0BD3446EAE700BF8C46516830B4029C1C
:1070B0000D6880B91C609CF8010038B9E8784FF081
:1070C000010C0B346CF30510E8701C6093681068B9
:1070D0001B6830BC184704F10C001860EBE700BFD8
:1070E0002DE9F0470D4609780323CB4013F0010347
:1070F00001F1007218BF1023037002F5605283780B
:107100005201012161F301030262A9696A694262C5
:107110000022C0E90A21C56183706B7882B0044601
:1071200023B98378022262F30103837095F90B007F
:10713000594B95F80AC04209203200F01F06012180
:1071400001FA06F643F82260BFF34F8FBFF36F8F4B
:10715000524A534E00F1C0074FEA0C1C52F827E088
:107160006FF3104E42F827E01F185FFA8CFC87F887
:1071700000C346F8204095F9050095F804C047097A
:10718000203700F01F0E01FA0EFE43F827E0BFF390
:107190004F8FBFF36F8F00F1C00703EB000852F869
:1071A00027E04FEA0C1C5FFA8CFC6FF3104E42F89C
:1071B00027E088F800C346F8204095F9070095F8C5
:1071C00006C04709203700F01F0E01FA0EFE43F8F3
:1071D00027E0BFF34F8FBFF36F8F00F1C00703EBC2
:1071E000000852F827E04FEA0C1C5FFA8CFC6FF3A2
:1071F000104E42F827E088F800C346F8204095F981
:10720000090095F808C04709203700F01F0E01FA61
:107210000EF143F82710BFF34F8FBFF36F8F00F1CC
:10722000C0074FEA0C1152F827C003446FF3104C0B
:1072300042F827C0C9B283F80013EA6846F8204034
:1072400072B153681B684FF4002143F8041B216A94
:1072500005310091E1692078FFF726FF0646B0B9B5
:107260002A69FAB153681B684FF0006143F8081BA4
:10727000216A03310091E1692078FFF715FF064686
:1072800080B1EB681BB19A681868136A984730465A
:1072900002B0BDE8F08700BF00E100E00060004000
:1072A000B80D0020EFF31080012383F31088984B72
:1072B0002E78D3F800214FF00041F14022EA01027C
:1072C000C3F80021D3F8003180F31088236AE06905
:1072D00000229A701A715A729A72DA725A83297855
:1072E00040F20722CA40D20744BF4022DA74062285
:1072F0001A7722787AB1C168013A002900F0FE803D
:107300000126120391B2314341F006029A829A8A11
:1073100092B29142FBD1EA78A978D20042EA0112F6
:107320006978032900F0D780002914BFF221E221F7
:10733000ED69D2B21A7099712A7B520002F00202F2
:107340005A736A78A97800261E7295F800C0D20197
:10735000490101F02001D2B20A43ACF10201012936
:1073600040F2BD80D2B2DA716A68917859701978AA
:10737000567866F301011970D17899741278D97929
:1073800002F05C0201F0A3010A43DA710027C4E9AC
:107390000377C4E9057790F905105E4E01F1C00E40
:1073A0004A0956F82E80920067F3104802F16042B5
:1073B00046F82E8002F561424FF0010E01F01F01E8
:1073C0000EFA01F1C2F88011116090F90B1001F171
:1073D000C0094A0956F829A0920002F1604202F55C
:1073E000614267F3104A01F01F0146F829A00EFA26
:1073F00001F1C2F88011116090F9071001F1C00984
:107400004A0956F829A0920002F1604202F5614251
:1074100001F01F0167F3104A46F829A00EFA01F1A6
:10742000C2F88011116090F9091001F1C0004A09F9
:1074300056F82090920002F1604267F3104946F836
:10744000209002F561420CF0030C01F01F010EFACE
:1074500001F14CF0700CC2F88011116083F802C089
:107460006B8923814FF6FF7843452DD0EFF31081D0
:107470008EF31088284A13681BB92848C37040232C
:10748000C37013680133136081F310882189244885
:107490000B0A1B0153FA81F150F8213023F001133C
:1074A00023F4404343F0040340F82130EFF310810C
:1074B000012383F31088136813B11368013B136031
:1074C0001368B3B181F31088164B63600026304611
:1074D00002B0BDE8F08742F04002F22128E7BCF19B
:1074E000020F08BF42F01002FF21D2B25970DA71C8
:1074F0004CE70A4A8020D370D070E3E7C169097A6B
:107500001140090201F4706141F00106F9E600BF83
:10751000006F044000600040B40D0020000D0440E6
:1075200000080440554943532DE9F04F1E46FF2300
:10753000B37033786FF382038BB033708023F370B2
:10754000554B0992554A1B6A12680191C3F30261B7
:107550008A40C3F30233DA40514B07900021100AEE
:1075600006920891059002910093A2FB03BA099B31
:10757000009A93426EDA9DF8203003930027494B1E
:10758000039ADD5DC5F34003C5F3800504932B43E7
:10759000934256D1444B33F81780079B03FB08F8FE
:1075A000069BB3FBF8F2541EFF2C4AD802FB08F9E5
:1075B0001DE0059BB9FBF3F37F2B03FB00F040D9E3
:1075C0000028B8BFFF300012A0F5C330A038002853
:1075D000009AB8BF4042824240DC029BF37033788D
:1075E00043F00403A9EB0809337054B3013C4A4645
:1075F0004FEAE9735846514608F08EF8019A002A7E
:10760000D7D1A0F5C333A03B002B009AB8BF5B4293
:107610009A4216DD0093234BB470DA5D3378C2F3DF
:10762000000161F38613049961F3041365F3C30346
:1076300033707378C2F3C10262F301037370019B6C
:10764000029301370D2F9AD1089BF3B1009B099A41
:1076500093421DDC00200BB0BDE8F08F0293114B6C
:10766000049AD95D33780090C1F3000060F386136B
:1076700062F3041365F3C30333707378B470C1F31A
:10768000C10161F301037370A7E7012308936EE75B
:1076900003200BB0BDE8F08F00E00140440E002055
:1076A000A08601007433010084330100F0B5EFF3CC
:1076B0000383103B5BB203F1C001344A344C52F8EF
:1076C00021006FF3104042F8210054F82300C369F1
:1076D0001B6913B1036913B1F0BD036983B9D0E924
:1076E0000824937803F07F03002143F00403937090
:1076F000C160002CF0D0BDE8F0408022FFF7B2BCA2
:1077000005785DB3066AF18AC1F30421A9421ED24D
:107710008478C2681F4F04F0030E74460BE092F8A1
:1077200000C086F80FC001311B1B2244A942C0E9EA
:1077300003230CD25BB1BEF1020FF0D1B2F800C04E
:107740004CEA070C1FFA8CFCA6F80EC0EBE7327966
:107750006FF3C7123271002BBED1C0E7827802F0FE
:1077600003010229C1680BD0046A0D78E57002F0AC
:1077700003029B1A0A44C0E90323002BACD1AEE7F5
:107780000C88056A44F47E44EC81F0E70060004018
:10779000B80D002000FEFFFF10B582B0EFF30383A9
:1077A000103B5BB203F1C001574A584C52F821001C
:1077B0006FF3104042F8210054F82340E369DB687E
:1077C00013B1A369002B49D122894FF6FF739A4266
:1077D00075D12278236AF2B1D98AC80612D01B8AE1
:1077E000C3F308030193A369FBB9636A2BB10422B5
:1077F00001992046FFF736FC22782AB1236AD98AFC
:10780000C906E8D1BE221A7123894FF6FF7293424E
:1078100031D102B010BDA17801F003010229DED000
:107820005B790193A369002BDFD0A278606902F035
:10783000030201A908F0DBF9D4E90521A37803F0DC
:1078400003031A44C91AC4E9052129B9636A1BB1A3
:1078500001222046FFF706FC2278CEE7636A00216A
:10786000C4E90511002BD4D00122204602B0BDE8A6
:107870001040FFF7F7BB1A0A1201254952FA83F3A9
:1078800051F8232022F0011222F4404242F0040277
:1078900041F82320EFF31082012383F310881D4B5E
:1078A000196811B11968013919601B681BB91A49A7
:1078B0008020CB70C87082F3108802B010BDEFF347
:1078C0001081012383F31088124B1A681AB91248E9
:1078D000C2704022C2701A6801321A6081F31088A7
:1078E00022890B49130A1B0153FA82F251F8223004
:1078F00023F0011323F4404343F0050341F8223001
:10790000236A227867E700BF00600040B80D0020BE
:1079100000080440B40D0020000D044010B5EFF342
:107920000384103C0B4B64B253F82400D0E90821C7
:10793000937803F07B03937019B102220021FFF7C3
:1079400091FB054BC03453F824206FF3104243F8E9
:10795000242010BDB80D00200060004010B5EFF3EA
:107960000384103C194B64B253F82400037843B9E4
:10797000837803F00303022B03D0036A5979C9B259
:1079800003E0036A198AC1F3080193F804C01CF0EC
:10799000100F0CF0380206D093F81CC01CF0010F39
:1079A00008BF42F0400293F804C00CF0C70C83F803
:1079B00004C0436A0BB1FFF755FB054BC03453F8C5
:1079C00024206FF3104243F8242010BDB80D00208E
:1079D0000060004030B5436A85B004468C4601AD76
:1079E000ABB193E8070085E807006268117883F877
:1079F00004C0A26A9A6019601846226A9047636AB6
:107A00001BB195E8070083E8070005B030BD2B46A1
:107A1000EBE700BF10B4EFF30383103B5BB203F15D
:107A2000C001144A144C52F821006FF3104042F880
:107A3000210054F823305A69D9698A4206D2D3E921
:107A40000240A8B1805CE07001325A618A4202D0E3
:107A50005DF8044B70471A69002AF9D19A685DF8FD
:107A6000044B937803F07B0343F004039370704757
:107A7000E070E9E700600040B80D002010B4EFF3BB
:107A80000383103B5BB203F1C001174A174C52F855
:107A900021006FF3104042F8210054F823305A6956
:107AA000D9698A4206D2D3E90240D0B1805CE07045
:107AB00001325A619A698A4207D2986819694079F5
:107AC000541C9C618854D3E90621914206D19A68DE
:107AD000937803F03B0343F0040393705DF8044B89
:107AE0007047E070E4E700BF00600040B80D002080
:107AF00010B5EFF30384103C0A4B64B2012153F834
:107B000024008268937803F003039370FFF762FF09
:107B1000C034054B53F824206FF3104243F824205F
:107B200010BD00BFB80D00200060004010B5EFF39D
:107B30000384103C0C4B64B24FF0840C53F82400C7
:107B400083689A7802F003029A701A7983F804C065
:107B50000421FFF73FFFC034044B53F824206FF398
:107B6000104243F8242010BDB80D002000600040F2
:107B700003685969A1B190F82D3070B5044603F03F
:107B8000FF0563B98A68038C96680868A1692A466C
:107B9000B047E269C4E90852012384F8333070BD6C
:107BA000704700BF70B5866B82B004460B466D46C9
:107BB0003EB396E8030085E80300E26B3371236867
:107BC00032605A6912B194F82D10A1B19B6913B1BA
:107BD00094F82D2052B9636B30469847A36B1BB1C4
:107BE00095E8030083E8030002B070BD9A68186846
:107BF00013699847EFE7936810681B6998472368F3
:107C0000E4E72E46D9E700BFEFF30383103B5BB2F6
:107C1000044AC03352F823106FF3104142F8231086
:107C2000704700BF0060004070B5EFF30383103B66
:107C30005BB2614AC03352F823106FF3104142F82F
:107C40002310EFF30383103B5C4A5BB252F82340EE
:107C50002269137BC3F30000DB072CD494F82C308B
:107C600094F82A10994216D094F82D1009B1022BDD
:107C700041D02046FFF77CFF236994F82820DA7072
:107C800094F82B2094F82C30013A013384F82B20FF
:107C900084F82C3070BD94F8333003F0FF053BBB03
:107CA000236A93BB94F82E3063B352210123D1721F
:107CB00084F8303070BD94F82D308BB194F83130A9
:107CC00073B9636AA1695279CA54D4E9082394F854
:107CD0002E10013A0133C4E9082379B12269E4E79F
:107CE000002001215423206284F82F10D37270BD2C
:107CF00084F8330070BD5223D37270BD23695422BF
:107D0000DA7270BD5423D37270BD94F82D1041B94E
:107D1000616AA069013B405C0131C4E90831D0705F
:107D200070BD94F8311000292ED0216884F83150AC
:107D30004869002838D08969002935D0E0690228CF
:107D400032D98E68831E0868B668F42191709BB2A0
:107D5000A2692946B0472268E369526991681068B0
:107D60008E68023B9BB22A462946B047E3692269E6
:107D70000220023BC4E90803012184F833100023E8
:107D8000FF209372D070CBE7636AA1695279CA541D
:107D9000D4E90832013B0132012BC4E908322269DF
:107DA00004D0FF20D070BBE7012BE8D12023FF20B7
:107DB0009372D070B4E700BF00600040B80D00209F
:107DC00010B582B0EFF30383103B374A5BB252F831
:107DD00023000269D37A6FF3C303D37290F82F3074
:107DE000ABBB90F82A1003F0FF0C90F82C309942AE
:107DF0001BD1036A5BB990F82D1090F83040002930
:107E000014BF02210321A4B3D372FFF7CBFEEFF31B
:107E10000383103B5BB2254AC03352F823106FF343
:107E2000104142F8231002B010BDB3B9012929D086
:107E300090F829C00021D17282F803C090F82B205D
:107E40000133013A80F82B2080F82C30DFE7F02353
:107E5000D3720121FFF7A6FED9E790F82D4004F078
:107E6000FF016CB1022BE5D190F829C04CF0010C58
:107E7000E0E7F023D372937803F0CF039370C4E765
:107E80008C46D7E70190FFF773FE019890F82A30EF
:107E9000012B05D190F828C0026990F82C30C9E771
:107EA000026990F82C30C3E7B80D00200060004054
:107EB000F0B583B0EFF30384103C154B64B253F874
:107EC0002450EF68BFB16A682B6992F90D20121B2C
:107ED00018BF01226E46C3B193E8030086E8030091
:107EE0001A706A695A601846B8472B691BB196E840
:107EF000030083E80300074BC03453F824206FF3DA
:107F0000104243F8242003B0F0BD3346E8E700BF39
:107F1000B80D002000600040EFF30383103B5BB21C
:107F20000649074A51F823100120C033087252F85D
:107F300023106FF3104142F823107047B80D002052
:107F4000006000400B0A1B01044853FA81F150F80D
:107F50002130C3F340030020137070470008044031
:107F6000C8B2012383404AB91A040B0A5B0103F12A
:107F7000804303F5802300209A6070479AB2F4E7AB
:107F800038B50488002C4DD043680021043303EB3E
:107F9000C40040F202450C4640F2034C40F2044E4D
:107FA0000FE0624530D153F8042C02F0B852B2F120
:107FB000807F14BF41F0020144F002040833834281
:107FC00011D01A88AA42ECD153F8042C02F0B8520E
:107FD000B2F1807F03F1080314BF41F0010144F0C6
:107FE00001048342EDD1C943CDB2012001F042FF2B
:107FF0000D4B93F8BB2414432C4083F8BB44012061
:10800000BDE8384001F006BF7245D7D153F8042CC3
:1080100002F0B852B2F1807F0CBF44F0040441F08A
:108020000401CBE7FF25E0E700E0014070B584B034
:1080300002AB012668460C461546ADF80C100292BC
:10804000ADF800600193FFF79BFFEFF3108286F31A
:1080500010881D490B681BB91C48C3704023C370AE
:108060000B6801330B6082F31088EA034FEA142394
:10807000E4B219D41B01164A234442F82350EFF30B
:108080001082012383F310880B6813B10B68013B46
:108090000B600B681BB90D498020CB70C87082F350
:1080A0001088002004B070BD04EB0310084A52F899
:1080B00020606FF3104642F8206025F4803642F8C5
:1080C00020601B01D7E700BFB40D0020000D044065
:1080D0000008044070B5C36A84B004468C46164656
:1080E00001AD9BB193E8070085E8070083F808C05D
:1080F000226B1846C3E90026A26A9047E36A1BB1C7
:1081000095E8070083E8070004B070BD2B46EDE753
:108110008268012370B580F820300226B323D37122
:1081200080F82160537904466FF300035371C269EC
:108130000D46FFF7CFFFA368DE705A7942F00102C7
:108140005A7194F82120012A16D094F8212002B106
:1081500070BD052DFCD194F82320002AF8D194F8A5
:1081600021201AB95A7A02F0F3025A72BF21012271
:10817000D97184F8232070BD042DECD0082DE4D1F2
:10818000E9E700BF30B583B0EFF30383103B5BB288
:10819000454AC03352F823106FF3104142F82310C0
:1081A000EFF30383103B5BB2404A52F8234094F84C
:1081B0002230B3B9A368012284F82220DA7CD2B23B
:1081C0008DF805209DF8052012F0010F5A7A14BF92
:1081D00002F0F70202F0F3025A72AC22DA7103B035
:1081E00030BD94F820304BB9A3681B7A13F0080F08
:1081F000204614BF08210421FFF78AFF2269A2B993
:10820000A368D97CC9B28DF806109DF806101979BB
:1082100041F010011971197941F0080119711979AA
:1082200062F30411197103B030BDA369A1689A42C9
:1082300009D0E268C97C581CA061D154E3690133BC
:10824000E36103B030BD022584F821504B79E26927
:108250006FF300034B7120460621FFF73BFFA36835
:108260002169DD705A7942F001025A7191B9DA7CC4
:10827000D2B28DF807209DF807201A7942F010023B
:108280001A711A7942F008021A711A7961F304120C
:108290001A71A4E7A269E168DB7C501CA0618B54D1
:1082A000E3690133E3619AE700600040B80D002004
:1082B00038B5EFF30383103B5BB2244AC03352F866
:1082C00023106FF3104142F82310EFF30383103BA8
:1082D0005BB21F4A52F8234094F8203093B194F8CF
:1082E000213003F0FF0263B9A369216999420ED0DE
:1082F000E269E068A168C05C887401330132C4E9B6
:10830000063238BD05212046FFF702FFE7E7236864
:108310000E4993F90E3003F1C000002B51F82050A4
:1083200062F3104541F8205009DB5A09094803F06F
:108330001F030121603201FA03F340F82230A268E2
:10834000D37943F04003D37138BD00BF00600040D3
:10835000B80D002000E100E038B5EFF30383103BD7
:10836000204A5BB252F82340A1680B795807C3F347
:10837000800217D5CA796FF38612C023CA7101E053
:10838000013B02D0CA795206FAD4EFF30383103BC3
:108390005BB2154AC03352F823106FF3104142F814
:1083A000231038BD022584F821504B7962F3000375
:1083B0004B71E26907212046FFF78CFEA168CD7062
:1083C0004B7943F001034B7194F82130002BD1D14C
:1083D000A369E269E0680132C05C88740133C4E9D2
:1083E0000632C7E7B80D00200060004010B582B02B
:1083F000EFF30383103B3E4A5BB252F823008368DD
:108400005A7A91074DD1D1B211F00C0F3CD0012214
:1084100080F8242090F82120012A65D00169826922
:108420009142C26988BF02F1FF324FF0030188BF59
:10843000C2614FF0000EA024DC7180F820E080F8CB
:1084400022E093F805C06EF3000C83F805C090F8A5
:108450002440002C43D1DF241C709F241C70002476
:108460000223C46180F82130FFF734FEEFF3038369
:10847000103B5BB21F4AC03352F823106FF3104118
:1084800042F8231002B010BDCA06EFD5DA7CD2B292
:108490008DF807209DF80720DA7902F0EF02DA71F3
:1084A000E4E70022A02180F82420D97180F8202060
:1084B00080F82220597962F30001597190F8241054
:1084C00081B9DF219F2219701A7000210223C2692D
:1084D00080F82130C1610121FFF7FCFDC6E783F878
:1084E00009E0BCE75A72F0E7C2690221A1E700BFC8
:1084F000B80D00200060004030B5836B83B00446A7
:108500000A466D46A3B193E8030085E80300E16BDA
:108510001A71626B196018469047A36B1BB195E8FE
:10852000030083E80300002384F82B3003B030BD40
:108530002B46ECE7036902682DE9F04F1F241C70FD
:108540005F241C70DF241C70546A55682279564ED3
:10855000DFF8608142F0E0021A74E27842F0E00253
:108560005A74A278120102F0700242F008029A7066
:1085700022786478012A0CBF0522042242EA4402D0
:10858000D2B2DA70494A95420CBFF72277225A716B
:108590000027B3229F71DA7191F9112091F80DC073
:1085A000B4184FEA0C1C5FFA8CFC84F800C302F18B
:1085B000C00548F822003E4C4FEA521E54F8259060
:1085C0004FEA8E0E67F310490EF1604E44F8259085
:1085D0000EF5614E012502F01F0205FA02F2CEF8F7
:1085E0008021CEF8002091F90F2006EB020E02F157
:1085F000C0098EF800C348F822004FEA521E4FEA25
:108600008E0E54F829B00EF1604E0EF5614E02F058
:108610001F0205FA02F267F3104B44F829B0CEF8B6
:108620008021CEF8002091F9102006EB020E02F115
:10863000C0098EF800C348F822004FEA521E54F8D1
:1086400029B04FEA8E0E0EF1604E0EF5614E02F02B
:108650001F0267F3104B44F829B005FA02F2CEF876
:108660008021CEF8002091F90E100E444A0986F8B8
:1086700000C348F8210001F1C00001F01F018D4046
:1086800054F82010920002F1604267F3104144F860
:10869000201002F561424FF09F0AC2F88051156028
:1086A00083F800A0BDE8F08F00E100E040420F0039
:1086B00000600040B80D002010B483B0EFF30383D6
:1086C000103B5BB2484AC03352F823106FF310419D
:1086D00042F82310EFF30383103B444A5BB252F895
:1086E000233093F82D20BAB99A69022A1A699EBFDD
:1086F000117941F040011171D969012917D0D27C5B
:10870000D2B28DF8072001219DF8072083F82D10A3
:1087100003B05DF8044B7047DA69002AF8D0032AE9
:108720000ED0022A4ED0012A21D019690DE011790C
:1087300041F010011171117941F008011171DEE76A
:1087400019690A7942F040020A711A6A5869C97CAB
:108750008154D3E907210131013AC3E90721002AF5
:10876000D6D119690B7962F386130B71D0E793F8B0
:108770002A1089B319681E4C91F90F10480920304E
:1087800001F01F0102FA01F144F82010BFF34F8FEE
:10879000BFF36F8F1969C87940F08000C8710879FC
:1087A00040F01000087108794FF0040C6FF3C3001B
:1087B000087181F801C048796FF30000487183F8AF
:1087C0002C20C2E719690A7942F010020A710A796D
:1087D00042F008020A71B8E719694A7A082002F0E3
:1087E000F7024A724870B0E700600040B80D002000
:1087F00000E100E0EFF30383103B5BB2354AC03386
:1088000052F823106FF3104142F82310EFF3038363
:10881000103B5BB2304A52F8232092F82730002BED
:1088200037D192F829309BBBD36910B4002B42D1C9
:108830001069C1796FF3C711C023C17101E0013B19
:1088400002D0C179C909FAD11368224A93F91030CC
:1088500003F1C001002B52F821406FF3104442F89D
:10886000214009DB5A091D4C03F01F03012160322E
:1088700001FA03F344F82230C3795DF8044B43F066
:108880004003C3717047022909D192F8300030B912
:10889000704792F82610032992F82810F3D0106937
:1088A00092F824C080F812C00131013B82F82810F0
:1088B00082F827307047D2E90404116A013B645CF6
:1088C00084740131C2E90731002BB2D05DF8044B4A
:1088D000704700BF00600040B80D002000E100E0DC
:1088E00010B4EFF30383103B2B4A5BB252F82330F2
:1088F00093F829201AB193F82720012A47D0DA6982
:10890000D2B11969CA796FF38612C023CA7101E026
:10891000013B02D0CA795206FAD4EFF30383103B2D
:108920005BB21E4AC03352F823106FF3104142F875
:1089300023105DF8044B704793F82A10F9B11968B9
:10894000174C91F90F10480920304FF0010C01F03D
:108950001F010CFA01F144F82010BFF34F8FBFF351
:108960006F8F1969C87940F08000C8710420487081
:10897000487962F30000487183F82CC0C2E7196996
:108980004B7A082203F0F7034B724A70BAE793F868
:108990003020002AB3D1B4E7B80D002000600040B9
:1089A00000E100E038B5EFF30383103B4B4A5BB2C4
:1089B000E02152F8234023695A7A5972D506D0B281
:1089C00002F003011FD55A78520648D4E26901210A
:1089D00084F82B10002A5ED000252168DD71204626
:1089E000FFF7A8FD94F82610A2692369E56184F8D1
:1089F0002810226284F82C50B322DA71012120461B
:108A0000FFF77AFD12E00029E0D101071BD594F8A9
:108A10002B20002A48D194F82910B322002914BF32
:108A200002210321DA712046FFF766FDEFF303838D
:108A3000103B5BB22A4AC03352F823106FF3104147
:108A400042F8231038BD94F82C20002AEED04207BB
:108A5000ECD594F82B200121002AE4D1DBE7002992
:108A6000B4D15A785506C2F38011CED584F82B10B4
:108A70005A7A216802F0F702496A5A72082058703F
:108A80000A78012A0CBF03220222DA705A7942F0D6
:108A900001025A71CAE794F82C20002A9CD194F85C
:108AA0002B20002AA8D097E7E2696AB1002294F847
:108AB0002600A169E26184F82800216284F82C2054
:108AC000B322DA710121AEE794F82C20002AEDD10F
:108AD00094F82B20002AF3D0E8E700BFB80D00205F
:108AE0000060004010B582B0EFF30384103C164BD9
:108AF000164964B253F8242050790B5C03F0030349
:108B0000032B0FD0C03451F824306FF3104341F8D9
:108B10002430936823B1D268CDE900206846984795
:108B200002B010BD936823B1D268CDE90020684639
:108B30009847064BC03453F824206FF3104243F893
:108B4000242002B010BD00BFB80D0020006000401E
:108B50000346D3E90223002053607047D0E9012384
:108B6000D26930B4D2E9011444F00044D0685C61A9
:108B7000D2E9045440F0004041F00041986119618D
:108B800000205D629C6230BC704700BF002800DAA4
:108B9000704710B400F16043114C03F561430901C3
:108BA000C9B283F8001344F820200E4900F1C00236
:108BB00000F01F0C400951F82240800000F1604095
:108BC00000F561406FF31044012341F8224003FA9D
:108BD0000CF3C0F880315DF8044B0360704700BFB0
:108BE000B80D00200060004070B5836984B0044671
:108BF0008C46164601AD9BB193E8070085E8070057
:108C000083F804C0E2691A609E6018466269904762
:108C1000A3691BB195E8070083E8070004B070BDA5
:108C20002B46EDE790F800C0486EBCF1030F98BFEB
:108C300001300AB1824227D310B4019C496BE4078A
:108C400054BF01F01F01C1F30441BCF1030F09D966
:108C5000090981F0010172B9E9B902225DF8044BFA
:108C60005A60704701F00C01A1F10401B1FA81F1E1
:108C70004909002AF0D0824201D30029EDD1032214
:108C80005DF8044B5A607047BCF1030F98BF02F1C6
:108C9000FF321A6070470028DFD0F0E72DE9F04777
:108CA0000B7C0D46012101FA03F2C260920716BF48
:108CB000002201740274D5E9052103F5800303F550
:108CC000F0631B0242610022EE694560C0E90621A3
:108CD00084B004468360EFF31080012383F310888F
:108CE000854B297C0229D3F8081134BF6FF0200787
:108CF0006FF040073940C3F80811D3F8083180F30A
:108D00001088A3686F684FF425411960DA62DA634E
:108D10009A642A78297A032A4FEAC15107F1FF3C65
:108D200000F0D58084BF41EA0241BC46D6E9068EF8
:108D3000D9624FF0004119610020596199614FF0EB
:108D4000FF315862039098620291C3F81C80C3F807
:108D500020E0D6F82C80C3F868C0C3F864C0002AAD
:108D600040F0A080790801390291404601224FF07D
:108D7000030C5965996500285DD095F800E0B76A45
:108D8000002F71D0B97897F80390090641EA09716C
:108D900097F8049041EA09419963B968C3F88C10C7
:108DA000002965D0012148B997F81C9097F81BA0BD
:108DB0004FEA496949EA4A2948EA0908C3F888108C
:108DC00040B996F8211096F82000490741EA403151
:108DD00048EA01084FF4AA01BEF1010F196402D15B
:108DE0000021D9641965E168D960C3F83480C3F8FB
:108DF00030C01A63697C95F912002246FFF7C6FE5F
:108E000096F8221096F924002246FFF7BFFE96F846
:108E1000231096F925002246FFF7B8FE2FB13978C6
:108E200097F901002246FFF7B1FE344B2360002082
:108E300004B0BDE8F0873178F9B995F800E0B17871
:108E400000299CD0F778BEF1020F4FEA071141EAE2
:108E500087113FD04BD903273943B76A48EA014805
:108E600048F08078002F8DD19F63C3F88870A7E702
:108E7000F968003918BF012195E795F800E071788D
:108E8000BEF1020F4FEA81194FEA011724D029D908
:108E9000032148EA010848EA090848EA070848F4B3
:108EA0008078CCE7012A19D000901946EA686068FA
:108EB00002ABFFF7B7FEDDE90210020442EA0062EE
:108EC00042F0030CA368F06A42F0010251E741F45A
:108ED00080312BE70927BFE70921DAE740464FF049
:108EE000030C46E7002914BF09210621D1E7002F12
:108EF00014BF09270627AFE7006F0440545047000E
:108F000030B4436893F91220DB69002A11DB510960
:108F10002E4D02F01F0C2031012404FA0CF445F808
:108F20002140BFF34F8FBFF36F8F2949002441F8D1
:108F3000224093F92420002A11DB5109234D02F02D
:108F40001F0C2031012404FA0CF445F82140BFF332
:108F50004F8FBFF36F8F1E49002441F8224093F9D1
:108F60002520002A11DB5109184D02F01F0C203179
:108F7000012404FA0CF445F82140BFF34F8FBFF3EE
:108F80006F8F1349002441F822409B6AA3B193F9E3
:108F90000130002B10DB03F01F045A090121A1400E
:108FA00020320A4C44F82210BFF34F8FBFF36F8F6B
:108FB000074A002142F823108268C1680023036039
:108FC00030BC184691605363704700BF00E100E079
:108FD000B80D002030B4EFF30383103B5BB2184AA6
:108FE000184C03F1C00152F821006FF3104042F811
:108FF000210054F82300446894F800C0BCF1010F2C
:1090000015D1D0E90254AC600024AC64EC642C654A
:1090100052F8215064F3104542F821505A090A4988
:1090200003F01F0360320CFA03F341F82230436966
:1090300023B1002230BC1146FFF7D6BD30BC7047CB
:1090400000600040B80D002000E100E01E4B10B4AD
:10905000C3600B7803F001034370EFF3108C01241D
:1090600084F31088194BD3F8082122F48012C3F836
:109070000821D3F808318CF31088EFF3108C84F3B7
:1090800010884278D2B9C468237962F386132371B9
:109090008CF310884A684B78D278C468D201DB011F
:1090A000D2B2DBB26271A3710123E3710A7802705C
:1090B000074B43605DF8044B00207047C26813798A
:1090C0006FF3C7131371E3E700E00540006F04403E
:1090D00000434144C3684278002023F812107047CF
:1090E000EFF31083012282F310884278C1683AB905
:1090F0000A7942F040020A7183F310880020704719
:109100000A7942F080020A7183F3108800207047C8
:10911000EFF31081012383F31088427842B9C068CD
:10912000037962F38613037181F31088002070477E
:10913000C26813796FF3C713137181F3108800208D
:10914000704700BFEFF3108C012383F3108843783E
:1091500073B9C268117963F386111171117A63F3DF
:10916000861111728CF310880023436018467047F3
:10917000C3681A796FF3C7121A711A7A6FF3C7129C
:109180001A72EFE7F0B5076A8BB0064667B3BE46C2
:109190008C46BEE80F006C460FC4BEE80F000FC43B
:1091A0009EE8030084E80300BCE80F003D460FC5BD
:1091B000BCE80F000FC59CE803008EE80300F369CC
:1091C00038469847336A6BB1EE469C46BEE80F00BE
:1091D000ACE80F00BEE80F00ACE80F009EE803000B
:1091E0008CE803000BB0F0BD0F46E8E730B58BB05C
:1091F000EFF30383103B5BB22E4AC03352F82310C7
:109200006FF3104142F82310EFF30383103B5BB27E
:10921000294A52F8235000212822684606F00BFD07
:109220006C6894F84D380020DBB284F84D08ADF836
:109230000430B4F84218C1F30012C90638D543F01F
:109240002003ADF80430022394F8532884F85338EF
:1092500094F8523803F01F03D2B2E11884F853286F
:1092600091F8202860F3820281F820282A68126889
:10927000009269466A6A039328460492FFF782FFC8
:10928000B4F84238DB0611D52B681A69127D6AB131
:1092900093F91530002B09DB5A09084803F01F0326
:1092A0000121403201FA03F340F822300BB030BD07
:1092B0001346DBE700600040B80D002000E100E04D
:1092C0002DE9F0418AB0EFF30383103B5BB23F4AD4
:1092D000C03352F823106FF3104142F82310EFF31C
:1092E0000384103C3A4B66B2002253F82600D0E9C2
:1092F00000E595F8533885F8532895F8527807F02B
:109300001F07DBB207F1200285F85338130104F080
:10931000FF0455F803C0CCF380718DF81910E9589B
:10932000DEF810301B7B43EAD17303F001038DF8A4
:109330001830002B46D1CCF38A4305EB021205937B
:109340009188C1F3030301F00F0108298DF81A3049
:1093500035D908218DF81A1008AA002305EB071843
:1093600008EB030C01339CF806C202F801CB8B42D8
:10937000F6D3DEF8003003972F440093442387F898
:109380002038002307934FF48063ADF8043069461A
:10939000436A0493FFF7F6FEB5F84238DB070BD5B6
:1093A000002E09DB76090B4A04F01F040123403626
:1093B00003FA04F442F826400AB0BDE8F08100291F
:1093C000CAD1D6E72CF06043B7E700BF0060004089
:1093D000B80D002000E100E070B58AB0EFF3038320
:1093E000103B5BB2214AC03352F823106FF3104197
:1093F00042F82310EFF30383103B1D4A5BB20126B2
:1094000052F823506C6894F8532884F8536894F801
:109410005238D2B203F01F0384F853280393E218A2
:109420004FF40063ADF804302B681B6800936B6A3F
:109430000493002382F82038694682F820382846B1
:10944000FFF7A0FEB4F842389B070CD52B6893F9C0
:109450001730002B07DB5A09064903F01F0340327F
:109460009E4041F822600AB070BD00BF006000401D
:10947000B80D002000E100E08268117A01F00101DE
:10948000137AC3F340039942FAD14368197801294A
:1094900008D1C16893F810C004484B1E9BB240F835
:1094A0002C101380F1231372002070476C0D0020E4
:1094B000D0E90223013BF1219BB2138000201172FD
:1094C000704700BF8268117A01F00101137AC3F37B
:1094D00040039942FAD143684FF0F40C002182F81E
:1094E00008C0117393F9123013F1210F03D1002337
:1094F0000360184670478B421ADB5A0910B40121E9
:109500000F4C203203F01F0301FA03F344F822301A
:10951000BFF34F8FBFF36F8F43680A4A93F912303E
:109520005DF8044B42F8230000230360184670479F
:10953000044A42F82300002303601846704700BF26
:1095400000E100E0B80D0020F0B40B7C03F1401303
:1095500003F500631B02C0E90113EFF3108501233B
:1095600083F310880C7C394AC4F10304A340D2F879
:10957000084124EA0303C2F80831D2F8083185F320
:109580001088826800231372137AC3F3400C9B0780
:10959000FAD4CC6982F80AC0E37826780D7A247967
:1095A00003F00703002E42D1002D47D114734C68FD
:1095B0004768002696735372631E95729BB2C4600F
:1095C0003D7C1380224B43F8254091F91230B34281
:1095D00022DB4A7C03F1604404F561441201D2B2FB
:1095E00084F800231B4A1C4C42F8230003F1C005F9
:1095F0005A0954F82570920002F1604266F3104750
:1096000044F8257002F5614203F01F03012404FAB7
:1096100003F3C2F880311360D1E9054100230F4AFA
:109620000461C0E905310260F0BC18467047502E55
:1096300006BF43F0500365463343B7E785F00205A4
:1096400043EA0513DBB23546B0E700BF006F0440C4
:109650006C0D0020B80D0020006000405447410010
:10966000F0B585B0EFF30383103B5BB203F1C001AB
:109670001B4A1C4C52F821006FF3104042F82100A5
:1096800054F82340D4E901120978137A0129DBB296
:1096900004D1F42103F0F003117213722769B7B1FA
:1096A000656901AECDB195E8070086E807009B0625
:1096B00044BF00232B71A3692B602846B847636918
:1096C0001BB196E8070083E80700A268137ADBB2B3
:1096D00003F00F03137205B0F0BD3546E7E700BF96
:1096E00000600040B80D0020034600201A689B8AE5
:1096F0001380704703681B88C3F3C03300200B70CE
:10970000704700BF03681031002033F81130138018
:10971000704700BF43682DE9F041D1E901250C688D
:109720005E6903681FFA84F8A3F804801FFA82F8C0
:10973000A3F8148022F0405C1FFA85F824F0405E04
:1097400025F040572243A3F808804FEA1C4C3F0CF9
:109750004FEA1E4812F0405FA3F80680A3F816C037
:109760005F8159D1CA68002A00F0988015892F05B9
:1097700022D5D2E900C7B2F80A80A3F89050A3F826
:109780009C80B2F80C80A3F89E801FFA8CF8A3F896
:109790009480CCF30B484FEA1C7CA3F8968083F8A6
:1097A00092C01FFA87FCA3F898C0C7F30B4C3F0F79
:1097B000A3F89AC083F89370AF051FD40A8AA3F860
:1097C0009050A3F88020F27892B11A88BEFA8EF1F8
:1097D0001FFA82FE2EF01F0E0EF11F0E828AAEEBD4
:1097E000010E1FFA8EFE4EEA0202A3F800E082820A
:1097F0002B4BC0E903340020BDE8F081977C92F840
:1098000013C047EA0C0783F8A670D789128AA3F819
:10981000A870A3F8AA20D1E7224FD7F82080224FC2
:109820003F68C8F3026C07FA0CFCC8F302181F4F1C
:109830002CFA08FCA7FB0C7C4FEA9C1C1C4F41F245
:10984000883808FB0CFCA7FB0C7C4FEA9C4C0CF105
:10985000010CBCF1070F38BF4FF0070C12F0805716
:109860000AD05FFA8CF715F0805F83F8DE7040F263
:10987000011708BF4FF48077920009D55FFA8CFC7E
:1098800047F40077AA0083F8DFC048BF47F002071B
:10989000CA68BFB25F82002A7FF468AF15468DE7C1
:1098A0004344415200E00140440E0020D34D621079
:1098B00083DE1B432DE9F8430B880C465B022269CB
:1098C0006669C968026203F1804303F5B823002288
:1098D000036081614460C261317962790546A07894
:1098E0008F074FEA0223F17843EA403354BF43F035
:1098F000400343F48863002900F0DF8043F42073C1
:10990000022A08BF764A9BB208BF32F821C0AB8258
:1099100018BF4FF0000C2279E178707896F800E0DB
:10992000D20342EA410242EA4010EFF310880121DB
:1099300081F310886B4F2288D7F80891C2F110028A
:1099400001FA02F229EA0202C7F80821D7F8082131
:1099500088F3108847F6FF572A6880B23B4013808F
:10996000A2F810C0D08182F80CE03379980700F19A
:10997000AD8082F88A3094F90630002B22DB227AFF
:1099800003F1604101F561411201D2B281F8002377
:10999000554A564942F8235003F1C0005A0951F87C
:1099A0002070920002F160426FF3104741F820707E
:1099B00002F5614203F01F03012101FA03F3C2F82B
:1099C0008031136094F90730002B22DB627A03F1B7
:1099D000604101F561411201D2B281F80023424A8F
:1099E000424942F8235003F1C0005A0951F820407F
:1099F000920002F160426FF3104441F8204002F5FA
:109A0000614203F01F03012101FA03F3C2F8803120
:109A1000136096F90630002B22DB327A03F16041A5
:109A200001F561411201D2B281F800232E4A2F497B
:109A300042F8235003F1C0005A0951F82040920027
:109A400002F160426FF3104441F8204002F5614298
:109A500003F01F03012101FA03F3C2F88031136000
:109A600096F90730002B22DB727A1F4803F1604120
:109A700001F561411201D2B281F8002340F8235070
:109A800003F1C001194A52F821006FF3104042F867
:109A900021005A09920002F1604202F5614203F08E
:109AA0001F03012101FA03F3C2F880311360104B48
:109AB000AB6000202861BDE8F883002A7FF420AF66
:109AC00043F400439BB2AB82944624E743F0030384
:109AD00082F88A30084600F03DF92A68337948E771
