:10400000007F0020EDA9000095A80000E9A90000AC
:10401000E9A90000E9A90000E9A90000E9A9000058
:10402000000000000000000000000000E9A90000FE
:10403000E9A9000000000000E9A90000E9A90000CA
:104040000000000000000000000000000000000070
:104050000000000000000000000000000000000060
:104060000000000000000000000000000000000050
:104070000000000000000000000000000000000040
:104080000000000000000000000000000000000030
:104090000000000000000000000000000000000020
:1040A0000000000000000000000000000000000010
:1040B0000000000000000000000000000000000000
:1040C00010B5054C237833B9044B13B10448AFF352
:1040D00000800123237010BD70020020000000004A
:1040E000486B010008B5034B1BB103490348AFF30C
:1040F000008008BD0000000074020020486B010031
:104100000020704710B404680968E46BA4465DF8A9
:10411000044B604703680A46DB6C184743084000BD
:1041200003F0553300F0AA3018438308800000F0F4
:10413000CC3003F03333034318091B0103F0F03391
:1041400000F00F30184300BA7047FFFF30B585B05C
:10415000044600210DF10F0006F07EFE431C21D025
:1041600004F1D405104BDFED110A9FED110A9DF803
:104170000F20019400930021C3B2284606F012FFDD
:1041800000220C210446284606F0FEFF0440284683
:1041900006F064FFE4B20440284606F086FF2040A3
:1041A00005B030BD0020FBE781420000000048421E
:1041B00000401C4610B5054B044640F8D43B06F0C1
:1041C000C7FF204603F0CCF8204610BD043D010097
:1041D00010B50446FFF7EEFF20464FF48A710BF04E
:1041E00001FE204610BD072A10B510D80B290ED8A5
:1041F0000C2404FB020211449DF80C009DF80820D9
:104200000243134314BF0123002381F8493010BD3A
:1042100030B5D0F8B010D0F8C0200D0185B00446FC
:104220005059FFF77BFF2A4401905068FFF776FF53
:1042300002909068FFF772FF0390D368D4F8C4200F
:10424000C4F8C8300131B1FBF2F302FB1311C4F81A
:10425000B01059B994F8D0300BB9C4F8C830D4F8BC
:10426000103103B19847012384F80C310C2201A9C5
:1042700002480CF08CFE05B030BD00BF900200205B
:104280002E49F8B50D680A682D4C0B68D210A25C57
:104290005C4204F0070403F0070358BF6342294C53
:1042A00042FA03F3226822F4384222F01802226014
:1042B000226C22F4415222F03002DB07226404F126
:1042C00040041CD5204B214F13F8152003EB450368
:1042D0001C325B7837F832201C331612360156FA3E
:1042E00082F237F8333004F5F864052644F822608A
:1042F0001A12120152FA83F3042244F823200B68A5
:104300006024013393FBF4F204FB12330B60A0B181
:10431000046894B1D4F8C8307BB109F0D5FBD4F867
:10432000CC30C01AD4F8C830984206D92046FFF7DE
:104330006FFF09F0C9FBC4F8CC00F8BD8C02002067
:104340009002002000000440A0540100B45C010071
:1043500030B585B00B6800934B6801938B6802936E
:1043600000250123C0F8B050C0F8C0D0C0F8C43058
:1043700004460395FFF74CFFC4F8C85005B030BDA4
:1043800070B5054600242B1ADBB28B4209D215F812
:10439000016B01333443DB0604BF14600432640054
:1043A000F1E770BDF0B5324C32493348334F344EEB
:1043B000314D87B008F009FD21682F4808F024FD31
:1043C000304B21681A682D4801F016FB002438464E
:1043D00001F0E2FA032818D01E2C16D04FF4FA7020
:1043E00009F02EFB3146284608F0EFFC264A274804
:1043F000032194FBF1F101EB4101631A0C2101FB54
:104400000321FFF7A5FF0134E1E71C4801F0C4FADE
:104410000328194823D108F0E7FC1D49164808F085
:10442000F3FC1C49144808F0D0FC1449684601F01C
:1044300073FB6946104808F0F1FC17490E4808F074
:10444000C4FC0E4801F040FB0A2201460A4808F06D
:104450000DFD1249084808F0D7FC07B0F0BD08F080
:10446000C3FC0F49044808F0CFFC0E49F2E700BF37
:1044700004000020D83D01003C08002088040020F2
:104480000B5F0100000000207C540100A40200200A
:10449000F13D0100123E0100253E0100333E0100C6
:1044A000383E01005E3E010030B5C949C94D8BB0B0
:1044B000044608F0A9FCC849204608F0A5FCC749F5
:1044C000204608F0A1FC204608F08EFCC449204696
:1044D00008F09AFCC349204608F096FCC2492046E1
:1044E00008F092FCC149204608F08EFCC0492046E5
:1044F00008F08AFCBF49204608F086FCBE492046E9
:1045000008F082FCBD49204608F07EFCBC492046EC
:1045100008F07AFCBB49204608F076FCBA492046F0
:1045200008F072FCB949204608F06EFCB8492046F4
:1045300008F06AFCB749204608F066FCB6492046F8
:1045400008F062FCB549204608F05EFCB4492046FC
:1045500008F05AFCB349204608F056FCB249204600
:1045600008F052FCB149204608F04EFCB049204604
:1045700008F04AFCAF49204608F046FCAE49204608
:1045800008F042FCAD49204608F03EFCAC4920460C
:1045900008F03AFCAB49204608F036FCAA49204610
:1045A00008F032FCA949204608F02EFCA849204614
:1045B00008F02AFCA749204608F026FCA649204618
:1045C00008F022FCA549204608F01EFCA44920461C
:1045D00008F01AFCA349204608F016FCA249204620
:1045E00008F012FCA149204608F00EFCA049204624
:1045F00008F0EBFB2A78002A00F0CC819D49204688
:1046000008F002FC9C49204608F0FEFB9B4920462E
:1046100008F0FAFB9A49204608F0F6FB9949204633
:1046200008F0F2FB9849204608F0EEFB9749204637
:1046300008F0EAFB9649204608F0E6FB954920463B
:1046400008F0E2FB9449204608F0BFFB934B944AE4
:1046500029782046002914BF1146194608F0B5FBF9
:104660008949204608F0D0FB8A49204608F0CCFB57
:104670008C49204608F0C8FB8349204608F0C4FB5B
:104680008449204608F0C0FB8749204608F0BCFB5F
:104690007D49204608F0B8FB7E49204608F0B4FB6F
:1046A0008249204608F0B0FB7749204608F0ACFB71
:1046B0007549204608F0A8FB7449204608F0A4FB81
:1046C0007B49204608F0A0FB7A49204608F09CFB75
:1046D0007949204608F098FB7849204608F094FB79
:1046E00004A8774901F018FA04A901A808F05CFAB7
:1046F00001A9204608F07EFB01A808F02DFC6249C4
:10470000204608F081FB6C49204608F07DFB6D498E
:10471000204608F079FB6A4801F0D6F90A220146E2
:10472000204608F0A3FB6849204608F06DFB564977
:10473000204608F069FB6049204608F065FB6349A4
:10474000204608F061FB09F0BFF90A224FF47A71A4
:10475000B0FBF1F1204608F0B7FB5D49204608F0B8
:1047600053FB4949204608F04FFB5349204608F0C7
:104770004BFB5849204608F047FB5749204608F0B4
:1047800043FB4149204608F03FFB3F49204608F0E3
:104790003BFB5249204608F037FB5149204608F0C0
:1047A00033FB5049204608F02FFB4F49204608F0C4
:1047B0002BFB3549204608F027FB3449204608F0FA
:1047C00023FB4A49204608F01FFB4949204691E057
:1047D000F33F0100A0020020034001002A40010035
:1047E0003C4001004C4001005D400100644001007C
:1047F00092400100A9400100F0400100F840010092
:1048000024410100AB41010058420100C4420100B3
:10481000084301009F430100F94301003D440100AA
:10482000A444010088450100414601009146010071
:104830002C470100C5470100104801003C48010019
:10484000644801008E480100F94801007F490100D9
:10485000314A0100964A01009F4A0100A74A01001F
:10486000AE4A0100F04A0100084B01002B4B010049
:104870005C4B0100704B0100FF4B0100164C010026
:10488000524C01008B4C0100B64B0100C94C010099
:10489000DC4C01000E4D0100244D0100B83F010029
:1048A0007F3F0100554D0100C14D0100294E01001F
:1048B0008C4E0100B54E0100CF4E0100E74E0100C5
:1048C000880400200F4F0100333E0100354F0100E6
:1048D0005F4F0100644F0100874F0100974F0100B7
:1048E000D04F010025500100BF5001007950010058
:1048F0009650010008F088FA2749204608F084FA0B
:104900002649204608F080FA2549204608F07CFA1E
:104910002449204608F078FA2349204608F074FA22
:104920002249204608F070FA2149204608F06CFA26
:104930001F49204608F068FA1E49204608F064FA2C
:104940001D49204608F060FA1C49204608F05CFA30
:104950001B49204608F058FA1A49204608F054FA34
:104960001949204608F050FA1849204608F04CFA38
:104970001749204608F048FA1649204608F044FA3C
:104980001549204608F040FA1449204608F03CFA40
:104990000BB030BD124932E6C45001002151010074
:1049A000435101006151010083510100A2510100F6
:1049B000B64B0100AA510100B3510100D9510100C9
:1049C000125201001D520100535201009C5201007D
:1049D000E5520100E9520100F3520100FB520100CF
:1049E000BD4B010008B5054B1B7823B104490548B0
:1049F000FFF7AEFC08BD0449F9E700BFA0020020A4
:104A000064540100A40200207054010008B5094B51
:104A1000197861B9012207201A7008F06BFFFFF7BF
:104A2000E1FF05490548BDE8084008F0EDB9044933
:104A3000F8E700BFA00200207A3E01003C080020F9
:104A4000A03E010008B5094B1A786AB10022012185
:104A500007201A7008F04EFFFFF7C4FF044905480D
:104A6000BDE8084008F0D0B90349F8E7A0020020EB
:104A7000903D01003C080020B73D0100034B1B782E
:104A80000BB1FFF7DFBFFFF7C1BF00BFA0020020DF
:104A9000F8B5022008F03AFF244C254D2378071C76
:104AA00018BF0127BB4206462AD009F00DF821495C
:104AB0002860214808F0A8F920491F4808F085F926
:104AC0000A2239461C4808F0F5F91D491A4808F031
:104AD0007CF90A222178184808F0ECF9194916489F
:104AE00008F073F90A222968134808F0FEF91649FC
:104AF000114808F06AF90A2232210F4808F0F5F946
:104B000008F0E2FF2B68C01A32280ED96EB1237864
:104B10005BB90E49084808F077F9FFF7AFFF0C4979
:104B2000054808F071F901232370F8BDEC0300205B
:104B3000E8030020C33E01003C080020E93E0100DC
:104B4000013F0100193F01002E3F0100433F0100DA
:104B50004E3F010008B505480549FFF7F9FB4FF442
:104B60007A70BDE8084008F06BBF00BFA4020020C7
:104B7000605501007FB52449244808F045F92449CF
:104B8000224808F022F96846224900F0C5FF69462C
:104B90001E4808F043F920491C4808F016F91D4842
:104BA00000F092FF0A220146184808F05FF91B49FD
:104BB000164808F029F91A49144808F006F9194B63
:104BC000194A1978194B1148002914BF1146194682
:104BD00008F01AF916490D4808F0F7F808F074FFC4
:104BE0000A224FF47A71B0FBF1F1084808F06CF931
:104BF0001049064808F008F90F49044808F004F97C
:104C000007B05DF804FB00BF075401003C0800201A
:104C1000285401008804002032540100333E010072
:104C200040540100A0020020F5530100FF53010091
:104C30004E54010057540100D25F010038B5124CA8
:104C400012485021002501F0DFFC08220C212046EB
:104C500002F06EFB0E4B23606022294604F14900EE
:104C6000C4E9105584F848500CF0B5F9642304F1F8
:104C7000D400C4E92B35C4E9325584F8D05006F08D
:104C800029F884F80C5138BDA4020020B803002094
:104C9000043D010008B50548FFF78CFA0448054BB0
:104CA00040F8103BBDE8084001F09CB8A402002089
:104CB000B8030020045B010030B5324C324D87B0A0
:104CC00020464FF4E13107F065F92946204608F007
:104CD0009BF82E49204608F097F82946204608F010
:104CE00093F80021022008F0EDFD0121072008F0D3
:104CF000E9FD0121082008F0E5FD0121092008F067
:104D0000E1FD01210A2008F0DDFD0121072008F066
:104D1000F1FD0121082008F0EDFD0121092008F036
:104D2000E9FD01210A2008F0E5FD1949204608F0B7
:104D30006BF81848FFF70AFAFFF70CFF16492046F0
:104D400008F062F8FFF72EFB144801F021FD14492A
:104D5000204608F03AF86846124900F0DDFE694640
:104D6000204608F05BF8FFF73DFEFFF703FF0E4912
:104D7000204608F049F82946204608F045F807B0D3
:104D800030BD00BF3C080020D05F01006C55010021
:104D90008E550100A4020020B3550100B803002085
:104DA000CF55010088040020F555010010B594B0DE
:104DB000494904A801F03AFC089B01334FD0474908
:104DC000474808F021F8474901A808F010F904A85D
:104DD00001F0ACFAD8B104A801F0E8F80028F6D048
:104DE0000D2204A90CA808F09FF80CA901A808F04E
:104DF00048F90E9B012B37D100210CA808F050F97F
:104E000090F900300A2B2FD10CA808F0A5F83649EC
:104E10000CA808F0ECF80CA901A808F061F9044608
:104E20000CA808F099F8002C22DBFFF7EFFD2F49C2
:104E30002B4807F0E9FF04A90CA800F0AFFF0CA86D
:104E4000FFF732FB0CA800F0CDFF04A801F032FA06
:104E50002749234807F0D8FF01A808F07DF804A8E7
:104E600000F0C0FF14B010BD0CA808F075F8AEE754
:104E700020490CA808F0BBF80CA901A808F030F9EB
:104E800004460CA808F068F8002C03DBFFF7DAFDF5
:104E90001949CDE719490CA808F0A9F80CA901A8EF
:104EA00008F01EF904460CA808F056F8002C03DBA5
:104EB000FFF7E4FD1249BBE712490CA808F097F888
:104EC0000CA901A808F00CF904460CA808F044F855
:104ED000002CB0DB0C49ABE7B80300200353010002
:104EE0003C080020EB57010024530100325301001D
:104EF000D7530100525301005E5301007C5301005F
:104F000088530100A6530100B253010010B50B4CA9
:104F1000FFF7BEFDFFF74AFF08F0D6FD2368C01A71
:104F200047F23053984204D9FFF724FE08F0CCFD35
:104F300020600A20BDE8104008F082BD9C020020DD
:104F400038B504460D4601F001FDC4F8AC5038BD3B
:104F500038B5044604F1B40501F04AFF04F14900F4
:104F60002A466021FFF70CFA29462046FFF7F0F9A0
:104F700038BD38B5044601F05AFC94F8483063B99E
:104F800004F1B405602104F149002A46FFF7F8F95D
:104F900029462046FFF7DCF938BD636C032BFBD9AB
:104FA000226C602104F14900FFF7EAF9236CD4F880
:104FB000AC20DA60236C10332364636C103B6364B1
:104FC000EAE7FFFF08B50368002B02DA09480AF098
:104FD0002EFF8B4208D949008B4205D20029B6BF6B
:104FE0006FF00043016003600068BDE808400130D5
:104FF0000AF009BF3D57010010B50446406828B1CA
:1050000063781BB940F2AC410AF0ECFE204610BDBB
:1050100008B4F3B507AB044600F10C0553F8042BB4
:105020000193802128460CF099FED4F89000A8B195
:1050300094F89430012B11D90F4907F0C6FED4F82B
:105040009060336828465F680CF09AFD2946024656
:105050003046B847D4F8900007F0C6FE284664688A
:105060000CF08EFD29460246204607F0A9F802B052
:10507000BDE8F04001B070478F560100034653F879
:10508000080B984201D00AF0ABBE7047F8B506464F
:10509000456808460F460CF073FDA842024628BF3B
:1050A0002A46044622B1394630680BF061FF00B948
:1050B000281BF8BD012A30B404D191F900300370E7
:1050C00030BC7047002AFBD030BC0BF060BFFFFF44
:1050D00000F1080373B5044603600D46D1B10846DC
:1050E0000CF04EFD0F280646019006D9002101A8BC
:1050F000FFF768FF019B2060A360324629462068C5
:10510000FFF7D8FF019B2268636000212046D1543D
:1051100002B070BD01480AF087FE00BF555701007C
:105120002DE9F347DDF82880164642689A46A8EB39
:105130000603571A13440268019300F108039A42C8
:105140000D46044614BF81680F2101A8FFF73AFFFE
:10515000BF1B81461DB12A462168FFF7ABFFBAF19C
:10516000000F08D0B8F1000F05D04246514609EBB8
:105170000500FFF79FFF47B121682E4405EB0800AB
:105180003A4631444844FFF795FF2046FFF776FF43
:10519000019BC4F80090A36002B0BDE8F087F7B5AA
:1051A0000268466800F108039A4218BF836806F156
:1051B000010508BF0F239D4204460F4606D901236F
:1051C000009300231A463146FFF7AAFF23689F5534
:1051D0002368656000225A5503B0F0BD012A30B43F
:1051E00004D191F90030037030BC7047002AFBD025
:1051F00030BC0BF0D7BEFFFF2DE9F74F81461446B8
:1052000040680C9E02F10042013A121A96429846FA
:1052100002D937480AF00BFE4A46A6EB040B52F8B7
:10522000083B934218BFD9F808200BEB000A08BFCF
:105230000F22524552D35F189845A0EB0101A1EB14
:10524000040522D3034498451FD876BB95B1B442D8
:1052500010D02A463919B819FFF7C0FFB44209D255
:105260003C4408EB06039C4227D33246414638466D
:10527000FFF7B4FFD9F80030C9F804A0002248466F
:1052800003F80A2003B0BDE8F08F35B1B44204D072
:105290002A463919B819FFF7A1FF002EEAD0324685
:1052A00041463846FFF706FFE4E7B4421DD33246D5
:1052B00041463846FFF792FFC8E7444503D83246D7
:1052C00008EB0B01EDE7A4EB080422464146384603
:1052D000FFF784FF321BB9193819E3E700964346FC
:1052E00022464846FFF71CFFC4E7002DB8D0B0E7C0
:1052F0002457010037B5044608460D460CF040FC23
:105300002B460090626800212046FFF775FF03B02E
:1053100030BDFFFF2DE9F04F8FB00AAB029106467A
:10532000089398490298002309938DF828309246F3
:10533000FFF7ACFE031C0490D6F8900018BF0123C1
:10534000069328B196F8943013B18F4907F03DFDCC
:1053500008F0BAFB4FF000080123DFF854B20590C3
:105360004746CDF80480CDF80C8099464446079313
:1053700008F0AAFB059BB268C01A904200F21A819D
:10538000079B5BB17068026812699047079B002811
:10539000EDD0706803685B69984745B2D6F8900015
:1053A00038B196F8943023B10A2D24D1774907F00B
:1053B0000CFDD6F8900060B196F89430022B08D915
:1053C000734907F002FD0A222146D6F8900007F043
:1053D00071FD631E072B29D8DFE813F03A005C004B
:1053E0007E008A008D00B7002B01A200092C00F07E
:1053F000E3800123BBE70D2D01D16649D7E7202DBE
:1054000001D16549D3E71F2D0CDC644907F0DDFCB1
:1054100029460A22D6F8900007F065FD6049D6F8C3
:105420009000C4E7294607F0D4FCC2E72B2D05D134
:10543000294608A8FFF7B3FE0124DAE71BF9073075
:10544000AB4240F09C80DDF8188001370824D0E79B
:105450003A2D294608A801D03D2D3AD1FFF79FFEED
:10546000049B8BB1029B099A5B689A4206D15AB1A0
:10547000029B089819680BF07BFD28B1494908A8E0
:10548000FFF738FF4FF0010846495046FFF732FF5B
:105490000224AEE77C2D0ED1DAF800000BF0BDFC43
:1054A0000023CAF80430DAF8003003904FF000020D
:1054B0001A7003249DE70D2D00F0B2800A2D00F034
:1054C000B18096F88C3013B1202D00F0AD802946C4
:1054D0005046FFF764FE8CE729465046FFF75FFE13
:1054E000019B039A01330193934208BF052480E78F
:1054F0000A2D08BF05242C495046FFF7C7FD60B1AF
:105500002A495046FFF7C2FD002804BF4FF00109A9
:1055100009244F2D2AD1012798E781460924F8E76D
:105520001BF907207B1C58460793AA4218BF072483
:105530000CF026FB079B984270D107464FF00009FC
:10554000B8F1000F19D1092436E01BF907207B1CA4
:1055500058460793AA4218BF07240CF011FB079B7B
:1055600098425BD107464FF00109E9E7B8F1000F17
:105570003FF43CAF092C7FF43CAF4FF0000800240F
:1055800037E700BFE0560100ED560100F356010079
:105590000C570100F8560100FD560100E73E0100DE
:1055A0001F510100EB57010000400100605601004F
:1055B000025701004FF00309D6F89000B8B196F8F1
:1055C0009430022B13D91E4907F0FFFB0A22214613
:1055D000D6F8900007F06CFC1A49D6F8900007F056
:1055E000F4FB0A224946D6F8900007F063FCD6F88F
:1055F0009000012386F88C3048B196F8943033B18E
:10560000114907F0E2FBD6F8900007F0EDFB08A87F
:10561000FFF734FD48460FB0BDE8F08F1F46E8E6BF
:105620000424E6E60524E4E6B8F1000F7FF4E1AED9
:105630009DE6002398464FF002091C4697E600BFFE
:1056400007570100145701001A57010030B50446EE
:10565000406803688DB05B68984706AA1D49684694
:10566000FFF736FD08AB069306AA002369462046DD
:1056700007938DF82030FFF74DFE0546D4F89000D3
:1056800088B194F89430012B0DD9134907F09DFB94
:105690000699D4F8900007F0B7FB7DB90F49D4F80C
:1056A000900007F0B1FB06A8FFF7E8FC6846FFF79B
:1056B000E5FCB5FA85F040090DB030BD012DD4F8F8
:1056C000900001D10649ECE7032D0CBF05490649BE
:1056D000E7E700BFE05601002D56010047560100E4
:1056E00055560100665601007956010008B42DE9AF
:1056F000F3431646044609AB306853F8042B019374
:10570000884604F10C050021716001708021284653
:105710000CF024FBD4F89000B0B107F065FB2449ED
:10572000D4F8900007F051FBD4F890703B682846FD
:10573000D3F804900CF024FA294602463846C847AC
:10574000D4F8900007F050FB284667680CF018FA70
:1057500029460246384606F033FD32464146204689
:10576000FFF7D8FD0546D4F8900068B1114907F05D
:105770002CFB3168D4F8900007F046FB65B90E4960
:10578000D4F8900007F040FBB5FA85F0400902B06C
:10579000BDE8F04301B07047012DD4F8900001D16D
:1057A0000649EFE7032D0CBF05490649EAE700BFAC
:1057B000CA560100D4560100475601005556010053
:1057C00066560100795601002DE9F0430446406811
:1057D00091B01646002834D02378002B31D10368CD
:1057E000194DDB69DFF86C90DFF86C80174F984734
:1057F0000AAA174904A8FFF76BFC60680368DB6816
:1058000098474FF4FA72AA602378A3B9002E12DDEC
:1058100003AA49460AA8FFF75BFC3B4604AA0AA96B
:10582000CDF800800848FFF761FF20700AA8FFF755
:1058300025FC013EE8E742F2107304A8AB60FFF7D5
:105840001DFC11B0BDE8F083F0030020DB65010012
:10585000EB570100A7560100B7560100074B084857
:1058600058600022012142F210701A70597098603D
:1058700083F88C1083F89420704700BFF003002059
:10588000941100200148FFF7B7BB00BFF0030020D0
:1058900008B50368002B02DA09480AF0C8FA8B42FF
:1058A00008D949008B4205D20029B6BF6FF00043EA
:1058B000016003600068BDE8084001300AF0A3BA47
:1058C0003D57010073B542F21073036000F5F873A1
:1058D0000025C0F8E831012600F50273044680F87F
:1058E000E451C0F8EC5180F8F051C0F80032C0F833
:1058F000045280F8085204230096A822C02100F523
:10590000067007F0EFF833460096A822C02104F590
:105910000C7007F0E7F8FF2300951A46194604F5C6
:10592000127007F0DFF8204602B070BD73B505466F
:105930000E4619B912B10D480AF076FA941B0F2CD5
:10594000019406D9002101A8FFF7A2FF019B28605E
:10595000AB60224631462868FFF7ACFB019B2A6802
:105960006B600021D15402B070BD00BF55570100DB
:1059700038B500F10803044603600D4649B10846F6
:105980000CF0FEF82A1820462946FFF7CFFF2046E4
:1059900038BD4FF0FF32F6E710B503228CB04FF45C
:1059A000E1311148FFF710FF10496846FFF7E0FFAB
:1059B0000F4906A8FFF7DCFF0E4B0B486A4606A905
:1059C000FFF794FE044606A8FFF758FB34B1012008
:1059D00008F036F800980BF020FAC4B26846FFF7DA
:1059E0004DFB20460CB010BDF0030020EB5701002A
:1059F000225801002E580100F0B591B004460E4621
:105A000004A82849284D1746FFF7B2FF03224FF498
:105A1000E1312648FFF7D8FE25490AA8FFF7A8FF7D
:105A200001230193234B00930AA9234B1F4804AA87
:105A3000FFF75CFE0AA8FFF721FB20490AA8F7B987
:105A4000FFF796FFCDE900561D4B184804AA0AA996
:105A5000FFF74CFE05460AA8FFF710FBDDB108F082
:105A600033F8054608F030F82368401B984212D2FC
:105A70002046FFF791FF0328F4D104460CE0FFF71E
:105A800077FFCDE9016700950E4B084804AA0AA9E3
:105A9000FFF72CFEDEE7042404A8FFF7EFFA204608
:105AA00011B0F0BDEB5701000B580100F0030020CE
:105AB000BA570100F3570100EC57010000580100EC
:105AC0008C5701001858010010B58CB00E4968467B
:105AD000FFF74EFF0D4906A8FFF74AFF0C4B0D4894
:105AE0006A4606A9FFF702FE044606A8FFF7C6FAB3
:105AF0001CB100980BF091F904466846FFF7BEFA16
:105B000020460CB010BD00BFEB570100A2570100AA
:105B1000AC570100F003002070B503228EB005469B
:105B20004FF4E1312848FFF74FFE0024274902A82F
:105B3000FFF71EFF2346224621460094284606F022
:105B4000D1FF234908A8FFF713FF224B009302AAB5
:105B5000214B1D4808A9FFF7C9FD064608A8FFF715
:105B60008DFAD6B102980BF058F901281BD11B49C8
:105B700008A8FFF7FDFE1A4B00930194194B124839
:105B800002AA08A9FFF7B2FD044608A8FFF776FAB3
:105B90001CB10299284607F0C7F802A8FFF76EFA71
:105BA00028460EB070BD02980BF037F90228F4D1E8
:105BB0000D4908A8FFF7DCFE0C4B034802AA08A910
:105BC000FFF794FDE0E700BFF0030020EB57010072
:105BD000BA570100C5570100DB650100A958010053
:105BE000B1580100EC570100905801009B5801008A
:105BF0000148FFF767BE00BF8804002010B5054CC0
:105C000004F50070FFF73AFA04F5F470FFF736FA7E
:105C100010BD00BF880400200069013018BF0120BA
:105C2000704708B503685B6B984780F00100C0B20D
:105C300008BD13B502AB026803F8011D546819468C
:105C40000122A04702B010BD07B5036801225B6ABC
:105C50000DF10701984701280CBF9DF807004FF090
:105C6000FF3003B05DF804FB00690B69C31A5842AA
:105C70005841704770470020704740F20C41C0689F
:105C80000AF0B0B810B5102104460AF0ABF820466F
:105C900010BD08B5FFF7F6FF08BD7FB503680446E1
:105CA000164601A81D6A06F07FFF3246019920467C
:105CB000A847044601A807F04FF9204604B070BD7C
:105CC000036810B504469B689847A368013BA3602E
:105CD0002BB923682046DB68BDE81040184710BD8B
:105CE00000F1080370B5044603600E46B1B10846E2
:105CF0000BF046FF0F28054604D901300AF083F85F
:105D0000A5602060012D20680BD196F9003003704A
:105D10002368656000225A55204670BD04480AF089
:105D200083F8002DF4D02A4631460BF030F9EFE726
:105D300055570100036813B962B6BFF36F8F704700
:105D400013B5EFF3108300930123019372B6019B07
:105D50005A1E019233B104686846FFF7EBFF2046F4
:105D600002B010BD6846FFF7E5FFF8E713B504463B
:105D7000EFF3108300930123019372B6019B5A1E27
:105D80000192684633B1FFF7D5FF601CC0F30900EC
:105D900002B010BDFFF7CEFFFAE7FFFF0023C0E916
:105DA00005334FF47A72C0E90132C3610B690361B4
:105DB0008B698361CB69044A02601BB15A68013266
:105DC0005A60C361704700BF545A010010B50446C1
:105DD000006828B14368013B43600BB9FFF770FFCF
:105DE000204610BD10B5044B044640F81C3BFFF79D
:105DF000EDFF204610BD00BF545A010030B50369C5
:105E0000002B8FB0044607DB0368DB6A984718B99C
:105E1000236820469B6A98472369013321D11249A0
:105E200002A8FFF75DFF03224FF4E1310F48FFF7AF
:105E3000CBFC0F4908A8FFF753FF0E4B009302AAB3
:105E40000D4B0A4808A9FFF751FC054608A8FFF7C3
:105E500015F91DB102980AF0E0FF206102A8FFF7D2
:105E60000DF90FB030BD00BFEB570100F00300206B
:105E70002D5A01003B5A0100DB65010070B5044654
:105E800092B00D461646FFF7B9FF2369002B25DBBC
:105E90001E4906A8FFF724FF03224FF4E1311C48F6
:105EA000FFF792FC6369DBB11A490CA8FFF718FFF2
:105EB00063690295CDE9036323690193164B00934F
:105EC00006AA164B12480CA9FFF710FC04460CA8B2
:105ED000FFF7D4F806A8A4B9FFF7D0F8002013E024
:105EE0000F490CA8FFF7FCFECDE902562369019388
:105EF0000C4B009306AA0C4B05480CA9FFF7F6FBC8
:105F0000E4E7FFF7BBF8012012B070BDEB570100CA
:105F1000F00300206C5901008C5901007C590100EC
:105F20009E590100BF590100B259010070B50369C3
:105F3000002B90B005460E4614462ADB164904A8ED
:105F4000FFF7CEFE03224FF4E1311448FFF73CFC8B
:105F500013490AA8FFF7C4FE02942B690193114B61
:105F6000009304AA104B0D480AA9FFF751F80AA89C
:105F7000FFF784F8224631460848FFF767FB0546DD
:105F800004A825B1FFF77AF8204610B070BDFFF7DE
:105F900075F80024F8E700BFEB570100F00300207C
:105FA000465901005D5901005359010030B503699C
:105FB000002B8FB0054635DB84695CB104F5816048
:105FC000FFF7BEFE002808DDA86900F58160FFF735
:105FD000B7FE044620460FB030BD154902A8FFF7B2
:105FE0007FFE03224FF4E1311248FFF7EDFB124927
:105FF00008A8FFF775FE2B690193104B009302AAC6
:106000000F4B0C4808A9FFF771FB044608A8FFF7DF
:1060100035F84CB102980AF000FF041E04DA02A819
:10602000FFF72CF80024D5E702A8FFF727F8D1E7FF
:10603000EB570100F0030020ED590100F959010070
:10604000EC5701002DE9F04F0369002B93B0074690
:10605000C0F287808369002B00F08380424906A844
:10606000FFF73EFEBA69EFF310830C9301230D9303
:1060700072B60D9B591E0D911BB1D2F80854C5F58F
:1060800080653A4E0CA8FFF755FE002403223046E7
:106090004FF4E131FFF798FB013D86F88C4034491D
:1060A0000CA8FFF71DFE02953B690193314B00934D
:1060B0003046314B06AA0CA9FFF718FB06460CA880
:1060C000FEF7DCFF002E41D0079B002B47D04FF09E
:1060D0000109CA46AC4239D2079B9C4236D2069B84
:1060E000BE6913F804B0EFF31083CDE9043972B63A
:1060F000059B5A1E059223B3EFF31083CDE90C3AAA
:1061000072B60D9B5A1E0D923BB1D6F80834A3F51A
:106110008063D3F1000848EB03080CA8FFF70AFEE0
:10612000B8F1000FE4D1D6F8000406F800B0FFF78C
:106130001DFED6F80834C6F800040133C6F808344A
:10614000D6E704A8FFF7F6FD0134C3E74FF0FF34AC
:1061500006A8FEF793FF204613B0BDE8F08F1C465B
:10616000F6E74FF0FF34F6E7EB570100F0030020AD
:1061700012590100225901005359010038B5044653
:1061800080690D4650B100F58160FFF7D9FDA84246
:1061900004D22046BDE83840FFF754BF38BD2DE992
:1061A000F74F07468A4611461646FFF7E7FF3B6959
:1061B000002B33DBBC6994B34FF0010B5644002431
:1061C000D946B2452BD0BBF1000F28D0BD69D5F818
:1061D00008344BB995F800809B460AF8018BBBF157
:1061E000000FEED00134ECE7EFF31083CDE9003976
:1061F00072B6019B5A1E019263B1D5F8040415F8DA
:106200000080FFF7B3FDD5F80834C5F80404013B5E
:10621000C5F808346846FFF78DFDDEE70024204608
:1062200003B0BDE8F08F10B504460121FFF7A6FFCB
:106230002369002B0ADBA36943B1D3F808241AB100
:10624000D3F80424985C10BDFF20FCE74FF0FF302A
:10625000F9E7FFFF10B50369002B8EB004461DDB84
:106260000F4902A8FFF73CFD03224FF4E1310D482E
:10627000FFF7AAFA0C4908A8FFF732FD236901933A
:106280000A4B009302AA0A4B064808A9FFF72EFA08
:1062900008A8FEF7F3FE02A8FEF7F0FE0EB010BD50
:1062A000EB570100F0030020345901003C59010074
:1062B000EC57010010B50369002B8EB0044620DBBB
:1062C000154902A8FFF70CFD03224FF4E1311348F2
:1062D000FFF77AFA124908A8FFF702FD2369019334
:1062E000104B009302AA104B0C4808A9FFF7FEF9C7
:1062F00008A8FEF7C3FE4FF0FF33236102A8FEF7A4
:10630000BDFEA3690022C3F80024C3F80424C3F827
:1063100008240EB010BD00BFEB570100F0030020B1
:10632000F458010002590100EC57010010B5036850
:106330008EB01B6904469847002829DC2369002B8E
:1063400028DB154902A8FFF7CBFC03224FF4E1310B
:106350001248FFF739FA124908A8FFF7C1FC236970
:106360000193104B009302AA0F4B0C4808A9FFF7AA
:10637000BDF9044608A8FEF781FE1CB102980AF098
:106380004CFDC4B202A8FEF779FE20460EB010BD47
:106390000124FAE70024F8E7EB570100F00300209E
:1063A000075A0100195A0100EC57010030B50C469C
:1063B00095B0054602A806F08DFB2369002B34DB5F
:1063C0001E4908A8FFF78CFC03224FF4E1311C485A
:1063D000FFF7FAF91B490EA8FFF782FC2369019326
:1063E000194B009308AA194B15480EA9FFF77EF91F
:1063F00004460EA8FEF742FEA4B108992C4602A856
:1064000006F092FC124B44F8043B03AB0FCB84E83C
:106410000F009DF81C302B7508A8FEF72FFE2846AC
:1064200015B030BD08A8FEF729FE002300931A46D8
:106430001946284606F056FBF1E700BFEB5701006E
:10644000F0030020D5590100E0590100EC5701008C
:10645000D05E010010B50369002B8EB0044626DB28
:10646000144902A8FFF73CFC03224FF4E131124823
:10647000FFF7AAF9114908A8FFF732FC2369019335
:106480000F4B009302AA0F4B0B4808A9FFF72EF9F8
:10649000044608A8FEF7F2FD1CB102980AF0BDFC04
:1064A00084B202A8FEF7EAFD20460EB010BD00241B
:1064B000FAE700BFEB570100F0030020D8580100B5
:1064C000E5580100EC57010013B500230446D1E95B
:1064D0000002C1E900332368206002A800936368CA
:1064E00040F8043D6260FFF771FC204602B010BD29
:1064F00073B54FF47A730025C0E90153174B03605D
:106500004FF0FF33C0E904350446C0E9065540F2B8
:106510000C4009F078FC4FF48062064629460AF0E8
:106520005AFD1020C6F80054C6F80454C6F80854A2
:10653000CDE9006509F067FC0123C0E90133084B90
:106540000360C6600190694604F11800FFF7BCFFC4
:1065500001A8FFF73BFC204602B070BD545A010071
:10656000C458010073B54FF47A730025C0E9015394
:10657000164B03600446C0E90415C0E9065540F215
:106580000C4009F040FC4FF48062064629460AF0B0
:1065900022FD1020C6F80054C6F80454C6F808546A
:1065A000CDE9006509F02FFC0123C0E90133084B58
:1065B0000360C6600190694604F11800FFF784FF8C
:1065C00001A8FFF703FC204602B070BD545A010039
:1065D000C4580100704708B503685B69984780F0AC
:1065E0000100C0B208BD13B502AB026803F8011D7B
:1065F000546819460122A04702B010BD80688B681C
:10660000C31A58425841704710B500234360064BE7
:1066100003604FF0FF330446C0E902311030FFF74A
:1066200067FF204610BD00BF045B01002DE9F0416B
:106630008B68013392B007460C4663D00AAA3349EF
:1066400004A8FEF745FD03224FF4E1313048FFF77F
:10665000BBF803AA2F490AA8FEF73AFDA3680193E5
:106660002D4B009304AA2D4B29480AA9FFF73EF8A9
:1066700005460AA8FEF702FD002D40D004980AF056
:10668000CCFB236A8342014604F110080AD141463B
:106690003846FFF783FB04A8FEF7F0FC384612B03B
:1066A000BDE8F0810AA8FFF75DFF0B9B63610C9BBF
:1066B000A3610D9BE361119E0E9BE56A23620F9B14
:1066C0006362AE42109BA36215D016B173680133AA
:1066D00073607DB16B68013B6B605BB92B682846CA
:1066E0009B689847AB68013BAB601BB92B68284699
:1066F000DB689847E6620AA8FFF774FBC7E704A8BF
:10670000FEF7BCFC3846FFF7F3FEC7E7EB57010086
:10671000F0030020D45A0100E65A0100EC570100B2
:1067200030B58368013391B004460D4624D10AAADE
:10673000124904A8FEF7CCFC03224FF4E1311048C3
:10674000FFF742F803AA0F490AA8FEF7C1FC0E4B57
:106750000195009304AA0D4B09480AA9FEF7C6FF4C
:1067600005460AA8FEF78AFC1DB104980AF055FBFD
:10677000A06004A8FEF782FC11B030BDEB57010009
:10678000F0030020985A0100A65A0100EC570100BE
:10679000C168FFF7C5BFFFFF70B58368002B92B0DB
:1067A00005460E4614462CDB0CAA174906A8FEF730
:1067B0008FFC03224FF4E1311448FFF705F805AAD6
:1067C00013490CA8FEF784FC0294AB680193114BAB
:1067D000009306AA104B0D480CA9FEF719FC0CA853
:1067E000FEF74CFC224631460848FEF72FFF0546CF
:1067F00006A825B1FEF742FC204612B070BDFEF798
:106800003DFC0024F8E700BFEB570100F003002037
:10681000B65A0100C45A0100535901000023C38233
:106820000376037543756423C36301207047704783
:1068300013B504680093E46AA04702B010BD2DE9C7
:10684000F74F9246427D0446894612B9027D002ADE
:106850002FD009EB03070C9B5344013F03F1FF3892
:106860004D46BD4225DC5646464520DC4D4505D00B
:10687000BD4203D0564501D046450FD1637D6BB173
:10688000A17F0191237F2268617F0091D2F860B0DF
:10689000294632462046D8470136E5E7237D002BBE
:1068A000FAD0E17E0191637E2268A17EEDE7013599
:1068B000D7E703B0BDE8F08F01617047036923B1EA
:1068C00090F838201868504370471846704703699D
:1068D00023B190F8392058685043704718467047E4
:1068E000002908BF0121002A08BF012280F83810C2
:1068F00080F83920704737B5DDB201950468C3F3DD
:1069000007250095246EC3F30743A04703B030BDAD
:1069100038B51D46036804469B6E98479DF81030B5
:1069200084F82D309DF8143084F82C5084F82E30E3
:1069300038BD37B5DDB201950468C3F3072500956E
:10694000E46EC3F30743A04703B030BDC163704793
:106950002DE9F04F97B0CDE90412417D027D044648
:1069600011B9002A00F044814FF0020893FBF8F5BA
:10697000209B93FBF8F805FB05F3069308FB08F34F
:106980001293002A7CD01946DA17C8F100039A4600
:106990004FEAE37B069BCDE90A12DA171946CDE9E7
:1069A0000C12129A83FB0223CDE90E234246D31721
:1069B000CDE910236B4213932A46EB17CDE914233C
:1069C000DDE91023524573EB0B0359DB139B0C9A43
:1069D0001E46DF170D9B0BFB0AF1CDE90267AAFBF0
:1069E0000A6707EB410706FB03F10C9B03FB071348
:1069F000A6FB0212CDE90812099A13440993059BDC
:106A000003EB0A09DDE91423DDE9020182428B412F
:106A100031DBDDE9023203FB02F1A3FB032303EBCD
:106A200041030B990A98514300FB0311A2FB002379
:106A30000B44DDE908018018594102460B46DDE9A7
:106A40000E01904271EB03030DDBE17E01912268A0
:106A5000A17E0091126E02980499637E164601444D
:106A60004A462046B047DDE90223013243F10003E4
:106A7000CDE90223C6E71AF1010A4BF1000B9FE7AB
:106A8000637D002B00F0B4806B429A464FEAE37BB3
:106A90002A46EB17CDE90223DDE90223524573EBC9
:106AA0000B034CDB5046594609F05AFB02460B4695
:106AB00009F084FB064606980F4609F015FB0246CE
:106AC0000B463046394609F0A3FC02460B4600202F
:106AD000494909F0BBF941EC100B0AF06FF853EC8F
:106AE000102B4046CDE9082309F0FEFADDE9082322
:106AF00009F064FB09F012FEA17F22680191617F19
:106B0000049B0091D2F86090059A03EB0A060244B8
:106B10000746237F31462046C847A17F226801915E
:106B2000617F0091D2F86090059A237FD21B314695
:106B30002046C8471AF1010A4BF1000BACE7424668
:106B4000D317CDE90223C8F10006F717DDE90223C8
:106B5000B242BB414CDB3046394609F001FB0246EC
:106B60000B4609F02BFB80461298894609F0BCFAC7
:106B700002460B464046494609F04AFC02460B468F
:106B800000201D4909F062F941EC100B0AF016F8DB
:106B900053EC102B2846CDE9062309F0A5FADDE9D0
:106BA000062309F00BFB09F0B9FDA17F059B0191BC
:106BB000617F226800910499D2F860B003EB060966
:106BC00001448046237F4A462046D847A17F019151
:106BD000617F226800910499D2F860B0237F4A4611
:106BE000A1EB08012046D847013647F10007ADE781
:106BF00017B0BDE8F08F00BF0000F03F2DE9F04F67
:106C000085B0814608469A468846039200F06EFC9D
:106C10000E9B029023EAE3734FEA830B55460F9ACB
:106C2000A5EB0A039A4225DD029C00260E9B9E429C
:106C300004F1040412DA14F8021C14F8043C019163
:106C400014F8031CD9F800200091126E039917461E
:106C500071182A464846B8470136E7E7404600F033
:106C600047FC0E9BC01A029B0BEB8000034402936F
:106C70000135D4E705B0BDE8F08F2DE9F04F85B0C0
:106C8000814608469A468846039200F02FFC0E9BE8
:106C9000029023EAE37303EB430B55460F9AA5EBEF
:106CA0000A039A4226DD029C00260E9B9E4204F1B6
:106CB000030412DA14F8011C14F8033C019114F8CF
:106CC000021CD9F800200091126E03991746711822
:106CD0002A464846B8470136E7E7404600F008FC38
:106CE0000E9BC01A00EB4000029B584403440293E1
:106CF0000135D3E705B0BDE8F08F2DE9F04F85B041
:106D00008046084699460F46924600F0EFFB0E9BE0
:106D1000039023EAE3734FEA430B4D460F9AA5EB2A
:106D200009039A4227DD00240E9B9C4217DA039B3D
:106D3000D8F8001033F814201312D000D210C0B2CB
:106D400002F0FC02019000920A6E03F0F80316466E
:106D50000AEB04012A464046B0470134E4E73846CE
:106D600000F0C6FB0E9BC01A039B0BEB40000344D4
:106D700003930135D2E705B0BDE8F08F2DE9F74365
:106D800098460368054608460C46DE6D174600F037
:106D9000AFFB8146204600F0ADFB4346CDE90090B5
:106DA0003A4621462846B04703B0BDE8F08308B50F
:106DB00001F13E03DBB2012B03D949B2203006F0CA
:106DC00064F9012008BDFFFF0149203006F02EB90B
:106DD000EB57010070B504460E46154603492030B6
:106DE00006F024F9C4E90C6570BD00BFEB57010043
:106DF0002DE9F04F89B0437D0493037F0593054649
:106E0000437F06930129837F079304460E4655F876
:106E1000203B45D11B6D876A9847236B013307FBE5
:106E2000003900274F4580F25481236820461B6AB1
:106E30009847236B94F82C1094F82D202177A3EB1E
:106E4000070894F82E30A37723686277D3F840A020
:106E50006675636B424629462046D0472169A26A7F
:106E60000B6894F816C0E07D84F81CC002FB038315
:106E7000227E6077A2774968626B2068667511444C
:106E800001390091D0F830A019462046D047236838
:106E900020465B6A9847E06B06F0D2FD0137C1E7F8
:106EA00002295BD11B6D866A9847236B06FB00386D
:106EB000002708F1FF3A4FF00109474580F20981A8
:106EC000236820461B6A9847266B94F82C1094F888
:106ED0002D202177AAEB0703F61A94F82E30A3771A
:106EE00023686277D3F840B084F815903246636B1C
:106EF00029462046D847237EA377A17DE27D2369DA
:106F0000217762775B68626B216884F8159013447F
:106F1000013B013E0093D1F830B033463146204664
:106F2000D847236994F839009968039094F8380099
:106F300002905B682268CDE900932046D1F880106A
:106F4000D2F87CB0636B3246D847236820465B6A30
:106F50009847E06B06F074FD0137AEE7032943D193
:106F60005B6D9847636B002600EB03084FF0010947
:106F7000B045C0F2AE80236820461B6A984794F85B
:106F80002E30676B94F82C1094F82D20A37723688B
:106F90002177BF1B6277D3F840A0226B84F815904D
:106FA0003B4629462046D0472369E07D5A68217E2A
:106FB000A1773A44A77D2777216B60771868276807
:106FC000A36A009201F1FF3C03FB00C384F8159013
:106FD00020463F6BB847236820465B6A9847E06BC2
:106FE00006F02EFD0136C3E704295AD15B6D9847A0
:106FF000636B00EB0308002708F1FF3A4FF001092B
:10700000474566DA236820461B6A9847666B94F802
:107010002C1094F82D202177AAEB0703F61A94F888
:107020002E30A37723686277D3F840B0226B84F8C0
:107030001590334629462046D847237EA377A17D65
:10704000E27D236921776277013E2068216B1B680E
:107050000096D0F830B0A06A84F815904A1E00FB64
:10706000032332462046D847236994F839009968AB
:10707000039094F838002268CDE901901B680093D2
:10708000D1F88010D2F87CB0226B33462046D84726
:10709000236820465B6A9847E06B06F0D1FC013715
:1070A000AEE71B6A984794F82E3094F82C1094F8A9
:1070B0002D20A377236821776277012060751E6CED
:1070C0002046D4E90C232946B047236820465B6A52
:1070D0009847049B8BB1012363759DF81430237787
:1070E0009DF8183063779DF81C30A3770549284632
:1070F00009B0BDE8F04F05F099BF9DF810306375F9
:10710000F4E700BFEB570100437D73B53BB1447F0B
:107110000568867F01960094037F2C6EA04702B01D
:1071200070BD2DE9FF411F46036904461546002B3B
:107130003AD0437D002B37D04E1E16F9013F002B6D
:1071400032D0DBB20A2B08D1226994F83930526868
:1071500002FB0377F1E70025EFE70D2BFBD003F1EE
:107160003E02D2B2012AE8D92269906850F8231071
:1071700011B9D0F8801081B194F83900039094F8D7
:107180003800029050680190236812680092D3F88A
:107190007C802A463B462046C047226994F8383016
:1071A000126802FB0355C8E704B0BDE8F0812DE981
:1071B000F04F8BB098469DF85C300793437D9DF867
:1071C00058700446CDE90512002B71D0002F6FD006
:1071D000079B002B6CD000296AD0149B03FB07236C
:1071E000002B65DB079B159A02FB0383002B5FDBFB
:1071F0008368069A93425BDBC368434558DB8B4642
:10720000059B159AABEB03039A4251DD1BF8013B3A
:10721000099300230393039B039A43440493079B1E
:107220009A421ED0E3689A4242DA069D4FF0000966
:10723000149B4B4539DD099AC9F1070342FA03F360
:1072400013F0010F05EB0703294608930CD1089BA7
:1072500099421BD1A3683D44AB4226DD09F10109E7
:10726000E6E7DDF81080CBE7089B9942F2D0A07FDB
:1072700001902268607F0090126E237F01F1010A65
:1072800016462046049AB0475146EDE7207E01900D
:107290002268E07D0090126EA37D01F1010A16467E
:1072A0002046049AB0475146D1E7039B0133B1E72A
:1072B0000BB0BDE8F08F2DE9F0471F460B68044680
:1072C0009B6808460D461646DDE90889984760B375
:1072D00016EB080F29D417EB090F26D4A368B34285
:1072E00023DBE368BB4220DB284600F0FDF80128E1
:1072F0000FD0022813D0C0B9CDE908892368D3F88C
:1073000080E03B46324629462046F446BDE8F04739
:107310006047CDE908892368D3F884E0F1E7CDE937
:1073200008892368D3F888E0EBE7BDE8F087FFFF22
:1073300010B500230446436007482060C4E90212E8
:107340002361064904F1200005F051FE40F20113CB
:107350002387204610BD00BF285B0100EB570100CA
:1073600010B5044B044640F8203B05F0F5FD2046DF
:1073700010BD00BF285B01002DE9F04F85B090469D
:107380000E9CA41A48BF64424FEA44029A46A3EBFB
:10739000010307460D464CBF4FF0FF394FF001097E
:1073A0000392D61A4FEA430B554514DCB97F3B7F55
:1073B0003A680191797F0091126E29461446384649
:1073C0004246A047002E039BC4BFA6EB0B06C84451
:1073D0001E440135E8E705B0BDE8F08F2DE9F74F11
:1073E0005B1A15460C9A48BF5B42A2EB05094FEAAF
:1073F0004304A4EB0906074688464CBF4FF0FF3A0A
:107400004FF0010A4FEA49090C9B9D4213DCB97FFA
:107410003A683B7F0191797F0091D2F860B0414694
:107420002A463846D847002EC4BFA6EB0906D044EA
:1074300026440135E8E703B0BDE8F08F90F815C0A9
:107440002DE9F341DDF8208004460D4616461F461F
:10745000BCF1000F45D099420ED1464541DCA17FD9
:107460002268237F0191617F0091176E2946324681
:107470002046B8470136F0E742450FD1AF4230DB36
:10748000A17F2268237F0191617F0091D2F8608003
:10749000294632462046C0470135EFE7A8EB020CEB
:1074A0005C1ABCF1000FB8BFCCF1000C002CB8BFC7
:1074B0006442A4450ADA9942C1BF08920B4642468B
:1074C000394602B0BDE8F041FFF756BF4245C1BFA3
:1074D00008920B464246394602B0BDE8F041FFF73C
:1074E0007DBF02B0BDE8F08140687047806870479A
:1074F000C06870470069704708B506F083FA00203D
:1075000008BD27207047704737B5FFF7FCFF012102
:107510000D2006F0D7F900210D2006F0EBF96846A2
:107520000722032108F0ECFBBDF800301C4CC3F32C
:1075300084130125684607220521E55408F0E0FB85
:10754000BDF80030C3F38413684607220621E554D2
:1075500008F0D6FBBDF80030C3F384136846072259
:107560000921E55408F0CCFBBDF80030C3F38413C7
:10757000684607220A21E55408F0C2FBBDF8003036
:10758000C3F3841307220B216846E55408F0B8FBC7
:10759000BDF80030C3F38413E55403B030BD00BF21
:1075A000C60700200B7930B4DB01114C114DDBB262
:1075B000A3714B788A781B01120302F44052DBB2AC
:1075C00013430A788446A85CCA78120202F4407217
:1075D00000F003001343034363804B79064ADB0149
:1075E000DBB22372002030BCCCF80020704700BF13
:1075F00000420440EC5D010054445700024B00205F
:10760000FF2218701A7070470042044030B5836A38
:1076100085B004468C4601ADABB193E8070085E820
:1076200007006268117883F804C0E26A9A60196002
:107630001846626A9047A36A1BB195E8070083E881
:10764000070005B030BD2B46EBE700BF10B4EFF3E9
:107650000383103B5BB203F1C001204A204C52F877
:1076600021006FF3104042F8210054F82330D3E991
:1076700006218A421BD0186940B393F820400F2C92
:107680000BD99968496840F82210D96901328A42B9
:107690009A610CD05DF8044B7047072C19D8996893
:1076A00009798154D96901328A429A61F2D15B68C1
:1076B0000C4993F903305DF8044B5809012203F09B
:1076C0001F0302FA03F341F82030704798684068BE
:1076D000DCE79C68A48820F81240D7E700600040EF
:1076E0003407002000E100E0F0B5EFF30383103B26
:1076F0005BB203F1C0022F492F4C51F822006FF307
:10770000104041F8220054F823305868026A002AD9
:1077100030D092F801C0DC695A69BCF1010F17D072
:1077200094420FD0D96841B393F820000F280AD8AB
:107730000728986895BF895C31F812100171818023
:1077400001325A61F0BD986851F822104160F7E7A4
:1077500004F1FF3E724513D001690029E0D090F991
:10776000031016484D0901F01F010CFA01F140F811
:107770002510D5E75A69DC69D2E798684160DFE7F0
:1077800090F903E00EF1C0064FEA5E10800051F858
:10779000267000F1604000F561400EF01F0E0CFAFB
:1077A0000EF56FF3104741F82670C0F88051056060
:1077B000B6E700BF006000403407002000E100E0B1
:1077C00010B4EFF30383103B5BB2324A324C03F147
:1077D000C00152F821006FF3104042F8210054F824
:1077E00023008268D278920706D54268527A012A2D
:1077F00002D05DF8044B70475909284C0122203112
:1078000003F01F0302FA03F344F82130BFF34F8F54
:10781000BFF36F8F436893F90230002B2FDB5909B8
:10782000203103F01F0302FA03F344F82130BFF3C1
:107830004F8FBFF36F8FD0E90114237891F90210B5
:107840006FF386130029237014DB01F1C00C114C77
:107850004B099B0001F01F018A4003F1604354F87B
:107860002C1003F561436FF3104144F82C10C3F85A
:1078700080211A605DF8044B0121FFF7C7BE8268C2
:107880005DF8044B13786FF3861313700121FFF733
:10789000BDBE00BF006000403407002000E100E0F2
:1078A00070B5EFF30384103C314B64B253F824609D
:1078B000736893F90230002B42DB5A092D492032BC
:1078C000012003F01F0300FA03F341F82230BFF355
:1078D0004F8FBFF36F8FD6E9012392F902101A7808
:1078E00000296FF386121A7015DB01F1C00C224DCE
:1078F0004A09920001F01F0100FA01F102F1604211
:1079000055F82C0002F561426FF3104045F82C0049
:10791000C2F880111160DA780021D5B21207D9704F
:1079200021D4EB0712D405F01405142D16D0124BF8
:10793000C03453F824206FF3104243F8242070BD64
:10794000B3681A786FF386121A70E4E704213046A0
:1079500005F01405FFF75AFE142DE8D10821304632
:10796000FFF754FEE3E705213046FFF74FFED8E767
:107970003407002000E100E000600040036A70B5B9
:107980000446987800F07B0098700D46217841B34A
:107990002261E269E5601069002841D0226982B164
:1079A000A378816800688E68E16803F00303013BF7
:1079B00022FA03F3002222619BB2B04780B9236A06
:1079C00021789A7842F080029A7039BB94F802C00C
:1079D0000CF0030CBCF1020F1AD02A78DA700020E8
:1079E00070BD94F802C0E0690CF0030E0069A2EBD0
:1079F0000E02226105EB0E02E2600028CED19A78D9
:107A00000CF0030C42F08002BCF1020F9A70E4D13A
:107A10002A8842F47E420020DA8170BD002070BDC9
:107A20009A7842F080029A7070BD00BF036A91F8A4
:107A300001C09A7800B502F07B0E02F00B029A703A
:107A40000022C2608878587010461A786CF30102E0
:107A50001A70CA789A7493F807C00A780CF0A301D8
:107A600002F05C020A43DA7183F802E05DF804FB7D
:107A700010B5D0E90721002343608B7092F90520EF
:107A80002F49044650090123203002F01F0203FA57
:107A900002F241F82020BFF34F8FBFF36F8FE269EE
:107AA00092F90B205009203002F01F0203FA02F273
:107AB00041F82020BFF34F8FBFF36F8FE26992F937
:107AC00007205009203002F01F0203FA02F241F8A9
:107AD0002020BFF34F8FBFF36F8FE26992F9092027
:107AE000500902F01F02934000F1200241F82230B9
:107AF000BFF34F8FBFF36F8FE369DA6822B19368EA
:107B000010681B6A9847E3691B691BB19A6818687B
:107B1000136A9847EFF31081012383F31088E36918
:107B2000084A1C78D2F800014FF00043E3400343B9
:107B3000C2F80031D2F8003181F31088002010BD66
:107B400000E100E0006F0440F0B5846A85B00546AE
:107B50000F4694466E46B4B194E80F0086E80F00D5
:107B6000EB691B7884F804C02360EB6A2046C4E903
:107B700002736B6A9847AC6A1CB196E80F0084E800
:107B80000F0005B0F0BD3446EAE700BF8C465168EF
:107B900030B4029C0D6880B91C609CF8010038B9B3
:107BA000E8784FF0010C0B346CF30510E8701C60A2
:107BB000936810681B6830BC184704F10C0018600B
:107BC000EBE700BF2DE9F0470D4609780323CB40D2
:107BD00013F0010301F1007218BF1023037002F5C6
:107BE000605283785201012161F301030262A969A5
:107BF0006A6942620022C0E90A21C56183706B781C
:107C000082B0044623B98378022262F301038370B1
:107C100095F90B00594B95F80AC04209203200F043
:107C20001F06012101FA06F643F82260BFF34F8FC9
:107C3000BFF36F8F524A534E00F1C0074FEA0C1C3E
:107C400052F827E06FF3104E42F827E01F185FFA52
:107C50008CFC87F800C346F8204095F9050095F89C
:107C600004C04709203700F01F0E01FA0EFE43F84A
:107C700027E0BFF34F8FBFF36F8F00F1C00703EB17
:107C8000000852F827E04FEA0C1C5FFA8CFC6FF3F7
:107C9000104E42F827E088F800C346F8204095F9D6
:107CA000070095F806C04709203700F01F0E01FABB
:107CB0000EFE43F827E0BFF34F8FBFF36F8F00F145
:107CC000C00703EB000852F827E04FEA0C1C5FFAEC
:107CD0008CFC6FF3104E42F827E088F800C346F89A
:107CE000204095F9090095F808C04709203700F0B1
:107CF0001F0E01FA0EF143F82710BFF34F8FBFF3A9
:107D00006F8F00F1C0074FEA0C1152F827C00344EF
:107D10006FF3104C42F827C0C9B283F80013EA6829
:107D200046F8204072B153681B684FF4002143F8B5
:107D3000041B216A05310091E1692078FFF726FFD5
:107D40000646B0B92A69FAB153681B684FF0006162
:107D500043F8081B216A03310091E1692078FFF79D
:107D600015FF064680B1EB681BB19A681868136A64
:107D70009847304602B0BDE8F08700BF00E100E060
:107D80000060004034070020EFF31080012383F3EC
:107D90001088984B2E78D3F800214FF00041F14025
:107DA00022EA0102C3F80021D3F8003180F31088E1
:107DB000236AE06900229A701A715A729A72DA7212
:107DC0005A83297840F20722CA40D20744BF402292
:107DD000DA7406221A7722787AB1C168013A00294A
:107DE00000F0FE800126120391B2314341F00602F9
:107DF0009A829A8A92B29142FBD1EA78A978D2000B
:107E000042EA01126978032900F0D780002914BFE3
:107E1000F221E221ED69D2B21A7099712A7B5200E7
:107E200002F002025A736A78A97800261E7295F849
:107E300000C0D201490101F02001D2B20A43ACF1E5
:107E40000201012940F2BD80D2B2DA716A689178EC
:107E500059701978567866F301011970D1789974C0
:107E60001278D97902F05C0201F0A3010A43DA71B9
:107E70000027C4E90377C4E9057790F905105E4E41
:107E800001F1C00E4A0956F82E80920067F310489F
:107E900002F1604246F82E8002F561424FF0010E79
:107EA00001F01F010EFA01F1C2F88011116090F982
:107EB0000B1001F1C0094A0956F829A0920002F1FD
:107EC000604202F5614267F3104A01F01F0146F873
:107ED00029A00EFA01F1C2F88011116090F9071083
:107EE00001F1C0094A0956F829A0920002F1604246
:107EF00002F5614201F01F0167F3104A46F829A01C
:107F00000EFA01F1C2F88011116090F9091001F127
:107F1000C0004A0956F82090920002F1604267F3CF
:107F2000104946F8209002F561420CF0030C01F074
:107F30001F010EFA01F14CF0700CC2F880111160B3
:107F400083F802C06B8923814FF6FF7843452DD01B
:107F5000EFF310818EF31088284A13681BB9284864
:107F6000C3704023C37013680133136081F310881A
:107F7000218924480B0A1B0153FA81F150F8213062
:107F800023F0011323F4404343F0040340F821306D
:107F9000EFF31081012383F31088136813B1136882
:107FA000013B13601368B3B181F31088164B636013
:107FB0000026304602B0BDE8F08742F04002F221D0
:107FC00028E7BCF1020F08BF42F01002FF21D2B235
:107FD0005970DA714CE70A4A8020D370D070E3E719
:107FE000C169097A1140090201F4706141F001068A
:107FF000F9E600BF006F0440006000403007002039
:10800000000D044000080440554943532DE9F04F4A
:108010001E46FF23B37033786FF382038BB0337047
:108020008023F370554B0992554A1B6A12680191DF
:10803000C3F302618A40C3F30233DA40514B079025
:108040000021100A06920891059002910093A2FB6C
:1080500003BA099B009A93426EDA9DF8203003938D
:108060000027494B039ADD5DC5F34003C5F3800546
:1080700004932B43934256D1444B33F81780079B0C
:1080800003FB08F8069BB3FBF8F2541EFF2C4AD8FA
:1080900002FB08F91DE0059BB9FBF3F37F2B03FB03
:1080A00000F040D90028B8BFFF300012A0F5C3305F
:1080B000A0380028009AB8BF4042824240DC029BB0
:1080C000F370337843F00403A9EB0809337054B319
:1080D000013C4A464FEAE9735846514608F0B6FB60
:1080E000019A002AD7D1A0F5C333A03B002B009AF8
:1080F000B8BF5B429A4216DD0093234BB470DA5D41
:108100003378C2F3000161F38613049961F3041319
:1081100065F3C30333707378C2F3C10262F30103E2
:108120007370019B029301370D2F9AD1089BF3B115
:10813000009B099A93421DDC00200BB0BDE8F08F34
:108140000293114B049AD95D33780090C1F300007B
:1081500060F3861362F3041365F3C303337073781B
:10816000B470C1F3C10161F301037370A7E7012388
:1081700008936EE703200BB0BDE8F08F00E00140EC
:10818000C0070020A0860100F45D0100045E01002C
:10819000F0B5EFF30383103B5BB203F1C001344A47
:1081A000344C52F821006FF3104042F8210054F88B
:1081B0002300C3691B6913B1036913B1F0BD0369DF
:1081C00083B9D0E90824937803F07F03002143F0BA
:1081D00004039370C160002CF0D0BDE8F040802211
:1081E000FFF7B2BC05785DB3066AF18AC1F30421DA
:1081F000A9421ED28478C2681F4F04F0030E744651
:108200000BE092F800C086F80FC001311B1B22441E
:10821000A942C0E903230CD25BB1BEF1020FF0D139
:10822000B2F800C04CEA070C1FFA8CFCA6F80EC08E
:10823000EBE732796FF3C7123271002BBED1C0E782
:10824000827802F003010229C1680BD0046A0D781C
:10825000E57002F003029B1A0A44C0E90323002BD5
:10826000ACD1AEE70C88056A44F47E44EC81F0E7BB
:10827000006000403407002000FEFFFF10B582B010
:10828000EFF30383103B5BB203F1C001574A584C34
:1082900052F821006FF3104042F8210054F82340B7
:1082A000E369DB6813B1A369002B49D122894FF63A
:1082B000FF739A4275D12278236AF2B1D98AC8062F
:1082C00012D01B8AC3F308030193A369FBB9636A45
:1082D0002BB1042201992046FFF736FC22782AB1FF
:1082E000236AD98AC906E8D1BE221A7123894FF6BA
:1082F000FF72934231D102B010BDA17801F00301A9
:108300000229DED05B790193A369002BDFD0A2782C
:10831000606902F0030201A908F039FED4E90521E1
:10832000A37803F003031A44C91AC4E9052129B943
:10833000636A1BB101222046FFF706FC2278CEE7D4
:10834000636A0021C4E90511002BD4D00122204624
:1083500002B0BDE81040FFF7F7BB1A0A1201254929
:1083600052FA83F351F8232022F0011222F4404202
:1083700042F0040241F82320EFF31082012383F33B
:1083800010881D4B196811B11968013919601B68F3
:108390001BB91A498020CB70C87082F3108802B0D4
:1083A00010BDEFF31081012383F31088124B1A687C
:1083B0001AB91248C2704022C2701A6801321A609B
:1083C00081F3108822890B49130A1B0153FA82F2A8
:1083D00051F8223023F0011323F4404343F0050306
:1083E00041F82230236A227867E700BF006000402E
:1083F000340700200008044030070020000D04402E
:1084000010B5EFF30384103C0B4B64B253F8240017
:10841000D0E90821937803F07B03937019B102220D
:108420000021FFF791FB054BC03453F824206FF374
:10843000104243F8242010BD3407002000600040A3
:1084400010B5EFF30384103C194B64B253F82400C9
:10845000037843B9837803F00303022B03D0036A44
:108460005979C9B203E0036A198AC1F3080193F884
:1084700004C01CF0100F0CF0380206D093F81CC09A
:108480001CF0010F08BF42F0400293F804C00CF04A
:10849000C70C83F804C0436A0BB1FFF755FB054BCB
:1084A000C03453F824206FF3104243F8242010BD49
:1084B000340700200060004030B5436A85B00446B0
:1084C0008C4601ADABB193E8070085E80700626810
:1084D000117883F804C0A26A9A6019601846226A6B
:1084E0009047636A1BB195E8070083E8070005B071
:1084F00030BD2B46EBE700BF10B4EFF30383103B16
:108500005BB203F1C001144A144C52F821006FF31E
:10851000104042F8210054F823305A69D9698A4240
:1085200006D2D3E90240A8B1805CE07001325A6102
:108530008A4202D05DF8044B70471A69002AF9D1CB
:108540009A685DF8044B937803F07B0343F00403CF
:1085500093707047E070E9E7006000403407002046
:1085600010B4EFF30383103B5BB203F1C001174A71
:10857000174C52F821006FF3104042F8210054F8D4
:1085800023305A69D9698A4206D2D3E90240D0B170
:10859000805CE07001325A619A698A4207D2986819
:1085A00019694079541C9C618854D3E90621914291
:1085B00006D19A68937803F03B0343F00403937069
:1085C0005DF8044B7047E070E4E700BF00600040D6
:1085D0003407002010B5EFF30384103C0A4B64B25B
:1085E000012153F824008268937803F00303937009
:1085F000FFF762FFC034054B53F824206FF310429D
:1086000043F8242010BD00BF340700200060004064
:1086100010B5EFF30384103C0C4B64B24FF0840CA4
:1086200053F8240083689A7802F003029A701A794A
:1086300083F804C00421FFF73FFFC034044B53F814
:1086400024206FF3104243F8242010BD340700208B
:108650000060004003685969A1B190F82D3070B5F1
:10866000044603F0FF0563B98A68038C96680868BE
:10867000A1692A46B047E269C4E90852012384F897
:10868000333070BD704700BF70B5866B82B0044652
:108690000B466D463EB396E8030085E80300E26BA7
:1086A0003371236832605A6912B194F82D10A1B168
:1086B0009B6913B194F82D2052B9636B30469847EB
:1086C000A36B1BB195E8030083E8030002B070BD03
:1086D0009A68186813699847EFE7936810681B69F0
:1086E00098472368E4E72E46D9E700BFEFF30383FA
:1086F000103B5BB2044AC03352F823106FF31041B1
:1087000042F82310704700BF0060004070B5EFF3DF
:108710000383103B5BB2614AC03352F823106FF3FE
:10872000104142F82310EFF30383103B5C4A5BB225
:1087300052F823402269137BC3F30000DB072CD4DB
:1087400094F82C3094F82A10994216D094F82D10F1
:1087500009B1022B41D02046FFF77CFF236994F832
:108760002820DA7094F82B2094F82C30013A013349
:1087700084F82B2084F82C3070BD94F8333003F04B
:10878000FF053BBB236A93BB94F82E3063B35221A1
:108790000123D17284F8303070BD94F82D308BB144
:1087A00094F8313073B9636AA1695279CA54D4E933
:1087B000082394F82E10013A0133C4E9082379B153
:1087C0002269E4E7002001215423206284F82F105D
:1087D000D37270BD84F8330070BD5223D37270BD64
:1087E00023695422DA7270BD5423D37270BD94F899
:1087F0002D1041B9616AA069013B405C0131C4E9B7
:108800000831D07070BD94F8311000292ED0216845
:1088100084F831504869002838D08969002935D05A
:10882000E069022832D98E68831E0868B668F42190
:1088300091709BB2A2692946B0472268E3695269E8
:10884000916810688E68023B9BB22A462946B04761
:10885000E36922690220023BC4E90803012184F88C
:1088600033100023FF209372D070CBE7636AA169B5
:108870005279CA54D4E90832013B0132012BC4E9D0
:108880000832226904D0FF20D070BBE7012BE8D169
:108890002023FF209372D070B4E700BF0060004037
:1088A0003407002010B582B0EFF30383103B374A42
:1088B0005BB252F823000269D37A6FF3C303D37219
:1088C00090F82F30ABBB90F82A1003F0FF0C90F813
:1088D0002C3099421BD1036A5BB990F82D1090F8A7
:1088E0003040002914BF02210321A4B3D372FFF743
:1088F000CBFEEFF30383103B5BB2254AC03352F843
:1089000023106FF3104142F8231002B010BDB3B929
:10891000012929D090F829C00021D17282F803C022
:1089200090F82B200133013A80F82B2080F82C306E
:10893000DFE7F023D3720121FFF7A6FED9E790F815
:108940002D4004F0FF016CB1022BE5D190F829C055
:108950004CF0010CE0E7F023D372937803F0CF03DF
:108960009370C4E78C46D7E70190FFF773FE019838
:1089700090F82A30012B05D190F828C0026990F8B0
:108980002C30C9E7026990F82C30C3E73407002087
:1089900000600040F0B583B0EFF30384103C154B4A
:1089A00064B253F82450EF68BFB16A682B6992F93A
:1089B0000D20121B18BF01226E46C3B193E80300BD
:1089C00086E803001A706A695A601846B8472B692E
:1089D0001BB196E8030083E80300074BC03453F84B
:1089E00024206FF3104243F8242003B0F0BD334637
:1089F000E8E700BF3407002000600040EFF3038386
:108A0000103B5BB20649074A51F823100120C033DE
:108A1000087252F823106FF3104142F82310704788
:108A200034070020006000400B0A1B01044853FA81
:108A300081F150F82130C3F34003002013707047D8
:108A400000080440C8B2012383404AB91A040B0A43
:108A50005B0103F1804303F5802300209A60704797
:108A60009AB2F4E738B50488002C4DD04368002151
:108A7000043303EBC40040F202450C4640F2034CC1
:108A800040F2044E0FE0624530D153F8042C02F05E
:108A9000B852B2F1807F14BF41F0020144F00204E9
:108AA0000833834211D01A88AA42ECD153F8042C1F
:108AB00002F0B852B2F1807F03F1080314BF41F015
:108AC000010144F001048342EDD1C943CDB201203C
:108AD00001F042FF0D4B93F8BB2414432C4083F864
:108AE000BB440120BDE8384001F006BF7245D7D134
:108AF00053F8042C02F0B852B2F1807F0CBF44F05E
:108B0000040441F00401CBE7FF25E0E700E0014069
:108B100070B584B002AB012668460C461546ADF828
:108B20000C100292ADF800600193FFF79BFFEFF38A
:108B3000108286F310881D490B681BB91C48C3704E
:108B40004023C3700B6801330B6082F31088EA0383
:108B50004FEA1423E4B219D41B01164A234442F805
:108B60002350EFF31082012383F310880B6813B1B5
:108B70000B68013B0B600B681BB90D498020CB7063
:108B8000C87082F31088002004B070BD04EB03109D
:108B9000084A52F820606FF3104642F8206025F42E
:108BA000803642F820601B01D7E700BF3007002065
:108BB000000D04400008044070B5C36A84B0044648
:108BC0008C46164601AD9BB193E8070085E8070087
:108BD00083F808C0226B1846C3E90026A26A9047B2
:108BE000E36A1BB195E8070083E8070004B070BD95
:108BF0002B46EDE78268012370B580F8203002260D
:108C0000B323D37180F82160537904466FF30003D6
:108C10005371C2690D46FFF7CFFFA368DE705A7922
:108C200042F001025A7194F82120012A16D094F8DA
:108C3000212002B170BD052DFCD194F82320002A1B
:108C4000F8D194F821201AB95A7A02F0F3025A7234
:108C5000BF210122D97184F8232070BD042DECD0EE
:108C6000082DE4D1E9E700BF30B583B0EFF303830B
:108C7000103B5BB2454AC03352F823106FF31041EA
:108C800042F82310EFF30383103B5BB2404A52F8E3
:108C9000234094F82230B3B9A368012284F822203B
:108CA000DA7CD2B28DF805209DF8052012F0010F74
:108CB0005A7A14BF02F0F70202F0F3025A72AC22A1
:108CC000DA7103B030BD94F820304BB9A3681B7A39
:108CD00013F0080F204614BF08210421FFF78AFF74
:108CE0002269A2B9A368D97CC9B28DF806109DF893
:108CF0000610197941F010011971197941F0080134
:108D00001971197962F30411197103B030BDA369A7
:108D1000A1689A4209D0E268C97C581CA061D1546C
:108D2000E3690133E36103B030BD022584F82150CB
:108D30004B79E2696FF300034B7120460621FFF780
:108D40003BFFA3682169DD705A7942F001025A7134
:108D500091B9DA7CD2B28DF807209DF807201A79F4
:108D600042F010021A711A7942F008021A711A7947
:108D700061F304121A71A4E7A269E168DB7C501C5C
:108D8000A0618B54E3690133E3619AE7006000401E
:108D90003407002038B5EFF30383103B5BB2244A5D
:108DA000C03352F823106FF3104142F82310EFF351
:108DB0000383103B5BB21F4A52F8234094F82030E3
:108DC00093B194F8213003F0FF0263B9A3692169DC
:108DD00099420ED0E269E068A168C05C88740133F2
:108DE0000132C4E9063238BD05212046FFF702FFF3
:108DF000E7E723680E4993F90E3003F1C000002B1A
:108E000051F8205062F3104541F8205009DB5A090F
:108E1000094803F01F030121603201FA03F340F80F
:108E20002230A268D37943F04003D37138BD00BF2C
:108E3000006000403407002000E100E038B5EFF3A7
:108E40000383103B204A5BB252F82340A1680B79A0
:108E50005807C3F3800217D5CA796FF38612C0236F
:108E6000CA7101E0013B02D0CA795206FAD4EFF38D
:108E70000383103B5BB2154AC03352F823106FF3E3
:108E8000104142F8231038BD022584F821504B7957
:108E900062F300034B71E26907212046FFF78CFE65
:108EA000A168CD704B7943F001034B7194F82130E8
:108EB000002BD1D1A369E269E0680132C05C8874FB
:108EC0000133C4E90632C7E73407002000600040E0
:108ED00010B582B0EFF30383103B3E4A5BB252F809
:108EE000230083685A7A91074DD1D1B211F00C0F4B
:108EF0003CD0012280F8242090F82120012A65D05E
:108F0000016982699142C26988BF02F1FF324FF064
:108F1000030188BFC2614FF0000EA024DC7180F80D
:108F200020E080F822E093F805C06EF3000C83F88F
:108F300005C090F82440002C43D1DF241C709F24EE
:108F40001C7000240223C46180F82130FFF734FE36
:108F5000EFF30383103B5BB21F4AC03352F8231078
:108F60006FF3104142F8231002B010BDCA06EFD5CE
:108F7000DA7CD2B28DF807209DF80720DA7902F06A
:108F8000EF02DA71E4E70022A02180F82420D971F1
:108F900080F8202080F82220597962F3000159716D
:108FA00090F8241081B9DF219F2219701A700021D6
:108FB0000223C26980F82130C1610121FFF7FCFD65
:108FC000C6E783F809E0BCE75A72F0E7C2690221FC
:108FD000A1E700BF340700200060004030B5836B7C
:108FE00083B004460A466D46A3B193E8030085E8C2
:108FF0000300E16B1A71626B196018469047A36B0E
:109000001BB195E8030083E80300002384F82B30AC
:1090100003B030BD2B46ECE7036902682DE9F04F41
:109020001F241C705F241C70DF241C70546A556858
:109030002279564EDFF8608142F0E0021A74E2783D
:1090400042F0E0025A74A278120102F0700242F07B
:1090500008029A7022786478012A0CBF0522042243
:1090600042EA4402D2B2DA70494A95420CBFF72272
:1090700077225A710027B3229F71DA7191F911207A
:1090800091F80DC0B4184FEA0C1C5FFA8CFC84F800
:1090900000C302F1C00548F822003E4C4FEA521EC0
:1090A00054F825904FEA8E0E67F310490EF1604E8A
:1090B00044F825900EF5614E012502F01F0205FAD5
:1090C00002F2CEF88021CEF8002091F90F2006EBB5
:1090D000020E02F1C0098EF800C348F822004FEAE0
:1090E000521E4FEA8E0E54F829B00EF1604E0EF566
:1090F000614E02F01F0205FA02F267F3104B44F8CA
:1091000029B0CEF88021CEF8002091F9102006EB8E
:10911000020E02F1C0098EF800C348F822004FEA9F
:10912000521E54F829B04FEA8E0E0EF1604E0EF525
:10913000614E02F01F0267F3104B44F829B005FAA4
:1091400002F2CEF88021CEF8002091F90E100E44E4
:109150004A0986F800C348F8210001F1C00001F077
:109160001F018D4054F82010920002F1604267F315
:10917000104144F8201002F561424FF09F0AC2F8F6
:109180008051156083F800A0BDE8F08F00E100E099
:1091900040420F00006000403407002010B483B04C
:1091A000EFF30383103B5BB2484AC03352F82310FD
:1091B0006FF3104142F82310EFF30383103B444A4E
:1091C0005BB252F8233093F82D20BAB99A69022A7B
:1091D0001A699EBF117941F040011171D9690129C5
:1091E00017D0D27CD2B28DF8072001219DF807203C
:1091F00083F82D1003B05DF8044B7047DA69002A3C
:10920000F8D0032A0ED0022A4ED0012A21D01969A3
:109210000DE0117941F010011171117941F008014F
:109220001171DEE719690A7942F040020A711A6A7F
:109230005869C97C8154D3E907210131013AC3E956
:109240000721002AD6D119690B7962F386130B71B5
:10925000D0E793F82A1089B319681E4C91F90F10C2
:109260004809203001F01F0102FA01F144F82010F2
:10927000BFF34F8FBFF36F8F1969C87940F080003B
:10928000C871087940F01000087108794FF0040C9B
:109290006FF3C300087181F801C048796FF30000D3
:1092A000487183F82C20C2E719690A7942F010024C
:1092B0000A710A7942F008020A71B8E719694A7A14
:1092C000082002F0F7024A724870B0E700600040E0
:1092D0003407002000E100E0EFF30383103B5BB2B2
:1092E000354AC03352F823106FF3104142F823106F
:1092F000EFF30383103B5BB2304A52F8232092F81D
:109300002730002B37D192F829309BBBD36910B49A
:10931000002B42D11069C1796FF3C711C023C1710D
:1093200001E0013B02D0C179C909FAD11368224A90
:1093300093F9103003F1C001002B52F821406FF374
:10934000104442F8214009DB5A091D4C03F01F0369
:109350000121603201FA03F344F82230C3795DF849
:10936000044B43F04003C3717047022909D192F8BE
:10937000300030B9704792F82610032992F828106F
:10938000F3D0106992F824C080F812C00131013B7B
:1093900082F8281082F827307047D2E90404116A55
:1093A000013B645C84740131C2E90731002BB2D007
:1093B0005DF8044B704700BF006000403407002098
:1093C00000E100E010B4EFF30383103B2B4A5BB2E3
:1093D00052F8233093F829201AB193F82720012A54
:1093E00047D0DA69D2B11969CA796FF38612C023FE
:1093F000CA7101E0013B02D0CA795206FAD4EFF3F8
:109400000383103B5BB21E4AC03352F823106FF344
:10941000104142F823105DF8044B704793F82A106E
:10942000F9B11968174C91F90F10480920304FF025
:10943000010C01F01F010CFA01F144F82010BFF3F8
:109440004F8FBFF36F8F1969C87940F08000C871E2
:1094500004204870487962F30000487183F82CC0FA
:10946000C2E719694B7A082203F0F7034B724A707E
:10947000BAE793F83020002AB3D1B4E734070020CC
:109480000060004000E100E038B5EFF30383103BDB
:109490004B4A5BB2E02152F8234023695A7A597251
:1094A000D506D0B202F003011FD55A78520648D42F
:1094B000E269012184F82B10002A5ED00025216882
:1094C000DD712046FFF7A8FD94F82610A2692369F4
:1094D000E56184F82810226284F82C50B322DA71F6
:1094E00001212046FFF77AFD12E00029E0D10107B3
:1094F0001BD594F82B20002A48D194F82910B322C8
:10950000002914BF02210321DA712046FFF766FD0E
:10951000EFF30383103B5BB22A4AC03352F82310A7
:109520006FF3104142F8231038BD94F82C20002A24
:10953000EED04207ECD594F82B200121002AE4D18B
:10954000DBE70029B4D15A785506C2F38011CED595
:1095500084F82B105A7A216802F0F702496A5A728D
:10956000082058700A78012A0CBF03220222DA7000
:109570005A7942F001025A71CAE794F82C20002A65
:109580009CD194F82B20002AA8D097E7E2696AB111
:10959000002294F82600A169E26184F82800216283
:1095A00084F82C20B322DA710121AEE794F82C2044
:1095B000002AEDD194F82B20002AF3D0E8E700BF71
:1095C000340700200060004010B582B0EFF3038440
:1095D000103C164B164964B253F8242050790B5CAA
:1095E00003F00303032B0FD0C03451F824306FF382
:1095F000104341F82430936823B1D268CDE90020AC
:109600006846984702B010BD936823B1D268CDE98F
:10961000002068469847064BC03453F824206FF367
:10962000104243F8242002B010BD00BF34070020D0
:10963000006000400346D3E90223002053607047D6
:10964000D0E90123D26930B4D2E9011444F00044D6
:10965000D0685C61D2E9045440F0004041F0004120
:109660009861196100205D629C6230BC704700BF48
:10967000002800DA704710B400F16043114C03F584
:1096800061430901C9B283F8001344F820200E4950
:1096900000F1C00200F01F0C400951F82240800088
:1096A00000F1604000F561406FF31044012341F880
:1096B000224003FA0CF3C0F880315DF8044B0360DC
:1096C000704700BF340700200060004070B5836918
:1096D00084B004468C46164601AD9BB193E8070062
:1096E00085E8070083F804C0E2691A609E601846A6
:1096F00062699047A3691BB195E8070083E80700FA
:1097000004B070BD2B46EDE790F800C0486EBCF188
:10971000030F98BF01300AB1824227D310B4019CD5
:10972000496BE40754BF01F01F01C1F30441BCF1D0
:10973000030F09D9090981F0010172B9E9B90222BF
:109740005DF8044B5A60704701F00C01A1F104016F
:10975000B1FA81F14909002AF0D0824201D30029EF
:10976000EDD103225DF8044B5A607047BCF1030F42
:1097700098BF02F1FF321A6070470028DFD0F0E78F
:109780002DE9F0470B7C0D46012101FA03F2C2607E
:10979000920716BF002201740274D5E9052103F572
:1097A000800303F5F0631B0242610022EE6945600D
:1097B000C0E9062184B004468360EFF310800123E2
:1097C00083F31088854B297C0229D3F8081134BF14
:1097D0006FF020076FF040073940C3F80811D3F845
:1097E000083180F31088A3686F684FF42541196031
:1097F000DA62DA639A642A78297A032A4FEAC15135
:1098000007F1FF3C00F0D58084BF41EA0241BC462D
:10981000D6E9068ED9624FF00041196100205961E6
:1098200099614FF0FF315862039098620291C3F83A
:109830001C80C3F820E0D6F82C80C3F868C0C3F8B9
:1098400064C0002A40F0A0807908013902914046A6
:1098500001224FF0030C5965996500285DD095F8F9
:1098600000E0B76A002F71D0B97897F80390090625
:1098700041EA097197F8049041EA09419963B9688E
:10988000C3F88C10002965D0012148B997F81C90C5
:1098900097F81BA04FEA496949EA4A2948EA0908AA
:1098A000C3F8881040B996F8211096F820004907AF
:1098B00041EA403148EA01084FF4AA01BEF1010F24
:1098C000196402D10021D9641965E168D960C3F82F
:1098D0003480C3F830C01A63697C95F912002246BF
:1098E000FFF7C6FE96F8221096F924002246FFF7ED
:1098F000BFFE96F8231096F925002246FFF7B8FE22
:109900002FB1397897F901002246FFF7B1FE344BA9
:109910002360002004B0BDE8F0873178F9B995F8EC
:1099200000E0B17800299CD0F778BEF1020F4FEA31
:10993000071141EA87113FD04BD903273943B76A52
:1099400048EA014848F08078002F8DD19F63C3F822
:109950008870A7E7F968003918BF012195E795F8E5
:1099600000E07178BEF1020F4FEA81194FEA01174A
:1099700024D029D9032148EA010848EA090848EA1D
:10998000070848F48078CCE7012A19D000901946DE
:10999000EA68606802ABFFF7B7FEDDE90210020477
:1099A00042EA006242F0030CA368F06A42F001024E
:1099B00051E741F480312BE70927BFE70921DAE7B6
:1099C00040464FF0030C46E7002914BF0921062149
:1099D000D1E7002F14BF09270627AFE7006F044027
:1099E0005450470030B4436893F91220DB69002AD1
:1099F00011DB51092E4D02F01F0C2031012404FA15
:109A00000CF445F82140BFF34F8FBFF36F8F294906
:109A1000002441F8224093F92420002A11DB510947
:109A2000234D02F01F0C2031012404FA0CF445F8F8
:109A30002140BFF34F8FBFF36F8F1E49002441F8C1
:109A4000224093F92520002A11DB5109184D02F01C
:109A50001F0C2031012404FA0CF445F82140BFF317
:109A60004F8FBFF36F8F1349002441F822409B6A48
:109A7000A3B193F90130002B10DB03F01F045A0946
:109A80000121A14020320A4C44F82210BFF34F8F2D
:109A9000BFF36F8F074A002142F823108268C16824
:109AA0000023036030BC184691605363704700BFC9
:109AB00000E100E03407002030B4EFF30383103BF3
:109AC0005BB2184A184C03F1C00152F821006FF341
:109AD000104042F8210054F82300446894F800C074
