:10400000007F002031E40000D9E200002DE4000030
:104010002DE400002DE400002DE400002DE400005C
:104020000000000000000000000000002DE400007F
:104030002DE40000000000002DE400002DE400004D
:104040000000000000000000000000000000000070
:104050000000000000000000000000000000000060
:104060000000000000000000000000000000000050
:104070000000000000000000000000000000000040
:104080000000000000000000000000000000000030
:104090000000000000000000000000000000000020
:1040A0000000000000000000000000000000000010
:1040B0000000000000000000000000000000000000
:1040C00010B5054C237833B9044B13B10448AFF352
:1040D00000800123237010BDB80200200000000002
:1040E00030AB010008B5034B1BB103490348AFF3E4
:1040F000008008BD00000000BC02002030AB0100C1
:1041000010B5094C04F124000CF0DAFA04F118009F
:104110000CF0D6FA04F10C000CF0D2FA2046BDE8FF
:1041200010400CF0CDBA00BF2003002070B504464B
:10413000064B44F8043B0B1D05460E460FCB84E8A6
:104140000F00337D2B75284670BD00BFBC9E01005B
:1041500030B593B02349244C244D6846FFF7E6FF61
:10416000234906A8FFF7E2FF22490CA8FFF7DEFF6C
:104170000CAB06AA6946204804F06AFF2268296849
:104180001D4805F05BF8072806D01C491C480CF0B8
:10419000E3F9002013B030BD4FF4FA600DF0A6F93A
:1041A000184917480CF0D8F9174915480CF0B5F91B
:1041B000296813480CF0D0F9144911480CF0ADF9F6
:1041C0000D490CA804F07CFF0CA90D480CF0CEF9A9
:1041D0000F490B480CF0A1F9216809480CF0BCF913
:1041E0000120D7E708030020480000204C000020F1
:1041F000F0020020D80200208C070020AD800100D2
:10420000C00B0020CC800100F0800100D1930100A0
:10421000F78001002DE9F0431C4CDFF88090DFF8B7
:10422000808089B0012600252B462A462946009524
:1042300002A804F8246C0BF0E5FF03AB0FCBA4F14C
:104240001C0787E80F009DF81C3004F80C3C494619
:10425000204604F8085C04F8075C44F8045C013666
:104260000CF0FFFA04F10C0041460CF0FAFA0D2EA6
:10427000A56104F14004D6D1054B064906481D70DE
:104280000CF06AF909B0BDE8F08300BFE403002038
:10429000C0060020C7820100C00B0020B8810100C9
:1042A000BF82010038B51F4D0DF064F92B7804462C
:1042B0007BB16B6840F6B732C31A934209D901212A
:1042C00005200CF0F3FF0023174918482B700CF061
:1042D00043F9174D2B787BB16B6840F6B732E31A80
:1042E000934209D9012106200CF0E0FF0023114977
:1042F0000E482B700CF030F90F4D2B788BB16B689A
:10430000E41A40F6B7339C420BD9012107200CF088
:10431000CDFF00232B7009490448BDE838400CF05C
:104320001BB938BDA8030020DA7F0100C00B0020B4
:10433000B0030020FE7F0100B803002022800100AE
:104340001FB50146044613480CF06CFA124B0122CB
:104350001A70124B00221A600DF00CF9104B114923
:10436000186001A80CF0F7F9214601A80CF0DCFA5E
:1043700001460D480CF0E6F801A80CF0A1F90B4934
:1043800020460CF0EAFA18B1094902480CF069FA23
:1043900004B010BD8C030020980300209C03002073
:1043A000A0030020EB750100C00B0020FE7501008A
:1043B0000376010008B5064B0649074800221A702B
:1043C0000CF04FFA05490648BDE808400CF0C4B8A7
:1043D00098030020AC7501008C030020B17501002A
:1043E000C00B002030B591B004464649464D01A8A7
:1043F0000CF0B1F945490AA80CF0ADF9444B0A227A
:10440000196807A80CF0E9F907A90AA80CF08CFABA
:1044100029460CF095FA014601A80CF064FA07A8A9
:104420000CF04EF90AA80CF04BF93A4901A80CF02F
:104430006BFA39490AA80CF08EF90A220C2107A858
:104440000CF0B9F907A90AA80CF06EFA29460CF08D
:1044500077FA014601A80CF046FA07A80CF030F9EB
:104460000AA80CF02DF92D490AA80CF074F92C4B70
:104470000A22196807A80CF09EF907A90AA80CF0EF
:1044800053FA014601A80CF02EFA07A80CF018F90F
:104490000AA80CF015F9234901A80CF035FA2249B5
:1044A00020460CF059F8214920460CF055F82049D7
:1044B00020460CF051F820460CF03EF801A92046A9
:1044C0000CF040F81B4907A80CF045F92368214679
:1044D000DB6B0AA898470AA904A80BF0F5FE04A90B
:1044E00007A80CF021FA014613480CF02BF804A899
:1044F0000CF0E6F807A80CF0E3F801A80CF0E0F8DF
:1045000011B030BD249201005986010038860100A7
:10451000000000204A8601005B8601006A860100D7
:1045200044000020139401007A8601008A8601006D
:10453000A9860100BB860100C00B0020F0B587B042
:104540000D4604464A4903A80CF005F903A928467C
:104550000CF048FA064603A80CF0B2F806364549B6
:1045600003A80CF0F8F8324603A928460CF028FA04
:10457000074603A80CF0A4F87A1C0FD13E4903A803
:104580000CF0E9F8324603A928460CF019FA074660
:1045900003A80CF095F87B1C08BFAF6832463B4679
:1045A000294603A80CF022FA03A80CF074FA064678
:1045B00003A80CF085F8A6F57A724EF278639A4259
:1045C00046D82E4D2E492E6020460BF0C5FF2D49B2
:1045D00020460BF0C1FF2C4920460BF0BDFF2046C2
:1045E0000BF0AAFF294903A80CF0B5F80A222968A4
:1045F00068460CF0F2F8694603A80CF095F92449D6
:104600000CF09EF9014620460BF09CFF68460CF02A
:1046100057F803A80CF054F81E4903A80CF09BF8B7
:104620000A22296868460CF0D8F8694603A80CF0FD
:104630007BF919490CF084F9014618480BF082FF08
:1046400068460CF03DF803A80CF03AF807B0F0BD4E
:10465000134920460BF080FF0B4920460BF07CFFEE
:1046600020460BF069FF0F4920460BF075FFEDE780
:104670007E7D010077850100269301000000002067
:104680007A8601008A860100A9860100289301002C
:10469000139401004493010063930100C00B0020B8
:1046A00079930100929301002DE9F04792B00D46F5
:1046B00004469B490CA80CF04EF80CA928460CF0B7
:1046C00091F906460CA80BF0FBFF033695490CA8A0
:1046D0000CF041F832460CA928460CF071F9074657
:1046E0000CA80BF0EDFF781C0FD18F490CA80CF033
:1046F00032F80CA9324628460CF062F907460CA89D
:104700000BF0DEFF791C08BFAF683B4632462946F6
:104710000CA80CF06BF90CA80CF0BDF907460CA81E
:104720000BF0CEFF814968460CF015F880490CA8C3
:104730000CF011F80CA928460CF054F900F1080807
:104740000CA80BF0BDFFB8F1080F2BDD76490CA8C3
:104750000CF001F842460CA928460CF031F9064647
:104760000CA80BF0ADFF721C0FD16E490CA80BF01A
:10477000F2FF42460CA928460CF022F906460CA886
:104780000BF09EFF731C08BFAE68334642462946B5
:104790000CA80CF02BF90CA968460CF05CF80CA8DE
:1047A0000BF08EFF7D1E0B2D00F2AA802368614E58
:1047B000DB6B21460CA898470DAB0FCBAD0106EB88
:1047C000050808F1080C8CE80F009DF8443088F8C3
:1047D0001830012388F81C300CF0CCFEC8F82000FB
:1047E00005F12400544930440CF03BF805F1300049
:1047F000304469460CF016F8B146504E4FF00008B0
:1048000009F1040A3378434513DD4FEA881519F896
:104810000530BB420AD1236821460CA8DB6B9847C0
:104820000CA90AEB05000BF01CFE30B908F10108D9
:10483000E8E70B2B9CBF01333370414906A80BF00E
:104840008AFF0A22394603A80BF0B5FF03A906A880
:104850000CF06AF83B490CF073F823680546DB6BF3
:1048600021460CA898470CA909A80BF02DFD09A911
:1048700028460CF059F834490CF062F869460CF0FF
:1048800053F832490CF05CF8014631480BF05AFEFF
:1048900009A80BF015FF03A80BF012FF06A80BF0F8
:1048A0000FFF2C4920460BF057FE2B4920460BF0FA
:1048B00053FE2A4920460BF04FFE20460BF03CFEEB
:1048C00027490CA80BF047FF0A22394609A80BF02C
:1048D00072FF09A90CA80CF027F822490CF030F857
:1048E000014620460BF02EFE09A80BF0E9FE0CA8AD
:1048F0000BF0E6FE68460BF0E3FE12B0BDE8F08771
:10490000194920460BF028FE144920460BF024FEDE
:1049100020460BF011FE154920460BF01DFEE9E77D
:10492000B29301007785010026930100BF82010048
:10493000B6930100C003002094840100C00600204B
:104940004E840100BF930100D6930100B8780100A6
:10495000C00B00207A8601008A860100A98601002A
:10496000DA9301001394010079930100F793010099
:104970002DE9FF410C460546914901A80BF0EBFEDD
:1049800001A920460CF02EF8064601A80BF098FE6F
:1049900003368C4901A80BF0DEFE324601A9204601
:1049A0000CF00EF8074601A80BF08AFE781C0FD118
:1049B000854901A80BF0CFFE01A9324620460BF035
:1049C000FFFF074601A80BF07BFE791C08BFA76814
:1049D00032463B46214601A80CF008F801A80CF02D
:1049E0005AF8064601A80BF06BFE784901A80BF0B7
:1049F000B2FE01A920460BF0F5FF00F1060801A860
:104A00000BF05EFEB8F1060F06F1FF3631DD6D49A1
:104A100001A80BF0A0FE424601A920460BF0D0FFF2
:104A2000074601A80BF04CFE7A1C0FD1664901A87D
:104A30000BF091FE424601A920460BF0C1FF07464C
:104A400001A80BF03DFE7B1C08BFA7683B46424611
:104A5000214601A80BF0CAFF5D4901A80BF07DFFBC
:104A60000B2E9EBF5B4B03EB8613587701A80BF010
:104A700027FE594901A80BF06EFE01A920460BF054
:104A8000B1FF00F1110801A80BF01AFEB8F1110FE7
:104A900031DD4C4901A80BF05EFE424601A92046DB
:104AA0000BF08EFF074601A80BF00AFE781C0FD111
:104AB000454901A80BF04FFE01A9424620460BF0E4
:104AC0007FFF074601A80BF0FBFD791C08BFA76814
:104AD0003B464246214601A80BF088FF01A80BF097
:104AE000DAFF074601A80BF0EBFD0B2E9EBF394BFA
:104AF00003EB8613DF63394901A80BF02CFE01A9F3
:104B000020460BF06FFF00F10D0801A80BF0D8FD57
:104B1000B8F10D0F27DD2B4901A80BF01CFE424612
:104B200001A920460BF04CFF074601A80BF0C8FD79
:104B30007A1C0FD1244901A80BF00DFE424601A9B1
:104B400020460BF03DFF074601A80BF0B9FD7B1C8A
:104B500008BFA76801A83B46424621460BF046FF26
:104B600001A80BF0ADFD0B2E1DD80CF003FD194B69
:104B70001B4903EB861601233377306228460BF07E
:104B8000EBFC184928460BF0E7FC174928460BF0C8
:104B9000E3FC28460BF0D0FC144928460BF0DCFC63
:104BA00004B0BDE8F081124928460BF0D5FC0E494F
:104BB00028460BF0D1FC28460BF0BEFC0D49ECE773
:104BC000B293010026930100778501006C7D0100FE
:104BD000E17B0100C0030020737D0100857D0100A1
:104BE0007A8601008A860100A9860100937D010072
:104BF00079930100F79301002DE9F0476D496E4D5F
:104C00006E4EDFF8E881DFF8E8A186B004460BF0CD
:104C1000A2FD00276A49DFF8DC9120460BF074FE04
:104C2000684903A80BF097FD0A2215F8041C684692
:104C30000BF0B0FD694603A80BF076FE31460BF091
:104C40007FFE014620460BF04EFE68460BF038FD15
:104C500003A80BF035FD5C4903A80BF07CFD294649
:104C600068460BF031FB694603A80BF05DFE414638
:104C70000BF066FE014620460BF035FE68460BF051
:104C80001FFD03A80BF01CFD504903A80BF063FDAA
:104C9000297E684600290CBF514649460BF05BFD52
:104CA000694603A80BF040FE31460BF049FE014671
:104CB00020460BF018FE68460BF002FD03A80BF02F
:104CC000FFFC434903A80BF046FD697E68460029B6
:104CD0000CBF514649460BF03EFD694603A80BF058
:104CE00023FE31460BF02CFE014620460BF0FBFD67
:104CF00068460BF0E5FC03A80BF0E2FC354903A87D
:104D00000BF029FD05F12C0103A80BF00DFE414627
:104D10000BF016FE014620460BF0E5FD03A80BF054
:104D2000CFFC2D4903A80BF016FD0A22A96B68469B
:104D30000BF053FD694603A80BF0F6FD31460BF06E
:104D4000FFFD014620460BF0CEFD68460BF0B8FC97
:104D500003A80BF0B5FC214903A80BF0FCFC0A22C8
:104D6000E96968460BF039FD694603A80BF0DCFDE4
:104D70001B490BF0E5FD014620460BF0B4FD6846EB
:104D80000BF09EFC03A80BF09BFC01371549204655
:104D90000BF0BAFD0C2F07D1134920460BF0B4FDE0
:104DA000204606B0BDE8F087314620460BF0ACFD4A
:104DB00040352FE7E7850100C40300205986010034
:104DC00024920100F1930100F4850100FB850100AC
:104DD000018701000586010011860100248601007B
:104DE000A882010013940100358601005886010055
:104DF000E1850100DC8501001FB5044601A8FFF72D
:104E0000FBFE0C4920460BF0A7FB0B4920460BF09C
:104E1000A3FB0A4920460BF09FFB20460BF08CFBBE
:104E200001A920460BF08EFB01A80BF049FC04B051
:104E300010BD00BF7A8601008A860100A9860100A4
:104E40002DE9F04387B00CF095FB204A136842F23D
:104E50000F71C31A8B42064635D91D4C1D4FDFF822
:104E60008080DFF880901060002514F8083C013540
:104E70002BB354F8043CF31ABB4220D9002341461B
:104E8000204604F8083C0BF0ECFC494603A80BF064
:104E900062FC0A22294668460BF08DFC694603A88D
:104EA0000BF042FD0C490BF04BFD01460B480BF09B
:104EB00049FB68460BF004FC03A80BF001FC0C2D29
:104EC00004F14004D1D107B0BDE8F083A403002071
:104ED000E4030020C0D401000E930100C00B0020A9
:104EE000069301004E8401000023054A1846D1189C
:104EF000097F01B101304033B3F5407FF7D17047EE
:104F0000C00300202DE9F047C149C24DDFF8DC9312
:104F1000DFF8DC83C04F8CB004460BF01CFCBF49AB
:104F200020460BF0F1FCBE4920460BF0EDFCBD49DC
:104F300020460BF0E9FCBC4920460BF0E5FCBB49E0
:104F400020460BF0E1FCBA4920460BF0DDFCB949E4
:104F500020460BF0D9FCB84920460BF0D5FCB749E8
:104F600020460BF0D1FCB64920460BF0CDFCB549EC
:104F700020460BF0C9FCB44920460BF0C5FCB349F0
:104F800020460BF0C1FCB24920460BF0BDFCB149F4
:104F900020460BF0B9FCB04920460BF0B5FCAF49F8
:104FA00020460BF0B1FCAE4920460BF0ADFCAD49FC
:104FB00020460BF0A9FCAC4920460BF0A5FCAB4900
:104FC00020460BF0A1FCAA4920460BF09DFCA94904
:104FD00009A80BF0C0FB0A22296806A80BF0FDFB0C
:104FE00006A909A80BF0A0FCA3490BF0A9FC0146F7
:104FF00020460BF078FC06A80BF062FB09A80BF02A
:105000005FFB9E4909A80BF0A6FB28680EF0B2FDD5
:1050100000229B4B0EF052FF41EC100B022106A820
:105020000BF029FC06A909A80BF07EFC95490BF0B2
:1050300087FC014620460BF056FC06A80BF040FB0F
:1050400009A80BF03DFB904920460BF05DFC72492E
:1050500020460BF059FC8D4920460BF055FC8C493D
:1050600009A80BF078FB28680EF084FD844B002221
:105070000EF024FF41EC100B022106A80BF0FBFB05
:1050800006A909A80BF050FC82490BF059FC014617
:1050900020460BF028FC06A80BF012FB09A80BF029
:1050A0000FFB7D4920460BF02FFC7C4920460BF07E
:1050B0002BFC594920460BF027FC794920460BF080
:1050C00023FC784920460BF01FFC774906A80BF01B
:1050D00042FBFFF709FF0A22014603A80BF06BFB16
:1050E00003A906A80BF020FC70490BF029FC0A224A
:1050F00005460C2109A80BF05EFB09A928460BF018
:1051000013FC6B496B4D0BF01BFC014620460BF06A
:10511000EAFB09A80BF0D4FA03A80BF0D1FA06A811
:105120000BF0CEFA644909A80BF015FB634909A8F6
:105130000BF0FAFB5E490BF003FC014620460BF036
:10514000D2FB09A80BF0BCFA5D4909A80BF003FBE0
:105150005C4B5D4A19785D4B06A8002914BF1146C7
:1051600019460BF0F8FA06A909A80BF0DDFB504927
:105170000BF0E6FB014620460BF0B5FB06A80BF052
:105180009FFA09A80BF09CFA234920460BF0BCFBC0
:105190004F4920460BF0B8FB4E4920460BF0B4FBBC
:1051A0000026494668460BF0D6FA4B4B297F6846E5
:1051B000002914BF414619460BF0A6FB6B7F1BB1BB
:1051C000464968460BF0A0FB454906A80BF0C3FA18
:1051D000694606A80BF0A8FB42490BF0B1FB01366B
:1051E0000A228246314609A80BF0E5FA09A9504681
:1051F0000BF09AFB3C490BF0A3FB014620460BF059
:1052000072FB09A80BF05CFA06A80BF059FA71E0E2
:105210002687010000000020228F01004287010044
:1052200062870100A7870100AF870100E6870100C0
:1052300067880100F08801001F8901004F89010083
:105240007789010090890100018A0100228A01000A
:105250006B8A0100D08A0100198B0100548B010078
:105260006A8B0100828B0100AC8B0100C18B0100B5
:10527000EC8B01000F8C0100DE8E01005F8C0100C1
:1052800000408F40648C01006F8C0100A78C0100EE
:10529000BA8C0100168D0100248D0100758D01006E
:1052A000D78D0100EC8D0100088E0100967F010072
:1052B000A28C0100C00300202E8E01008C03002070
:1052C000528E0100880300200A8701001387010025
:1052D000798E0100958E0100B8810100B38E010026
:1052E000B78E0100C48E0100DD8E0100AB8E01007F
:1052F000948401006F4909A80BF02DFA0A22314667
:1053000006A80BF058FA06A909A80BF00DFB3946C0
:105310000BF016FB014620460BF0E5FA06A80BF051
:10532000CFF909A80BF0CCF9634B644A297F03A895
:10533000002914BF114619460BF00DFA604909A85F
:105340000BF009FA03A909A80BF0EEFA39460BF0A5
:10535000F7FA014620460BF0C6FA09A80BF0B0F99F
:105360002B7FFBB1EB6BEBB1564909A80BF0F3F9BE
:105370004FF47A730A22E96BB1FBF3F106A80BF044
:105380002CFA06A909A80BF0CFFA4F490BF0D8FA6E
:10539000014620460BF0A7FA06A80BF091F909A8E0
:1053A0000BF08EF9394620460BF0AEFA03A80BF04D
:1053B00087F968460BF084F90C2E05F140057FF45F
:1053C000F0AE424920460BF09FFA414920460BF0CF
:1053D0009BFA404920460BF097FA3F4920460BF0D4
:1053E00093FA3E4920460BF08FFA3D4920460BF0D8
:1053F0008BFA3C4920460BF087FA3B4920460BF0DC
:1054000083FA3A4920460BF07FFA394920460BF0DF
:105410007BFA334920460BF077FA364920460BF0E9
:1054200073FA354920460BF06FFA284920460BF0F5
:105430006BFA264920460BF067FA304920460BF0FC
:1054400063FA2F4920460BF05FFA2E4920460BF0F5
:105450005BFA2D4920460BF057FA2C4920460BF0F9
:1054600053FA2B4920460BF04FFA274920460BF000
:105470004BFA284920460BF047FA274920460BF003
:1054800043FA264920460BF03FFA1F4920460BF00D
:105490003BFA234920460BF037FA224920460BF00D
:1054A00033FA214920460BF02FFA20460CB0BDE814
:1054B000F08700BFE18E0100228701001F870100F5
:1054C000E78E0100048F0100218F0100228F01006F
:1054D000298F0100408F01005C8F01009B8F01002C
:1054E000708D0100DC8F01001590010057900100C4
:1054F00094900100D4900100139101005691010095
:105500005F9101007A91010013940100B5910100AF
:10551000D09101000E9201002692010061920100DB
:10552000A4920100CD920100D792010010B5654907
:1055300086B004460BF00FF9634903A80BF00BF992
:10554000624B634A1978634B6846002914BF1146C1
:1055500019460BF000F9694603A80BF0E5F95E491E
:105560000BF0EEF9014620460BF0BDF968460BF052
:10557000A7F803A80BF0A4F8584903A80BF0EBF820
:10558000574903A80BF0D0F953490BF0D9F901465C
:1055900020460BF0A8F903A80BF092F8514903A894
:1055A0000BF0D9F8504B514A1978514B68460029F5
:1055B00014BF114619460BF0CEF8694603A80BF04C
:1055C000B3F94C490BF0BCF9014620460BF08BF9BE
:1055D00068460BF075F803A80BF072F8464903A86B
:1055E0000BF0B9F8FFF780FC0A22014668460BF081
:1055F000E2F8694603A80BF097F93E490BF0A0F9D1
:10560000014620460BF06FF968460BF059F803A8E5
:105610000BF056F8394903A80BF09DF80A220C212B
:1056200068460BF0C8F8694603A80BF07DF93149CC
:105630000BF086F9014620460BF055F968460BF051
:105640003FF803A80BF03CF82D4903A80BF083F8B2
:105650002C4B0A22196868460BF0BFF8694603A86C
:105660000BF062F923490BF06BF9014620460BF071
:105670003AF968460BF024F803A80BF021F8224908
:1056800003A80BF068F80BF075FF0A220146684684
:105690000BF0A3F8694603A80BF046F91B490BF081
:1056A0004FF9014620460BF01EF968460BF008F84A
:1056B00003A80BF005F8164920460BF025F9204603
:1056C00006B010BD2492010052830100980300200F
:1056D000458301004D83010058860100638301006A
:1056E0008C0300207583010088030020DC85010005
:1056F000E185010059860100818301009283010048
:10570000A283010000000020B2830100A8820100F2
:10571000139401001FB5044601A8FFF707FF0C49C9
:1057200020460AF019FF0B4920460AF015FF0A49E6
:1057300020460AF011FF20460AF0FEFE01A920468D
:105740000AF000FF01A80AF0BBFF04B010BD00BFC3
:105750007A8601008A860100A9860100F8B50E4FFD
:105760000E4E051F0123002455F8042F62B11BB90A
:10577000394630460AF0D1FE0A22296830460AF03E
:105780003FFF01340023EFE72CB905490348BDE88A
:10579000F8400AF0C2BEF8BDA37D0100C00B002096
:1057A000A67D010030B5714971488DB00AF0D4FE74
:1057B000704906A80AF0CFFF6F4B03A819680AF0DA
:1057C000CAFF03A906A80BF0AFF8014668480AF023
:1057D000B9FE03A80AF074FF06A80AF071FF674932
:1057E00003A80AF0B8FF06A8654903F069FC06A9FA
:1057F00068460AF069FD694603A80BF095F8014672
:105800005B480AF09FFE68460AF05AFF03A80AF0B8
:1058100057FF5C4903A80AF09EFFFFF765FB0A22C9
:10582000014668460AF0C7FF694603A80BF07CF8FA
:1058300055490BF085F80A2204460C2106A80AF007
:10584000BAFF06A920460BF06FF8014648484F4CB6
:105850000AF078FE06A80AF033FF68460AF030FF27
:1058600003A80AF02DFF4A4906A80AF074FF494927
:1058700006A80BF059F801463D480AF063FE06A859
:105880000AF01EFF444906A80AF065FF434B444A4C
:105890001978444B03A8002914BF114619460AF091
:1058A0005AFF03A906A80BF03FF8014630480AF05A
:1058B00049FE03A80AF004FF06A80AF001FF3A49CE
:1058C00003A80AF048FF0A22216868460AF085FF0B
:1058D000694603A80BF028F834490BF031F8054667
:1058E00020680EF047F9324B00220EF0E7FA41EC47
:1058F000100B022106A80AF0BEFF06A928460BF0ED
:1059000013F82C490BF01CF8014619480AF01AFE4E
:1059100006A80AF0D5FE68460AF0D2FE03A80AF0EF
:10592000CFFE254906A80AF016FF0BF023FE0A2237
:105930004FF47A71B0FBF1F103A80AF04EFF03A90E
:1059400006A80AF0F1FF1D490AF0FAFF01460848CF
:105950000AF0F8FD03A80AF0B3FE06A80AF0B0FEAC
:10596000174903480AF0F8FD0DB030BDEB82010085
:10597000C00B0020078301004C000020D1930100E0
:105980008C070020B2850100967F010000000020F6
:10599000198301008C030020298301008803002063
:1059A0001F87010022870100C99401005F8C01005C
:1059B00000408F40648C01003C830100917E010017
:1059C000AA7F01002DE9F0477B497C487C4CDFF839
:1059D0003092DFF830A2794E8AB00AF0BDFD002582
:1059E0002F46A846494607A801350AF0B4FE0A2208
:1059F000294604A80AF0DFFE04A907A80AF094FFCC
:105A000051460AF09DFF014630460AF081FD04A888
:105A10000AF056FE07A80AF053FE14F8143C002BB7
:105A200000F0C48014F8133C08F1010803B10137F9
:105A3000644907A80AF08FFEA4F12C0104A80AF01B
:105A400043FC04A907A80AF06FFF5F490AF078FF3A
:105A5000014630460AF05CFD04A80AF031FE07A8B2
:105A60000AF02EFE594B5A4A14F8131C30460029EE
:105A70000CBF114619460AF050FD564907A80AF016
:105A80006AFE214607A80AF04FFF014630460AF099
:105A90003FFD07A80AF014FE4F4907A80AF05BFE75
:105AA0000A22E16804A80AF098FE04A907A80AF0EF
:105AB0003BFF4A490AF044FF014630460AF028FD00
:105AC00004A80AF0FDFD07A80AF0FAFD444907A85A
:105AD0000AF041FE0BF04EFD54F8101C4FF47A739F
:105AE0000A22411A04A8B1FBF3F10AF076FE04A9D8
:105AF00007A80AF019FF3B490AF022FF0146304689
:105B00000AF020FD04A80AF0DBFD07A80AF0D8FD82
:105B10000C2D04F140047FF465AF334927480AF0A7
:105B20001BFD324904A80AF016FE0A22414601A8CC
:105B30000AF041FE01A904A80AF0F6FE2C490AF079
:105B4000FFFE0A220446294607A80AF034FE07A9E8
:105B500020460AF0E9FE014618480AF0F3FC07A8BF
:105B60000AF0AEFD01A80AF0ABFD04A80AF0A8FDFA
:105B7000204907A80AF0EFFD0A22394604A80AF0D6
:105B80001AFE04A907A80AF0CFFE01460B480AF046
:105B9000D9FC04A80AF094FD07A80AF091FD164963
:105BA00006480AF0D9FC0AB0BDE8F0871349304630
:105BB0000AF0D2FCACE700BF51850100C00B002009
:105BC000F00300206D850100768501004685010007
:105BD0004B850100798501007C85010084850100E9
:105BE00087850100C8A50100A6850100B0850100D8
:105BF000967F0100C4850100AB7F01009E850100F6
:105C00004E840100D7960100F0B5564C564D5749C9
:105C1000574F8BB020460AF09FFC564904A80AF063
:105C20009AFD0A22296801A80AF0D7FD01A904A853
:105C30000AF07AFE50490AF083FE064628680DF005
:105C400099FF00224D4B0EF039F941EC100B022167
:105C500007A80AF010FE07A930460AF065FE484979
:105C6000484E0AF06DFE014620460AF06BFC07A87C
:105C70000AF026FD01A80AF023FD04A80AF020FD81
:105C8000414907A80AF067FD404B0A22196804A899
:105C90000AF091FD04A907A80AF046FE31460AF071
:105CA0004FFE014620460AF04DFC04A80AF008FD0C
:105CB00007A80AF005FD364907A80AF04CFD0A229C
:105CC0003C2104A80AF077FD04A907A80AF02CFEDD
:105CD00039460AF035FE014620460AF033FC04A896
:105CE0000AF0EEFC07A80AF0EBFC2A4907A80AF024
:105CF00032FD0A22782104A80AF05DFD04A907A854
:105D00000AF012FE39460AF01BFE014620460AF050
:105D100019FC04A80AF0D4FC07A80AF0D1FC1E491B
:105D200007A80AF018FD29680A2201F5FA7104A8EB
:105D30000AF053FD04A907A80AF0F6FD31460AF05F
:105D4000FFFD014620460AF0FDFB04A80AF0B8FC5E
:105D500007A80AF0B5FC114920460AF0FDFB0BB07C
:105D6000F0BD00BFC00B002000000020D88401005F
:105D7000917E0100C99401005F8C010000408F40BA
:105D8000648C010084850100F78401004400002038
:105D9000068501001B8501002C850100A87F0100FC
:105DA000F0B5B74CB749B84FB84EB94D8DB0204695
:105DB0000AF0D2FBB74906A80AF0CDFCB64B03A8FF
:105DC00019680AF0C8FC03A906A80AF0ADFD01464F
:105DD00020460AF0B7FB03A80AF072FC06A80AF0F6
:105DE0006FFCAE4906A80AF0B6FCAD4B03A81968D3
:105DF0000AF0B1FC03A906A80AF096FD0146204668
:105E00000AF0A0FB03A80AF05BFC06A80AF058FC05
:105E1000A44903A80AF09FFC394606A803F050F9EC
:105E200006A968460AF050FA694603A80AF07CFD04
:105E3000014620460AF086FB68460AF041FC03A8AA
:105E40000AF03EFC984920460AF086FB9749204616
:105E50000AF082FB964906A80AF07DFC0C210A2272
:105E60000DEB01000AF0A7FC03A906A80AF05CFDEF
:105E7000014620460AF066FB03A80AF021FC06A8AA
:105E80000AF01EFC8B4920460AF066FB8A4906A8E8
:105E90000AF061FC0A22022103A80AF08CFC03A983
:105EA00006A80AF041FD31460AF04AFD01462046A7
:105EB0000AF02EFB03A80AF003FC06A80AF000FC77
:105EC0007E48FFF74BFC294606A80AF044FC0A224C
:105ED000052103A80AF06FFC03A906A80AF024FD17
:105EE000014620460AF02EFB03A80AF0E9FB06A8AB
:105EF0000AF0E6FB724906A80AF02DFC0A220321EB
:105F000003A80AF058FC03A906A80AF00DFD3146C3
:105F10000AF016FD014620460AF0FAFA03A80AF034
:105F2000CFFB06A80AF0CCFB6648FFF717FC294612
:105F300006A80AF010FC0A22062103A80AF03BFC7E
:105F400003A906A80AF0F0FC014620460AF0FAFA76
:105F500003A80AF0B5FB06A80AF0B2FB5A4906A846
:105F60000AF0F9FB0A22042103A80AF024FC03A981
:105F700006A80AF0D9FC31460AF0E2FC01462046A8
:105F80000AF0C6FA03A80AF09BFB06A80AF098FBE1
:105F90004E48FFF7E3FB294606A80AF0DCFB0A227D
:105FA000072103A80AF007FC03A906A80AF0BCFC15
:105FB000014620460AF0C6FA03A80AF081FB06A8AB
:105FC0000AF07EFB424920460AF0C6FA41492046C3
:105FD0000AF0C2FA404920460AF0BEFA3F4920467C
:105FE0000AF0BAFA3E4920460AF0B6FA3D49204680
:105FF0000AF0B2FA3C4906A80AF0ADFB3B4B186820
:106000000DF0B8FD00223A4B0DF058FF41EC100B9B
:10601000022103A80AF02FFC03A906A80AF084FCB9
:1060200034490AF08DFC014620460AF08BFA03A899
:106030000AF046FB06A80AF043FB2F4903A80AF022
:106040008AFB394606A803F03BF806A968460AF021
:106050003BF9694603A80AF067FC28490AF070FC7E
:10606000014620460AF06EFA68460AF029FB03A8AA
:106070000AF026FB224920460AF06EFA0DB0F0BD68
:10608000C00B0020B07D01008C0700204F7A01007A
:10609000367E0100F08001004C000020F7800100F6
:1060A00048000020D27D0100DF7D0100EE7D01006F
:1060B000FF7D0100127E0100257E01001894010081
:1060C000447E010020940100557E010028940100C7
:1060D000667E0100797E01009B7E0100C47E010086
:1060E000E97E01001D7F0100417F010000000020CA
:1060F00000408F40597F0100727F0100987F0100AE
:10610000A57F0100F0B59F4C9F49A04DA04FA14E27
:1061100087B020460AF020FA9F4920460AF01CFA70
:106120009E4920460AF018FA9D4920460AF014FAC2
:106130009C4920460AF010FA9B4920460AF00CFAC6
:106140009A4920460AF008FA994920460AF004FACA
:10615000984920460AF000FA974920460AF0FCF9CF
:10616000964920460AF0F8F9954920460AF0F4F9D4
:10617000944920460AF0F0F9934920460AF0ECF9D8
:10618000924920460AF0E8F9914920460AF0E4F9DC
:10619000904920460AF0E0F98F4920460AF0DCF9E0
:1061A0008E4920460AF0D8F9294620460AF0D4F94B
:1061B0008B4920460AF0D0F98A4920460AF0CCF9EA
:1061C000894920460AF0C8F9884920460AF0C4F9EE
:1061D000294620460AF0C0F9854920460AF0BCF954
:1061E000844903A80AF0B7FA0A22022168460AF095
:1061F000E2FA694603A80AF097FB39460AF0A0FBC9
:10620000014620460AF084F968460AF059FA03A8C4
:106210000AF056FA7848FFF7A1FA314603A80AF0C7
:106220009AFA0A22052168460AF0C5FA694603A8C7
:106230000AF07AFB014620460AF084F968460AF023
:106240003FFA03A80AF03CFA6C4903A80AF083FA63
:106250000A22032168460AF0AEFA694603A80AF04A
:1062600063FB39460AF06CFB014620460AF050F900
:1062700068460AF025FA03A80AF022FA6048FFF7F8
:106280006DFA314603A80AF066FA0A22062168462A
:106290000AF091FA694603A80AF046FB0146204637
:1062A0000AF050F968460AF00BFA03A80AF008FA57
:1062B000544903A80AF04FFA0A22042168460AF05A
:1062C0007AFA694603A80AF02FFB39460AF038FB30
:1062D000014620460AF01CF968460AF0F1F903A8C5
:1062E0000AF0EEF94848FFF739FA314603A80AF0F8
:1062F00032FA0A22072168460AF05DFA694603A8C5
:106300000AF012FB014620460AF01CF968460AF022
:10631000D7F903A80AF0D4F9294620460AF01CF957
:106320003A4920460AF018F9394903A80AF013FA45
:10633000384B18680DF01EFC0022374B0DF0BEFDE7
:1063400041EC100B022168460AF095FA694603A851
:106350000AF0EAFA31490AF0F3FA014620460AF057
:10636000F1F868460AF0ACF903A80AF0A9F92C493B
:1063700020460AF0F1F82B4920460AF0EDF807B064
:10638000F0BD00BFC00B0020A9760100A88201006B
:106390004E7A0100367E0100C7760100D7760100F3
:1063A0000177010029770100527701007977010018
:1063B000A0770100C4770100E477010005780100AF
:1063C0002E7801005A78010083780100BA78010024
:1063D000DD780100007901002E790100507901007B
:1063E000737901009D790100D2790100077A0100DB
:1063F0003C7A0100CB95010018940100FC95010046
:10640000209401000D960100289401005E7A01009D
:106410006E7A01000000002000408F40917E010054
:10642000A67A0100A77F010010B5094C0949204652
:106430000AF092F8FDF7EEFEFDF7BCFF064B0749A8
:1064400000222046BDE810401A700AF085B800BF4F
:10645000C00B0020C175010088030020D875010021
:10646000F7B5012400940423A822C0211A481B4E2A
:106470001B4D09F0C7FE00940423A822C02119482F
:1064800009F0C0FE0024FF2319461A46009416485E
:1064900009F0B8FE5021154803F0E2FB41F6907177
:1064A000134803F0DDFB06F12007301909F0A2FEC6
:1064B000294638190AF04FF90E482946204440343D
:1064C0000AF049F9B4F5407FEFD10B490B4803B00E
:1064D000BDE8F0400AF03FB908030020C4030020E3
:1064E000A8820100F0020020D8020020C40600208B
:1064F00058030020F0030020AC7501008C0300203D
:1065000038B50F480F4C0AF0DBF8A4F54075403C55
:1065100004F130000AF0D4F804F124000AF0D0F8B5
:10652000AC42F4D10848094C40F8104B02F086FF09
:10653000074840F8104BBDE8384002F07FBF00BF6D
:106540008C030020C006002058030020849B01001B
:10655000C406002030B54FF4E1318BB0BE48BF4CCB
:1065600009F07AF84FF47A700AF0C0FFBC49BA48D3
:1065700009F0F2FFBB49B84809F0EEFFBA49B64846
:1065800009F0EAFFB94904A80AF0E5F80A222168EF
:1065900001A80AF022F901A904A80AF0C5F9B44932
:1065A0000AF0CEF9054620680DF0E4FA0022B14B5E
:1065B0000DF084FC41EC100B022107A80AF05BF9F6
:1065C00007A928460AF0B0F9AB490AF0B9F9014623
:1065D000A14809F0B7FF07A80AF072F801A80AF06D
:1065E0006FF804A80AF06CF8A4499B4809F0B4FFBE
:1065F000A349994809F0B0FF022108460AF03EFE7F
:10660000022103200AF03AFE022104200AF036FE9D
:10661000012105200AF032FE012106200AF02EFE9B
:10662000012107200AF02AFE012105200AF03EFE82
:10663000012106200AF03AFE012107200AF036FE69
:106640009049854809F088FF8F4907A80AF083F828
:106650008E4904A80AF07FF804A907A80AF064F993
:1066600001467D4809F06EFF04A80AF029F807A842
:106670000AF026F8864907A80AF06DF8854904A8AB
:106680000AF069F804A907A80AF04EF90146724811
:1066900009F058FF04A80AF013F807A80AF010F848
:1066A0007D4907A80AF057F87C4904A80AF053F876
:1066B00004A907A80AF038F90146674809F042FF23
:1066C00004A809F0FDFF07A809F0FAFF02200AF06C
:1066D000F9FD734B003018BF01200024187058706A
:1066E0000320DC601C740AF0EDFD6E4B001B18BF2C
:1066F0000120187058700420DC601C740AF0E2FD60
:10670000694B6A49DC60001B18BF01201870587083
:1067100051481C7409F020FF654907A80AF01BF8CE
:106720000A22022104A80AF046F804A907A80AF0E0
:10673000FBF860490AF004F90146474809F0E8FE11
:1067400004A809F0BDFF07A809F0BAFF5A48FFF7EF
:1067500005F85A4907A809F0FEFF0A22052104A8F6
:106760000AF029F804A907A80AF0DEF854490AF04B
:10677000E7F80146384809F0E5FE04A809F0A0FF53
:1067800007A809F09DFF4F4907A809F0E4FF0A2276
:10679000032104A80AF00FF804A907A80AF0C4F816
:1067A00044490AF0CDF801462B4809F0B1FE04A88F
:1067B00009F086FF07A809F083FF4348FEF7CEFFE4
:1067C0003E4907A809F0C7FF0A22062104A809F0DC
:1067D000F2FF04A907A80AF0A7F839490AF0B0F8AF
:1067E00001461D4809F0AEFE04A809F069FF07A89C
:1067F00009F066FF354907A809F0ADFF0A22042118
:1068000004A809F0D8FF04A907A80AF08DF82949BF
:106810000AF096F80146104809F07AFE04A809F03B
:106820004FFF07A809F04CFF2948FEF797FF2349BF
:1068300007A809F090FF0A22072104A809F0BBFF6E
:1068400004A907A80AF070F81D490AF079F8014672
:10685000014809F077FE3DE0C00B00200000002059
:1068600038940100629401009C940100C5940100D9
:106870005F8C010000408F40648C0100DA940100BD
:10688000159501004B9501006B950100779501006E
:10689000819501009095010094950100A495010057
:1068A000080000201C00002030000020A9950100F5
:1068B000C9950100DA95010018940100EB950100DB
:1068C000B8780100FA950100209401000B960100B0
:1068D0002894010004A809F0F3FE07A809F0F0FECF
:1068E0001049114809F038FEFDF794FCFDF730FC23
:1068F00040B90E490C4809F02FFE4FF47A700AF0A7
:10690000F5FDFAE70A4803F06FFA0A4803F06CFA5B
:106910000949054809F020FEFFF742FAFFF7F2FBAC
:106920000BB030BD1C960100C00B00206296010028
:10693000C4060020580300208D9601002DE9F04385
:10694000431E0B2B95B005460F461BD974490CA866
:1069500009F001FF0A22294606A809F02CFF06A922
:106960000CA809F0E1FF01466E4809F0EBFD06A80E
:1069700009F0A6FE0CA809F0A3FE0026304615B0CB
:10698000BDE8F083684C4FEA831804EB0802167FD9
:10699000D6B966490CA809F0DEFE0A22294606A8E7
:1069A00009F009FF06A90CA809F0BEFF604909F02B
:1069B000C7FF01465B4809F0C5FD06A809F080FE47
:1069C0000CA809F07DFED9E781B9022B0ED85949F0
:1069D0000CA809F0C0FE0A22294606A809F0EBFE21
:1069E00006A90CA809F0A0FF5349E0E70CA803F0A2
:1069F000ABF808F104054FF4FA710CA809F032FE67
:106A000025444E4906A809F0A6FE294603A809F028
:106A10005BFC03A906A809F087FF494909F090FF2C
:106A20000146404809F08EFD03A809F049FE06A87A
:106A300009F046FE294606A8FDF778FB502206A974
:106A40000CA802F056FC814680B93E49354809F051
:106A500083FD3D49334809F07FFD3C49314809F049
:106A60007BFD4E460CA802F0E9FC87E738496846F2
:106A700009F071FE374B38496846002F18BF194698
:106A800009F042FF3549684609F03EFF344906A83F
:106A900009F061FE294603A809F016FC03A906A81F
:106AA00009F042FF2F4909F04BFF0146684609F003
:106AB0001AFF03A809F004FE06A809F001FE2A49FE
:106AC000684609F021FF69460CA809F021FD4444FD
:106AD00032200AF00BFD0CA802F018FF677723495B
:106AE00006A809F038FE224B224903A8002F18BF40
:106AF000194609F030FE03A906A809F015FF1E4942
:106B000009F01EFF0146074809F01CFD03A809F023
:106B1000D7FD06A809F0D4FD684609F0D1FDA1E72C
:106B200092810100C00B0020C0030020AA81010057
:106B3000B7810100C0810100D0810100F081010016
:106B40000582010009820100318201005D8201009D
:106B50007B820100898101008D810100808201001A
:106B60008C820100A682010093820100A9820100AB
:106B70001F87010022870100B68201002DE9F04F36
:106B8000C0B20C468FB0984617460AF09BFB23789C
:106B90008342054602D00AF0EDFC60600AF0EAFC90
:106BA0002B1C18BF012302936368C01A322840F2DD
:106BB0004D816378AB4200F049819DF808306370E5
:106BC000002D40F0538194F81090B9F1000F40F07F
:106BD0004D819DF860B04FF0010A2946584684F86F
:106BE00008A00AF063FB88F800A00AF0C3FCB149D2
:106BF000C8F804000BA809F0AEFD0A22199908A8EC
:106C000009F0D9FD08A90BA809F08EFEAA4909F0E0
:106C100097FE0146A94809F095FC08A809F050FD27
:106C20000BA809F04DFD0AF0A5FCA54BE668196814
:106C30000393861B01F5FA739E42009001935AD28A
:106C4000A04908A809F087FD0A22199905A809F0AA
:106C5000B2FD05A908A809F067FE9B4909F070FE7E
:106C6000019B0A229E1B04464FF47A710BA8B6FBC7
:106C7000F1F109F0B2FD0BA9204609F055FE934948
:106C800009F05EFE01468D4809F05CFC0BA809F096
:106C900017FD05A809F014FD08A809F011FD8C499D
:106CA0000BA809F058FD039B18680CF063FF002245
:106CB000884B0DF003F941EC100B022108A809F0F4
:106CC000DAFD08A90BA809F02FFE834909F038FE68
:106CD00001467A4809F036FC08A809F0F1FC0BA837
:106CE00009F0EEFC514658460AF0E0FA88F80050E8
:106CF0000FB0BDE8F08F7949794E0BA809F02BFD54
:106D00000A22199908A809F056FD08A90BA809F04C
:106D10000BFE744909F014FE0146684809F0F8FBBF
:106D200008A809F0CDFC0BA809F0CAFC3846FEF70C
:106D300015FD6D49614809F00FFC84F810A0009B17
:106D4000DFF8C0A1E360043F57F8045F002D55D081
:106D5000664B03EB851313F8243C002B3DD0012137
:106D60002846FFF7EBFD0390F8B161490BA809F045
:106D7000F2FC0A22294608A809F01DFD08A90BA863
:106D800009F0D2FD4C4909F0DBFD01464B4809F002
:106D9000D9FB08A809F094FC0BA809F091FC039B0F
:106DA000994632200AF0A2FBCEE752490BA809F01F
:106DB000D2FC29460A2208A809F0FDFC08A90BA864
:106DC00009F0B2FD01463D4809F0BCFB08A809F0F6
:106DD00077FC0BA809F074FCE3E751460BA809F017
:106DE000BAFC0A22294608A809F0E5FC08A90BA864
:106DF00009F09AFD314609F0A3FDE3E7B9F1000F70
:106E000028D03D490BA809F0A6FC2D4B18680CF0C2
:106E1000B1FE00222F4B0DF051F841EC100B022176
:106E200008A809F028FD08A90BA809F07DFD334941
:106E300009F086FD0146214809F084FB08A809F005
:106E40003FFC0BA809F03CFC002323749DF808309C
:106E500023704DE7012158460AF028FADDE9003297
:106E6000A3EB520188F80090E160EDE7237A002B54
:106E7000ECD0002DEAD000232372237417490BA80D
:106E800009F069FC0A22199908A809F094FC08A9DC
:106E90000BA809F049FD1A4909F052FD01460748BF
:106EA00009F050FB08A809F00BFC0BA809F008FC3E
:106EB000CCE700BFBC83010052820100C00B002060
:106EC00000000020C6830100D2830100DD830100A1
:106ED000E483010000408F40AA7B0100168401007A
:106EE0008A84010023840100A8820100C0030020DD
:106EF00048840100578401009B840100917E0100B9
:106F0000CE8401007884010007B505230122CDE974
:106F100000320E490E4B0F4A0220FFF72FFE0623C8
:106F20000221CDE900310C4A0C4B0D490320FFF73B
:106F300025FE07230320CDE900300A4A0A4B0B49FE
:106F40000420FFF71BFE03B05DF804FB08000020DF
:106F5000A80300201894010020940100B003002031
:106F60001C00002028940100B803002030000020FD
:106F70002DE9F04700F1FF3ABAF10B0F94B08046CB
:106F8000894608D99349944809F0E6FA0024204636
:106F900014B0BDE8F087914D4FEA8A1A05EB0A0359
:106FA0001C7FD4B98E490CA809F0D5FB0A224146B2
:106FB00006A809F000FC06A90CA809F0B5FC89494F
:106FC00009F0BEFC0146844809F0BCFA06A809F0A5
:106FD00077FB0CA809F074FBD9E70CA80AF10406AA
:106FE00002F0B2FD2E444FF47A710CA809F03AFB7E
:106FF000314606A8FDF79AF8502206A90CA802F01F
:1070000078F90746002800F0CB807749684609F0F8
:10701000A2FB764B76496846B9F1000F18BF1946B6
:1070200009F072FC7349684609F06EFC69460CA8C9
:1070300009F088FA704906A809F08DFB314603A8CB
:1070400009F042F903A906A809F06EFC01460CA854
:1070500009F078FA03A809F033FB06A809F030FB21
:1070600066490CA809F078FA0CA809F065FA0AF04C
:1070700081FA00F57A760CA802F0C4FA38B90AF061
:1070800079FAB04203D20A200AF030FAF3E70CA8EA
:1070900002F0B8FAA0B10CA903A809F0E5FA584922
:1070A00006A809F058FB06A903A809F09BFC441C9C
:1070B00006A818BF012409F003FB03A809F000FB90
:1070C0000CA802F023FC002C52D05544444985F80A
:1070D0001D9006A809F03FFB0A22414603A809F0CB
:1070E0006AFB03A906A809F01FFC464909F028FC21
:1070F000454B4649B9F1000F18BF194609F020FC6D
:107100000146354809F01EFA03A809F0D9FA06A885
:1071100009F0D6FAB9F1000F23D03D4906A809F0CD
:107120001AFB3C4B18680CF025FD00223A4B0CF082
:10713000C5FE41EC100B022103A809F09CFB03A93A
:1071400006A809F0F1FB354909F0FAFB014622488F
:1071500009F0F8F903A809F0B3FA06A809F0B0FAA3
:107160004C46684609F0ACFA0CA802F067F90EE745
:107170002B4906A809F0EFFA0A22414603A809F0B4
:107180001AFB03A906A809F0CFFB0146124809F033
:10719000D9F903A809F094FA06A809F091FAE0E7F2
:1071A000204906A809F0D7FA0A22414603A809F0A7
:1071B00002FB03A906A809F0B7FB0146064809F03F
:1071C000C1F903A809F07CFA06A809F079FA3C464F
:1071D000CAE700BF10760100C00B0020C0030020EA
:1071E0004E8401008A8401007B82010089810100B4
:1071F0008D8101002D7601008C820100A98601009D
:107200008386010077850100538201000876010022
:10721000377601000000002000408F40917E010081
:107220006D76010089760100F0B52E4B2E492F4F67
:10723000002818BF194687B005462D4809F08CF97B
:107240000024264607EB841301341B7F43B12946F3
:107250002046FFF78DFE00B1013664200AF046F9A2
:107260000C2CEFD1234903A809F075FA0A22314604
:10727000684609F0A0FA694603A809F055FB1E49C3
:1072800009F05EFB01461A4809F05CF9684609F00E
:1072900017FA03A809F014FA15B3184903A809F05E
:1072A0005AFA174B18680CF065FC0022154B0CF0CD
:1072B00005FE41EC100B0221684609F0DCFA694634
:1072C00003A809F031FB104909F03AFB01460848D0
:1072D00009F038F9684609F0F3F903A809F0F0F964
:1072E00007B0F0BD0281010021810100C003002030
:1072F000C00B00203D810100727701005381010025
:107300000000002000408F40917E010070B5134EB8
:1073100000243546A301F2180134127F32B1334400
:107320005B7F1BB100212046FFF722FE0C2CF1D120
:107330000B4C32200AF0DAF820680B2807DC05EB4A
:1073400080152B7F1BB101210844FFF711FE236834
:1073500001330B2BC8BF0023236070BDC003002086
:107360009C0300202DE9F0411E4D00242F46A3016F
:10737000EA180134127F32B12B445B7F1BB100212C
:107380002046FFF7F5FD0C2CF1D13220DFF85C80B0
:107390000AF0ACF800264546D8F80000331893FBF5
:1073A000F4F004FB103007EB80131B7F1BB10121AD
:1073B0000844FFF7DDFD0136032EEDD10A4A2B68A4
:1073C000117851B101330B2B02DC2B60BDE8F08149
:1073D0000B232B6000231370F8E7013BF5D52960E0
:1073E0000123F8E7C0030020040000209C030020D4
:1073F000F8B50C4C0C4F2168C94301F0010600257B
:1074000007EB851301351B7F1BB131462846FFF77B
:10741000AFFD0C2DF4D123680133092BC8BF002325
:107420002360F8BD9C030020C003002038B50A4D3E
:10743000002405EB841301341B7F4BB10221002093
:1074400008F0EAFB431E594259412046FFF790FDE0
:107450000C2CEED138BD00BFC00300201FB5394C45
:107460002378BFF35B8FDB0719D420460CF012FAA8
:10747000A8B13549354809F06EF93549354809F064
:107480006AF93549354809F066F93549354809F052
:1074900062F920460CF00AFA33480AF010F8334C2F
:1074A0000AF068F82368C01A47F23053984226D988
:1074B0002F4930480B6801335A4202F0030203F0AF
:1074C000030358BF5342214A0B600C2101FB0321E7
:1074D00009F0A8F90AF04EF8274B2060002227494E
:1074E0001A6001A809F037F9224901A809F01CFA2D
:1074F0000146234809F026F801A809F0E1F81249ED
:107500001C4809F02AFA18B1FFF700FF04B010BDBB
:107510000F49184809F021FA10B1FFF723FFF5E7EA
:107520000D49144809F019FA10B1FFF761FFEDE7B2
:107530000B49104809F011FA0028E7D0FFF776FF51
:10754000E4E700BFD40200200376010020030020FE
:107550003A7D01002C030020407D0100380300200B
:10756000467D01004403002001410000500300203B
:10757000540300208C0300209C0300204D7D01005B
:10758000C00B002008B51E4B1B78002B36D009F02D
:10759000F1FF1C4A1C4913680968C31A8B422DD39A
:1075A00010601A491A4809F0D8F918B1BDE8084026
:1075B000FFF7ACBE1749164809F0CFF918B1BDE87E
:1075C0000840FFF7CFBE1449114809F0C6F918B1B9
:1075D000BDE80840FFF70CBF10490D4809F0BDF9A0
:1075E00018B1BDE80840FFF721BF0D49084809F070
:1075F000B4F918B1BDE80840FFF730BF08BD00BFBF
:1076000098030020A003002044000020037601001E
:107610008C0300203A7D0100407D0100467D010081
:10762000FE750100F0B58DB00D460446534909A81A
:1076300009F091F809A9284609F0D4F9064609A8E5
:1076400009F03EF803364E4909A809F084F832469D
:1076500009A9284609F0B4F9074609A809F030F845
:107660007A1C0FD1474909A809F075F8324609A9D3
:10767000284609F0A5F9074609A809F021F87B1C5E
:1076800008BFAF6832463B46294609A809F0AEF963
:1076900009A809F000FA064609A809F011F8721EB7
:1076A0000B2A5BD8384B03EB821330465D7F85F0A5
:1076B00001052946FFF75CFC34490746204608F0DF
:1076C0004BFF3349204608F047FF3249204608F077
:1076D00043FF204608F030FF2F4903A809F03BF88C
:1076E0002E4B2F496846002F18BF194609F033F872
:1076F000694603A809F018F92A4909F021F90A2274
:107700003146074606A809F056F806A9384609F09A
:107710000BF9254909F014F9244B25490646002D9B
:1077200018BF194609A809F016F809A9304609F04A
:10773000FBF8204909F004F90146204608F002FF51
:1077400009A808F0BDFF06A808F0BAFF684608F0CF
:10775000B7FF03A808F0B4FF0DB0F0BD16492046EE
:1077600008F0FAFE0B49204608F0F6FE204608F025
:10777000E3FE1249204608F0EFFEEDE7B293010068
:107780007785010026930100C00300207A8601005E
:107790008A860100A9860100E8860100D89E0100C2
:1077A0005AA20100F486010000870100DC85010077
:1077B000E18501001394010079930100F793010022
:1077C0002DE9F0474949DFF84C81DFF84C91DFF8AB
:1077D0004CA186B00546464808F09FFE2846FDF7B6
:1077E000BDFF4449424808F0B7FE043D002655F865
:1077F000044F002C53D008EB841313F8243C002BC7
:107800003CD001212046FFF7B3FB0746F0B13A49CF
:1078100003A808F0A0FF0A222146684608F0CBFF23
:10782000694603A809F080F8344909F089F801464F
:107830002F4808F087FE684608F042FF03A808F0CA
:107840003FFF3E46322009F051FED0E72C4903A805
:1078500008F081FF21460A22684608F0ACFF69461D
:1078600003A809F061F80146214808F06BFE68465C
:1078700008F026FF03A808F023FFE3E7494603A822
:1078800008F069FF0A222146684608F094FF69461D
:1078900003A809F049F8514609F052F8E3E716B396
:1078A000184903A808F057FF174B18680CF062F945
:1078B0000022164B0CF002FB41EC100B0221684633
:1078C00008F0D9FF694603A809F02EF8104909F01D
:1078D00037F80146064808F035FE684608F0F0FE25
:1078E00003A808F0EDFE06B0BDE8F0873384010080
:1078F000C00B0020A88201004884010052820100D0
:10790000578401009B8401000000002000408F404C
:10791000917E0100C0030020788401008A84010068
:1079200070B58AB00446A64907A808F014FF21469E
:1079300007A808F0F9FF0146A24808F003FE07A8CF
:1079400008F0BEFEA04907A808F005FF07A92046D9
:1079500009F02DF8054607A808F0B2FED5B1A368D6
:107960002146032207A809F041F807A809F093F877
:10797000044607A808F0A4FE631E0B2B05D80121BE
:107980002046FFF7F5FA0AB070BD90498D4808F01F
:10799000E3FDF8E78E4907A808F0DDFE07A92046B9
:1079A00009F005F8064607A808F08AFE8EB1A3681C
:1079B0002146042207A809F019F807A809F06BF876
:1079C000044607A808F07CFE631E0B2BDDD8294671
:1079D000D6E7804907A808F0BEFE07A9204608F0B0
:1079E000E6FF054607A808F06BFE002D4AD0A36805
:1079F0000922214607A808F0F9FF07A809F04BF86B
:107A0000054607A808F05CFEA5F57A724EF2786389
:107A10009A4235D8704C7149256004A808F09BFE45
:107A20000A22216801A808F0D8FE01A904A808F0DC
:107A30007BFF6B4908F084FF054620680CF09AF83C
:107A40000022684B0CF03AFA41EC100B022107A817
:107A500008F011FF07A9284608F066FF624908F000
:107A60006FFF0146574808F06DFD07A808F028FE93
:107A700001A808F025FE04A808F022FE5B4985E76E
:107A80005B4983E75B49204608F067FF38B15A49F4
:107A90004C4808F061FD5948FFF792FE73E75849DA
:107AA000204608F05AFF28B15649464808F054FDD0
:107AB0005548F1E75549204608F04FFF28B1544991
:107AC000404808F049FD5348E6E75349204608F08E
:107AD00044FF054618B10120FFF7A6FB53E74F49C5
:107AE000204608F03AFF28B12846FFF79DFBFCF737
:107AF00061FC48E74A49204608F02FFF50B1484949
:107B000007A808F028FE07A8FCF71AFC07A808F049
:107B1000D7FD38E74349204608F01FFF08B1414927
:107B2000EEE74149204608F018FF08B13E49E7E773
:107B30003E49204608F011FF08B13C49E0E73C49C6
:107B4000204608F00AFF054670B13A4B3A49012237
:107B500007A81A7008F0FFFD07A8FCF7F1FB07A8BB
:107B600008F0AEFD354911E73549204608F0F5FE2D
:107B700028B1304B1D70FCF71DFC324906E7324935
:107B8000204608F0EAFE10B1FDF70CFEFBE62F4997
:107B9000204608F0E2FE10B1FDF714FFF3E62C4991
:107BA000204608F0DAFE10B1FEF72EF8EBE6294980
:107BB000204608F0D2FE00284ED0FEF735FCE2E663
:107BC000ED7A0100C00B002001820100007B010062
:107BD0001F7B0100247B0100000000202E7B0100A0
:107BE0005F8C010000408F40648C01004E7B0100DF
:107BF0008E7B0100AD7B0100BC7B0100189401006D
:107C0000E37B0100F27B010020940100197C01005C
:107C1000287C0100289401004F7C0100567C010063
:107C2000037601003A7D0100407D0100467D0100A0
:107C30005E7C010088030020FE750100667C010067
:107C4000807C0100897C010064800100708001005B
:107C50009E7F0100A67C01002449204608F07DFE9D
:107C600010B1FEF74FFA8EE6214907A808F073FD20
:107C700007A9204608F09BFE054607A808F020FD4E
:107C8000002D31D0A3680622214607A808F0AEFED9
:107C900007A808F000FF044607A808F011FDA4F1AA
:107CA000640241F224339A421CD8124B12491C60E0
:107CB00007A808F050FD0A22214604A808F07BFD21
:107CC00004A907A808F030FE0C4908F039FE014667
:107CD0000B4808F037FC04A808F0F2FC07A808F0ED
:107CE000EFFC50E6074951E607494FE6AC7C01003E
:107CF000B17C010044000020B87C010084850100B3
:107D0000C00B0020D97C0100FA7C01007FB50F4830
:107D100007F0E3FCB8B10A220C49684608F0B8FC49
:107D2000684608F08FFE684608F080FE694603A8A2
:107D300008F087FD03A8FFF7F3FD03A808F0C0FCD7
:107D4000684608F0BDFC07B05DF804FBC00B0020DE
:107D5000F0B587B00D460446324903A808F0FBFC95
:107D600003A9284608F03EFE064603A808F0A8FC32
:107D700004362D4903A808F0EEFC324603A9284634
:107D800008F01EFE074603A808F09AFC7A1C0FD1E3
:107D9000264903A808F0DFFC324603A9284608F06C
:107DA0000FFE074603A808F08BFC7B1C08BFAF68DA
:107DB0003B4632462946684608F018FE684608F0F9
:107DC00035FE694603A808F03CFD03A8FFF7A8FDAF
:107DD00003A808F075FC1649204608F0BDFB1549BC
:107DE000204608F0B9FB1449204608F0B5FB2046B0
:107DF00008F0A2FB114903A808F0ADFC694603A8EE
:107E000008F092FD0E4908F09BFD0146204608F05F
:107E100099FB03A808F054FC684608F051FC07B031
:107E2000F0BD00BFE69201007785010026930100B6
:107E30007A8601008A860100A9860100EB92010082
:107E40001294010010B58EB04D4906A801F01AFF3A
:107E50000A9B01334CD00D2206A9684608F018FC95
:107E600006A801F023FD474903A808F074FC03A904
:107E7000684608F0B7FD044603A808F021FC013469
:107E80000BD0694603A808F0DCFC03A906A8FFF79D
:107E9000C9FB03A808F014FC27E03B4903A808F03D
:107EA0005AFC03A9684608F09DFD044603A808F0A3
:107EB00007FC013408D0694603A808F0C2FC03A9F6
:107EC00006A8FFF745FFE4E7304903A808F043FCA4
:107ED00003A9684608F086FD044603A808F0F0FBF5
:107EE00001340AD006A8FDF715FC684608F0E8FB47
:107EF00006A801F0A3FA0EB010BD254903A808F0AA
:107F00002AFC03A9684608F06DFD044603A808F0A2
:107F1000D7FB013403D006A8FCF76EFFE5E71D4947
:107F200003A808F018FC03A9684608F05BFD0446A6
:107F300003A808F0C5FB013408D0694603A808F07F
:107F400080FC03A906A8FCF7F9FAA2E703A8FCF74E
:107F5000D9FF114906A808F0FFFA104906A808F051
:107F6000FBFA0F4906A808F0F7FA06A808F0E4FAA9
:107F700003A906A808F0E6FA06A801F0C7FC88E7FE
:107F8000C406002046800100528001005F8001008D
:107F90006B800100788001007A86010086800100F4
:107FA000A986010010B58EB02D4906A801F06AFE21
:107FB0000A9B013326D00D2206A9684608F068FB0B
:107FC00006A801F073FC274903A808F0C4FB03A925
:107FD000684608F007FD044603A808F071FB013469
:107FE00015D0694603A808F02CFC03A906A8FCF7E5
:107FF0005BFB03A808F064FB06A801F087FC684659
:1080000008F05EFB06A801F019FA0EB010BD164983
:1080100003A808F0A0FB03A9684608F0E3FC0446A7
:1080200003A808F04DFB013408D0694603A808F006
:1080300008FC03A906A8FCF79BFCDAE70B4903A898
:1080400008F089FB03A9684608F0CCFC044603A8A5
:1080500008F036FB0134CFD006A8FCF7C3F9CBE714
:1080600058030020C57F0100CF7F01009D7F0100E4
:1080700008B5FFF74BFEFEF747FFFCF713F9FFF7D4
:10808000E1FEFFF78FFFFCF7DBFEFFF77BFA0A202C
:10809000BDE8084009F02ABA08B50368002B02DAE7
:1080A00009480BF01AFC8B4208D949008B4205D2D3
:1080B0000029B6BF6FF00043016003600068BDE8AF
:1080C000084001300BF0F5BBD297010010B5044613
:1080D000406828B163781BB940F2AC410BF0D8FB83
:1080E000204610BD08B4F3B507AB044600F10C05FB
:1080F00053F8042B0193802128460DF05FFAD4F841
:108100009000A8B194F89430012B11D90F4908F0D0
:1081100004FAD4F89060336828465F680DF04EF991
:10812000294602463046B847D4F8900008F004FAD1
:10813000284664680DF042F929460246204607F0B9
:10814000A1FB02B0BDE8F04001B0704722970100EA
:10815000034653F8080B984201D00BF097BB7047C9
:10816000F8B50646456808460F460DF027F9A842BF
:10817000024628BF2A46044622B1394630680CF030
:10818000D7FA00B9281BF8BD012A30B404D191F9FF
:108190000030037030BC7047002AFBD030BC0CF0BC
:1081A000D6BAFFFF00F1080373B5044603600D461D
:1081B000D1B108460DF002F90F280646019006D904
:1081C000002101A8FFF768FF019B2060A3603246F1
:1081D00029462068FFF7D8FF019B226863600021D1
:1081E0002046D15402B070BD01480BF073FB00BFB4
:1081F000EA9701002DE9F347DDF82880164642682A
:108200009A46A8EB0603571A13440268019300F13B
:1082100008039A420D46044614BF81680F2101A845
:10822000FFF73AFFBF1B81461DB12A462168FFF7C1
:10823000ABFFBAF1000F08D0B8F1000F05D04246ED
:10824000514609EB0500FFF79FFF47B121682E4417
:1082500005EB08003A4631444844FFF795FF2046B5
:10826000FFF776FF019BC4F80090A36002B0BDE861
:10827000F087F7B50268466800F108039A4218BF14
:10828000836806F1010508BF0F239D4204460F468F
:1082900006D90123009300231A463146FFF7AAFFAF
:1082A00023689F552368656000225A5503B0F0BDCE
:1082B000012A30B404D191F90030037030BC70470A
:1082C000002AFBD030BC0CF04DBAFFFF2DE9F74F70
:1082D0008146144640680C9E02F10042013A121A8F
:1082E0009642984602D937480BF0F7FA4A46A6EB71
:1082F000040B52F8083B934218BFD9F808200BEB47
:10830000000A08BF0F22524552D35F189845A0EBD0
:108310000101A1EB040522D3034498451FD876BB85
:1083200095B1B44210D02A463919B819FFF7C0FFE9
:10833000B44209D23C4408EB06039C4227D33246A0
:1083400041463846FFF7B4FFD9F80030C9F804A019
:108350000022484603F80A2003B0BDE8F08F35B18B
:10836000B44204D02A463919B819FFF7A1FF002EEC
:10837000EAD0324641463846FFF706FFE4E7B4420A
:108380001DD3324641463846FFF792FFC8E74445C1
:1083900003D8324608EB0B01EDE7A4EB08042246B4
:1083A00041463846FFF784FF321BB9193819E3E715
:1083B0000096434622464846FFF71CFFC4E7002DBF
:1083C000B8D0B0E7B997010037B5044608460D4666
:1083D0000CF0F4FF2B460090626800212046FFF766
:1083E00075FF03B030BDFFFF2DE9F04F8FB00AAB32
:1083F00002910646089398490298002309938DF844
:1084000028309246FFF7ACFE031C0490D6F890008B
:1084100018BF0123069328B196F8943013B18F4901
:1084200008F07BF809F0A6F84FF000080123DFF808
:1084300054B205904746CDF80480CDF80C8099469B
:108440004446079309F096F8059BB268C01A90421B
:1084500000F21A81079B5BB170680268126990474D
:10846000079B0028EDD0706803685B69984745B2A8
:10847000D6F8900038B196F8943023B10A2D24D163
:10848000774908F04AF8D6F8900060B196F8943031
:10849000022B08D9734908F040F80A222146D6F881
:1084A000900008F0AFF8631E072B29D8DFE813F01F
:1084B0003A005C007E008A008D00B7002B01A2000C
:1084C000092C00F0E3800123BBE70D2D01D16649A3
:1084D000D7E7202D01D16549D3E71F2D0CDC644976
:1084E00008F01BF829460A22D6F8900008F0A3F8F5
:1084F0006049D6F89000C4E7294608F012F8C2E7B0
:108500002B2D05D1294608A8FFF7B3FE0124DAE791
:108510001BF90730AB4240F09C80DDF81880013732
:108520000824D0E73A2D294608A801D03D2D3AD19C
:10853000FFF79FFE049B8BB1029B099A5B689A42EE
:1085400006D15AB1029B089819680CF0F1F828B1CD
:10855000494908A8FFF738FF4FF00108464950463F
:10856000FFF732FF0224AEE77C2D0ED1DAF80000CF
:108570000CF039F80023CAF80430DAF80030039020
:108580004FF000021A7003249DE70D2D00F0B28019
:108590000A2D00F0B18096F88C3013B1202D00F038
:1085A000AD8029465046FFF764FE8CE729465046C9
:1085B000FFF75FFE019B039A01330193934208BFCB
:1085C000052480E70A2D08BF05242C495046FFF7F3
:1085D000C7FD60B12A495046FFF7C2FD002804BF1D
:1085E0004FF0010909244F2D2AD1012798E7814630
:1085F0000924F8E71BF907207B1C58460793AA4279
:1086000018BF07240CF0DAFE079B984270D107468A
:108610004FF00009B8F1000F19D1092436E01BF919
:1086200007207B1C58460793AA4218BF07240CF06A
:10863000C5FE079B98425BD107464FF00109E9E769
:10864000B8F1000F3FF43CAF092C7FF43CAF4FF082
:108650000008002437E700BF7397010080970100EE
:1086600086970100A19701008B9701009097010068
:1086700095970100DF8E0100A88201008786010026
:10868000F3960100979701004FF00309D6F8900088
:10869000B8B196F89430022B13D91E4907F03DFF6C
:1086A0000A222146D6F8900007F0AAFF1A49D6F808
:1086B000900007F032FF0A224946D6F8900007F0F2
:1086C000A1FFD6F89000012386F88C3048B196F8C7
:1086D000943033B1114907F020FFD6F8900007F02D
:1086E0002BFF08A8FFF734FD48460FB0BDE8F08F18
:1086F0001F46E8E60424E6E60524E4E6B8F1000FA8
:108700007FF4E1AE9DE6002398464FF002091C4637
:1087100097E600BF9C970100A9970100AF97010061
:1087200030B50446406803688DB05B68984706AA78
:108730001D496846FFF736FD08AB069306AA0023DD
:108740006946204607938DF82030FFF74DFE054619
:10875000D4F8900088B194F89430012B0DD91349C6
:1087600007F0DBFE0699D4F8900007F0F5FE7DB91E
:108770000F49D4F8900007F0EFFE06A8FFF7E8FCD9
:108780006846FFF7E5FCB5FA85F040090DB030BD4D
:10879000012DD4F8900001D10649ECE7032D0CBF60
:1087A00005490649E7E700BF73970100C09601003D
:1087B000DA960100E8960100F99601000C97010095
:1087C00008B42DE9F3431646044609AB306853F864
:1087D000042B0193884604F10C050021716001709F
:1087E000802128460CF0EAFED4F89000B0B107F0E2
:1087F000A3FE2449D4F8900007F08FFED4F89070BF
:108800003B682846D3F804900CF0D8FD2946024670
:108810003846C847D4F8900007F08EFE28466768AF
:108820000CF0CCFD29460246384607F02BF83246BC
:1088300041462046FFF7D8FD0546D4F8900068B1C0
:10884000114907F06AFE3168D4F8900007F084FE01
:1088500065B90E49D4F8900007F07EFEB5FA85F0B0
:10886000400902B0BDE8F04301B07047012DD4F8D3
:10887000900001D10649EFE7032D0CBF05490649D9
:10888000EAE700BF5D97010067970100DA960100F3
:10889000E8960100F99601000C9701002DE9F043DC
:1088A0000446406891B01646002834D02378002B47
:1088B00031D10368194DDB69DFF86C90DFF86C800B
:1088C000174F98470AAA174904A8FFF76BFC60687E
:1088D0000368DB6898474FF4FA72AA602378A3B95B
:1088E000002E12DD03AA49460AA8FFF75BFC3B46AF
:1088F00004AA0AA9CDF800800848FFF761FF20709C
:108900000AA8FFF725FC013EE8E742F2107304A82D
:10891000AB60FFF71DFC11B0BDE8F083F40600204A
:10892000C7A50100A88201003A9701004A970100FB
:10893000074B084858600022012142F210701A705B
:108940005970986083F88C1083F89420704700BFAA
:10895000F4060020181500200148FFF7B7BB00BF40
:10896000F406002008B50368002B02DA09480AF073
:10897000B4FF8B4208D949008B4205D20029B6BF0B
:108980006FF00043016003600068BDE808400130FB
:108990000AF08FBFD297010073B542F210730360E3
:1089A00000F5F8730025C0F8E831012600F50273E0
:1089B000044680F8E451C0F8EC5180F8F051C0F85A
:1089C0000032C0F8045280F8085204230096A8220E
:1089D000C02100F5067007F015FC33460096A8226A
:1089E000C02104F50C7007F00DFCFF2300951A461A
:1089F000194604F5127007F005FC204602B070BD60
:108A000070B50B4600F10802026053F8084BA34210
:108A10000FD11C4601F1180554F8046B42F8046BA1
:108A2000AC42F9D14A6842600B6000234B600B7284
:108A300070BD04608A688260F4E72DE9F74303465D
:108A40004668044653F8080B98428846174602EBDE
:108A500006052CD0A1688D420DD827B13A46414673
:108A60003044FFF791FB23686560002220465A5589
:108A700003B0BDE8F083019501A8FFF773FF8146BD
:108A80001EB132462168FFF77FFBB8F1000F06D018
:108A90002FB13A46414609EB0600FFF775FB204629
:108AA000FFF756FB019BC4F80090A360DBE70F2D96
:108AB000D3D901950F21DFE708B5D1E90012FFF7FF
:108AC000BCFF08BD38B5044608460D460CF076FCE0
:108AD00061686FF000435B1A8342024602D2044889
:108AE0000AF0FBFE29462046FFF7A7FF38BD00BF6E
:108AF0002499010008B4F0B50D46114682B0044631
:108B000001F10E0020F0070000AF07F11C03ADEBF0
:108B1000000D6E4653F8042B3B603046A84704F125
:108B200008030F2805462360786006D90021381D08
:108B3000FFF718FF7B682060A3602A463146206853
:108B4000FFF722FB7B68226863600021204608371C
:108B5000D154BD46BDE8F04001B0704713B5054B98
:108B60000091102204490446FFF7C4FF204602B0DA
:108B700010BD00BF39990100BD55010073B5054610
:108B80000E4619B912B10D480AF0A4FE941B0F2C21
:108B9000019406D9002101A8FFF7E4FE019B28609B
:108BA000AB60224631462868FFF7EEFA019B2A683F
:108BB0006B600021D15402B070BD00BFEA97010084
:108BC00038B500F10803044603600D4649B1084674
:108BD0000CF0F4FB2A1820462946FFF7CFFF204669
:108BE00038BD4FF0FF32F6E72DE9F043DFF8109380
:108BF000C14CB7B00546884606A8C0491E46174670
:108C0000FFF7DEFF032248464FF4E131FFF746FE4F
:108C10000021404607F036FC017830A8FFF79EFFA0
:108C2000214630A8FFF74EFF01460CA8FFF7E8FEEB
:108C300030A8FFF78DFA0121404607F023FC0178A8
:108C40002AA8FFF78BFF21462AA8FFF73BFF014622
:108C500030A8FFF7D5FE30A90CA8FFF72DFF30A8EC
:108C6000FFF776FA2AA8FFF773FA0221404607F0C9
:108C700009FC01782AA8FFF771FF21462AA8FFF70F
:108C800021FF014630A8FFF7BBFE30A90CA8FFF773
:108C900013FF30A8FFF75CFA2AA8FFF759FA03215F
:108CA000404607F0EFFB017830A8FFF757FF30A9E7
:108CB0000CA8FFF701FF30A8FFF74AFA0021384659
:108CC00007F0E0FB017830A8FFF748FF214630A805
:108CD000FFF7F8FE014612A8FFF792FE30A8FFF753
:108CE00037FA0121384607F0CDFB01782AA8FFF7B3
:108CF00035FF21462AA8FFF7E5FE014630A8FFF719
:108D00007FFE30A912A8FFF7D7FE30A8FFF720FAA0
:108D10002AA8FFF71DFA0221384607F0B3FB0178B5
:108D20002AA8FFF71BFF21462AA8FFF7CBFE014622
:108D300030A8FFF765FE30A912A8FFF7BDFE30A8E6
:108D4000FFF706FA2AA8FFF703FA0321384607F0CF
:108D500099FB017830A8FFF701FF30A912A8FFF7AF
:108D6000ABFE30A8FFF7F4F90021304607F08AFB8C
:108D7000017830A8FFF7F2FE214630A8FFF7A2FEE7
:108D8000014618A8FFF73CFE30A8FFF7E1F90121E2
:108D9000304607F077FB01782AA8FFF7DFFE21466F
:108DA0002AA8FFF78FFE014630A8FFF729FE30A959
:108DB00018A8FFF781FE30A8FFF7CAF92AA8FFF725
:108DC000C7F90221304607F05DFB01782AA8FFF7BA
:108DD000C5FE21462AA8FFF775FE014630A8FFF719
:108DE0000FFE30A918A8FFF767FE30A8FFF7B0F90B
:108DF0002AA8FFF7ADF90321304607F043FB0178BD
:108E000030A8FFF7ABFE30A918A8FFF755FE30A831
:108E1000FFF79EF900213E9807F034FB017830A857
:108E2000FFF79CFE214630A8FFF74CFE01461EA826
:108E3000FFF7E6FD30A8FFF78BF901213E9807F018
:108E400021FB01782AA8FFF789FE21462AA8FFF70F
:108E500039FE014630A8FFF7D3FD30A91EA8FFF761
:108E60002BFE30A8FFF774F92AA8FFF771F9022149
:108E70003E9807F007FB01782AA8FFF76FFE21460E
:108E80002AA8FFF71FFE014630A8FFF7B9FD30A959
:108E90001EA8FFF711FE30A8FFF75AF92AA8FFF71E
:108EA00057F903213E9807F0EDFA017830A8FFF753
:108EB00055FE30A91EA8FFF7FFFD30A8FFF748F9BF
:108EC00000213F9807F0DEFA017830A8FFF746FE50
:108ED000214630A8FFF7F6FD014624A8FFF790FDD4
:108EE00030A8FFF735F901213F9807F0CBFA017858
:108EF0002AA8FFF733FE05E0D6750100A88201001D
:108F0000F406002021462AA8FFF7DCFD014630A820
:108F1000FFF776FD30A924A8FFF7CEFD30A8FFF7B4
:108F200017F92AA8FFF714F902213F9807F0AAFAC7
:108F300001782AA8FFF712FE21462AA8FFF7C2FDF2
:108F4000014630A8FFF75CFD30A924A8FFF7B4FD67
:108F500030A8FFF7FDF82AA8FFF7FAF803213F9899
:108F600007F090FA017830A8FFF7F8FD30A924A89F
:108F7000FFF7A2FD30A8FFF7EBF808F104030FCBD1
:108F800005F5077484E80F0098F8143085F82C3242
:108F90003B1D0FCB05F50D7484E80F003B7D85F874
:108FA0004432331D0FCB05F5137484E80F00337D75
:108FB00085F85C32204930A8FFF702FE0C9B189A16
:108FC0000193CDE902321D4B009306AA1C4B30A938
:108FD0004846FFF7F5FB30A8FFF7BAF8194930A863
:108FE000FFF7EEFD249B05931E9B0493189B0393B0
:108FF000129B02930C9B0193134B009306AA134BF5
:1090000030A94846FFF7DCFB30A8FFF7A1F824A8F9
:10901000FFF79EF81EA8FFF79BF818A8FFF798F82F
:1090200012A8FFF795F80CA8FFF792F806A8FFF72B
:109030008FF837B0BDE8F0837C9801009898010064
:109040008B980100A9980100C4980100B198010013
:109050002DE9F041ACB000241F46FF2306468846A8
:10906000154600941A46194602A807F0CBF8234685
:1090700022460094214608A807F0C4F841460EA8ED
:10908000FBF754F8394614A8FBF750F820AC02A9B6
:109090001AA8FBF74BF82946204626ADFBF746F801
:1090A00008A92846FBF742F8CDE900451AAB14AAF7
:1090B0000EA93046FFF798FD2CB0BDE8F081FFFF08
:1090C00070B503228EB005464FF4E1312848FFF712
:1090D000E5FB0024274902A8FFF772FD234622463C
:1090E00021460094284607F08DF8234908A8FFF789
:1090F00067FD224B009302AA214B1D4808A9FFF7E8
:109100005FFB064608A8FFF723F8D6B102980BF0DC
:109110006AFA01281BD11B4908A8FFF751FD1A4B19
:1091200000930194194B124802AA08A9FFF748FBC3
:10913000044608A8FFF70CF81CB10299284607F06E
:1091400083F902A8FFF704F828460EB070BD029814
:109150000BF049FA0228F4D10D4908A8FFF730FDB9
:109160000C4B034802AA08A9FFF72AFBE0E700BF5F
:10917000F4060020A8820100149801001F98010045
:10918000C7A50100129901001A9901004698010033
:10919000F99801000499010070B590B00C4604A83C
:1091A0001E491E461546FFF70BFD03224FF4E13121
:1091B0001B48FFF773FB1B490AA8FFF701FD0223B9
:1091C0000193194B009304AA184B15480AA9FFF7FD
:1091D000F7FA0AA8FEF7BCFF15490AA8FFF7F0FC4A
:1091E000144B01940093CDE90256134B0C4804AA8A
:1091F0000AA9FFF7E5FA04460AA8FEF7A9FF24B179
:1092000004980BF0F0F9012806D0092404A8FEF711
:109210009FFF204610B070BD0724F7E7A882010029
:10922000F4060020149801004D98010046980100B2
:10923000CE980100E9980100DC9801000123FFF7B6
:10924000ABBFFFFF0148FFF7A7BB00BF8C070020A3
:1092500010B5054C04F50070FEF77AFF04F5F470C4
:10926000FEF776FF10BD00BF8C070020002070477E
:109270000069013018BF0120704708B503685B6BB7
:10928000984780F00100C0B208BD13B502AB026878
:1092900003F8011D546819460122A04702B010BD11
:1092A00007B5036801225B6A0DF1070198470128A1
:1092B0000CBF9DF807004FF0FF3003B05DF804FBD2
:1092C00000690B69C31A5842584170477047002023
:1092D000704740F20C41C0680AF0DABA10B51021AC
:1092E00004460AF0D5FA204610BD08B5FFF7F6FF90
:1092F00008BD7FB503680446164601A81D6A06F03E
:10930000E3FF324601992046A847044601A807F02A
:10931000D7F9204604B070BD036810B504469B68B9
:109320009847A368013BA3602BB923682046DB68FC
:10933000BDE81040184710BD00F1080370B50446A1
:1093400003600E46B1B108460CF038F80F28054608
:1093500004D901300AF0ADFAA5602060012D206823
:109360000BD196F9003003702368656000225A55CE
:10937000204670BD04480AF0ADFA002DF4D02A460C
:1093800031460BF0E4F9EFE7EA970100036813B9FF
:1093900062B6BFF36F8F704713B5EFF3108300937E
:1093A0000123019372B6019B5A1E019233B10468E6
:1093B0006846FFF7EBFF204602B010BD6846FFF796
:1093C000E5FFF8E713B50446EFF31083009301239C
:1093D000019372B6019B5A1E0192684633B1FFF7A2
:1093E000D5FF601CC0F3090002B010BDFFF7CEFF2F
:1093F000FAE7FFFF0023C0E905334FF47A72C0E9B2
:109400000132C3610B6903618B698361CB69044AD3
:1094100002601BB15A6801325A60C361704700BFD5
:10942000D49A010010B50446006828B14368013B96
:1094300043600BB9FFF770FF204610BD10B5044B19
:10944000044640F81C3BFFF7EDFF204610BD00BF6F
:10945000D49A010030B50369002B8FB0044607DBB6
:109460000368DB6A984718B9236820469B6A9847C7
:109470002369013321D1124902A8FFF75DFF0322BE
:109480004FF4E1310F48FFF709FA0F4908A8FFF739
:1094900053FF0E4B009302AA0D4B0A4808A9FFF791
:1094A0008FF9054608A8FEF753FE1DB102980BF090
:1094B0009AF8206102A8FEF74BFE0FB030BD00BF46
:1094C000A8820100F4060020AD9A0100BB9A0100B9
:1094D000C7A5010070B5044692B00D461646FFF7C9
:1094E000B9FF2369002B25DB1E4906A8FFF724FFDF
:1094F00003224FF4E1311C48FFF7D0F96369DBB177
:109500001A490CA8FFF718FF63690295CDE90363B8
:1095100023690193164B009306AA164B12480CA917
:10952000FFF74EF904460CA8FEF712FE06A8A4B9F0
:10953000FEF70EFE002013E00F490CA8FFF7FCFE1B
:10954000CDE90256236901930C4B009306AA0C4BFC
:1095500005480CA9FFF734F9E4E7FEF7F9FD01200F
:1095600012B070BDA8820100F4060020EC99010041
:109570000C9A0100FC9901001E9A01003F9A01001B
:10958000329A010070B50369002B90B005460E4673
:1095900014462ADB164904A8FFF7CEFE03224FF437
:1095A000E1311448FFF77AF913490AA8FFF7C4FE1E
:1095B00002942B690193114B009304AA104B0D48A0
:1095C0000AA9FEF78FFD0AA8FEF7C2FD2246314622
:1095D0000848FFF7A5F8054604A825B1FEF7B8FD31
:1095E000204610B070BDFEF7B3FD0024F8E700BFC1
:1095F000A8820100F4060020C6990100DD9901004F
:10960000D399010030B50369002B8FB0054635DBD7
:1096100084695CB104F58160FFF7BEFE002808DDB7
:10962000A86900F58160FFF7B7FE044620460FB039
:1096300030BD154902A8FFF77FFE03224FF4E13148
:109640001248FFF72BF9124908A8FFF775FE2B699E
:109650000193104B009302AA0F4B0C4808A9FFF787
:10966000AFF8044608A8FEF773FD4CB102980AF063
:10967000BAFF041E04DA02A8FEF76AFD0024D5E74B
:1096800002A8FEF765FDD1E7A8820100F4060020DC
:109690006D9A0100799A0100469801002DE9F04F7A
:1096A0000369002B93B00746C0F287808369002BC3
:1096B00000F08380424906A8FFF73EFEBA69EFF347
:1096C00010830C9301230D9372B60D9B591E0D91BF
:1096D0001BB1D2F80854C5F580653A4E0CA8FFF7C7
:1096E00055FE0024032230464FF4E131FFF7D6F84F
:1096F000013D86F88C4034490CA8FFF71DFE029509
:109700003B690193314B00933046314B06AA0CA9BB
:10971000FFF756F806460CA8FEF71AFD002E41D0BA
:10972000079B002B47D04FF00109CA46AC4239D203
:10973000079B9C4236D2069BBE6913F804B0EFF338
:109740001083CDE9043972B6059B5A1E059223B3E6
:10975000EFF31083CDE90C3A72B60D9B5A1E0D92B1
:109760003BB1D6F80834A3F58063D3F1000848EB89
:1097700003080CA8FFF70AFEB8F1000FE4D1D6F8F1
:10978000000406F800B0FFF71DFED6F80834C6F84E
:1097900000040133C6F80834D6E704A8FFF7F6FD45
:1097A0000134C3E74FF0FF3406A8FEF7D1FC204692
:1097B00013B0BDE8F08F1C46F6E74FF0FF34F6E734
:1097C000A8820100F406002092990100A2990100EC
:1097D000D399010038B5044680690D4650B100F5B3
:1097E0008160FFF7D9FDA84204D22046BDE8384089
:1097F000FFF754BF38BD2DE9F74F07468A4611469B
:109800001646FFF7E7FF3B69002B33DBBC6994B3D7
:109810004FF0010B56440024D946B2452BD0BBF182
:10982000000F28D0BD69D5F808344BB995F80080F1
:109830009B460AF8018BBBF1000FEED00134ECE738
:10984000EFF31083CDE9003972B6019B5A1E0192E5
:1098500063B1D5F8040415F80080FFF7B3FDD5F81F
:109860000834C5F80404013BC5F808346846FFF71E
:109870008DFDDEE70024204603B0BDE8F08F10B573
:1098800004460121FFF7A6FF2369002B0ADBA36929
:1098900043B1D3F808241AB1D3F80424985C10BD5E
:1098A000FF20FCE74FF0FF30F9E7FFFF10B5036939
:1098B000002B8EB004461DDB0F4902A8FFF73CFDCC
:1098C00003224FF4E1310D48FEF7E8FF0C4908A8E8
:1098D000FFF732FD236901930A4B009302AA0A4B5A
:1098E000064808A9FEF76CFF08A8FEF731FC02A89D
:1098F000FEF72EFC0EB010BDA8820100F406002079
:10990000B4990100BC9901004698010010B50369A3
:10991000002B8EB0044620DB154902A8FFF70CFD92
:1099200003224FF4E1311348FEF7B8FF124908A8AB
:10993000FFF702FD23690193104B009302AA104B1D
:109940000C4808A9FEF73CFF08A8FEF701FC4FF001
:10995000FF33236102A8FEF7FBFBA3690022C3F8D3
:109960000024C3F80424C3F808240EB010BD00BFBF
:10997000A8820100F4060020749901008299010078
:109980004698010010B503688EB01B6904469847DD
:10999000002829DC2369002B28DB154902A8FFF7E2
:1099A000CBFC03224FF4E1311248FEF777FF124956
:1099B00008A8FFF7C1FC23690193104B009302AA8A
:1099C0000F4B0C4808A9FEF7FBFE044608A8FEF75B
:1099D000BFFB1CB102980AF006FEC4B202A8FEF753
:1099E000B7FB20460EB010BD0124FAE70024F8E7CB
:1099F000A8820100F4060020879A0100999A0100CC
:109A00004698010030B50C4695B0054602A806F010
:109A1000F1FB2369002B34DB1E4908A8FFF78CFCFF
:109A200003224FF4E1311C48FEF738FF1B490EA812
:109A3000FFF782FC23690193194B009308AA194B85
:109A400015480EA9FEF7BCFE04460EA8FEF780FBE3
:109A5000A4B108992C4602A806F0F6FC124B44F873
:109A6000043B03AB0FCB84E80F009DF81C302B7533
:109A700008A8FEF76DFB284615B030BD08A8FEF714
:109A800067FB002300931A461946284606F0BAFBE6
:109A9000F1E700BFA8820100F4060020559A0100FA
:109AA000609A010046980100BC9E010010B5036950
:109AB000002B8EB0044626DB144902A8FFF73CFCBD
:109AC00003224FF4E1311248FEF7E8FE114908A8DD
:109AD000FFF732FC236901930F4B009302AA0F4B4F
